:020000040800F2
:10000000200C002079020008852E000871260008C7
:100010001D2E00081D210008BD4200080000000040
:100020000000000000000000000000007936000819
:10003000212100080000000015320008E337000805
:10004000930200089302000893020008930200083C
:10005000930200089302000893020008930200082C
:10006000930200089302000893020008930200081C
:10007000930200089302000893020008930200080C
:1000800093020008930200089302000893020008FC
:1000900093020008930200089302000893020008EC
:1000A00093020008930200089302000893020008DC
:1000B00045380008553800089302000893020008EC
:1000C00093020008930200089302000893020008BC
:1000D000930200089302000893020008CD41000833
:1000E000930200089302000893020008930200089C
:1000F000930200089302000893020008930200088C
:100100009302000893020008B93A0008930200081D
:10011000930200089302000893020008930200086B
:10012000930200089302000893020008930200085B
:1001300000F002F800F090F80AA090E8000C824469
:100140008344AAF10107DA4501D100F085F8AFF246
:10015000090EBAE80F0013F0010F18BFFB1A43F0A5
:10016000010318475876000078760000103A24BF43
:1001700078C878C1FAD8520724BF30C830C144BF0C
:1001800004680C607047000000230024002500264E
:10019000103A28BF78C1FBD8520728BF30C148BFEA
:1001A0000B6070476E2900F06581702900F0A7820E
:1001B000662906F08A81652906F08781672906F09D
:1001C0008481612906F0838103681B0A28BF41F0FE
:1001D0008001692900F01281642900F00F817529DE
:1001E00000F00C816F2900F03582782900F07382CD
:1001F000E92900F0CF81E42900F0CC81F52900F055
:10020000C981EF2900F03282F82900F07282036878
:10021000DB0928BF41F08001632900F0778773294B
:1002200000F07C87E32900F08787F32900F08C87B2
:10023000002070471FB500F0DDFF04000020002102
:1002400005F0C2F8401C60600020002105F0A6F80F
:10025000E0601FBD10B510BD00F09EFF1146FFF716
:10026000E9FF04F0BBFF01F077F803B4FFF7F2FFFA
:1002700003BC01F0B7F8000009488047094800476F
:10028000FEE7FEE7FEE7FEE7FEE7FEE7FEE7FEE746
:10029000FEE7FEE704480549054A064B70470000A3
:1002A000E53700083101000820060020200C00205E
:1002B00020080020200800201CB50C46064B7B447B
:1002C00069460090204600F0EEF80446002069469A
:1002D00000F0FCF820461CBD0B02000010B5431CCA
:1002E00002E010F8011B71B18107FAD14FF0013221
:1002F00002C88C1A8C4314EAC211F9D0C01A0A063B
:1003000003D0C01E10BDC01A10BD0A0401D0801E4B
:1003100010BD0902FCD0401E10BD704770477047E9
:1003200010B500F0BBFA006810BD10B5044600F02F
:10033000B5FA046010BD70B5044685690068C10651
:1003400001D5302600E02026C00707D070BDD4E9D3
:10035000012130469047206A401C20626D1EF6D570
:1003600070BD70B5044685690078C00707D170BDBF
:10037000D4E9012120209047206A401C20626D1E94
:10038000F6D570BD09684A0501D540B27047C90568
:10039000FCD500B2704709684A0501D5C0B2704764
:1003A000C905FCD580B2704770B50C460546012AD8
:1003B00005D02878800600D5EA69002302E00123F1
:1003C00005E05B1C934202D2E05C0028F9D1A869E9
:1003D000E618C01AA861286A184428622846FFF760
:1003E000AAFF04E0D5E9012114F8010B9047B442BB
:1003F000F8D32846FFF7B5FF70BD00002DE9F041A6
:100400000646002410687529314616A510D0FFF75E
:10041000B9FF002802DA404213A507E031688A07D5
:1004200001D512A502E0490704D511A5012401E078
:10043000FFF7B1FF00210A2206F1240709E0B0FB13
:10044000F2FCB0FBF2F302FB1C003030785418468B
:10045000491C0028F3D123462A463046BDE8F04126
:1004600000F065BA000000002D0000002B00000025
:100470002000000011680268006A530501D5087069
:100480000AE0D30501D5088006E0130603D5C2179C
:10049000C1E9000200E008600120704701694A1CC0
:1004A00002610878704700B58FB0CDE901310021B5
:1004B000059105497944CDE903101146684600F0DD
:1004C00029F90FB000BD0000E5FFFFFF0A6802F840
:1004D000010B0A60704700002DE9FF5F15468A4650
:1004E0000446DFF8AC80F8440027D8E900103E4607
:1004F000CDE9001010E03AF816106A4602A800F0A4
:1005000027FE411C07D02178890603D5E2693918F6
:1005100091420DD80744761C2078800602D5E06908
:10052000B84205DDAE42E6DB3AF816000028E2D11B
:10053000A069C01BA0612046FFF7FDFED8E90010AE
:10054000CDE90010002017E03AF818106A4602A81A
:1005500000F0FEFDB0F1FF3F81460BD000250DF10C
:10056000080B05E0D4E901211BF8050090476D1C3C
:100570004D45F7D308F10100B0428046E4DB206A24
:10058000384420622046FFF7ECFEBDE8FF9F0000E4
:100590000E7000002DE9F0418046D21D22F00702C6
:1005A0000025D2E90002F52915A614D0011E72F12A
:1005B000000106DA0023D0EB030063EB020211A670
:1005C00008E0D8F800108B0701D50FA602E0490714
:1005D00001D50EA601251146002408F1240704E0E8
:1005E00000F060F930323A55641C50EA0102F7D14C
:1005F0002B46324621464046BDE8F04100F097B90F
:10060000000000002D0000002B0000002000000072
:1006100030B4002100F1240408E002F00705D208FC
:10062000303542EA4372DB086554491C52EA03053F
:10063000F3D10468002310A2250708D504F0200494
:100640000C4304D0C46901230CA2641EC46130BCF5
:1006500000F06DB910B5044621461068FFF79BFE07
:1006600002462046BDE810400023D1E7D21D22F00B
:100670000701D1E90023CBE70000000030000000B3
:10068000F0B40D460188090502D5214C7C4402E0F6
:100690001F4C7C440E34002100F1240608E002F0D7
:1006A0000F071209E75D42EA03721B097754491CE0
:1006B00052EA0307F3D102780023120704D5702D04
:1006C00006D009B1022311342246F0BC00F02FB944
:1006D00001231034F8E770B504460D462146106832
:1006E000FFF759FE024629462046BDE87040002328
:1006F000C6E7D21D22F00703D3E90023C0E7036851
:10070000126843F0200303600823C3610023B7E7A6
:10071000706E00002DE9F05F894604464FF0000A34
:10072000DFF874B1FB44C0F820A02046E168884798
:10073000002874D0252806D0D4E901219047206AEA
:10074000401C2062F1E700265F462046E1688847AA
:100750002028054607DB312D05D2781910F8200C2A
:1007600008B10643F1E7B00701D526F00406C4F846
:100770001CA00027C4F818A02A2D09D0284604F090
:100780001DF938B304EB8708303DC8F8185019E05C
:1007900059F8041B204604EB87029161E168884701
:1007A000012F054618D1E069002820DA26F020063E
:1007B0001DE0D8F8180000EB800005EB4000303851
:1007C000C8F818002046E1688847054604F0F6F8A6
:1007D0000028EED1012F0AD02E2D08D12046E16845
:1007E00088477F1C0546022F46F02006C4DBA0691F
:1007F000002803DA404246F00106A061F00701D06C
:1008000026F010066C2D0BD0682D09D04C2D39D058
:100810006A2D35D0742D35D07A2D33D016E038E0DE
:10082000E1682F4620468847B842054609D16C2F1B
:1008300026D04FF48060E16806432046884705468D
:1008400004E06C2F1AD04FF4807006430DB3A5F16D
:100850004100192802D8203546F400664A46294648
:10086000204626604E46FFF79DFC80B101280BD044
:10087000F61D26F0070000F1080956E74020E4E7DE
:100880008020D8E70020D6E706F104094DE7284686
:1008900052E7206ABDE8F09F006E000000487047F4
:1008A000BC05002030B5B0F10A024FEA900E71F19C
:1008B00000034EEA817EB0EB0E0061EB91014FEA3E
:1008C000101E4EEA017E10EB0E0041EB11114FEAB3
:1008D000102E4EEA016E10EB0E0041EB11214FEA93
:1008E000104E4EEA014E10EB0E0041EB1141401844
:1008F00041F100014FEAD00040EA41704FEAD101D6
:1009000010EB80054FEA810444EA907444EB010443
:100910006D1944EB0404521BA3414FF0000348BF80
:100920000A3200D530BD401C41F1000130BD2DE937
:10093000F0470D4699469246044600F124080168A6
:10094000880604D5E06921F01001216000E0012053
:10095000A84201DD471B00E00027A1697A1902EBDC
:100960000900081AA0612078C00602D42046FFF7CB
:10097000E2FC002608E0D4E901211AF806009047BD
:10098000206A401C761C20624E45F4DB2078C006AD
:100990000AD52046FFF7CFFC06E0D4E9012130203C
:1009A0009047206A401C2062381EA7F10107F4DC42
:1009B00007E0D4E9012118F805009047206A401C9F
:1009C0002062281EA5F10105F3DC2046FFF7C9FCD3
:1009D0002078000602D50220BDE8F0870120FBE761
:1009E00070472DE9FF4F0C461E464FF0FF378BB086
:1009F000D2E90001DDF860800A908A46C1F30A5509
:100A000005B93D46002108464FF00000BAF1000F3D
:100A100000F4400005DA00EB80004FF4400101EAE9
:100A200050004FEA9059B9F1010F00DDB9460A981C
:100A300050EA4A000ED044F61050A5F2FF35454367
:100A40002F14B8F1000F1ED07542291E1EDDC9F10A
:100A500000021CE0B8F1010F4FF0000001D030217E
:100A600003E0F24305E02154401CB042FBDB30467A
:100A70000022002121540B99C1F80880C1E900200F
:100A80000FB0BDE8F08FBD1B6D1CDEE74A4600DAF3
:100A9000694206A800F0F2FB06AB93E8070003AB3F
:100AA00083E8070050460A9900F0A3FC8DE8070090
:100AB000A0F500501F3800900398002D09DD42F288
:100AC0001F014A46084403A90390684600F002FF4C
:100AD00008E0A0F500504A461F3803A90390684675
:100AE00000F00CFF8DE807000004000C03D04FF06D
:100AF000FF30410800E01046B8F1000F03D000229B
:100B0000009215461EE0751E05D4FFF7CBFE30326D
:100B100062556D1EF9D5B3460122084302D000226A
:100B20007F1C04E02078302801D100227F1E002A9B
:100B3000099786D01DE0112D07DAFFF7B3FE30329A
:100B400062556D1C50EA0102F5D1084302D00098AD
:100B5000C8B10EE00021681E05E0235C625C6354AE
:100B60002254401E491C8142F7DBAB46A81B401EA5
:100B70000990002004F80B000B98099AC0F808802F
:100B8000C0E9002B7CE711264FF0000859E72DE95A
:100B9000F04F88460446D21D22F0070191B0D1E9FA
:100BA0000001CDE90A0103F0B1FB02460B98C00F2A
:100BB00001D02D2007E02068810701D52B2002E01D
:100BC000202101EAC000032A099001D0072A05DB91
:100BD00003464146204600F011FB0BE120788006D9
:100BE00001D5E06900E00620B8F1650F814606D026
:100BF000B8F1660F18D0B8F1670F70D131E000205E
:100C0000B9F1110F009001DB112301E009F101039B
:100C10000AAA01A90CA8FFF7E4FEDDE90C70002682
:100C200009F10105834647E001204B4600904FF053
:100C300000470AAA01A90CA8FFF7D3FEDDE90DB011
:100C40000C995D46002610B909F101000D18B9EBA9
:100C5000050003D4C0F1FF3609F10105A5EB090039
:100C60002BE0B9F1010F01DA4FF001090020B9F1D1
:100C7000110F0090484601DD112300E003460AAA47
:100C800001A90CA8FFF7ADFEDDE90C704D4600266A
:100C90008346207800070AD4AB4500DA5D4601A8F8
:100CA000012D04DD411911F8011C302907D04F45F1
:100CB00002DA17F1040F04DA012082460FE06D1EFC
:100CC000EEE7002F02DCED1B3E4403E0781CA84257
:100CD00000DD7D1CB81B00F1010A4FF000472078B1
:100CE000000703D4AA4501DB4FF0FF3A0021B7F11A
:100CF000004F0DF143088DF8431024D002202B2320
:100D0000002F01DA7F422D230A21021EA0F10100EB
:100D100000DC5FB197FBF1FC97FBF1F201FB1C7C5F
:100D200017460CF1300C08F801CDEEE7A8F10100F0
:100D300003702188090501D5452100E06521A0F156
:100D4000010800F8011C09980FA9A1EB0807FF1D75
:100D500000B10120411901EBEA70A1693844081A79
:100D6000401EA0612078C00602D42046FFF7E3FAB7
:100D7000099828B1D4E901219047206A401C2062DB
:100D80002078C00622D52046FFF7D5FA1EE0002EB7
:100D900004DBB34502DD01A8805D00E03020D4E92A
:100DA00001219047206A401C2062761CAAF10100B4
:100DB0005FEA000A0AD100F01DFAC0680168405CD1
:100DC000D4E901219047206A401C2062281EA5F129
:100DD0000105DCDC07E0D4E9012118F8010B90479C
:100DE000206A401C2062381EA7F10107F3DC204670
:100DF000FFF7B7FA032011B043E600002DE9F04FEA
:100E000004460D46D21D22F0070089B0D0E90092B9
:100E100048461746394603F079FA0246F80F01D0E2
:100E20002D2307E02068810701D52B2302E0202134
:100E300001EAC0038DF820300BB1012000E0002052
:100E4000032A824601D0072A04DB2946204600F007
:100E5000D5F93DE12078800601D40D2500E0E56953
:100E6000C7F30A560D2D49DA00214FEA175B0846F1
:100E70004FF00000002F00F4400007DA00EB800084
:100E80004FF4400100EBD07001EA600081150129A8
:100E900001DD4FF0FF3100224FEA850CBCF1180F45
:100EA00006D31346ACF118004FF08052C24003E065
:100EB0004FF4801323FA0CF30CF10C0CBCF1200F4F
:100EC00004D3ACF1200C09FA0CF001E007FA0CF0A5
:100ED00000294FF0004801DD18B90FE00ED1404560
:100EE0000CD319EB02095F4121B9404502D19F4360
:100EF00029EA0209BBEB175F00D0761C20880005A9
:100F000002D57B48784402E079487844193808AA29
:100F1000302302F80A30037C0AF10101002E0AF1A5
:100F2000020A53546A4602DC4FF0300101E04FF0F0
:100F300031014FF001088DF8001002D0A6F2FF3603
:100F400003E059EA470100D06A4E002D02DC217807
:100F5000090704D54FF002082E218DF80110C44670
:100F600000210BE0C7F303433F01C35C491C6D1E26
:100F700002F80830052908F1010801DA002DF1DC3A
:100F800000210CE000EB1973491C1B786D1E082929
:100F900002F808304FEA091908F1010801DA002DBA
:100FA000F0DC2178890602D514E0A8F10108E045BB
:100FB00005DD02EB080111F8011C3029F5D0B8F16C
:100FC000000F07DD02EB080111F8011C2E2901D1E9
:100FD000A8F10108002D05DD3E2102F808106D1E64
:100FE00008F10108407C002E02F8080008F1010811
:100FF00004DA2D20764202F8080002E02B2002F8E5
:1010000008000A214FF47A70864208F101080BDBD0
:1010100096FBF0F3303302F8083096FBF0F308F15A
:10102000010800FB136601E0642E0CDB642096FBD4
:10103000F0F3303302F8083096FBF0F308F10108C2
:1010400000FB136601E00A2E06DB96FBF1F0303060
:1010500002F8080008F1010896FBF1F001FB1060AE
:10106000303002F80800A16908F1010808EB050218
:1010700002EB0A00081AA0612078C00602D42046BC
:10108000FFF759F9216A08AE01EB0A00206204E07B
:10109000D4E9012116F8010B9047BAF1010AF7D201
:1010A0002078C00602D52046FFF745F96E4609E0D4
:1010B00016F8010B3E280FD0D4E901219047206A91
:1010C000401C2062B8F10108F2D22046FFF749F92E
:1010D00009B00320BDE8F08F206A2844206203E0B5
:1010E000D4E90121302090476D1EEBD3F8E70000D2
:1010F0000B68000002FCFFFF10B5436913B1AFF3AA
:10110000008001E0FFF750F9012010BD127800F1D6
:1011100024010A7000224A700122EDE711684FF0A5
:10112000FF32E9E710B5436913B1AFF3008001E086
:10113000FFF7D2F9012010BD128800F1240182844A
:101140000022C2840122EDE711684FF0FF32E9E787
:1011500070B516460C46054600F044F8036893F84F
:101160000101012806D0FF2C0FD8185D68B10120BD
:101170002C7070BDD3F807013246214603F20713E5
:1011800003442846BDE8704018474FF0FF3070BD5B
:1011900000487047BC0500207546FFF7F9FFAE46D2
:1011A00005006946534620F00700854618B020B573
:1011B000FFF770F8BDE820404FF000064FF0000741
:1011C0004FF000084FF0000B21F00701AC46ACE8EF
:1011D000C009ACE8C009ACE8C009ACE8C0098D465C
:1011E0007047000010B500F005F8001D10BD00BFED
:1011F000D941000000487047DC0500202DE9F0418E
:101200001F46044603260168072A01F4006004DB38
:1012100008B116A505E016A503E008B115A500E084
:1012200015A521F010002060A069C01EA0610FB1BB
:10123000401EA0612046FFF77EF84FB1D4E901219E
:1012400038469047206A401C2062C01C206206E09D
:10125000206AFAE7D4E9012115F8010B9047761EC0
:10126000F8D22046FFF77DF8BDE8F0814E414E00F0
:101270006E616E00494E4600696E66002DE9F047CA
:10128000814616468AB0334878440DC88DE80D0073
:1012900030487844801C03AC0DC884E80D0041F64A
:1012A0009B300844372190FBF1F290FBF1F5A5F15A
:1012B000800501FB12041B3C02D56442012000E0C2
:1012C0000020DFF890A080460027FA44AAF1BE0A69
:1012D0000DE0E00709D03246684607EB47010AEB0C
:1012E000810100F00BFB8DE8070064107F1C002CCF
:1012F000EFD1184F7F44AC3F18E0E80714D007EB5C
:1013000004100DF1180A90E80E008AE80E00C0687B
:10131000F04201D198190890324606A903A800F0BE
:10132000EDFA03AB83E807006D10641C002DE4D1D7
:1013300032466946B8F1000F03A802D000F0CAFA9D
:1013400001E000F0DBFAC9E90001C9F808200AB0A1
:10135000BDE8F087186500000446AFF30080204622
:10136000FEF783FF4FF0013C50F8042B51F8043B8B
:101370009A4221D1A2EB0C03934313EACC1317D169
:1013800050F8042B51F8043B9A4215D1A2EB0C0300
:10139000934313EACC130BD150F8042B51F8043BC0
:1013A0009A4209D1A2EB0C03934313EACC13DBD08E
:1013B0004FF00000704700BFD01A01BAB1FA81F1B6
:1013C00001F0180122FA01F0CB40C1F12001DBB29B
:1013D000C0B2C01A2CFA01F3D11A914311EAC31119
:1013E000E6D1704701491820ABBEFEE72600020097
:1013F00070475FEA400C08BF91F0000F4FEA8C2362
:101400004FEAC12243EA51514FEA1C5018BF00F580
:10141000F0404FEA300018BF41F000415FEA6C5CD9
:1014200000F02980BCF1FF3F08BF40F080407047CA
:10143000130C06BF12044FF0100C4FF0000C130EEB
:1014400004BF12020CF1080C130F04BF12010CF1BF
:10145000040C930F04BF92000CF1020CD30F04BFD5
:1014600052000CF1010C11464FF00002A0F11F00D8
:10147000A0EB0C00704711F0004F08BF704731F02F
:1014800000413FF4D5AF0B0C06BF09044FF0100C20
:101490004FF0000C0B0E04BF09020CF1080C0B0FEF
:1014A00004BF09010CF1040C8B0F04BF89000CF17F
:1014B000020CCB0F04BF49000CF1010CCCF120034E
:1014C000A0EB0C0022FA03F302FA0CF241EA03014A
:1014D00000F10100704720F07F4C80EA030023F008
:1014E0007F47ACEB070303F57C5300F0004003F1AA
:1014F000FF032DE980494FEA154B09B44FEA144325
:1015000025EA0B4E24EA03480FF2042606EB1327C4
:1015100049083E785FEA320203FB0667C7F5000719
:1015200007FB06F64FEA54374FEAD64606F10206A5
:1015300007FB066CCCF1005C4FEA1C472CEA074C19
:1015400007FB06F40CFB06F504EB15464FEA96166E
:1015500034BF00204FF000404FEAD13706FB07FCB4
:101560004FEA1C4C0CFB0BF7D21B03FB0CF761EB97
:1015700007010CFB0EF7B0EB074072EB17420CFBB8
:1015800008F734BFA2EB0742B2EB074261EB174109
:101590004FEA0C444FEA910706FB07FC4FEA1C4C4C
:1015A0000CFB0BF7B0EBC74072EB573203FB0CF7A9
:1015B00034BFA2EBC742B2EBC74261EB57310CFB21
:1015C0000EF7B0EBC70072EB57720CFB08F734BF95
:1015D000A2EBC702B2EBC70261EB5771039F4FEA60
:1015E000816141EA921104EBCC044FEAD1374FEA12
:1015F000826206FB07FC42EA90124FEA80604FEAE3
:101600001C4C0CFB0BF7D21B03FB0CF761EB070127
:101610000CFB0EF7B0EB074072EB17420CFB08F720
:1016200034BFA2EB0742B2EB074261EB17414FEA2E
:101630008C554FEA910704EB9C2406FB07FC4FEA0C
:101640001C4C0CFB0BF7B0EBC74072EB573203FBA3
:101650000CF734BFA2EBC742B2EBC74261EB573184
:101660000CFB0EF7B0EBC70072EB57720CFB08F7E0
:1016700034BFA2EBC702B2EBC70261EB577115EBA7
:101680004C254FEA816141EA92114FEA82624FEAAA
:10169000D13742EA901206FB07FC44F100044FEAFE
:1016A00080604FEA1C4C0CFB0BF7D21B03FB0CF7C2
:1016B00061EB07010CFB0EF7B0EB074072EB174232
:1016C0000CFB08F734BFA2EB0742B2EB074261EB19
:1016D000174115EB1C154FEA813141EA92414FEA5F
:1016E000823242EA90424FEA80304FEA0C7644F16F
:1016F000000448EA03434EEA0B484FF0000EB2EBF9
:10170000080C71EB030724BF624639464EEB0E0E00
:101710004FF0000B0018524149414BEB0B0BB2EB61
:10172000080C71EB03077BF1000B24BF62463946BE
:101730004EEB0E0E4FF0000B0018524149414BEB9F
:101740000B0BB2EB080C71EB03077BF1000B24BF12
:10175000624639464EEB0E0E51EA020718BF46F0BC
:10176000010616EB0E7655F1000254F1000103D587
:10177000BDE88901BDE80088BDE88901BDE80048F1
:10178000B619524141EB0101A3F10103704780807A
:101790007F7E7D7C7B7A79787776767574737271CB
:1017A00071706F6E6E6D6C6C6B6A6A696868676683
:1017B00066656464636362616160605F5F5E5E5D15
:1017C0005D5C5C5B5B5A5A59595858575756565589
:1017D00055555454535352525251515050504F4FEB
:1017E0004F4E4E4D4D4D4C4C4C4B4B4B4A4A4A493B
:1017F000494948484847474747464646454545447E
:101800004444444343434342424242414141002B0A
:1018100026D4770021D01CB54FEA370703B44FF028
:1018200010004FF010014FF000000FBCBDE8104059
:101830000BF1010BBBF1010F08BF5FEA170722BFD5
:1018400012F1010211F101014FF0004143F10003D7
:1018500000F0004043EA00007047F9D35708DAE788
:1018600046EA064613F1400F4FEA16461FDD13F114
:10187000200FDFBF16430A46002120335B42C8D049
:10188000C3F1200746EA064602FA07F74FEA164672
:1018900046EA0706C3F1200722FA03F201FA07F726
:1018A00021FA03F14FF0000342EA0702B1E746EAEA
:1018B000020646EA06464FEA164646EA0106BCBF5D
:1018C00046EA0646360C4FF000034FF000024FF098
:1018D00000019EE72DE9C048934630B491E83800F6
:1018E00007C831EA400C48BF34EA430C03D5FFF780
:1018F000F2FDFFF78CFFF0BCBDE800882DE9C04881
:10190000934630B491E8380007C810F0804F08BF04
:1019100013F0804F03D100F005F8FFF778FFF0BC1B
:10192000BDE8008820F07F4780EA030023F07F4C69
:1019300007EB0C03A3F57C5300F00040A3F1FE037A
:1019400092F0000F00F0B38095F0000F00F0778068
:101950002DE901494FEA11404FEA144621EA0048B7
:1019600000FB06FC24EA064708FB06F607FB08F81E
:1019700000FB07F718EB06484CEB164C4FEA124BEE
:1019800018EB07484FEA15464CEB174022EA0B4E7E
:101990000BFB06FC25EA06470EFB06F607FB0EFED0
:1019A0000BFB07F71EEB064E4CEB164C4FF00006F8
:1019B0001EEB074E4CEB174B18EB0B0840F10000E9
:1019C00018EB0E0B58EB000840F100008F1A4FF097
:1019D00000013CBFC943661B14BFB5EB040C0021DA
:1019E0003CBFC943F61B4FEA17444EEA8E0E27EA66
:1019F00004454FEA1C4704FB07622CEA074C05FB31
:101A000007F70CFB05F604FB0CFC16EB074642EB54
:101A1000174216EB0C4642EB1C421BEB060658EB3A
:101A20000202414146EA9E0601D5BDE80189B61988
:101A3000524141EB0101A3F10103BDE801894FEAE5
:101A400014454FEA114724EA054621EA074C05FBF5
:101A500007F406FB07F70CFB06F105FB0CFC11EB8A
:101A6000074144EB17444FEA124711EB0C4144EB9A
:101A70001C4422EA074C05FB07F206FB07F70CFBA8
:101A800006F605FB0CFC16EB074642EB174216EB7D
:101A90000C4642EB1C456A1854F1000148BF7047E0
:101AA000B619524141EB0101A3F10103704795F0D2
:101AB000000F37D04FEA11424FEA144721EA02469D
:101AC00024EA074C02FB07F106FB07F70CFB06F4C0
:101AD00002FB0CFC14EB074441EB17414FEA15479E
:101AE00014EB0C4441EB1C4125EA074C02FB07F5C3
:101AF00006FB07F70CFB06F602FB0CFC16EB074691
:101B000045EB174516EB0C4645EB1C42121951F1FB
:101B1000000148BF7047B619524141EB0101A3F1E2
:101B2000010370474FEA14454FEA114724EA05467E
:101B300021EA074C05FB07F106FB07F70CFB06F251
:101B40004FF0000605FB0CFC12EB074241EB17417E
:101B500012EB0C4251EB1C4148BF7047921841EB0D
:101B60000101A3F1010370472DE9F04F8FB0924AB4
:101B7000516C506C04F0A4FA07468F4A116C106C3B
:101B800004F09EFA80468C4AD16BD06B04F098FA30
:101B90008346414604F0E2F80646394604F0DEF892
:101BA000054601F039FB08908349C86B089904F099
:101BB00087FA0E908049086C089904F081FA0D901C
:101BC0007D49486C089904F07BFA0C907B4905A884
:101BD00001F0B2FC05AD7A490598086006984860A6
:101BE00007988860084641680C9804F069FA054631
:101BF000734881680D9804F063FA0646294604F09C
:101C0000EFFB04466E4881680E9804F059FA0546C9
:101C10006B4801680C9804F053FA0646294604F014
:101C2000DFFB8146664801680D9804F049FA0546D5
:101C3000634841680E9804F043FA0646294604F0CA
:101C4000CFFB82465F49204604F03AFA05465E48DB
:101C50000168284604F082F85B4908605949484603
:101C600004F02EFA054659480168284604F076F833
:101C7000564908605349504604F022FA0546544834
:101C80000168284604F06AF8514908604E48006827
:101C900004F038F8CDE90401204602F011FB834638
:101CA0004C4904F00DFA8046214604F009FA074633
:101CB00004F028F8CDE900013F49886804F022F8D3
:101CC000074601F0C3FC0546DDE9002303F0C4FB31
:101CD000CDE90201DDE9042303F0BEFBCDE90601F5
:101CE00003F088FB0B903948006804F00BF8CDE94D
:101CF0000401484602F0E4FA8346364904F0E0F96C
:101D00000646494604F0DCF9054603F0FBFFCDE941
:101D100000012949C86803F0F5FF054601F096FC6B
:101D20000746DDE9002303F097FBCDE90201DDE979
:101D3000042303F091FBCDE9060103F05BFB0A905D
:101D40002348006803F0DEFFCDE90401504602F0AD
:101D5000B7FA2049009004F0B3F95146019004F01D
:101D6000AFF9834603F0CEFFCDE9020112490869BD
:101D700003F0C8FFCDE9000101F068FC0546DDE98C
:101D8000022303F069FB0746DDE9042303F064FB4B
:101D9000CDE9060103F02EFB09900F48009007489B
:101DA000DDE909320B9901F09CFA044801F05CFA74
:101DB0000FB0BDE8F08F0000E80000209800002080
:101DC000B00500206F12033ABC000020C0000020C4
:101DD000C4000020CDCC4C3F0AD7A33A2DE9F04FE8
:101DE00087B000F0DFF86848FFF7BEFE6749664835
:101DF00001F008FB6549486803F084FF064603F0DC
:101E00003FFA044603F0F6FA05906049086803F0CB
:101E100079FF064603F034FA044603F0EBFA069025
:101E20005A49486803F06EFF064603F069F9044614
:101E300003F0E0FA04905549086803F063FF064692
:101E400003F05EF9044603F0D5FA03905048C078D9
:101E5000002872D14E48407800286ED04D49B1F923
:101E6000040004F0CDF80746049904F029F9064669
:101E7000069904F025F904464649B1F9020004F038
:101E8000BFF88146069904F01BF98046059904F0D5
:101E900017F906463F49B1F9000004F0B1F8804651
:101EA000039904F00DF90746314603F057FF054644
:101EB000214604F095FA83463649B1F9040004F04E
:101EC0009FF80646059904F0FBF804463149B1F93C
:101ED000020004F095F80646049904F0F1F805466E
:101EE000214603F03BFF0290584603F00BFF80466B
:101EF0008946029803F006FF42464B46CDE90001B1
:101F000002F010FF064600F00DF981F00041044692
:101F100003F070FA82462048C0F800A04FF07C52CF
:101F200051461E48006800F04FFD1D498860084674
:101F300080681A4908600CE0FFE71449886803F0DC
:101F4000E1FE064600F0EEF8044603F053FA1449A9
:101F500088600E49486803F0D5FE064600F0E2F8B6
:101F6000044603F047FA0E4948600849086803F040
:101F7000C9FE064600F0D6F8044603F03BFA0849CD
:101F8000086007B0BDE8F08F980000209805002099
:101F9000CC000020A800002090000020C8000020F5
:101FA000A40500202DE9FF4100F0A0F94F4800F002
:101FB00097FA4F49B1F9340003F085FC06460F4605
:101FC00005204C494C4BCDE900304C4B4C4ACDE9F7
:101FD00002103046394600F061FC044603F00AFA6C
:101FE0004349C863B1F9360003F06DFC06460F465D
:101FF00005204049404BCDE90030404B2833404A52
:102000002832CDE902103046394600F047FC04463C
:1020100003F0F0F90146364801640146B1F9380091
:1020200003F051FC06460F4605203249324BCDE9FC
:102030000030324B5033324A5032CDE90210304634
:10204000394600F02BFC044603F0D4F90146284839
:1020500041640146086A03F055FE0746294A2A4BA7
:1020600003F05CFC054603F0C5F90446274A214607
:102070002748006800F0A8FC1D4988600846806871
:10208000234908601A49486A03F03CFE07461D4A86
:102090001D4B03F043FC054603F0ACF904461B4A14
:1020A00021461C48006800F08FFC1149C8600846B2
:1020B000C068184908600E49886A03F023FE074685
:1020C000104A114B03F02AFC054603F093F904462D
:1020D0000E4A21461048006800F076FC0449086169
:1020E000084600690C490860BDE8FF81A80000208F
:1020F000E8000020680000204000002020050020AB
:10210000A804002030689DC8FE3F9F3FCBA1C53E7C
:10211000B0000020B4000020B800002000BFFEE79F
:10212000704700002DE9F04104460D464FF0C042D3
:10213000054B2046294603F03FFA06460022034B92
:1021400003F0ECFBBDE8F081FB2109400080664014
:102150002DE9FF4F87B0824691461D464FF000089B
:1021600029460A2003F080F8019003F061FF4946F8
:10217000029003F0A5FF834603F026FF0646002EDB
:1021800003DB20208DF80C0003E076422D208DF833
:102190000C000B240BE0601EC1B20A2003F064F8AF
:1021A000B6FBF0F008B1A04603E0601EC4B2002CFC
:1021B000F1DC00BFA8EB0500002821DC30208DF801
:1021C0000D002E208DF80E00002412E0281B401E6A
:1021D000C1B20A2003F048F8B6FBF0F00A21B0FBC8
:1021E000F1F201FB1200303003AAE11C5054601CD4
:1021F000C4B2AC42EADD002103AAE81C11543AE063
:10220000002413E0A8EB0400401EC1B20A2003F032
:102210002BF8B6FBF0F00A21B0FBF1F201FB120043
:10222000303003AA611C5054601CC4B2A8EB0500F6
:10223000A042E7DC2E2103AA601C1154002713E002
:10224000E81B401EC1B20A2003F00EF8B6FBF0F006
:102250000A21B0FBF1F201FB12003030A11C39441D
:1022600003AA5054781CC7B2AF42E9DD002103AA8B
:1022700008F10200115403AA5046089900F0FCFE30
:102280000BB0BDE8F08F2DE9FE4380468946154628
:102290001E460021701C0DF80010002D03DB2020CD
:1022A0008DF8000003E06D422D208DF80000002421
:1022B00013E0301B401EC1B20A2002F0D5FFB5FB6F
:1022C000F0F00A21B0FBF1F201FB120707F1300038
:1022D000C1B2601C0DF80010C4B2B442E9DB6A461A
:1022E0004946404600F0C8FEBDE8FE8310B500F048
:1022F000ADFB2D4840782C49097840EA01212B4854
:10230000B0F86000081A00B2284988862648C078CC
:102310002549897840EA01212448B0F86000081A6C
:1023200001B22248C186204840791F49097940EA14
:10233000012001B21D4801871B48C0791A498979DB
:1023400040EA012000B2194908801748407A16492E
:10235000097A40EA012000B2144948801248C07A44
:102360001149897A40EA012000B210498880B1F908
:1023700000100E4AB2F92C20881A03F041FE0B49D6
:102380000862B1F90220B1F92E10501A03F038FE9C
:1023900006494862B1F90420B1F93010501A03F02F
:1023A0002FFE0249886210BD50010020E800002085
:1023B0002DE9F041024600250026002000230024DC
:1023C000002791F803C00CF00F0591F803C00CF042
:1023D000100CBCF1000F03D091F802C04CEA0505C7
:1023E00091F800C0BCF1000F31D0146800202BE040
:1023F0004FF0010C0CFA00F3B1F800C00CEA030630
:102400009E4220D183004FF00F0C0CFA03F7BC431F
:1024100005FA03FC4CEA040491F803C0BCF1280F50
:1024200006D14FF0010C0CFA00FCC2F814C00AE00F
:1024300091F803C0BCF1480F05D14FF0010C0CFA24
:1024400000FCC2F810C0401C0828D1D31460B1F8B9
:1024500000C0BCF1FF0F34DD546800202EE000F115
:10246000080C4FF0010808FA0CF3B1F800C00CEAB0
:1024700003069E4221D183004FF00F0C0CFA03F7A4
:10248000BC4305FA03FC4CEA040491F803C0BCF118
:10249000280F05D100F1080C08FA0CF8C2F81480D6
:1024A00091F803C0BCF1480F07D100F1080C4FF0C0
:1024B000010808FA0CF8C2F81080401C0828CED396
:1024C0005460BDE8F0810246002093680B400BB1D8
:1024D000012000E0002070474161704701617047B2
:1024E0002DE9FF410546002602AB062203213C20D0
:1024F00000F096FC594800680A2190FBF1F057491A
:102500000968081A554908609DF809009DF80810E7
:1025100040EA012000B25149096808444F49086067
:10252000084600680A2190FBF1F000B2ADF8000007
:102530004A48406890FBF1F048494968081A474901
:1025400048609DF80D009DF80C1040EA012000B293
:1025500042494968084441494860084640680A21A0
:1025600090FBF1F000B2ADF802003C48806890FBAF
:10257000F1F03A498968081A384988609DF80B00DB
:102580009DF80A1040EA012000B2344989680844E5
:1025900032498860084680680A2190FBF1F000B259
:1025A000ADF80400BDF800002D490880BDF8020018
:1025B0004880BDF8040088802A48407A40B1012054
:1025C0002949087000202749C870684600F096FA2B
:1025D0002548007808B3002023490870002415E03E
:1025E0002248006830F91400002805DA1F48006806
:1025F00030F91400404203E01C48006830F9140030
:10260000142801DA701CC6B2601CC4B2062CE7DBC9
:10261000022E02DB01201349C87000241AE013497E
:10262000096801EB4401B1F90610104A126832F949
:1026300014208F1807EBD7713DF91420A2EB61002D
:1026400003F0DEFC804603F0BFFC00B225F8140066
:10265000601CC4B2032CE2DBBDE8FF8178010020DE
:102660006C010020CC0000200A00002000000020A7
:1026700000BFFEE700B54FF480600C49086000F031
:102680000BF94FF400600949086000F005F94FF4B8
:1026900080600649091F086000F0FEF84FF4806072
:1026A0000249086000F0F8F800BD0000140C014079
:1026B00000B54FF480600C49086000F0EDF84FF46D
:1026C00000600949091F086000F0E6F84FF48060D7
:1026D0000549091F086000F0DFF84FF480600249E7
:1026E000086000F0D9F800BD140C014000B50821C5
:1026F00000200A02124B1A6016E04206100E4FF438
:1027000080620F4B1B1D1A6000F0C6F84FF4806208
:102710000B4B1A6000F0C0F8094A083A126802F43C
:1027200000620AB140F001000A00A1F10103D9B230
:10273000E3D14FF48062024B1B1D1A6000BD000004
:10274000100C014000B508211DE04FF48062134BCE
:102750001A6000F0A1F800F080022AB14FF4006284
:102760000E4B1B1F1A6003E04FF400620B4B1A6004
:102770004206100E00F090F84FF48062074B1B1FCA
:102780001A6000F089F80A00A1F10103D9B2DCD186
:102790004FF48062014B1A6000BD0000140C014030
:1027A00000B54FF40060154908604010086000F063
:1027B00073F812480838006808B9012000E00020CA
:1027C00000F4006008B1002000BD4FF400600B4928
:1027D000091D086000F060F808480838006800F437
:1027E000006008B10020EFE74FF400600349091DC5
:1027F000086000F051F80120E6E70000100C0140ED
:1028000000B54FF480600C49086000F045F84FF4C3
:1028100000600949086000F03FF84FF48060064905
:10282000091F086000F038F84FF400600249091FE2
:10283000086000F031F800BD140C014000B54FF401
:1028400080601449086000F027F84FF400601149D7
:10285000091F086000F020F84FF480600D49091F3F
:10286000086000F019F80B480C38006800F40060AC
:1028700038B14FF480600749086000F00DF800207F
:1028800000BD4FF480600349086000F005F80120A6
:10289000F6E70000140C014000BF70472DE9FF5F10
:1028A00088B092469946DDF85CB0ABF1010004B205
:1028B00008E0601E0AEBC00103C90AEBC40203C2B0
:1028C000601E04B2002CF4DCDDE90801CAE9000155
:1028D00000252E46002418E0169800EBC40003C81B
:1028E000CDE902010AEBC40003C8CDE90001DDE92E
:1028F000022303F013F82A463346CDE9040102F01F
:10290000ABFD05460E46601C04B25C45E4DB19983D
:10291000401E04B208E0601E09EBC00103C909EBC8
:10292000C40203C2601E04B2002CF4DC0027B846C7
:10293000012418E0189800EBC40103C9CDE9020195
:1029400009EBC40003C8CDE90001DDE9022302F070
:10295000E5FF3A464346CDE9040102F07DFD074616
:102960008846601C04B219988442E3DB3A46434629
:102970002846314603F0DCF8C9E90001D9E9000135
:10298000CDE90601DDE906010CB0BDE8F09F0000CD
:1029900010B5482002F002FC4FF4A06000F0ACFA41
:1029A00000F02CF800F0DCFA472144F61F6000F03C
:1029B000EBFF02F041FC01F049F80121014801F070
:1029C00023F910BD000C00402DE9F04704460D46E8
:1029D00016463146284603F073FB804631464FF0D9
:1029E0007E5003F0FDFC8146214603F069FB07465B
:1029F000414603F0B3F9BDE8F087000008B50121B6
:102A0000602000F003FE0B20ADF8000010208DF8D0
:102A1000030003208DF8020069460A48FFF7C8FC4E
:102A20000B210848FFF75AFD4FF4A050ADF8000005
:102A300069460548FFF7BCFC4FF4A0510248FFF778
:102A40004DFD08BD001401400018014010B53B21A8
:102A5000D02000F087FE284908703C21D02000F0EB
:102A600081FE254948703D21D02000F07BFE22499F
:102A700088703E21D02000F075FE1F49C8703F21AC
:102A8000D02000F06FFE1C4908714021D02000F0DA
:102A900069FE194948714121D02000F063FE1649B2
:102AA00008734221D02000F05DFE13494873432192
:102AB000D02000F057FE104988714421D02000F04A
:102AC00051FE0D49C8714521D02000F04BFE0A4946
:102AD00008724621D02000F045FE07494872472180
:102AE000D02000F03FFE044988724821D02000F039
:102AF00039FE0149C87210BD500100202DE9FF5F69
:102B00008146B048007898B10020AE490870AE49BF
:102B10000860AE490860AE490860002406E0002065
:102B2000AC49096821F81400601CC4B2062CF6DB1D
:102B3000002421E0A748006830F9140039F9141086
:102B4000884206DD39F81400A249096821F814000A
:102B500010E0A048006800EB4400B0F9060039F925
:102B60001410884206DA39F814009A49096801EB12
:102B70004401C880601CC4B2032CDBDB9648407A59
:102B800001285FD19549486C002103F065FA04D211
:102B90009248406C80F0004001E09048406C05464F
:102BA0008F4903F059FB4DD20B218E48FFF796FC5D
:102BB00008218C48FFF790FC8BA20421002000F034
:102BC0005BFA8649886A03F09DF88A4A8A4BCDE908
:102BD000000102F0A3FE07464FF06042874B02F06F
:102BE0009DFE05460E467848006803F08BF8824645
:102BF0002A46334602F030FCCDE9020102F0FAFB2E
:102C00007149086000217048006803F025FA04D279
:102C10006D48006880F0004001E06B4800680546A0
:102C2000774903F019FB0DD202206B49487200204E
:102C300000F078F90B216B48FFF750FC022169483E
:102C4000FFF74AFC6448407A022857D16349C86BB1
:102C5000002103F001FA04D26048C06B80F000400C
:102C600001E05E48C06B05465D4903F0F5FA45D2C8
:102C700064A20421002000F0FFF95849086A03F01B
:102C800041F882465B4A5C4B02F048FE07464FF033
:102C900060425A4B02F042FE05460E464C48006820
:102CA00003F030F82A463346CDE9000102F0D4FBA8
:102CB000CDE9020102F09EFB45490860002144482D
:102CC000006803F0C9F904D24148006880F0004070
:102CD00001E03F4800680546494903F0BDFA0DD2BE
:102CE00003203D4948720B213E48FFF7F7FB0121C5
:102CF0003C48FFF7F1FB002000F014F93648407A19
:102D000003285DD13549086C002103F0A5F904D2F0
:102D10003248006C80F0004001E03048006C05460D
:102D20002F4903F099FA4BD239A20421002000F078
:102D3000A3F92A49486A02F0E5FF05462D4A2E4BC1
:102D400002F0ECFD4FF060422C4BCDE9000102F0A7
:102D5000E5FD074688461D48006802F0D3FF82461D
:102D60003A46434602F078FBCDE9020102F042FB0D
:102D70001649086000211548006803F06DF904D277
:102D80001248006880F0004001E0104800680546E5
:102D90001B4903F061FA13D2002000F0C3F80020B1
:102DA0000D4948720B210F48FFF798FB03210D488E
:102DB000FFF792FB002000F0B5F8012006490876E5
:102DC000BDE8FF9F0B000020140000201000002031
:102DD0000C00002000000020CC000020E8000020B3
:102DE00000409C4500140140726F7461746520625C
:102DF00079207A0030689DC8FE3F9F3F4D62603F5A
:102E00000000B443726F74617465206279207800A9
:102E1000726F7461746520627920790000BFFEE7EB
:102E20002DE9F04107460E4615469846FFF7B8FCD7
:102E30003846FFF787FCFFF701FD3046FFF782FCBD
:102E4000FFF7FCFCFFF7ACFC791CC8B2FFF77AFC7B
:102E5000FFF7F4FC00240DE0FFF748FC08F804003D
:102E6000681EA04202D1FFF723FC01E0FFF702FC3D
:102E7000601CC4B2AC42EFDBFFF7C2FCFFF70CFDF5
:102E8000BDE8F0817047000070B5002100230F22DB
:102E9000C47804B3154C246804F4E064C4F5E06419
:102EA000210AC1F10403CA40447804FA03F184788A
:102EB0001440214309010E4C0678A155047804F012
:102EC0001F050124AC4005786D11AD0005F1E0252A
:102ED000C5F8004109E0047804F01F050124AC4066
:102EE000044D0678761145F8264070BD0CED00E0E3
:102EF00000E400E080E100E002490143024A116081
:102F0000704700000000FA050CED00E007E040F219
:102F1000375100BF0A00A1F10101FBD1401E00287A
:102F2000F5D1704770B50646002415E004F1B001F4
:102F3000C8B200F015F9012000F012F9102000F0DD
:102F40000FF9002504E0304600F036F9681CC5B2E0
:102F5000802DF8DB601CC4B2082CE7DB70BD0000DC
:102F600008B50121102000F051FB0F20ADF8000042
:102F700003208DF8020010208DF8030069463D48BB
:102F8000FFF716FA08213B48FFF7A8FA0221394853
:102F9000FFF7A2FA3220FFF7B9FF02213548FFF709
:102FA0009DFA0021AE2000F0ABF80021D52000F002
:102FB000A7F80021802000F0A3F80021A82000F04D
:102FC0009FF800213F2000F09BF80021D32000F063
:102FD00097F80021084600F093F80021402000F007
:102FE0008FF800218D2000F08BF80021142000F0D4
:102FF00087F80021202000F083F80021022000F053
:103000007FF80021A12000F07BF80021C82000F00B
:1030100077F80021DA2000F073F80021122000F088
:103020006FF80021812000F06BF80021EF2000F004
:1030300067F80021D92000F063F80021F12000F0AA
:103040005FF80021DB2000F05BF80021402000F059
:1030500057F80021A42000F053F80021A62000F02A
:103060004FF80021AF2000F04BF80020FFF75AFF87
:1030700008BD0000001001402DE9F04704468846D5
:1030800015464FF00009002600274146204600F073
:1030900025F81CE0E85D203800F0FF097E2C04DDF7
:1030A000002408F1010000F0FF08002609E009EB08
:1030B0004901094A02EB4101885D00F07DF8701C6E
:1030C000C6B2062EF3DBA01DC4B2781CC7B2E85D01
:1030D0000028DFD1BDE8F0870E66000870B5044611
:1030E0000D4605F1B001C8B200F03AF8102141EAEE
:1030F000141000F035F804F00F0000F031F870BD46
:1031000070B504460E4626B101211448FFF7E6F9D2
:1031100003E001211148FFF7DFF9002517E008213E
:103120000E48FFF7D9F904F0800020B104210B48C4
:10313000FFF7D4F903E004210848FFF7CDF908218F
:103140000648FFF7CBF96006040E681CC5B2082DCF
:10315000E5DB01210148FFF7C1F970BD0010014016
:1031600070B50446082501211248FFF7B5F908217A
:103170001048FFF7B1F900BF16E004F0800020B15D
:1031800004210C48FFF7AAF903E004210948FFF7DE
:10319000A3F908210748FFF7A1F900BF0821054856
:1031A000FFF79AF96006040E2800A5F10101CDB2DF
:1031B000E3D170BD0010014070B50446082501211F
:1031C0001348FFF78BF900BF08211148FFF784F976
:1031D00000BF16E004F0800020B104210C48FFF786
:1031E0007DF903E004210A48FFF776F90821084831
:1031F000FFF774F900BF08210548FFF76DF9600675
:10320000040E2800A5F10101CDB2E3D170BD00008C
:1032100000100140704700002DE9F05F04464FF0B8
:103220007F594FF07C51204602F04AFF82462546E6
:103230002E460C48A0EB660635462946504602F05D
:103240003FFF8346294602F03BFF8046494603F094
:1032500034F80746294602F033FF05462846BDE804
:10326000F09F0000DF59375F2DE9F84F0446002535
:10327000E168E06802F024FF0090A168A06802F015
:103280001FFF81466168606802F01AFF824621686C
:10329000206802F015FF8346514602F05FFD80462C
:1032A000494602F05BFD0746009902F057FD0646CD
:1032B000FFF7B2FF05462068294602F001FF2060B3
:1032C0006068294602F0FCFE6060A068294602F0B2
:1032D000F7FEA060E068294602F0F2FEE060BDE87B
:1032E000F88F2DE9FF4F87B0044615461E4620682B
:1032F00006906768D4F80880E06805903146059824
:1033000002F0DEFE29460490404602F0D9FE03900A
:1033100087F000400190089902F0D2FE02900399D4
:1033200003F05EF88346049903F05AF88246149934
:1033300002F0C6FE8146216802F010FD2060314691
:10334000404602F0BDFE29460490059802F0B8FE02
:1033500003900899069802F0B3FE0290039903F0D7
:103360003FF88346049902F0F9FC8246149902F072
:10337000A7FE8146616802F0F1FC60603146384684
:1033800002F09EFE29460490069802F099FE0390F2
:103390000899059802F094FE0290039902F0DEFC71
:1033A0008346049903F01CF88246149902F088FEC3
:1033B0008146A16802F0D2FCA0603146069802F076
:1033C0007FFE29460490384602F07AFE039088F08A
:1033D00000400190089902F073FE0290039902F0F8
:1033E000BDFC8346049902F0B9FC8246149902F0B0
:1033F00067FE8146E16802F0B1FCE0600BB0BDE819
:10340000F08F00002DE9F04F85B004460D46E168CD
:10341000E06802F055FE0390A168A06802F050FE3B
:1034200002906168606802F04BFE0190216820689C
:1034300002F046FE0090019902F090FC834602994A
:1034400002F0CEFF8246039902F0CAFF0646A16849
:10345000606802F035FE8346E168206802F030FEC5
:103460005946039002F07AFC82464FF0804102F008
:1034700027FE0746A168206802F022FE8346E16825
:10348000606802F01DFE5946039002F0A9FF8246D3
:103490004FF0804102F014FE8046E168A06802F01F
:1034A0000FFE83466168206802F00AFE59460390C9
:1034B00002F054FC82464FF0804102F001FE81464A
:1034C000E168E06802F0FCFD0390A168A06802F0EA
:1034D000F7FD02906168606802F0F2FD01902168DA
:1034E000206802F0EDFD0090019902F079FF83461B
:1034F000029902F075FF8246039902F02FFC0490B6
:10350000404601F06DFA80F000402860484604997A
:1035100001F0C8FC68600748C07810B905484078D9
:1035200020B93146384601F0BDFCA86005B0BDE8C1
:10353000F08F0000CC0000202DE9FE4305460C462C
:10354000A168206802F0BCFD0746E168606802F0EF
:10355000B7FD8046394602F043FF06464FF08041F2
:1035600002F0AEFD0090E168A06802F0A9FD0746F8
:103570006168206802F0A4FD8046394602F0EEFB47
:1035800006464FF0804102F09BFD0190A168A068C3
:1035900002F096FD80466168606802F091FD814608
:1035A000414602F0DBFB07464FF0804102F088FD08
:1035B00006464FF07E5102F080FE0290009828608F
:1035C000019868600298A860BDE8FE8329B1064AA8
:1035D000D2690243044BDA6104E0034AD2698243B0
:1035E000014BDA61704700000010024029B1064A21
:1035F00012690243044B1A6104E0034A12698243D0
:10360000014B1A61704700000010024029B1064AC0
:1036100092690243044B9A6104E0034A926982432F
:10362000014B9A61704700000010024029B1064A20
:10363000D2680243044BDA6004E0034AD268824352
:10364000014BDA6070470000001002402DE9F041A4
:1036500004460D464FF0C042054B2046294602F075
:103660005DF906460022034B01F0A6FFBDE8F0819C
:10367000FB21094000806640704710B500F002F859
:1036800010BD00000CB50020019000903348006888
:1036900040F480303149086000BF3048006800F4D1
:1036A000003000900198401C0190009818B90198D2
:1036B000B0F5A06FF1D12948006800F4003010B1D6
:1036C0000120009001E0002000900098012843D1E3
:1036D0002348006840F0100021490860084600684F
:1036E00020F0030008600846006840F0020008600F
:1036F0001A484068194948600846406848600846CA
:10370000406840F4806048600846406820F47C10BF
:1037100048600846406840F4F81048600846006871
:1037200040F08070086000BF0C48006800F0007036
:103730000028F9D00948406820F003000749486094
:103740000846406840F00200486000BF03484068F7
:1037500000F00C000828F9D10CBD00000010024058
:103760000020024070B504460D46FFF719F808B96D
:10377000002070BD2046FEF7E5FFFFF75FF818B99F
:10378000FFF73EF80020F4E72846FEF7DBFFFFF7DF
:1037900055F8FFF705F8611CC8B2FEF7D3FFFFF735
:1037A0004DF8FEF7A3FF0646FEF782FFFFF728F865
:1037B0003046DEE730B503460C46002100BF07E087
:1037C000585C655CA84201D100BF00E002E0491CE2
:1037D0009142F5DB00BF914201D1012030BD0020B4
:1037E000FCE7704710B51348006840F0010011492C
:1037F000086008464068104908400E49486008467D
:1038000000680E4908400B4908600846006820F42B
:10381000802008600846406820F4FE0048604FF4AD
:103820001F008860FFF729FF4FF00060044908601F
:1038300010BD0000001002400000FFF8FFFFF6FE80
:1038400008ED00E010B5FEF7C9FA0121880700F085
:10385000D8F910BD70B51021404800F0D9FA002801
:103860007AD010213D4800F0CCF902213C48FEF707
:103870002AFE012809D10221384800F031FC3748DE
:1038800000F0C2FA3749088066E00021334800F0B2
:1038900027FC324800F0B8FA3349088031480088E4
:1038A000098888420ADD2F4800884FF6FF71081A00
:1038B0002D49098808442D49088006E02A480088D7
:1038C00028490988401A294908802848008844F670
:1038D0002061884204DD264800882449088003E0EE
:1038E00022480088224908802048008800EB001008
:1038F0004000C82190FBF1F4204602F081FB1D49F5
:10390000086001201C4908701C48016819480068BB
:1039100002F066FD054602F057FB041E01DB20465F
:1039200000E06042B0F5FA7F07DB144800681149F7
:10393000086000201249087002E001201049087058
:103940000E4801680B48006802F04AFD0D49086006
:10395000084800680949086070BD00000004004084
:10396000000C01402C0000202A0000202E00002026
:10397000300000201C00002029000020240000202E
:10398000280000202000002030B589B004460D46F4
:1039900001210420FFF71AFE01210820FFF736FE5F
:1039A0004FF47070ADF8200018208DF8230003202C
:1039B0008DF8220008A92348FEF7FAFCA8B2ADF85A
:1039C00014000020ADF81600A0B2ADF818000020D9
:1039D000ADF81A0005A91C4800F0A6FB6020ADF860
:1039E00004000120ADF806000020ADF80C0001A98C
:1039F000154800F027FA01A9134800F079FA01A947
:103A0000114800F0D5FA01A90F4800F02BFB08215E
:103A10000D4800F063FA08210B4800F0BBFA0821BA
:103A2000094800F015FB0821074800F066FB01215A
:103A3000054800F0D7F80121034800F0E5F809B087
:103A400030BD0000000C0140000800401FB53220CE
:103A50008DF8000001208DF801008DF802008DF82E
:103A600003006846FFF710FA01210820FFF7AEFDBA
:103A7000104800F0D5F840F6C410ADF80800472013
:103A8000ADF804000020ADF80A00ADF8060001A969
:103A9000084800F049FB0121064800F0AFF8012278
:103AA0001146044800F0C5F90021024800F0ACF8C6
:103AB0001FBD0000000C004010B53A48008800F01F
:103AC000010000286CD04FF6FE7036490880364859
:103AD0000088401C344908800846008828285FDD9B
:103AE0003248008840F400403049088000203049C6
:103AF00008802D49088004222E492FA0FFF75AFE86
:103B00002F4908700846007810B100202D49087030
:103B1000042228492CA0FFF74DFE294908700846C9
:103B2000007810B10120274908700522214928A0FA
:103B3000FFF740FE224908700846007810B10320C4
:103B4000204908701F48007820B1012807D00328B9
:103B500018D108E0012020490875487113E00020C1
:103B60001D4948710FE000BF1C48006800F4E06088
:103B70001B490843001D19490860BFF3408F00BF6F
:103B800000BFFEE700BF00BF0A4801F0DFFB4FF4B3
:103B9000C8720021074800F018FF00200349088080
:103BA00010BD0000100C0040360000203200002044
:103BB00034000020180300206869676800000000D6
:103BC000180000201900002073746F7000000000BE
:103BD0007265736574000000CC0000200CED00E0FD
:103BE0000000FA0521B1028842F08002028004E060
:103BF00002884FF67F731A4002807047CA430282E0
:103C00007047CA430282704721B1028842F0010224
:103C1000028004E002884FF6FE731A40028070476B
:103C200010B504466848844208D10121C014FFF74A
:103C3000FDFC0021E014FFF7F9FCC4E0B4F1804F73
:103C400008D101210846FFF7D1FC00210120FFF730
:103C5000CDFCB8E05D48844208D101210220FFF785
:103C6000C5FC00210220FFF7C1FCACE058488442AB
:103C700008D101210420FFF7B9FC00210420FFF73F
:103C8000B5FCA0E05348844208D101210820FFF789
:103C9000ADFC00210820FFF7A9FC94E04E488442C7
:103CA00008D101211020FFF7A1FC00211020FFF70F
:103CB0009DFC88E04948844208D101212020FFF77B
:103CC00095FC00212020FFF791FC7CE044488442D1
:103CD00008D101214014FFF7A9FC00216014FFF76F
:103CE000A5FC70E03F48844209D10121C804FFF7D8
:103CF0009DFC00214FF40020FFF798FC63E03A4858
:103D0000844209D101210805FFF790FC00214FF4FE
:103D10008010FFF78BFC56E03448844209D1012122
:103D20004805FFF783FC00214FF40010FFF77EFCED
:103D300049E02F48844208D101214020FFF756FC7A
:103D400000214020FFF752FC3DE02A48844208D180
:103D500001218020FFF74AFC00218020FFF746FC6C
:103D600031E02548844208D101218015FFF73EFC4F
:103D70000021A015FFF73AFC25E02048844209D134
:103D800001210804FFF752FC00214FF48030FFF7B7
:103D90004DFC18E01A48844209D101214804FFF77C
:103DA00045FC00214FF40030FFF740FC0BE01548C4
:103DB000844208D101218804FFF738FC00214FF428
:103DC0008020FFF733FC10BD002C014000040040B0
:103DD00000080040000C00400010004000140040AB
:103DE00000340140004C01400050014000540140AB
:103DF00000180040001C004000200040004001402E
:103E000000440140004801400146B1F840007047BD
:103E100030B50246002000230024158A05EA01037C
:103E2000958905EA010413B10CB1012000E00020DE
:103E300030BD1AB183890B43838102E083898B43B0
:103E40008381704770B5002400220023058C4FF653
:103E5000FE7635400584028C8388048B4FF68F757F
:103E60002C40B51E2C400D882C43751E2A400D8910
:103E70002A434D882A43144DA8420BD0134DA84223
:103E800008D0134DA84205D0124DA84202D0124DC1
:103E9000A84213D14FF6F7752A404D892A434FF6B1
:103EA000FB752A408D882A434FF6FF652B404FF65D
:103EB000FF552B408D892B43CD892B438380048371
:103EC000CD888586028470BD002C014000340140FD
:103ED0000040014000440140004801400A460021E2
:103EE000018B4FF6F77319401143018370470000AF
:103EF00070B5002400220023058C4FF6EF76354084
:103F00000584028C8388048B48F6FF752C404FF69D
:103F1000FF452C400D884FF6FF7606EA05252C4319
:103F20004FF6DF752A400D8906EA05152A434D88AC
:103F300006EA05152A43154DA84202D0144DA842A1
:103F40001DD14FF67F752A404D894FF6FF7606EA60
:103F500005152A434FF6BF752A408D8806EA0515D8
:103F60002A434FF6FF352B404FF2FF752B408D89CA
:103F700006EA85052B43CD8906EA85052B43838018
:103F80000483CD880587028470BD0000002C0140A9
:103F9000003401400A460021018B4FF2FF731940A3
:103FA0004FF6FF7303EA02231943018370470000B1
:103FB00070B5002400220023058C4FF6FF663540C3
:103FC0000584028C8388848B4FF68F752C404FF6C6
:103FD000FC752C400D882C434FF6FF552A400D8967
:103FE0004FF6FF7606EA05252A434D8806EA0525A1
:103FF0002A43154DA84202D0144DA8421DD14FF2BC
:10400000FF752A404D894FF6FF7606EA05252A43BB
:104010004FF6FF352A408D8806EA05252A434EF6DD
:10402000FF752B404DF6FF752B408D8906EA05156F
:104030002B43CD8906EA05152B4383808483CD88E5
:104040008587028470BD0000002C014000340140CF
:104050000A460021818B4FF6F77319401143818383
:104060007047000070B5002200230024058C4EF636
:10407000FF7635400584038C8488828B48F6FF7573
:104080002A404FF6FF452A400D884FF6FF7606EA94
:1040900005252A434DF6FF752B400D8906EA0535A7
:1040A0002B434D8806EA05352B430B4DA84202D021
:1040B0000A4DA84208D14BF6FF752C408D894FF66A
:1040C000FF7606EA85152C4384808283CD88A0F88C
:1040D0004050038470BD0000002C014000340140BA
:1040E0000A460021018C4DF6FF7319404FF6FF730D
:1040F00003EA02331943018470470A460021818B89
:104100004FF2FF7319404FF6FF7303EA022319437E
:104110008183704781867047018770478187704728
:10412000A0F8401070470000002202881D4B984202
:104130000ED01D4B98420BD0B0F1804F08D01B4BD6
:10414000984205D01A4B984202D01A4B984204D19B
:104150004FF68F731A404B881A43174B984207D07B
:10416000164B984204D04FF6FF431A40CB881A43AF
:1041700002808B8883850B8803850A4B98420BD07D
:10418000094B984208D00E4B984205D00D4B9842EF
:1041900002D00D4B984201D10B7A03860123838212
:1041A00070470000002C0140003401400004004032
:1041B00000080040000C00400010004000140040C7
:1041C00000400140004401400048014010B540F269
:1041D0002551154800F03FF828B3134800F065F862
:1041E000C4B21248008800F40040E0B90F480088CB
:1041F000B0F5C87F11DA00200D4908800B4800880F
:1042000010B901200B490880084801880088401C2B
:10421000064A10800848445405E00448008840F4E9
:1042200000400249088010BD0048004032000020D4
:104230003600002034000020180300200246002031
:10424000B1F5007F00D100BF13880B400BB10120F6
:1042500000E00020704770B50246002400230025CE
:10426000002040F66A16B14200D100BFC1F34215EA
:1042700001F01F03012606FA03F3012D02D19689EE
:10428000334006E0022D02D1168A334001E0968ABF
:1042900033400C12012606FA04F41688344013B198
:1042A0000CB1012000E0002070BD01468888C0F3F9
:1042B00008007047C1F308028280704700BFFEE724
:1042C00070B5044600250021204601F0C5FE01D24C
:1042D00084F000440B49204601F0BEFF00D2094C97
:1042E0000949204601F0ECFE06464FF07E5101F0F0
:1042F000E4FF05460021284601F0AEFE00D200256D
:10430000284670BD9A99193F4260D53F490050EA4E
:10431000C12018BF04204A0D18BF40F0010040F230
:10432000FF72B2EB515F08BF40F00200012808BFE6
:10433000052070474100080218BF04200A0E18BF6C
:1043400040F001004FF07F4232EA010108BF40F027
:104350000200012808BF0520704700002DE9F74F33
:10436000144694B00021C4E902111599079121F077
:104370000045C9498D4206DC1599C4E9000117B012
:104380000020BDE8F08FC549DFF814A3A9423CDD49
:104390000799C44E0029C44FC44A1599534619DDE4
:1043A00001F0C6FB554506D0C14AC24B01F0C0FB27
:1043B000C4E900010AE04FF0D352BE4B01F0B8FB54
:1043C00032463B4601F0B4FBC4E9000117B00120BE
:1043D000BDE8F08F01F040F8554506D0B44AB54B22
:1043E00001F03AF8C4E900010AE04FF0D352B14BB2
:1043F00001F032F832463B4601F02EF8C4E90001E4
:1044000017B04FF0FF30BDE8F08FAB49A9421599C6
:1044100078DB21F0004183468846A84AA84B01F08A
:104420007DFA0022A74B01F017F801F01DFA099060
:1044300001F049FA06460F469C4A534601F06EFACF
:1044400043465A4601F068FB80468A46984A994B93
:104450003046394601F062FA2A0D01250B92424698
:10446000534601F059FB032DC4E9000139D00B98E4
:10447000C1F30A51401A05EB45111139814230DA76
:104480009148C346784400EB0510CDF80CA00C9081
:10449000D0E900233046394601F040FA02460B4687
:1044A000049106905846039901F042FB80468A46E3
:1044B00002460B465846039901F03AFB049B069AC4
:1044C00001F036FB83460C9803913946D0E902236C
:1044D000304601F023FA5A46039B01F029FB6D1C7C
:1044E000BDE707980028A2BF099817B0BDE8F08F74
:1044F000616881F000416160099817B04042BDE8F1
:10450000F08FFFE784461598C1F31301C0F30A50FA
:10451000A0F2F5304FEA601800F01F06C6F1200047
:10452000139000200690079041F4801E05206D46F0
:1045300076B1664A08EB00017A4452F8213002EB6A
:104540008101B3404A68139922FA01F1194305E049
:104550005F4908EB0002794451F82210A1FB0E27B5
:10456000A1FB0C131A449A4234BF0123002303EB2E
:10457000070A05EB8003D3E901B70F448F4234BF2C
:104580000121002193448B4411B1934502D903E0EA
:10459000934501D2012100E00021C3E901B7514454
:1045A00045F82010011EA0F10100C1DC0298059F12
:1045B00000F10050800F12900298DDE90356800050
:1045C00001F081F9834628460D9101F093F96FF0CF
:1045D0001D0201F0B0FFCDE90E01304601F08AF96D
:1045E0006FF03D0201F0A7FF80468A46384601F091
:1045F00081F96FF05D0201F09EFF07464246534687
:10460000119100F029FFDDE90E2300F025FF5A4645
:104610000D9B00F021FF00250E465A4628460D9BB3
:1046200001F086FADDE90E2301F082FA4246534694
:1046300001F07EFA3A46119B01F06EFADFF898A07D
:10464000244A534601F06AF907468846234A244B18
:104650003146284601F062F93A46434600F0FCFE36
:10466000074688464FF0A84253463146284601F097
:1046700055F93A46434600F0EFFE159A12F0004F06
:1046800004D0129A81F0004152421292C4E9000112
:10469000129817B0BDE8F08FFB21E93F7CD90240AA
:1046A000FB21F93F7370032E8A19A33B000040548D
:1046B0003163621A61B4D03DFB21394183C8C96DB1
:1046C000305FE43F0000E03F88310000043100002B
:1046D000E6300000182D4454FB21F93D3326A61185
:1046E000460B113C2DE9FF4D21F0004807460C46D2
:1046F000B8F1795F08DA01F0B7F8002801BF0020AF
:10470000324904B0BDE8F08D3A46234610461946BA
:1047100001F004F9054602462D480E460B460621D7
:10472000784400F05DF82A46334601F0F7F8DDE9F9
:10473000022382468B463846214601F0EFF80446B4
:104740000F4652465B462846314601F0E7F82246BE
:104750003B4601F0EDF907468A464FF0FF32284606
:10476000314601F0E8FE1B4A90450ADA3A465346C4
:1047700001F0DEF904B00022BDE8F04D134B01F06A
:10478000CBB9154A4245A8BFA8F500154FF0000463
:10479000B8BF124D22462B4601F0CAF9064688469C
:1047A00022462B460020094901F0C2F904460D4675
:1047B0003A4653463046414601F0BAF904B0224623
:1047C0002B46BDE8F04D01F0A7B900000000F03F16
:1047D000B42E00003333D33F0000E93F0000D23F46
:1047E0002DE9F0414F1E00EBC7010446D1E900015D
:1047F00015461E4637F006020DD02A46334601F014
:104800008DF87F1E04EBC703D3E9002300F024FEDC
:1048100037F00602F1D1022F25D0042F13D0062F36
:1048200018BFBDE8F0812A46334601F077F8D4E995
:104830000A2300F011FE2A46334601F06FF8D4E94E
:10484000082300F009FE2A46334601F067F8D4E950
:10485000062300F001FE2A46334601F05FF8D4E952
:10486000042300F0F9FD2A46334601F057F8D4E955
:10487000022300F0F1FD2A46334601F04FF8D4E957
:104880000023BDE8F04100F0E7BD00002DE9FF4D39
:10489000054621F0004084B00C46B0F1795F0BDA98
:1048A0002846FFF733FD042808BF00F071F82846BA
:1048B00008B02146BDE8F08D2A460B46104601F0AF
:1048C0002DF806460F462A46234601F027F8804673
:1048D00026488A4632463B4605217844FFF780FF4A
:1048E00083461098029160B3214A224B40465146BC
:1048F00001F014F8CDE900015A4640465146029BAA
:1049000001F00CF882468846DDE906014FF0FF32DF
:1049100001F011FE5246434601F00AF932463B4689
:1049200000F0FCFFDDE9062301F002F9DDE90023D8
:1049300001F0FEF808B02A462346BDE8F04D01F02C
:10494000EBB80B465A463046394600F0E7FF084AB6
:10495000084B00F081FD4246534600F0DFFF08B0EF
:104960002A462346BDE8F04D00F076BDFA2D000042
:10497000495555555555C5BF012201F0DCBD00F024
:104980006BBD002213461046114600F015BE000014
:10499000024A0020110701F0CEBD000001FDFFFF1B
:1049A000012101F0F6BD01F0D9B90021084601F05E
:1049B00049BA6FF05E01080701F0EBBD30380A28F4
:1049C00001D2012070470020704710B50346002037
:1049D00000BF02E01954441CA0B29042FADB10BDA3
:1049E0002DE9F04104464FF00E4000EB4400B0F1D9
:1049F000506F204655D84FF0FC41B1EB440F1CD20C
:104A000024F000404FF07E5101F057FC4FF0FF3191
:104A100001F0BFFD054600F083FC14F0004F1DBF00
:104A20002F4F304E80F000402F4F08BF2F4E4FF0D9
:104A3000404101F045FB044605E000273E460146A3
:104A400001F03EFB05462A49284601F039FB294979
:104A500001F084F9294601F033FB274901F07EF982
:104A6000294601F02DFB254901F078F9294601F08E
:104A700027FB234901F072F980462946204601F0C0
:104A80001FFB414601F01CFB05463146204601F064
:104A900065F9294601F062F93946BDE8F04101F0B7
:104AA0005DB94FF0E441B1EB440F08D9FFF742FC88
:104AB000042808BFFFF77DFF2046BDE8F0814FF0D6
:104AC0007F41B1EB440F03D2BDE8F041FFF768BF6F
:104AD0000120FBF72AFCBDE8F041FFF766BF0000AC
:104AE0000000C9BF22AAFDB90000C93F22AAFD39B2
:104AF00024FE1C3DC78AD83C1E67383D1B93993D58
:104B0000AFAA2A3E2DE9F84F04460D4621F0004099
:104B100000917349814211DC7249884201DC06D15F
:104B20002CB120462946BDE8F84FFFF725BF6E4857
:104B3000002DCCBF6D496E49BDE8F88F6D498142AB
:104B400011DD6D498142D8BF4FF0FF366DDD204643
:104B50002946FFF7DBFB042808BFFFF719FF2046B3
:104B60002946BDE8F88F6549654F25F0004581422B
:104B700033DD6449814219DD002632464FF080431F
:104B80002046294600F068FC80468A4601222046DD
:104B9000294601F0D0FC00223B4600F0C9FF424606
:104BA000534600F009FD04460D463EE00126002272
:104BB000BA463B462046294600F04EFC80460F464A
:104BC000002253462046294600F0B2FF42463B46AB
:104BD00000F0F2FC04460D4627E04B4981421BDD04
:104BE000DFF828A10226002253462046294600F07D
:104BF00095FE00223B4600F02FFC80460F46002227
:104C000053462046294600F093FF42463B4600F0BB
:104C1000D3FC04460D4608E0032622462B4600201E
:104C20003B4900F0C9FC04460D4622462B4610467F
:104C3000194600F073FE8B46824602460B4600F092
:104C40006DFE07460246334888460B4606217844E7
:104C5000FFF7C6FD52465B4600F060FE82462E48D6
:104C60008B463A46434605217844FFF7B9FD3A465C
:104C7000434600F053FE02460B46002E504659466E
:104C80000CDA00F0E9FB22462B4600F047FE01B0AB
:104C900022462B46BDE8F04F00F03EBF00F0DCFBA3
:104CA00022462B4600F03AFE1C4A7A4402EBC60329
:104CB000D3E9002300F03CFF22462B4600F038FFEA
:104CC000174A7A4402EBC603D3E9002300F024FF1D
:104CD000009A002AB8BF81F00041BDE8F88F0000BB
:104CE000000010440000F07F182D4454FB21F93FD0
:104CF000FB21F9BF0000DC3F0000203E0000F33F35
:104D00000000F03F0000E63F008003400000F83F55
:104D10000000F0BF5629000014290000B22800004E
:104D20007A2800002DE9F04D9446CCF1000423F0E0
:104D300000464CEA0404524F46EAD4749A46884628
:104D400021F00042BC4206D8454240EA050442EA4E
:104D5000D474BC4204D9BDE8F04D6246FFF70FBEE3
:104D6000AAF14055A5F17F6555EA0C040BD0022449
:104D700004EAAA74434DDFF810E144EAD87452EA19
:104D8000000B04D00CE0BDE8F04DFFF7BBBE002CDB
:104D900014BF012CBDE8F08D022C30D0032C32D092
:104DA00056EA0C0B0AD0BE4220D1BA4209D126F0F5
:104DB000804622F080423346114617E000291ADB74
:104DC00025E0DFF8C8B0FB44002C04BFDBE900019C
:104DD000BDE8F08D012C02BFDBE9000181F000414C
:104DE000BDE8F08D022C0AD0032C0CD0BA4212D1AF
:104DF000B8F1000F0BDA23482549BDE8F08D2846AD
:104E00002449BDE8F08D28467146BDE8F08D1D4867
:104E10002149BDE8F08D921B12153C2AC4BF1948E8
:104E20001D490EDCBAF1000FBEBF12F13C0F00208D
:104E3000014606DB624600F0BFFB21F00041FFF7B0
:104E400061FE002C08BFBDE8F08D012C04BF81F08D
:104E50000041BDE8F08D114A114B022C07D000F043
:104E600067FE2A46BDE8F04D0A4B00F061BE00F037
:104E70005FFE2A46BDE8F04D064B00F04DBE000037
:104E80000000F07F182D4454FB2109C03E2800008B
:104E9000FB21F9BFFB210940FB21F93F075C1433DB
:104EA00026A6A13C2DE9F0474FF0684202EB4003F3
:104EB0000C460546B3F1654F3CBF02EB4102B2F12F
:104EC000654F7CD2C0F3C753C1F3C7529A1A1B2A4D
:104ED00006DD10F0004F14BF76487748BDE8F08734
:104EE00012F11A0F17DA11F0004F06D010F0004F30
:104EF0000CBF72487248BDE8F0872146284600F092
:104F0000A1FF0446FFF716FA042808BFFFF751FD7A
:104F10002046BDE8F0874200B2EB410F25D910F0E2
:104F2000004F19BF674F684E684F694E224685F0A3
:104F3000004415460A4680F0004110460A1A520005
:104F4000B2F1807F40D248406249DFF88CA110F076
:104F5000004F18D04FF03F48384601F041FA07465D
:104F60005146304601F03CFA17E011F0004F04BF03
:104F700000263746E2D010F0004F19BF574F584E69
:104F8000584F594EDAE74FF07C58384600F0E6FEAD
:104F900007465146304600F0E1FE064641462846A7
:104FA00001F08EF8214600F0D9FE824621464046A7
:104FB00001F086F8294601F080F9514600E037E01B
:104FC00000F040FF044604E02146284600F03AFF86
:104FD0000446014601F074F88046444901F070F837
:104FE000434900F0BBFE414601F06AF8414900F038
:104FF000B5FE414601F064F83F4900F0AFFE41467E
:1050000001F05EF83D4900F0A9FE05464146204604
:1050100001F056F8294601F053F8314600F09EFEA3
:10502000214600F09BFE3946BDE8F04700F096BEF1
:105030004FF07F42B2EB400F28BFB2EB410F03D2DB
:10504000BDE8F047FFF7AFBC40EA01035B0008BFD3
:1050500044F0FF410AD0B2EB400F08BFB2EB410F62
:1050600006D125F0804024F0804105460C4629E712
:10507000B2EB400F12BF5FEA410245F0FF4004F07F
:1050800000413FF41FAF4A0092EA40033FF51AAFD8
:10509000002AACBF4FF09F464FF03E56314601F01C
:1050A0000FF805463146204601F00AF80446284626
:1050B000214607E7DB0FC9BFDB0FC93FDB0F4940C4
:1050C000DB0F49C00000C9BF22AAFDB90000C93FDB
:1050D00022AAFD390060ED3EC30ACE37000049C068
:1050E00022AA7DBA0000494022AA7D3A2DAD65BDB5
:1050F0008FB8D53D0FB511BE61C84C3EA8AAAABE57
:1051000000B5244B21F0004287B09A42DCBF002258
:10511000134629DD204B9A4208D140B94FF00100D7
:10512000FBF703F9FFF72DFC07B000BD03DBFFF72A
:1051300023FC07B000BD02AAFFF710F910F003012D
:1051400004BF0DF1080C9CE80F000DD001200129CF
:105150000ED0022914D00DF1080C00909CE80F002D
:10516000FFF794FB07B000BDFFF7BCFA07B000BD26
:105170000DF1080C00909CE80F00FFF787FB05E09D
:105180000DF1080C9CE80F00FFF7ACFA07B081F0B6
:10519000004100BDFB21E93F0000F07F4FF0E0211E
:1051A000096921F004014FF0E0221161C21700EB00
:1051B0005272C2F3C702074B1A701946097801EB05
:1051C0004102C2EBC1114FF6FF7202EAC101024A6D
:1051D00011807047380000203A000020FDF7D8FB0E
:1051E00023E01248007E00B3114802230121026827
:1051F0000020FCF7ADFF0E4802231946426800204C
:10520000FCF7A6FF0A4988680A4900F0A7FD044692
:105210000223224603210020FCF79AFF0348C278AC
:10522000012304210020FDF72EF8DAE7CC0000204E
:10523000A40500200000344310B540F2E7310948CE
:10524000FEF768FF40F2E7310648FEF765FF40F2DF
:10525000E7310448FEF762FF40F2E7310148FEF70C
:105260005FFF10BD0008004010B50246012000E0BD
:1052700050430B00A1F10104E1B2F9D110BD0000CF
:1052800000B5254B21F0004287B09A4203DC002292
:10529000134600922BE0214B9A4208D140B94FF0BF
:1052A0000100FBF742F8FFF76CFB07B000BD03DB22
:1052B000FFF762FB07B000BD02AAFFF74FF810F03E
:1052C00003014FF001000DD0012914D002291AD09A
:1052D0000DF1080C9CE80F00FFF704FA07B081F00D
:1052E000004100BD0DF1080C00909CE80F00FFF795
:1052F000CDFA07B000BD0DF1080C9CE80F00FFF7D8
:10530000F1F907B000BD0DF1080C00909CE80F000A
:10531000FFF7BCFAE2E70000FB21E93F0000F07F65
:1053200070B5054600F0D4FF044620F00040C0F1FF
:10533000FF40C00F08D025F00040C0F1FF40C00F73
:1053400004BF0120FAF7F1FF204670BD0FB438B555
:1053500005A800900F48009A0499FAF7ADFF0020C5
:1053600000900C48FAF7BAFF85B200240DE000BFA8
:1053700040210948FEF762FF0028F9D00548015D89
:105380000548FEF797FF601C84B2AC42EFDB38BCE7
:105390005DF814FB880100200048004010B500298A
:1053A0000AD00878002807D005487844FBF7DAFFD0
:1053B000002801D0002010BD0248784410BD000034
:1053C000322400002A24000010B500290AD00878F1
:1053D000002807D005487844FBF7C4FF002801D017
:1053E000002010BD0248784410BD000022240000B7
:1053F0001A24000021F00042A2F16052B2F5801F91
:1054000001F0004328BFD2F17F6C0BD95FEA001C8A
:1054100043EAC20242EB507018BF704728BF20F029
:1054200001007047B2F5801FBCBF184670474FEAB5
:10543000410C1CF5001F02D2084600F008BF70B5F1
:1054400000F016FB00000089FFF7F6BF4FF00040A8
:10545000A0F580007047000010B591EA030F48BF27
:1054600083F0004300F16C83841A71EB030C05D2C6
:10547000121943EB0C03001B61EB0C01DFF824E174
:105480004FEA1154A4EB135C1EEA430F18BF9EEAC7
:10549000445F73D023EA0E03DCF1200E21EA0451AD
:1054A00043F4801332D322FA0CFE10EB0E0023FAE1
:1054B0000CFE41EB0E01CCF1200E03FA0EFE10EBB8
:1054C0000E0051F10001B1F5801FCCF1200E32D257
:1054D00001EB045112FA0EF2BDE8104058BF7047BC
:1054E000401C38BF5FEA420218BF7047002814BF53
:1054F00020F0010041F100014FEA410313F5001FC4
:1055000038BF7047A1F1C04100F000BB012A43EB56
:105510000302ACF1200CDCF11F0E32BF4FF0000E85
:1055200023FA0CF310EB030041EB0451B4EB115FD1
:10553000D0D0A1EB045101F5801149085FEA300099
:1055400001EB04510ED350F1000038BF12FA0EFEE9
:1055500008D1BDE81040C9E7401C38BF5FEA4202ED
:10556000CAD1C3E7BDE810404FEA410313F5001F5D
:1055700038BF7047A1F1C04100F0C8BA9EEA445F4D
:1055800008D011EA5E0FBDE8104004BF01F00041F1
:1055900000207047BDE8104070B500F069FA00BF08
:1055A00064FBBE3E0000E0FF02494FF0000000F047
:1055B00090BF00BF0000F87F2DE9C04130B4DFF894
:1055C000A0C23CEA111418BF3CEA131400F0EC80AE
:1055D00081EA03051CEA111444EAD57418BF1CEAD9
:1055E000131500F0C780A4EB05044FF0004545EA11
:1055F000C12145EAC32341EA505143EA525304F121
:105600007F74994204F500344FEAC0204FEAC22269
:1056100008BF904200F09C804FEA13650FF24016DD
:10562000765D4FEA134506FB05F7C7F1807706FB69
:1056300007F74FEAD737A7FB03687642C8F58038EB
:10564000A7FB06CE38BFA8F1010807FB08E64FF01C
:10565000000EA6FB028CE6FB03CEDCF1000CCEF1C3
:10566000004E38BFAEF1010EA6FB0C584FF00007FC
:105670004FF00005E6FB0E87A1FB08C6A0FB07CE96
:1056800016EB0E0645F10005E1FB076515F1E04E4E
:105690007EBFA4F580345FEA46066D4116F18007AF
:1056A00045F100054FEA17274FEA066647EA056706
:1056B000A6F1DE46B6F1805F4FEA15251FD93846C0
:1056C00024F0010C05EBC471BCF1FE6F01EB0C1171
:1056D00002D8F0BCBDE8008124425CBF01F5801E09
:1056E0009EEAC47F02D4F0BCBDE80081244238D4D5
:1056F000F0BCA1F1C041BDE8004100F007BA4FEA9B
:10570000D22242EA43524FEAD323A7FB02864FEA52
:10571000D02040EA415007FB03661EEA0E0F4FEA15
:10572000D12105FB026658BFA6EB0056B6EB00562A
:105730004FEA520E4EEAC37E18EB0E0E56EB530E96
:10574000BDD518EB02085E417F1C55F10005B6E798
:105750004FF480154FF000074FF000064FF000089F
:10576000ADE7F0BC4FF0000001F1C04101F0004195
:10577000BDE8008111EA0C1F0CEA131500D00CE003
:1057800013EA0C1F00F025804FF00000F0BC81EA06
:10579000030101F00041BDE80081F0BCBDE800411B
:1057A00081EA030100F0B2B9F0BCBDE8004170B578
:1057B00000F05EF9097EFC3E00F007B881EA0301C3
:1057C0004FF0000001F00041704781EA030100F052
:1057D0009DB9F0BCBDE800414FF000002149704781
:1057E000FFFDFBF9F7F5F4F2F0EEEDEBE9E8E6E4A6
:1057F000E3E1E0DEDDDBDAD8D7D5D4D3D1D0CFCD2D
:10580000CCCBCAC8C7C6C5C4C2C1C0BFBEBDBCBB65
:10581000BAB9B8B7B6B5B4B3B2B1B0AFAEADACAB60
:10582000AAA9A8A8A7A6A5A4A3A3A2A1A09F9F9E3A
:105830009D9C9C9B9A9999989797969595949393EC
:10584000929191908F8F8E8E8D8C8C8B8B8A898983
:105850008888878786858584848383828281818006
:105860000000FF070000F87F4FEA41034FEA53535F
:10587000A3F58063D3F11E03C8BFD3F1210C0CDD67
:105880004FF0004242EAC12242EA505232FA03FC8F
:105890008CEAE17CACEBE1707047102BC4BF0020B8
:1058A000704703F5787CBCF1FF3F04D06FF00042F5
:1058B00082EA2100704770B500F0DAF8499224803E
:1058C00000207047F2E710F0004248BF4042B0FAB3
:1058D00080F310FA03F10AD0C3F11D0303F58063CE
:1058E0004FEA415002EB035202EBD12170474FF0D7
:1058F00000007047B0FA80F310FA03F10AD0C3F148
:105900001D0303F580634FEA41504FEA035202EB57
:10591000D12170474FF0000070470000DFF848C108
:1059200070B51CEA111E1EBF1CEA13159EEA0C0F6F
:1059300095EA0C0F00F06F8081EA030423EA4C1310
:105940004EEAD47E21EA4C1141F4801143F48013D5
:10595000AE44A1FB024CA0FB0365AEF17F7E36197D
:1059600055EB0C05A1FB034C4CF10003A0FB021C02
:1059700016EB0C06654153F10003094218BF46F0CF
:10598000010613F4007F0BD14FEA03314FEA0530D3
:10599000340341EA155140EA16506FF003020AE061
:1059A0004FEAC3214FEAC520F40241EA555140EACB
:1059B00056506FF0020202EB2E4201EB025585EACF
:1059C000CE710AD05FEA440C18BF24F0004450F1B5
:1059D000000041F1000120EAD47040F2FE7C6245F3
:1059E00000D270BDA84214BF4FF080444FF0404435
:1059F000002E08BF0024BEF1806FA8BFA1F1C041F6
:105A0000BDE8704080F282804FF0000001F1C0419B
:105A100001F0004170479EEA0C0F0CEA131518BF05
:105A200095EA0C0F06D04FF0000081EA030E0EF04D
:105A3000004170BD00F01CF88900013E00F007B87D
:105A400000F009B84FEA430C5FEA5C5C08D081EAD9
:105A5000030100F05BB84FEA410C5FEA5C5CF6D1F1
:105A60004FF00000014970470000FF070000F87F79
:105A70000EF1020E2EF0030E5EF8046B364205D4D2
:105A8000012A43EB030515F5001F12D8012841EB4D
:105A9000010C1CF5001F0CD80ED14FEAD17C15F576
:105AA000001F0CEB4C0C0CF1020C08BF4CEBD37C30
:105AB00004E04FF0080C01E04FEAD37C0CEB4C05FE
:105AC00026FA05F606F00706B6F1040C06D20EEB30
:105AD000860CBDE870404CF0010C6047DFE80CF02C
