:020000040800F2
:10000000280C0020CD01000871190008210E0008FD
:1000100009190008CD080008772900080000000031
:10002000000000000000000000000000ED210008BA
:10003000D108000800000000891D00086F23000897
:10004000E7010008E7010008E7010008E7010008F0
:10005000E7010008E7010008E7010008E7010008E0
:10006000E7010008E7010008E7010008E7010008D0
:10007000E7010008E7010008E7010008E7010008C0
:10008000E7010008E7010008E7010008E7010008B0
:10009000E7010008E7010008E7010008E7010008A0
:1000A000E7010008E7010008E7010008E701000890
:1000B000D1230008E1230008E7010008E701000858
:1000C000E7010008E7010008E7010008E701000870
:1000D000E7010008E7010008E7010008A928000877
:1000E000E7010008E7010008E7010008E701000850
:1000F000E7010008E7010008E7010008E701000840
:10010000E7010008E701000881250008E701000871
:10011000E7010008E7010008E7010008E70100081F
:10012000E7010008E7010008E7010008E70100080F
:1001300000F002F800F03AF80AA090E8000C8244BF
:100140008344AAF10107DA4501D100F02FF8AFF29C
:10015000090EBAE80F0013F0010F18BFFB1A43F0A5
:1001600001031847545B0000745B0000103A24BF81
:1001700078C878C1FAD8520724BF30C830C144BF0C
:1001800004680C607047000000230024002500264E
:10019000103A28BF78C1FBD8520728BF30C148BFEA
:1001A0000B6070471FB51FBD10B510BD00F044F8BF
:1001B0001146FFF7F7FF03F07BFB00F062F803B492
:1001C000FFF7F2FF03BC00F063F800000948804726
:1001D00009480047FEE7FEE7FEE7FEE7FEE7FEE729
:1001E000FEE7FEE7FEE7FEE704480549054A064B41
:1001F0007047000071230008310100082806002024
:10020000280C00202808002028080020704770478C
:10021000704710B500F008F8006810BD10B504462E
:1002200000F002F8046010BD00487047C4050020CB
:1002300000487047C40500207546FFF7F9FFAE4639
:1002400005006946534620F00700854618B020B5E2
:10025000FFF7CAFFBDE820404FF000064FF000074F
:100260004FF000084FF0000B21F00701AC46ACE85E
:10027000C009ACE8C009ACE8C009ACE8C0098D46CB
:1002800070470446AFF300802046FFF798FF000058
:1002900001491820ABBEFEE72600020070470000AF
:1002A0002DE9F04F8FB0924A516C506C04F006FA71
:1002B00007468F4A116C106C04F000FA80468C4A95
:1002C000D16BD06B04F0FAF98346414604F044F850
:1002D0000646394604F040F8054601F057FD0890FF
:1002E0008349C86B089904F0E9F90E908049086CBD
:1002F000089904F0E3F90D907D49486C089904F0E1
:10030000DDF90C907B4905A801F0D0FE05AD7A49D6
:100310000598086006984860079888600846416814
:100320000C9804F0CBF90546734881680D9804F0E9
:10033000C5F90646294604F051FB04466E4881681B
:100340000E9804F0BBF905466B4801680C9804F060
:10035000B5F90646294604F041FB81466648016826
:100360000D9804F0ABF90546634841680E9804F017
:10037000A5F90646294604F031FB82465F4920462E
:1003800004F09CF905465E480168284603F0E4FF46
:100390005B4908605949484604F090F905465948B8
:1003A0000168284603F0D8FF564908605349504673
:1003B00004F084F9054654480168284603F0CCFF50
:1003C000514908604E48006803F09AFFCDE90401E6
:1003D000204602F0D3FA83464C4904F06FF9804678
:1003E000214604F06BF9074603F08AFFCDE90001CE
:1003F0003F49886803F084FF074601F0E1FE0546A7
:10040000DDE9002303F026FBCDE90201DDE9042349
:1004100003F020FBCDE9060103F0EAFA0B9039481E
:10042000006803F06DFFCDE90401484602F0A6FA2A
:100430008346364904F042F90646494604F03EF93F
:10044000054603F05DFFCDE900012949C86803F0C6
:1004500057FF054601F0B4FE0746DDE9002303F02F
:10046000F9FACDE90201DDE9042303F0F3FACDE95D
:10047000060103F0BDFA0A902348006803F040FF2C
:10048000CDE90401504602F079FA2049009004F0C9
:1004900015F95146019004F011F9834603F030FF3D
:1004A000CDE902011249086903F02AFFCDE90001F4
:1004B00001F086FE0546DDE9022303F0CBFA07468C
:1004C000DDE9042303F0C6FACDE9060103F090FA52
:1004D00009900F4800900748DDE909320B9901F0B7
:1004E000BAFC044801F07AFC0FB0BDE8F08F0000C0
:1004F000F0000020A0000020B80500206F12033A91
:10050000C4000020C8000020CC000020CDCC4C3F0F
:100510000AD7A33A2DE9F04F87B000F0DFF868481A
:10052000FFF7BEFE6749664801F026FD6549486849
:1005300003F0E6FE064603F0F5F9044603F058FA28
:1005400005906049086803F0DBFE064603F0EAF90F
:10055000044603F04DFA06905A49486803F0D0FE6D
:10056000064603F019F9044603F042FA049055498F
:10057000086803F0C5FE064603F00EF9044603F0D2
:1005800037FA03905048C078002872D14E4840781E
:1005900000286ED04D49B1F9040004F02FF8074649
:1005A000049904F08BF80646069904F087F804468F
:1005B0004649B1F9020004F021F88146069904F099
:1005C0007DF88046059904F079F806463F49B1F96F
:1005D000000004F013F88046039904F06FF8074612
:1005E000314603F0B9FE0546214604F0F7F983468B
:1005F0003649B1F9040004F001F80646059904F003
:100600005DF804463149B1F9020003F0F7FF0646F0
:10061000049904F053F80546214603F09DFE02902C
:10062000584603F06DFE80468946029803F068FE46
:1006300042464B46CDE9000102F0C0FE064600F0FE
:1006400049F981F00041044603F0D2F9824620487E
:10065000C0F800A04FF07C5251461E48006800F0E0
:10066000DFFD1D498860084680681A4908600CE073
:10067000FFE71449886803F043FE064600F02AF9B4
:10068000044603F0B5F9144988600E49486803F040
:1006900037FE064600F01EF9044603F0A9F90E499C
:1006A00048600849086803F02BFE064600F012F97E
:1006B000044603F09DF90849086007B0BDE8F08FD3
:1006C000A0000020A0050020D4000020B0000020E1
:1006D00098000020D0000020AC0500202DE9FF414B
:1006E00000F0DCF94F4800F0D3FA4F49B1F934007B
:1006F00003F0E7FB06460F4605204C494C4BCDE97D
:1007000000304C4B4C4ACDE902103046394600F0DF
:10071000C1FC044603F06CF94349C863B1F93600E3
:1007200003F0CFFB06460F4605204049404BCDE97C
:100730000030404B2833404A2832CDE90210304681
:10074000394600F0A7FC044603F052F9014636484A
:1007500001640146B1F9380003F0B3FB06460F46C9
:1007600005203249324BCDE90030324B5033324A0A
:100770005032CDE902103046394600F08BFC044679
:1007800003F036F90146284841640146086A03F03F
:10079000B7FD0746294A2A4B03F0BEFB054603F086
:1007A00027F90446274A21462748006800F038FD0B
:1007B0001D49886008468068234908601A49486ACC
:1007C00003F09EFD07461D4A1D4B03F0A5FB0546A1
:1007D00003F00EF904461B4A21461C48006800F04D
:1007E0001FFD1149C8600846C068184908600E49D5
:1007F000886A03F085FD0746104A114B03F08CFB15
:10080000054603F0F5F804460E4A214610480068F4
:1008100000F006FD04490861084600690C490860BB
:10082000BDE8FF81B0000020F00000207000002033
:100830004800002028050020B004002030689DC832
:10084000FE3F9F3FCBA1C53EB8000020BC0000206A
:10085000C000002030B50020002100220023002528
:10086000184CA4F86050A4F86250A4F8645000BF7B
:100870000DE0144CB4F934402044124CB4F9364025
:100880002144104CB4F9384022445C1CE3B2C82B1C
:10089000EFDBC82490FBF4F425B20A4CA4F86050B6
:1008A000C82491FBF4F425B2064CA4F86250C82485
:1008B00092FBF4F425B2034CA4F864500024024DDA
:1008C0002C7230BDF0000020D400002000BFFEE7F5
:1008D000704700002DE9F04104460D464FF0C0423C
:1008E000054B2046294603F065F906460022034BD6
:1008F00003F012FBBDE8F081FB2109400080664057
:100900002DE9FF4F87B0824691461D464FF0000803
:1009100029460A2002F0FAFF019003F087FE4946BB
:10092000029003F0CBFE834603F04CFE0646002EF9
:1009300003DB20208DF80C0003E076422D208DF89B
:100940000C000B240BE0601EC1B20A2002F0DEFF97
:10095000B6FBF0F008B1A04603E0601EC4B2002C64
:10096000F1DC00BFA8EB0500002821DC30208DF869
:100970000D002E208DF80E00002412E0281B401ED2
:10098000C1B20A2002F0C2FFB6FBF0F00A21B0FBB0
:10099000F1F201FB1200303003AAE11C5054601C3C
:1009A000C4B2AC42EADD002103AAE81C11543AE0CB
:1009B000002413E0A8EB0400401EC1B20A2002F09C
:1009C000A5FFB6FBF0F00A21B0FBF1F201FB12002B
:1009D000303003AA611C5054601CC4B2A8EB05005F
:1009E000A042E7DC2E2103AA601C1154002713E06B
:1009F000E81B401EC1B20A2002F088FFB6FBF0F0EF
:100A00000A21B0FBF1F201FB12003030A11C394485
:100A100003AA5054781CC7B2AF42E9DD002103AAF3
:100A200008F10200115403AA5046089901F09AF8FF
:100A30000BB0BDE8F08F2DE9FE4380468946154690
:100A40001E460021701C0DF80010002D03DB202035
:100A50008DF8000003E06D422D208DF80000002489
:100A600013E0301B401EC1B20A2002F04FFFB5FB5D
:100A7000F0F00A21B0FBF1F201FB120707F13000A0
:100A8000C1B2601C0DF80010C4B2B442E9DB6A4682
:100A90004946404601F066F8BDE8FE8310B500F017
:100AA0004BFD2D4840782C49097840EA01212B481C
:100AB000B0F86000081A00B2284988862648C07835
:100AC0002549897840EA01212448B0F86000081AD5
:100AD00001B22248C186204840791F49097940EA7D
:100AE000012001B21D4801871B48C0791A49897944
:100AF00040EA012000B2194908801748407A164997
:100B0000097A40EA012000B2144948801248C07AAC
:100B10001149897A40EA012000B210498880B1F970
:100B200000100E4AB2F92C20881A03F067FD0B4919
:100B30000862B1F90220B1F92E10501A03F05EFDDF
:100B400006494862B1F90420B1F93010501A03F097
:100B500055FD0249886210BD58010020F0000020B8
:100B60002DE9F04102460025002600200023002444
:100B7000002791F803C00CF00F0591F803C00CF0AA
:100B8000100CBCF1000F03D091F802C04CEA05052F
:100B900091F800C0BCF1000F31D0146800202BE0A8
:100BA0004FF0010C0CFA00F3B1F800C00CEA030698
:100BB0009E4220D183004FF00F0C0CFA03F7BC4388
:100BC00005FA03FC4CEA040491F803C0BCF1280FB9
:100BD00006D14FF0010C0CFA00FCC2F814C00AE078
:100BE00091F803C0BCF1480F05D14FF0010C0CFA8D
:100BF00000FCC2F810C0401C0828D1D31460B1F822
:100C000000C0BCF1FF0F34DD546800202EE000F17D
:100C1000080C4FF0010808FA0CF3B1F800C00CEA18
:100C200003069E4221D183004FF00F0C0CFA03F70C
:100C3000BC4305FA03FC4CEA040491F803C0BCF180
:100C4000280F05D100F1080C08FA0CF8C2F814803E
:100C500091F803C0BCF1480F07D100F1080C4FF028
:100C6000010808FA0CF8C2F81080401C0828CED3FE
:100C70005460BDE8F0810246002093680B400BB140
:100C8000012000E00020704741617047016170471A
:100C90002DE9FF410546002602AB062203213C2038
:100CA00000F034FE594800680A2190FBF1F05749E2
:100CB0000968081A554908609DF809009DF8081050
:100CC00040EA012000B25149096808444F490860D0
:100CD000084600680A2190FBF1F000B2ADF8000070
:100CE0004A48406890FBF1F048494968081A47496A
:100CF00048609DF80D009DF80C1040EA012000B2FC
:100D000042494968084441494860084640680A2108
:100D100090FBF1F000B2ADF802003C48806890FB17
:100D2000F1F03A498968081A384988609DF80B0043
:100D30009DF80A1040EA012000B23449896808444D
:100D400032498860084680680A2190FBF1F000B2C1
:100D5000ADF80400BDF800002D490880BDF8020080
:100D60004880BDF8040088802A48407A40B10120BC
:100D70002949087000202749C870684600F034FCF3
:100D80002548007808B3002023490870002415E0A6
:100D90002248006830F91400002805DA1F4800686E
:100DA00030F91400404203E01C48006830F9140098
:100DB000142801DA701CC6B2601CC4B2062CE7DB32
:100DC000022E02DB01201349C87000241AE01349E7
:100DD000096801EB4401B1F90610104A126832F9B2
:100DE00014208F1807EBD7713DF91420A2EB610096
:100DF00003F004FC804603F0E5FB00B225F8140084
:100E0000601CC4B2032CE2DBBDE8FF81800100203E
:100E100074010020D40000200E00002004000020F7
:100E200000BFFEE700B54FF480600C49086000F099
:100E30002FF94FF400600949086000F029F94FF4D8
:100E400080600649091F086000F022F94FF48060B5
:100E50000249086000F01CF900BD0000140C0140BC
:100E600008B50121082001F08BF94FF48060ADF83E
:100E7000000003208DF8020014208DF8030069465D
:100E80000848FFF76DFE4FF40060ADF80000032046
:100E90008DF8020014208DF8030069460148FFF721
:100EA0005FFE08BD000C014000B54FF480600C49A6
:100EB000086000F0EDF84FF400600949091F086070
:100EC00000F0E6F84FF480600549091F086000F063
:100ED000DFF84FF480600249086000F0D9F800BDE7
:100EE000140C014000B5082100200A02124B1A60C0
:100EF00016E04206100E4FF480620F4B1B1D1A6065
:100F000000F0C6F84FF480620B4B1A6000F0C0F896
:100F1000094A083A126802F400620AB140F001007E
:100F20000A00A1F10103D9B2E3D14FF48062024B70
:100F30001B1D1A6000BD0000100C014000B5082107
:100F40001DE04FF48062134B1A6000F0A1F800F02E
:100F500080022AB14FF400620E4B1B1F1A6003E09F
:100F60004FF400620B4B1A604206100E00F090F82E
:100F70004FF48062074B1B1F1A6000F089F80A00CB
:100F8000A1F10103D9B2DCD14FF48062014B1A60A8
:100F900000BD0000140C014000B54FF4006015497D
:100FA00008604010086000F073F8124808380068C4
:100FB00008B9012000E0002000F4006008B1002022
:100FC00000BD4FF400600B49091D086000F060F897
:100FD00008480838006800F4006008B10020EFE716
:100FE0004FF400600349091D086000F051F801202A
:100FF000E6E70000100C014000B54FF480600C499A
:10100000086000F045F84FF400600949086000F0FE
:101010003FF84FF480600649091F086000F038F877
:101020004FF400600249091F086000F031F800BD6C
:10103000140C014000B54FF480601449086000F0C2
:1010400027F84FF400601149091F086000F020F8EC
:101050004FF480600D49091F086000F019F80B4833
:101060000C38006800F4006038B14FF48060074924
:10107000086000F00DF8002000BD4FF480600349C7
:10108000086000F005F80120F6E70000140C0140AC
:1010900000BF70472DE9FF5F88B092469946DDF8A2
:1010A0005CB0ABF1010004B208E0601E0AEBC001C5
:1010B00003C90AEBC40203C2601E04B2002CF4DCB4
:1010C000DDE90801CAE9000100252E46002418E0E8
:1010D000169800EBC40003C8CDE902010AEBC40076
:1010E00003C8CDE90001DDE9022302F015FF2A461D
:1010F0003346CDE9040102F0ADFC05460E46601C06
:1011000004B25C45E4DB1998401E04B208E0601E9E
:1011100009EBC00103C909EBC40203C2601E04B29B
:10112000002CF4DC0027B846012418E0189800EBE6
:10113000C40103C9CDE9020109EBC40003C8CDE92C
:101140000001DDE9022302F0E7FE3A464346CDE91D
:10115000040102F07FFC07468846601C04B219981F
:101160008442E3DB3A4643462846314602F0DEFF3E
:10117000C9E90001D9E90001CDE90601DDE906016F
:101180000CB0BDE8F09F000010B5482002F05AFBFB
:1011900000F060F800F05AFCFFF762FE4FF4487070
:1011A00002F070FB00F0A4F90A49087000F016F88C
:1011B0000849487000F076F84FF4A06000F012FC87
:1011C00001F0A8F90120034948720121024801F009
:1011D000EDF910BDD4000020000C004010B50A212C
:1011E0003C2001F079F804460CB9002010BD7822AB
:1011F00000213C2001F098F8202201213C2001F040
:1012000093F8002202213C2001F08EF8642002F0C5
:1012100039FB01200149487000BFE7E7D4000020F6
:101220002DE9F04704460D4616463146284603F0A0
:1012300045FA804631464FF07E5003F0CFFB8146A1
:10124000214603F03BFA0746414603F085F8BDE826
:10125000F087000008B50121602000F091FF0B200D
:10126000ADF8000010208DF8030003208DF8020077
:1012700069460A48FFF774FC0B210848FFF706FD92
:101280004FF4A050ADF8000069460548FFF768FC30
:101290004FF4A0510248FFF7F9FC08BD00140140CB
:1012A000001801402DE9F04186B00024A04600203E
:1012B00003900490059001900290002500260027DD
:1012C0007549087000F0A4FB74A20021084600F0E4
:1012D0007BFC77A20221002000F076FC77A204219B
:1012E000002000F071FC40F2DC5002F0CBFA40F23A
:1012F000DC5002F0C7FAADE0B8F1C80F72DA00F0C6
:101300001BF97248C0797149897940EA012000B21D
:101310006F4908806D48407A6C49097A40EA01209B
:1013200000B26B4948806948C07A6849897A40EAC6
:10133000012000B266498880B1F900100398084482
:1013400003906349B1F9021004980844049060497D
:10135000B1F90410059808440590BDF904105C48E3
:10136000B0F90000281A04D55948B0F90000401B14
:1013700003E05748B0F90000281A084400B2ADF85D
:101380000400BDF906105248B0F90200301A04D525
:101390004F48B0F90200801B03E04D48B0F902004D
:1013A000301A084400B2ADF80600BDF908104848EC
:1013B000B0F90400381A04D54548B0F90400C01B40
:1013C00003E04348B0F90400381A084400B2ADF80D
:1013D00008003F48B0F90050B0F90260B0F904705D
:1013E00034E0FFE7BDF904001E2807DABDF9060066
:1013F0001E2803DABDF908001E280FDB4FF0000895
:10140000002408E0002001A921F8140003A941F8F4
:101410002400601CC4B2032CF4DB17E0C82095FB49
:10142000F0F000B22A498885C82096FBF0F001B29E
:101430002748C185C82097FBF0F001B224480186F7
:1014400001201549087000202249C87208F10100E6
:1014500000F0FF081048007800283FF44DAF1D4809
:10146000007A08B1FFF7F6F9002000F0D1FA1AA2CD
:101470000021084600F0A8FB1AA20221002000F07B
:10148000A3FB4FF4FA6002F0FDF9002000F0C0FA6F
:1014900006B0BDE8F081000000000020506C6561DE
:1014A0007365204D616B6520537572650000000007
:1014B00074686520506C616E650000006973204897
:1014C0006F72697A6F6E74616C00000058010020C1
:1014D000F0000020D400002043616C6962726174E6
:1014E000696F6E00436F6D706C657465000000007D
:1014F00010B57521D02000F0EFFE04460CB9002095
:1015000010BD00226B21D02000F00EFF0722192110
:10151000D02000F009FF03221A21D02000F004FFA0
:1015200010221B21D02000F0FFFE09221C21D02018
:1015300000F0FAFE0120E3E710B53B21D02000F0D7
:10154000CBFE284908703C21D02000F0C5FE25497B
:1015500048703D21D02000F0BFFE224988703E2116
:10156000D02000F0B9FE1F49C8703F21D02000F004
:10157000B3FE1C4908714021D02000F0ADFE19498E
:1015800048714121D02000F0A7FE1649087342217E
:10159000D02000F0A1FE134948734321D02000F071
:1015A0009BFE104988714421D02000F095FE0D4922
:1015B000C8714521D02000F08FFE0A4908724621EB
:1015C000D02000F089FE074948724721D02000F062
:1015D00083FE044988724821D02000F07DFE014935
:1015E000C87210BD580100202DE9FF5F8146B04848
:1015F000007898B10020AE490870AE490860AE4945
:101600000860AE490860002406E00020AC49096883
:1016100021F81400601CC4B2062CF6DB002421E083
:10162000A748006830F9140039F91410884206DD23
:1016300039F81400A249096821F8140010E0A04804
:10164000006800EB4400B0F9060039F91410884234
:1016500006DA39F814009A49096801EB4401C88098
:10166000601CC4B2032CDBDB9648407A01285FD1B2
:101670009549486C002102F0EDFF04D29248406C7D
:1016800080F0004001E09048406C05468F4903F02F
:10169000E1F84DD20B218E48FFF7F8FA08218C486B
:1016A000FFF7F2FA8BA20421002000F05BFA8649D2
:1016B000886A02F025FE8A4A8A4BCDE9000102F0D1
:1016C0002BFC07464FF06042874B02F025FC054695
:1016D0000E467848006802F013FE82462A463346DA
:1016E00002F0B8F9CDE9020102F082F9714908600F
:1016F00000217048006802F0ADFF04D26D48006818
:1017000080F0004001E06B4800680546774903F02F
:10171000A1F80DD202206B494872002000F078F940
:101720000B216B48FFF7B2FA02216948FFF7ACFAC8
:101730006448407A022857D16349C86B002102F0FF
:1017400089FF04D26048C06B80F0004001E05E4831
:10175000C06B05465D4903F07DF845D264A20421C3
:10176000002000F0FFF95849086A02F0C9FD8246DE
:101770005B4A5C4B02F0D0FB07464FF060425A4B8D
:1017800002F0CAFB05460E464C48006802F0B8FD60
:101790002A463346CDE9000102F05CF9CDE90201A9
:1017A00002F026F94549086000214448006802F02B
:1017B00051FF04D24148006880F0004001E03F48FA
:1017C00000680546494903F045F80DD203203D491C
:1017D00048720B213E48FFF759FA01213C48FFF7B8
:1017E00053FA002000F014F93648407A03285DD1FE
:1017F0003549086C002102F02DFF04D23248006CFC
:1018000080F0004001E03048006C05462F4903F0AD
:1018100021F84BD239A20421002000F0A3F92A4973
:10182000486A02F06DFD05462D4A2E4B02F074FB0E
:101830004FF060422C4BCDE9000102F06DFB0746F2
:1018400088461D48006802F05BFD82463A464346E2
:1018500002F000F9CDE9020102F0CAF81649086069
:1018600000211548006802F0F5FE04D21248006815
:1018700080F0004001E01048006805461B4902F076
:10188000E9FF13D2002000F0C3F800200D49487290
:101890000B210F48FFF7FAF903210D48FFF7F4F980
:1018A000002000F0B5F8012006490876BDE8FF9F4A
:1018B0000F0000201800002014000020100000205D
:1018C00004000020D4000020F000002000409C45CF
:1018D00000140140726F74617465206279207A008F
:1018E00030689DC8FE3F9F3F4D62603F0000B4439B
:1018F000726F74617465206279207800726F746110
:10190000746520627920790000BFFEE72DE9F0417F
:1019100007460E4615469846FFF73EFB3846FFF74A
:101920000DFBFFF787FB3046FFF708FBFFF782FB55
:10193000FFF732FB791CC8B2FFF700FBFFF77AFB19
:1019400000240DE0FFF7CEFA08F80400681EA0425C
:1019500002D1FFF7A9FA01E0FFF764FA601CC4B2F4
:10196000AC42EFDBFFF748FBFFF792FBBDE8F081ED
:101970007047000070B5002100230F22C47804B323
:10198000154C246804F4E064C4F5E064210AC1F154
:101990000403CA40447804FA03F1847814402143D4
:1019A00009010E4C0678A155047804F01F050124A6
:1019B000AC4005786D11AD0005F1E025C5F800419A
:1019C00009E0047804F01F050124AC40044D0678BA
:1019D000761145F8264070BD0CED00E000E400E013
:1019E00080E100E002490143024A116070470000B3
:1019F0000000FA050CED00E007E040F2375100BFAF
:101A00000A00A1F10101FBD1401E0028F5D1704769
:101A100070B50646002415E004F1B001C8B200F02C
:101A200059F9012000F056F9102000F053F9002573
:101A300004E0304600F07AF9681CC5B2802DF8DB6E
:101A4000601CC4B2082CE7DB70BD000008B50121A2
:101A5000102000F095FB0F20ADF8000003208DF85A
:101A6000020010208DF8030069463D48FFF778F822
:101A700008213B48FFF70AF902213948FFF704F92A
:101A80003220FFF7B9FF02213548FFF7FFF80021A8
:101A9000AE2000F0EFF80021D52000F0EBF8002197
:101AA000802000F0E7F80021A82000F0E3F80021F2
:101AB0003F2000F0DFF80021D32000F0DBF8002108
:101AC000084600F0D7F80021402000F0D3F80021AC
:101AD0008D2000F0CFF80021142000F0CBF8002179
:101AE000202000F0C7F80021022000F0C3F80021F8
:101AF000A12000F0BFF80021C82000F0BBF80021B1
:101B0000DA2000F0B7F80021122000F0B3F800212D
:101B1000812000F0AFF80021EF2000F0ABF80021A9
:101B2000D92000F0A7F80021F12000F0A3F800214F
:101B3000DB2000F09FF80021402000F09BF80021FE
:101B4000A42000F097F80021A62000F093F80021CF
:101B5000AF2000F08FF80020FFF75AFF08BD00000B
:101B6000001001402DE9F0470446884615464FF025
:101B70000009002600274146204600F069F81CE0D5
:101B8000E85D203800F0FF097E2C04DD002408F118
:101B9000010000F0FF08002609E009EB4901094AAD
:101BA00002EB4101885D00F0C1F8701CC6B2062E40
:101BB000F3DBA01DC4B2781CC7B2E85D0028DFD1FA
:101BC000BDE8F087024C00082DE9F04706460F46B5
:101BD000904600250024A14631E018F8090020387D
:101BE000C5B2782E02DD0026781CC7B239463046D1
:101BF00000F02EF8002407E004EB0511134A505CB6
:101C000000F094F8601CC4B2082CF5DB781CC1B25B
:101C1000304600F01DF8002408E004EB05110831FF
:101C20000A4A505C00F082F8601CC4B2082CF4DB55
:101C300006F10800C6B209F1010000F0FF0918F82A
:101C400009000028C9D1BDE8F0870000FB5000085A
:101C500070B504460D4605F1B001C8B200F03AF87F
:101C6000102141EA141000F035F804F00F0000F0E4
:101C700031F870BD70B504460E4626B101211448F6
:101C8000FFF704F803E001211148FEF7FDFF0025EE
:101C900017E008210E48FEF7F7FF04F0800020B19E
:101CA00004210B48FEF7F2FF03E004210848FEF789
:101CB000EBFF08210648FEF7E9FF6006040E681CEA
:101CC000C5B2082DE5DB01210148FEF7DFFF70BD3D
:101CD0000010014070B50446082501211248FEF7A6
:101CE000D3FF08211048FEF7CFFF00BF16E004F035
:101CF000800020B104210C48FEF7C8FF03E0042156
:101D00000948FEF7C1FF08210748FEF7BFFF00BFE3
:101D100008210548FEF7B8FF6006040E2800A5F16B
:101D20000101CDB2E3D170BD0010014070B5044691
:101D3000082501211348FEF7A9FF00BF082111481B
:101D4000FEF7A2FF00BF16E004F0800020B10421DE
:101D50000C48FEF79BFF03E004210A48FEF794FFBE
:101D600008210848FEF792FF00BF08210548FEF74A
:101D70008BFF6006040E2800A5F10101CDB2E3D16E
:101D800070BD000000100140704700002DE9F05FB9
:101D900004464FF07F594FF07C51204602F08EFCF4
:101DA000824625462E460C48A0EB66063546294657
:101DB000504602F083FC8346294602F07FFC8046B1
:101DC000494602F078FD0746294602F077FC0546B1
:101DD0002846BDE8F09F0000DF59375F2DE9F84F36
:101DE00004460025E168E06802F068FC0090A16804
:101DF000A06802F063FC81466168606802F05EFCE6
:101E000082462168206802F059FC8346514602F060
:101E1000A3FA8046494602F09FFA0746009902F06D
:101E20009BFA0646FFF7B2FF05462068294602F0F6
:101E300045FC20606068294602F040FC6060A068B4
:101E4000294602F03BFCA060E068294602F036FC1F
:101E5000E060BDE8F88F2DE9FF4F87B004461546D6
:101E60001E46206806906768D4F80880E0680590F0
:101E70003146059802F022FC29460490404602F0C3
:101E80001DFC039087F000400190089902F016FCB9
:101E90000290039902F0A2FD8346049902F09EFD90
:101EA0008246149902F00AFC8146216802F054FA35
:101EB00020603146404602F001FC29460490059816
:101EC00002F0FCFB03900899069802F0F7FB0290E1
:101ED000039902F083FD8346049902F03DFA82469D
:101EE000149902F0EBFB8146616802F035FA6060FC
:101EF0003146384602F0E2FB29460490069802F08B
:101F0000DDFB03900899059802F0D8FB0290039935
:101F100002F022FA8346049902F060FD8246149989
:101F200002F0CCFB8146A16802F016FAA0603146AF
:101F3000069802F0C3FB29460490384602F0BEFB27
:101F4000039088F000400190089902F0B7FB0290DE
:101F5000039902F001FA8346049902F0FDF98246E2
:101F6000149902F0ABFB8146E16802F0F5F9E060FC
:101F70000BB0BDE8F08F00002DE9F04F85B00446AE
:101F80000D46E168E06802F099FB0390A168A06843
:101F900002F094FB02906168606802F08FFB019090
:101FA0002168206802F08AFB0090019902F0D4F9C0
:101FB0008346029902F012FD8246039902F00EFD5B
:101FC0000646A168606802F079FB8346E1682068F4
:101FD00002F074FB5946039002F0BEF982464FF0BE
:101FE000804102F06BFB0746A168206802F066FBA7
:101FF0008346E168606802F061FB5946039002F095
:10200000EDFC82464FF0804102F058FB8046E168CB
:10201000A06802F053FB83466168206802F04EFB23
:102020005946039002F098F982464FF0804102F041
:1020300045FB8146E168E06802F040FB0390A1683F
:10204000A06802F03BFB02906168606802F036FB1A
:1020500001902168206802F031FB0090019902F0A4
:10206000BDFC8346029902F0B9FC8246039902F056
:1020700073F90490404600F0FFFF80F000402860B4
:102080004846049901F05AFA68600748C07810B9C8
:102090000548407820B93146384601F04FFAA8602B
:1020A00005B0BDE8F08F0000D40000202DE9FE430C
:1020B00005460C46A168206802F000FB0746E1686F
:1020C000606802F0FBFA8046394602F087FC06465B
:1020D0004FF0804102F0F2FA0090E168A06802F04F
:1020E000EDFA07466168206802F0E8FA8046394652
:1020F00002F032F906464FF0804102F0DFFA01901B
:10210000A168A06802F0DAFA80466168606802F0AF
:10211000D5FA8146414602F01FF907464FF080414B
:1021200002F0CCFA06464FF07E5102F0C4FB02905A
:1021300000982860019868600298A860BDE8FE8356
:1021400029B1064AD2690243044BDA6104E0034A2A
:10215000D2698243014BDA617047000000100240EF
:1021600029B1064A12690243044B1A6104E0034A8A
:1021700012698243014B1A6170470000001002404F
:1021800029B1064A92690243044B9A6104E0034A6A
:1021900092698243014B9A6170470000001002402F
:1021A00029B1064AD2680243044BDA6004E0034ACC
:1021B000D2688243014BDA60704700000010024091
:1021C0002DE9F04104460D464FF0C042054B204634
:1021D000294601F0A1FE06460022034B01F0EAFC6D
:1021E000BDE8F081FB21094000806640704710B5D2
:1021F00000F002F810BD00000CB500200190009026
:102200003348006840F480303149086000BF3048EE
:10221000006800F4003000900198401C0190009884
:1022200018B90198B0F5A06FF1D12948006800F401
:10223000003010B10120009001E0002000900098D3
:10224000012843D12348006840F01000214908606C
:102250000846006820F0030008600846006840F067
:10226000020008601A4840681949486008464068FA
:1022700048600846406840F480604860084640680E
:1022800020F47C1048600846406840F4F81048602C
:102290000846006840F08070086000BF0C48006885
:1022A00000F000700028F9D00948406820F00300D1
:1022B000074948600846406840F00200486000BF97
:1022C0000348406800F00C000828F9D10CBD00005C
:1022D000001002400020024070B504460D46FEF793
:1022E0005BFE08B9002070BD2046FEF727FEFEF712
:1022F000A1FE18B9FEF780FE0020F4E72846FEF79D
:102300001DFEFEF797FEFEF747FE611CC8B2FEF702
:1023100015FEFEF78FFEFEF7E5FD0646FEF7C4FD4F
:10232000FEF76AFE3046DEE770B506460C461546F7
:10233000FEF732FE08B9002070BD3046FEF7FEFD04
:10234000FEF778FE18B9FEF757FE0020F4E72046A6
:10235000FEF7F4FDFEF76EFE2846FEF7EFFDFEF7F2
:1023600069FEFEF749FE01F065FA0120E4E77047D7
:1023700010B51348006840F0010011490860084694
:102380004068104908400E494860084600680E49F8
:1023900008400B4908600846006820F48020086067
:1023A0000846406820F4FE0048604FF41F00886033
:1023B000FFF71DFF4FF000600449086010BD0000EA
:1023C000001002400000FFF8FFFFF6FE08ED00E0FD
:1023D00010B5FEF79FF80121880700F0E4F810BD62
:1023E00070B51021404800F0E5F900287AD010219E
:1023F0003D4800F0D8F802213C48FEF73CFC01289B
:1024000009D10221384800F0EFF9374800F0CEF941
:102410003749088066E00021334800F0E5F932488A
:1024200000F0C4F93349088031480088098888429F
:102430000ADD2F4800884FF6FF71081A2D490988D8
:1024400008442D49088006E02A4800882849098860
:10245000401A294908802848008844F620618842AB
:1024600004DD264800882449088003E022480088CB
:10247000224908802048008800EB00104000C82155
:1024800090FBF1F4204602F0B9F81D4908600120E4
:102490001C4908701C4801681948006802F09EFA3F
:1024A000054602F08FF8041E01DB204600E0604282
:1024B000B0F5FA7F07DB1448006811490860002076
:1024C0001249087002E00120104908700E480168A6
:1024D0000B48006802F082FA0D490860084800685D
:1024E0000949086070BD000000040040000C014074
:1024F0002C0000202A0000202E00002030000020A8
:102500001C000020290000202400002028000020BA
:10251000200000201FB532208DF8000001208DF82A
:1025200001008DF802008DF803006846FFF722FADB
:1025300001210820FFF704FE104800F043F840F6A0
:10254000C410ADF808004720ADF804000020ADF835
:102550000A00ADF8060001A9084800F053F901216E
:10256000064800F01DF801221146044800F033F936
:102570000021024800F01AF81FBD0000000C0040C6
:1025800010B50648008800F0010028B14FF6FE7033
:1025900002490880FDF7BEFF10BD0000100C00408E
:1025A000CA4302827047CA430282704721B102883F
:1025B00042F00102028004E002884FF6FE731A40E6
:1025C0000280704710B504466848844208D1012152
:1025D000C014FFF7E5FD0021E014FFF7E1FDC4E0C2
:1025E000B4F1804F08D101210846FFF7B9FD002161
:1025F0000120FFF7B5FDB8E05D48844208D1012114
:102600000220FFF7ADFD00210220FFF7A9FDACE09D
:102610005848844208D101210420FFF7A1FD002180
:102620000420FFF79DFDA0E05348844208D101211A
:102630000820FFF795FD00210820FFF791FD94E0A9
:102640004E48844208D101211020FFF789FD002166
:102650001020FFF785FD88E04948844208D1012118
:102660002020FFF77DFD00212020FFF779FD7CE091
:102670004448844208D101214014FFF791FD002114
:102680006014FFF78DFD70E03F48844209D10121BD
:10269000C804FFF785FD00214FF40020FFF780FDFF
:1026A00063E03A48844209D101210805FFF778FD2B
:1026B00000214FF48010FFF773FD56E03448844248
:1026C00009D101214805FFF76BFD00214FF40010EF
:1026D000FFF766FD49E02F48844208D101214020E0
:1026E000FFF73EFD00214020FFF73AFD3DE02A487C
:1026F000844208D101218020FFF732FD0021802093
:10270000FFF72EFD31E02548844208D101218015D4
:10271000FFF726FD0021A015FFF722FD25E0204848
:10272000844209D101210804FFF73AFD00214FF44A
:102730008030FFF735FD18E01A48844209D10121A5
:102740004804FFF72DFD00214FF40030FFF728FD6E
:102750000BE01548844208D101218804FFF720FDD1
:1027600000214FF48020FFF71BFD10BD002C01401D
:102770000004004000080040000C00400010004031
:102780000014004000340140004C01400050014062
:102790000054014000180040001C00400020004090
:1027A0000040014000440140004801400146B1F8AA
:1027B0004000704730B50246002000230024158AEF
:1027C00005EA0103958905EA010413B10CB1012062
:1027D00000E0002030BD1AB183890B43838102E001
:1027E00083898B43838170470A460021018C4DF613
:1027F000FF7319404FF6FF7303EA02331943018454
:1028000070470000002202881D4B98420ED01D4BDD
:1028100098420BD0B0F1804F08D01B4B984205D0A6
:102820001A4B984202D01A4B984204D14FF68F733C
:102830001A404B881A43174B984207D0164B9842C0
:1028400004D04FF6FF431A40CB881A4302808B888E
:1028500083850B8803850A4B98420BD0094B98421D
:1028600008D00E4B984205D00D4B984202D00D4B2C
:10287000984201D10B7A03860123838270470000BE
:10288000002C0140003401400004004000080040DA
:10289000000C0040001000400014004000400140C7
:1028A000004401400048014010B540F22551154850
:1028B00000F032F828B3134800F058F8C4B21248B8
:1028C000008800F40040E0B90F480088B0F5C87FE8
:1028D00011DA00200D4908800B48008810B901204A
:1028E0000B490880084801880088401C064A10806F
:1028F0000848445405E00448008840F40040024978
:10290000088010BD0048004034000020380000203E
:10291000360000202003002070B50246002400236A
:102920000025002040F66A16B14200D100BFC1F375
:10293000421501F01F03012606FA03F3012D02D10F
:102940009689334006E0022D02D1168A334001E019
:10295000968A33400C12012606FA04F41688344095
:1029600013B10CB1012000E0002070BD0146888841
:10297000C0F30800704700BFFEE7000070B50446D2
:1029800000250021204601F065FE01D284F00044BC
:102990000B49204601F05EFF00D2094C0949204650
:1029A00001F08CFE06464FF07E5101F084FF054693
:1029B0000021284601F04EFE00D20025284670BDB9
:1029C0009A99193F4260D53F490050EAC12018BF8B
:1029D00004204A0D18BF40F0010040F2FF72B2EB34
:1029E000515F08BF40F00200012808BF0520704772
:1029F0004100080218BF04200A0E18BF40F0010071
:102A00004FF07F4232EA010108BF40F00200012886
:102A100008BF0520704700002DE9F74F144694B019
:102A20000021C4E902111599079121F00045C94917
:102A30008D4206DC1599C4E9000117B00020BDE8FD
:102A4000F08FC549DFF814A3A9423CDD0799C44EB5
:102A50000029C44FC44A1599534619DD01F066FB9D
:102A6000554506D0C14AC24B01F060FBC4E90001E4
:102A70000AE04FF0D352BE4B01F058FB32463B46C2
:102A800001F054FBC4E9000117B00120BDE8F08F4C
:102A900000F0E0FF554506D0B44AB54B00F0DAFF30
:102AA000C4E900010AE04FF0D352B14B00F0D2FF6D
:102AB00032463B4600F0CEFFC4E9000117B04FF0AC
:102AC000FF30BDE8F08FAB49A942159978DB21F0C2
:102AD000004183468846A84AA84B01F01DFA00220F
:102AE000A74B00F0B7FF01F0BDF9099001F0E9F93B
:102AF00006460F469C4A534601F00EFA43465A4694
:102B000001F008FB80468A46984A994B3046394680
:102B100001F002FA2A0D01250B924246534601F0BC
:102B2000F9FA032DC4E9000139D00B98C1F30A5119
:102B3000401A05EB45111139814230DA9148C346FC
:102B4000784400EB0510CDF80CA00C90D0E90023E0
:102B50003046394601F0E0F902460B4604910690F2
:102B60005846039901F0E2FA80468A4602460B462F
:102B70005846039901F0DAFA049B069A01F0D6FA56
:102B800083460C9803913946D0E90223304601F080
:102B9000C3F95A46039B01F0C9FA6D1CBDE70798BB
:102BA0000028A2BF099817B0BDE8F08F616881F0D6
:102BB00000416160099817B04042BDE8F08FFFE71F
:102BC00084461598C1F31301C0F30A50A0F2F53002
:102BD0004FEA601800F01F06C6F120001390002095
:102BE0000690079041F4801E05206D4676B1664A36
:102BF00008EB00017A4452F8213002EB8101B34026
:102C00004A68139922FA01F1194305E05F4908EB7C
:102C10000002794451F82210A1FB0E27A1FB0C13EE
:102C20001A449A4234BF0123002303EB070A05EB41
:102C30008003D3E901B70F448F4234BF0121002143
:102C400093448B4411B1934502D903E0934501D2DB
:102C5000012100E00021C3E901B7514445F82010EB
:102C6000011EA0F10100C1DC0298059F00F1005097
:102C7000800F12900298DDE90356800001F021F9DF
:102C8000834628460D9101F033F96FF01D0201F0E3
:102C90004CFFCDE90E01304601F02AF96FF03D02FC
:102CA00001F043FF80468A46384601F021F96FF073
:102CB0005D0201F03AFF074642465346119100F08B
:102CC000C9FEDDE90E2300F0C5FE5A460D9B00F05B
:102CD000C1FE00250E465A4628460D9B01F026FAF5
:102CE000DDE90E2301F022FA4246534601F01EFAB6
:102CF0003A46119B01F00EFADFF898A0244A534699
:102D000001F00AF907468846234A244B31462846F3
:102D100001F002F93A46434600F09CFE0746884619
:102D20004FF0A84253463146284601F0F5F83A469E
:102D3000434600F08FFE159A12F0004F04D0129A0D
:102D400081F0004152421292C4E90001129817B07A
:102D5000BDE8F08FFB21E93F7CD90240FB21F93F20
:102D60007370032E8A19A33B000040543163621A2A
:102D700061B4D03DFB21394183C8C96D305FE43F68
:102D80000000E03F7C300000F82F0000DA2F000048
:102D9000182D4454FB21F93D3326A611460B113C56
:102DA0002DE9FF4D21F0004807460C46B8F1795F48
:102DB00008DA01F057F8002801BF0020324904B0BA
:102DC000BDE8F08D3A4623461046194601F0A4F8B6
:102DD000054602462D480E460B460621784400F073
:102DE0005DF82A46334601F097F8DDE90223824672
:102DF0008B463846214601F08FF804460F4652466E
:102E00005B462846314601F087F822463B4601F0F2
:102E10008DF907468A464FF0FF322846314601F0C9
:102E200084FE1B4A90450ADA3A46534601F07EF981
:102E300004B00022BDE8F04D134B01F06BB9154A08
:102E40004245A8BFA8F500154FF00004B8BF124DC9
:102E500022462B4601F06AF90646884622462B4652
:102E60000020094901F062F904460D463A465346EE
:102E70003046414601F05AF904B022462B46BDE8DF
:102E8000F04D01F047B900000000F03FA82D000010
:102E90003333D33F0000E93F0000D23F2DE9F0413A
:102EA0004F1E00EBC7010446D1E9000115461E463E
:102EB00037F006020DD02A46334601F02DF87F1E6A
:102EC00004EBC703D3E9002300F0C4FD37F006028A
:102ED000F1D1022F25D0042F13D0062F18BFBDE843
:102EE000F0812A46334601F017F8D4E90A2300F0AE
:102EF000B1FD2A46334601F00FF8D4E9082300F06B
:102F0000A9FD2A46334601F007F8D4E9062300F06C
:102F1000A1FD2A46334600F0FFFFD4E9042300F068
:102F200099FD2A46334600F0F7FFD4E9022300F06A
:102F300091FD2A46334600F0EFFFD4E90023BDE8B7
:102F4000F04100F087BD00002DE9FF4D054621F05E
:102F5000004084B00C46B0F1795F0BDA2846FFF7E9
:102F600033FD042808BF00F071F8284608B0214658
:102F7000BDE8F08D2A460B46104600F0CDFF064610
:102F80000F462A46234600F0C7FF804626488A4659
:102F900032463B4605217844FFF780FF8346109870
:102FA000029160B3214A224B4046514600F0B4FFE3
:102FB000CDE900015A4640465146029B00F0ACFF65
:102FC00082468846DDE906014FF0FF3201F0ADFD93
:102FD0005246434601F0AAF832463B4600F09CFFB9
:102FE000DDE9062301F0A2F8DDE9002301F09EF8F7
:102FF00008B02A462346BDE8F04D01F08BB80B46D9
:103000005A463046394600F087FF084A084B00F020
:1030100021FD4246534600F07FFF08B02A46234672
:10302000BDE8F04D00F016BDEE2C00004955555599
:103030005555C5BF012201F078BD00F00BBD00223F
:1030400013461046114600F0B5BD0000024A0020AC
:10305000110701F06ABD000001FDFFFF012101F031
:1030600092BD01F079B90021084601F0E9B96FF08D
:103070005E01080701F087BD2DE9F04104464FF0DD
:103080000E4000EB4400B0F1506F204655D84FF091
:10309000FC41B1EB440F1CD224F000404FF07E51B4
:1030A00001F009FC4FF0FF3101F06DFD054600F025
:1030B00089FC14F0004F1DBF2F4F304E80F00040B0
:1030C0002F4F08BF2F4E4FF0404101F0F7FA044652
:1030D00005E000273E46014601F0F0FA05462A4980
:1030E000284601F0EBFA294901F036F9294601F0AA
:1030F000E5FA274901F030F9294601F0DFFA2549C0
:1031000001F02AF9294601F0D9FA234901F024F9FE
:1031100080462946204601F0D1FA414601F0CEFA18
:1031200005463146204601F017F9294601F014F909
:103130003946BDE8F04101F00FB94FF0E441B1EB81
:10314000440F08D9FFF754FC042808BFFFF78FFF8E
:103150002046BDE8F0814FF07F41B1EB440F03D230
:10316000BDE8F041FFF77ABF0120FDF757F8BDE851
:10317000F041FFF778BF00000000C9BF22AAFDB9E7
:103180000000C93F22AAFD3924FE1C3DC78AD83C55
:103190001E67383D1B93993DAFAA2A3E2DE9F84F93
:1031A00004460D4621F0004000917349814211DC34
:1031B0007249884201DC06D12CB120462946BDE87F
:1031C000F84FFFF737BF6E48002DCCBF6D496E49F1
:1031D000BDE8F88F6D49814211DD6D498142D8BF4C
:1031E0004FF0FF366DDD20462946FFF7EDFB042842
:1031F00008BFFFF72BFF20462946BDE8F88F654939
:10320000654F25F00045814233DD6449814219DD77
:10321000002632464FF080432046294600F01AFC33
:1032200080468A4601222046294601F07EFC002283
:103230003B4600F07BFF4246534600F0BBFC044691
:103240000D463EE001260022BA463B46204629466E
:1032500000F000FC80460F460022534620462946D7
:1032600000F064FF42463B4600F0A4FC04460D46D5
:1032700027E04B4981421BDDDFF828A1022600220E
:1032800053462046294600F047FE00223B4600F008
:10329000E1FB80460F46002253462046294600F0B7
:1032A00045FF42463B4600F085FC04460D4608E0DB
:1032B000032622462B4600203B4900F07BFC0446B7
:1032C0000D4622462B461046194600F025FE8B4639
:1032D000824602460B4600F01FFE07460246334870
:1032E00088460B4606217844FFF7D8FD52465B46D8
:1032F00000F012FE82462E488B463A464346052190
:103300007844FFF7CBFD3A46434600F005FE0246FF
:103310000B46002E504659460CDA00F09BFB224625
:103320002B4600F0F9FD01B022462B46BDE8F04FD8
:1033300000F0F0BE00F08EFB22462B4600F0ECFDC4
:103340001C4A7A4402EBC603D3E9002300F0EEFEE8
:1033500022462B4600F0EAFE174A7A4402EBC603E7
:10336000D3E9002300F0D6FE009A002AB8BF81F00E
:103370000041BDE8F88F0000000010440000F07F1D
:10338000182D4454FB21F93FFB21F9BF0000DC3F1D
:103390000000203E0000F33F0000F03F0000E63F49
:1033A000008003400000F83F0000F0BF6E280000DE
:1033B0002C280000CA270000922700002DE9F04DBC
:1033C0009446CCF1000423F000464CEA0404524F2A
:1033D00046EAD4749A46884621F00042BC4206D898
:1033E000454240EA050442EAD474BC4204D9BDE82F
:1033F000F04D6246FFF721BEAAF14055A5F17F6569
:1034000055EA0C040BD0022404EAAA74434DDFF8F9
:1034100010E144EAD87452EA000B04D00CE0BDE895
:10342000F04DFFF7BBBE002C14BF012CBDE8F08DA2
:10343000022C30D0032C32D056EA0C0B0AD0BE42FC
:1034400020D1BA4209D126F0804622F0804233468C
:10345000114617E000291ADB25E0DFF8C8B0FB446D
:10346000002C04BFDBE90001BDE8F08D012C02BF98
:10347000DBE9000181F00041BDE8F08D022C0AD0AB
:10348000032C0CD0BA4212D1B8F1000F0BDA23484A
:103490002549BDE8F08D28462449BDE8F08D284631
:1034A0007146BDE8F08D1D482149BDE8F08D921BA5
:1034B00012153C2AC4BF19481D490EDCBAF1000F91
:1034C000BEBF12F13C0F0020014606DB624600F051
:1034D00071FB21F00041FFF761FE002C08BFBDE841
:1034E000F08D012C04BF81F00041BDE8F08D114A40
:1034F000114B022C07D000F019FE2A46BDE8F04D12
:103500000A4B00F013BE00F011FE2A46BDE8F04D54
:10351000064B00F0FFBD00000000F07F182D445462
:10352000FB2109C056270000FB21F9BFFB21094000
:10353000FB21F93F075C143326A6A13C2DE9F04797
:103540004FF0684202EB40030C460546B3F1654F6D
:103550003CBF02EB4102B2F1654F7CD2C0F3C753CE
:10356000C1F3C7529A1A1B2A06DD10F0004F14BF90
:1035700076487748BDE8F08712F11A0F17DA11F094
:10358000004F06D010F0004F0CBF72487248BDE8E3
:10359000F0872146284600F053FF0446FFF728FA3B
:1035A000042808BFFFF763FD2046BDE8F08742000E
:1035B000B2EB410F25D910F0004F19BF674F684E8D
:1035C000684F694E224685F0004415460A4680F051
:1035D000004110460A1A5200B2F1807F40D24840A2
:1035E0006249DFF88CA110F0004F18D04FF03F482F
:1035F000384601F0F3F907465146304601F0EEF93E
:1036000017E011F0004F04BF00263746E2D010F05B
:10361000004F19BF574F584E584F594EDAE74FF0E9
:103620007C58384600F098FE07465146304600F078
:1036300093FE06464146284601F040F8214600F038
:103640008BFE82462146404601F038F8294601F0BB
:1036500032F9514600E037E000F0F2FE044604E0A3
:103660002146284600F0ECFE0446014601F026F80B
:103670008046444901F022F8434900F06DFE41467E
:1036800001F01CF8414900F067FE414601F016F8D0
:103690003F4900F061FE414601F010F83D4900F05D
:1036A0005BFE05464146204601F008F8294601F038
:1036B00005F8314600F050FE214600F04DFE394637
:1036C000BDE8F04700F048BE4FF07F42B2EB400F3C
:1036D00028BFB2EB410F03D2BDE8F047FFF7C1BCF2
:1036E00040EA01035B0008BF44F0FF410AD0B2EB9F
:1036F000400F08BFB2EB410F06D125F0804024F007
:10370000804105460C4629E7B2EB400F12BF5FEA45
:10371000410245F0FF4004F000413FF41FAF4A0072
:1037200092EA40033FF51AAF002AACBF4FF09F4624
:103730004FF03E56314600F0C1FF05463146204667
:1037400000F0BCFF04462846214607E7DB0FC9BF4F
:10375000DB0FC93FDB0F4940DB0F49C00000C9BF89
:1037600022AAFDB90000C93F22AAFD390060ED3E42
:10377000C30ACE37000049C022AA7DBA00004940E2
:1037800022AA7D3A2DAD65BD8FB8D53D0FB511BECE
:1037900061C84C3EA8AAAABE00B5244B21F0004245
:1037A00087B09A42DCBF0022134629DD204B9A42A3
:1037B00008D140B94FF00100FCF730FDFFF73FFCA6
:1037C00007B000BD03DBFFF735FC07B000BD02AA60
:1037D000FFF722F910F0030104BF0DF1080C9CE87B
:1037E0000F000DD0012001290ED0022914D00DF1B7
:1037F000080C00909CE80F00FFF7A6FB07B000BD87
:10380000FFF7CEFA07B000BD0DF1080C00909CE860
:103810000F00FFF799FB05E00DF1080C9CE80F0085
:10382000FFF7BEFA07B081F0004100BDFB21E93F80
:103830000000F07F41F2883000E0401E0028FCD1FB
:10384000704700004FF0E021096921F004014FF0BA
:10385000E0221161C21700EB5272C2F3C702074B9C
:103860001A701946097801EB4102C2EBC1114FF6FB
:10387000FF7202EAC101024A118070474000002035
:103880004200002042F2283141434FF0E0225161D2
:103890000121116100BF4FF0E021096901F480317D
:1038A0000029F8D000214FF0E0221161704700009C
:1038B000FDF76AFC23E01248007E00B311480223A2
:1038C000012102680020FDF71BF80E48022319466B
:1038D00042680020FDF714F80A4988680A4900F098
:1038E0003BFD04460223224603210020FDF708F891
:1038F0000348C278012304210020FDF79CF8DAE791
:10390000D4000020AC0500200000344310B502466E
:10391000012000E050430B00A1F10104E1B2F9D114
:1039200010BD000000B5254B21F0004287B09A423F
:1039300003DC0022134600922BE0214B9A4208D16F
:1039400040B94FF00100FCF769FCFFF778FB07B0C6
:1039500000BD03DBFFF76EFB07B000BD02AAFFF757
:103960005BF810F003014FF001000DD0012914D0D5
:1039700002291AD00DF1080C9CE80F00FFF710FA8D
:1039800007B081F0004100BD0DF1080C00909CE8EB
:103990000F00FFF7D9FA07B000BD0DF1080C9CE845
:1039A0000F00FFF7FDF907B000BD0DF1080C009006
:1039B0009CE80F00FFF7C8FAE2E70000FB21E93FAF
:1039C0000000F07F70B5054600F080FF044620F04F
:1039D0000040C0F1FF40C00F08D025F00040C0F10A
:1039E000FF40C00F04BF0120FCF718FC204670BD4B
:1039F00021F00042A2F16052B2F5801F01F00043B5
:103A000028BFD2F17F6C0BD95FEA001C43EAC202E7
:103A100042EB507018BF704728BF20F0010070477C
:103A2000B2F5801FBCBF184670474FEA410C1CF529
:103A3000001F02D2084600F008BF70B500F016FB68
:103A400000000089FFF7F6BF4FF00040A0F58000AE
:103A50007047000010B591EA030F48BF83F00043A0
:103A600000F16C83841A71EB030C05D2121943EB3D
:103A70000C03001B61EB0C01DFF824E14FEA115449
:103A8000A4EB135C1EEA430F18BF9EEA445F73D099
:103A900023EA0E03DCF1200E21EA045143F48013E3
:103AA00032D322FA0CFE10EB0E0023FA0CFE41EB8F
:103AB0000E01CCF1200E03FA0EFE10EB0E0051F1B8
:103AC0000001B1F5801FCCF1200E32D201EB045180
:103AD00012FA0EF2BDE8104058BF7047401C38BFC4
:103AE0005FEA420218BF7047002814BF20F00100AF
:103AF00041F100014FEA410313F5001F38BF704741
:103B0000A1F1C04100F000BB012A43EB0302ACF17C
:103B1000200CDCF11F0E32BF4FF0000E23FA0CF325
:103B200010EB030041EB0451B4EB115FD0D0A1EBDB
:103B3000045101F5801149085FEA300001EB04519E
:103B40000ED350F1000038BF12FA0EFE08D1BDE8C6
:103B50001040C9E7401C38BF5FEA4202CAD1C3E740
:103B6000BDE810404FEA410313F5001F38BF70470E
:103B7000A1F1C04100F0C8BA9EEA445F08D011EA42
:103B80005E0FBDE8104004BF01F000410020704707
:103B9000BDE8104070B500F069FA00BF64FBBE3E9E
:103BA0000000E0FF02494FF0000000F08CBF00BFB2
:103BB0000000F87F2DE9C04130B4DFF8A0C23CEA34
:103BC000111418BF3CEA131400F0EC8081EA0305DD
:103BD0001CEA111444EAD57418BF1CEA131500F04E
:103BE000C780A4EB05044FF0004545EAC12145EA32
:103BF000C32341EA505143EA525304F17F7499427E
:103C000004F500344FEAC0204FEAC22208BF9042B8
:103C100000F09C804FEA13650FF24016765D4FEA84
:103C2000134506FB05F7C7F1807706FB07F74FEA58
:103C3000D737A7FB03687642C8F58038A7FB06CEC6
:103C400038BFA8F1010807FB08E64FF0000EA6FBFD
:103C5000028CE6FB03CEDCF1000CCEF1004E38BF47
:103C6000AEF1010EA6FB0C584FF000074FF0000517
:103C7000E6FB0E87A1FB08C6A0FB07CE16EB0E06DF
:103C800045F10005E1FB076515F1E04E7EBFA4F5A7
:103C900080345FEA46066D4116F1800745F1000564
:103CA0004FEA17274FEA066647EA0567A6F1DE46A0
:103CB000B6F1805F4FEA15251FD9384624F0010C74
:103CC00005EBC471BCF1FE6F01EB0C1102D8F0BC26
:103CD000BDE8008124425CBF01F5801E9EEAC47FDE
:103CE00002D4F0BCBDE80081244238D4F0BCA1F17C
:103CF000C041BDE8004100F007BA4FEAD22242EAD3
:103D000043524FEAD323A7FB02864FEAD02040EA72
:103D1000415007FB03661EEA0E0F4FEAD12105FB57
:103D2000026658BFA6EB0056B6EB00564FEA520E9D
:103D30004EEAC37E18EB0E0E56EB530EBDD518EBB4
:103D400002085E417F1C55F10005B6E74FF480156F
:103D50004FF000074FF000064FF00008ADE7F0BC51
:103D60004FF0000001F1C04101F00041BDE80081C9
:103D700011EA0C1F0CEA131500D00CE013EA0C1F1B
:103D800000F025804FF00000F0BC81EA030101F053
:103D90000041BDE80081F0BCBDE8004181EA0301BB
:103DA00000F0B2B9F0BCBDE8004170B500F05EF9BA
:103DB000097EFC3E00F007B881EA03014FF00000E5
:103DC00001F00041704781EA030100F09DB9F0BCA9
:103DD000BDE800414FF0000021497047FFFDFBF9AD
:103DE000F7F5F4F2F0EEEDEBE9E8E6E4E3E1E0DE2E
:103DF000DDDBDAD8D7D5D4D3D1D0CFCDCCCBCAC8A0
:103E0000C7C6C5C4C2C1C0BFBEBDBCBBBAB9B8B7C6
:103E1000B6B5B4B3B2B1B0AFAEADACABAAA9A8A8B9
:103E2000A7A6A5A4A3A3A2A1A09F9F9E9D9C9C9B87
:103E30009A99999897979695959493939291919032
:103E40008F8F8E8E8D8C8C8B8B8A898988888787C3
:103E50008685858484838382828181800000FF0738
:103E60000000F87F4FEA41034FEA5353A3F5806304
:103E7000D3F11E03C8BFD3F1210C0CDD4FF000427B
:103E800042EAC12242EA505232FA03FC8CEAE17C57
:103E9000ACEBE1707047102BC4BF0020704703F5F6
:103EA000787CBCF1FF3F04D06FF0004282EA210031
:103EB000704770B500F0DAF849922480002070470E
:103EC000F2E710F0004248BF4042B0FA80F310FA27
:103ED00003F10AD0C3F11D0303F580634FEA41509B
:103EE00002EB035202EBD12170474FF00000704704
:103EF000B0FA80F310FA03F10AD0C3F11D0303F501
:103F000080634FEA41504FEA035202EBD1217047E0
:103F10004FF0000070470000DFF848C170B51CEAA0
:103F2000111E1EBF1CEA13159EEA0C0F95EA0C0F1A
:103F300000F06F8081EA030423EA4C134EEAD47E3A
:103F400021EA4C1141F4801143F48013AE44A1FBEB
:103F5000024CA0FB0365AEF17F7E361955EB0C05D4
:103F6000A1FB034C4CF10003A0FB021C16EB0C065A
:103F7000654153F10003094218BF46F0010613F4EE
:103F8000007F0BD14FEA03314FEA0530340341EA99
:103F9000155140EA16506FF003020AE04FEAC321C0
:103FA0004FEAC520F40241EA555140EA56506FF0FD
:103FB000020202EB2E4201EB025585EACE710AD0D5
:103FC0005FEA440C18BF24F0004450F1000041F1B6
:103FD000000120EAD47040F2FE7C624500D270BD40
:103FE000A84214BF4FF080444FF04044002E08BF59
:103FF0000024BEF1806FA8BFA1F1C041BDE87040B0
:1040000080F282804FF0000001F1C04101F00041D8
:1040100070479EEA0C0F0CEA131518BF95EA0C0FB7
:1040200006D04FF0000081EA030E0EF0004170BD93
:1040300000F01CF88900013E00F007B800F009B854
:104040004FEA430C5FEA5C5C08D081EA030100F0B0
:104050005BB84FEA410C5FEA5C5CF6D14FF00000C0
:10406000014970470000FF070000F87F0EF1020EC3
:104070002EF0030E5EF8046B364205D4012A43EBA2
:10408000030515F5001F12D8012841EB010C1CF5A2
:10409000001F0CD80ED14FEAD17C15F5001F0CEB98
:1040A0004C0C0CF1020C08BF4CEBD37C04E04FF03D
:1040B000080C01E04FEAD37C0CEB4C0526FA05F620
:1040C00006F00706B6F1040C06D20EEB860CBDE82E
:1040D00070404CF0010C6047DFE80CF0090B020265
:1040E0004FF000414FF00000A1F5002170BD1946CE
:1040F0001046012851EB010418BFD4F5001484BF09
:10410000002001F0004170BD0808A0F500114FEA41
:104110003101704791EA030F10B581F000413FF57E
:10412000A1AC83F0004300F009B8000010B591EA9B
:10413000030F48BF83F000433FF594AC841A71EB42
:10414000030C07D212198CF0004C43EB0C03001B3C
:1041500061EB0C01DFF8A4E14FEA1154A4EB135C0E
:104160001EEA430F18BF9EEA445F00F0B08023EAC6
:104170006E03524221EA0451C3EB6E0338BF5B1E4B
:10418000DCF1200E25D322FA0CFE10EB0E0043FAD0
:104190000CFE41EB0E01CCF1200E03FA0EFE10EBEB
:1041A0000E0051F10001CCF1200E29D412FA0EF2CA
:1041B00001EB0451BDE8104058BF7047401C1CBFC4
:1041C000B2F1004F704700280CBF491C20F00100DD
:1041D000704712EB020E43EB030218BF4FF0010EC3
:1041E0004EEA4202ACF1200CDCF11E0E54D943FA27
:1041F0000CFE10EB0E0051F1FF31CCF11E0ED5D5A7
:104200000EF1010E12FA0EFE404141EB010101EBED
:10421000445C5FEA5C5C10D910EBDE7001EB04518A
:1042200038BFBEF1004FBDE8104018BF70470028EE
:104230000CBF491C20F00100704730D24FEAD42C4B
:1042400011F5001124F400641BD0B1FA81F20B3A8D
:10425000A41AA41ED2F12003914030FA03F31943AB
:10426000904001EBCC71002C01EB0451BDE81040F3
:10427000A8BF704701F1C0414FF0000001F00041BC
:104280007047B0FA80F310FA03F100D110BDE41AC0
:10429000173C4805C90AE4E701EB045110BD491079
:1042A00001EB0451BDE810404FEA300002E04FF04E
:1042B000000170474A0008BF0042F8D0B2F5001F65
:1042C00028BF704701F000414FF0000070479EEAA0
:1042D000445F07D011EA5E0FBDE8104004BF002123
:1042E00000207047BDE8104070B5FFF7BFFE00BF6B
:1042F00040DFF63E83F00041104670470000E0FFCB
:1043000043004FEAD30C4FEA3C0C43401FBF400729
:104310000CF1605113F0FE4F70471CF0006F03D199
:1043200000200CF0004170470CF0004343EA50704D
:1043300010B540EACC0000F042FA00BF0000009245
:104340004FEA0001FFF7E0BE4FF000414FF00000E0
:10435000A1F500217047000090EA010F48BF81F0ED
:10436000004100F14283421A3CBF801A89184FEA8B
:10437000D0524FF07F4C1CEA410FA2EBD15318BF33
:104380009CEA026F00F03B804FF0004C4CEA0020AA
:104390004CEA012121FA03FC10EB0C0C1ED202F1B5
:1043A000FF325FEA1C2040EBC25038BF70471CF060
:1043B0007F0F4FEA400C18BFBCF17F4F38BF7047EA
:1043C000C3F12003994008BF20F00100BCF17F4FEA
:1043D00038BF7047A0F1C04000F037BA4FEA3C0048
:1043E000000A40EBC25028BF1CF0FF0F4FEA400C00
:1043F000E6D018BFBCF17F4F38BF7047EAE79CEAB0
:10440000026F05D010EA5C0F08BF00F00040704753
:1044100010B500F0D4F900BF64FBBE3E014800F0C7
:1044200052BB00BF0000C07F401058BFC0F14040E9
:10443000491058BFC1F140418142EFF300807047FD
:104440004FF47F0C1CEAD0121EBF1CEAD11392EA73
:104450000C0F93EA0C0F00F0858090EA010F48BF23
:1044600042F4807240F4000C41F400002CF07F41D3
:1044700020F07F4000B58142A2EB03020FF2081C3E
:10448000ACEB504EC0F100009EF800E04FEA4E0E3B
:1044900000FB0EFC38BF49004FEA2C1C02F5FA0263
:1044A0000CFB0EF34FEACE1E4FEA112C4FEAC1214E
:1044B0000EEB635E42EB22420EFB0CFC4FEA1C53F8
:1044C00000FB03114FEA112C4FEA01310EFB0CFCEB
:1044D0004FEADC4C00FB0C11C14228BF09184CEB21
:1044E00003335DF804EB10EB410143EBC250B2F52E
:1044F0007C0F38BF704729D512F0F00F1CBF00F1B8
:10450000C04000F000407047008182838485868728
:1045100088898B8C8D8E8F919293959697999A9C82
:104520009D9FA0A2A3A5A7A8AAACAEB0B2B3B5B7F1
:10453000B9BCBEC0C2C5C7C9CCCED1D4D7D9DCDFC7
:10454000E2E6E9ECF0F3F7FAFE0000004FEA400C77
:104550000CF1807CBCF17E4F28BF7047B0F1C040A9
:1045600000F073B990EA010F0CEAD11348BF42F48E
:104570008072624538BF634507D213F47F0F16D0AF
:1045800080EA010000F00040704710B500F017F914
:10459000097EFC3E00F005B880EA010000F0004012
:1045A000704780EA010000F0004000F04EB912F4BC
:1045B0007F0F04BF0248704780EA010000F045B950
:1045C0000000C07F41000B0ED3F19E0208D950F4C9
:1045D00000034FEA032323FA02F048BF404270472A
:1045E00010B500F0ECF800BF49922480002070471D
:1045F0006FF0004282EA20007047000010F0004196
:1046000048BF4042B0FA80F310FA03F2C3F19D03B1
:104610000BD051EAC35101EB1220530638BF70474B
:1046200000F1010008BF20F001007047B0FA80F3EC
:1046300010FA03F2C3F19D030AD0D90501EB122051
:10464000530638BF704700F1010008BF20F0010099
:104650007047000050EA010C00F113801CF5000FB8
:1046600058BFBCF5000F01D48842704707D710F53A
:10467000000F58BF11F5000F15D4884270478942CA
:1046800070471CF5000F04D5BCF5000FF7D581422B
:1046900070474FF0807C1CEB400F38BF1CEB410F84
:1046A00001D28142704710B500F089F89224490088
:1046B0004FF000504FF08051FFF7B6BE4FF47F0C23
:1046C0001CEAD0121EBF1CEAD11392EA0C0F93EA27
:1046D0000C0F00F0478090EA010F48BF42F480724F
:1046E0004FF0004C4CEA00204CEA012102EB03029F
:1046F000A0FB0113A2F50002002918BF43F001033B
:104700005B0028BF4FEA330342EB22425FEA132CDF
:104710004CEBC2502EBFBCEB436FB2F57C0F704721
:104720004FEA036CBCF1004F08BF20F00100B2F566
:104730007C0F38BF70470BD582F0FF0212F5803F27
:10474000C8BF704700F1C040D8BF00F000407047BC
:1047500000F5000C5FEA4C0C48BF7047B0F1C04058
:1047600000F073B890EA010F0CEAD11348BF42F48D
:104770008072624538BF634504D280EA010000F0D0
:104780000040704710B500F01AF800BF8900013EE4
:1047900000F007B800F009B85FEA410C5FEA1C6C52
:1047A00008D080EA010000F050B85FEA400C5FEAF0
:1047B0001C6CF6D14FF00040A0F5800070470EF160
:1047C000020E2EF0030E5EF8044B244204D44FEA8E
:1047D0004102B2F17F4F11D84FEA4003B3F17F4F4E
:1047E0000CD80ED14FEAD07CB2F17F4F0CEB4C0CC1
:1047F0000CF1020C08BF4CEBD17C04E04FF0080C2C
:1048000001E04FEAD17C0CEB4C0324FA03F404F0F2
:104810000704B4F1040C06D20EEB840CBDE8104082
:104820004CF0010C6047DFE80CF0070802024FF083
:104830000040A0F5800010BD0846420018BFD2F12C
:10484000807288BF00F0004010BDFF2141EAD050C7
:10485000C005704751EA000C00F113801CF5000FF1
:1048600058BFBCF5000F01D48142704707D711F53E
:10487000000F58BF10F5000F15D4814270478942D0
:1048800070471CF5000F04D5BCF5000FF7D5884222
:1048900070474FF0807C1CEB410F38BF1CEB400F82
:1048A00001D28842704780EA010081EA000180EA73
:1048B0000100FFF7F8BE80F0004090EA010F7FF59D
:1048C00052AD81F0004100F090B800004FEAD051A5
:1048D000002988BFD1F1FF0240F2758001F17D010E
:1048E0004FEA002070B5490840F0004038BF40084A
:1048F0000EA2430E040CD25C02FB02F304FB03F392
:10490000C3F14043A3FB0254ED0D45EA442202FBF0
:1049100002F3A0FB03546D42C4F1404438BF641E4F
:10492000A2FB05350023E2FB0453EA0B42EA4342B3
:10493000A0FB023212F14004A2F12103E40903F0CA
:104940007F031F2B32D904EBC15070BDFEFAF7F381
:10495000F0ECE9E6E4E1DEDCD9D7D4D2D0CECCCAA3
:10496000C8C6C4C2C1BFBDBCBAB9B7B6B4B3B2B091
:10497000AFAEACABAAA9A8A7A6A4A3A2A1A09F9ED4
:104980009E9D9C9B9A9998979796959493939291B4
:1049900090908F8E8E8D8C8C8B8A8A898988878760
:1049A00086868584848383828281818004FB04F6E9
:1049B000B6EB004603D5E64248BF641CC3E7A642F7
:1049C00058BF641CBFE711F0FF0F02D100F0004098
:1049D000704710B5FFF7F3FE7FDBFFBE90EA010FD3
:1049E00048BF81F000413FF5BEAC421A04D882F0C6
:1049F0000042A0EB020011444FEAD0524FF07F4C2E
:104A00001CEA410FA2EBD15318BF9CEA026F4AD0B7
:104A10004FF0004C4CEA00204CEA012121FA03FC43
:104A2000B0EB0C0C0FD412F0FE0F36D05FEA4C0046
:104A30001DD5001240EBC25038BF70471CF03F0F2D
:104A400018BF70470BE0A2F101025FEA1C2040EBA7
:104A5000C25038BF70471CF07F0F18BF7047C3F1BA
:104A60002003994014BF401E20F0010070478008C9
:104A70004FEA122308BF7047B0FA80FCA2EB0C0289
:104A8000CCF1280C60FA0CF093EA122F04BF00EB73
:104A9000C25070474FEAC3707047130A5FEADC10D8
:104AA00008BF7047F6E79CEA026F04D010EA5C0F7B
:104AB00008BF0020704710B5FFF781FE40DFF63ECB
:104AC00081F0004070470CF00F03092B08BF08204D
:104AD00000F07F800A2B0BD0082B18BF704708BF4F
:104AE0001CF0400F0AD04FF000004FF0000170475B
:104AF0001CF0400F18BF4FF0004070471CF0100F23
:104B000008D020F0704300F07F4242EAD3014FEA20
:104B10004370704700F0604021F07F4242EA00029B
:104B200001F07F4040EA727070474FF0FF0C4CF488
:104B3000E06C1CEA11531CBF9CEA030C9445C2BFF5
:104B4000DA4201EB02517047002B0DD0BCF1000F8F
:104B50000FD0002A01F00041A4BF41F0E04141F034
:104B60007F614FF00000704701F000414FF00000FE
:104B7000704750EA01334FF09B0C18BF4CF0806C2B
:104B80007FF410A870474FF0FF0212EAD0521CBF0A
:104B900092F0FF038B42C2BFD14200EBC15070477D
:104BA000002A0AD0002B0BD0002900F00040A4BF3F
:104BB00040F0FE4040F40000704700F000407047B5
:104BC00043024FF00B0C18BF4CF0806C7FF426AC06
:104BD00070471CF4801F11D01CF4E02F03D06FEA43
:104BE000CC31490070474FF04050EFF3008222F083
:104BF000704242EA000282F3008870474FF00000E2
:104C000070470000000000000000002F00000000BE
:104C10000700070000147F147F1400242A7F2A1243
:104C20000062640813230036495522500000050332
:104C3000000000001C224100000041221C00001462
:104C4000083E08140008083E0808000000A06000A4
:104C5000080808080808000060600000002010082C
:104C60000402003E5149453E0000427F40000042A0
:104C700061514946002141454B31001814127F1003
:104C8000002745454539003C4A4949300001710932
:104C9000050300364949493600064949291E0000E6
:104CA00036360000000056360000081C2A49080865
:104CB0000014141414140808492A1C080002015195
:104CC000090600324959513E007C1211127C007FC6
:104CD00049494936003E41414122007F4141221C61
:104CE000007F49494941007F09090901003E4149C6
:104CF000497A007F0808087F0000417F41000020BA
:104D000040413F01007F08142241007F4040404065
:104D1000007F020C027F007F0408107F003E4141AB
:104D2000413E007F09090906003E4151215E007F96
:104D3000091929460046494949310001017F01010D
:104D4000003F4040403F001F2040201F003F4038B0
:104D5000403F0063140814630007087008070061EF
:104D60005149454300007F41410000552A552A55CD
:104D7000000041417F000402FF020400002040FFC8
:104D80004020000001020400002054545478007FA9
:104D90004844443800384444442000384444487F60
:104DA00000385454541800087E0901020018A4A4C5
:104DB000A47C007F080404780000447D400000408B
:104DC00080847D00007F102844000000417F400067
:104DD000007C04180478007C0804047800384444FB
:104DE000443800FC242424180018242418FC007CD7
:104DF0000804040800485454542000043F44402050
:104E0000003C4040207C001C2040201C003C4030E6
:104E1000403C004428102844001CA0A0A07C004472
:104E200064544C44141414141414BAE3CDD8BFC6FB
:104E3000BCBCB5E7B5F7D0A3D7BCC7EBBDABB7C912
:104E4000D0D0C6F7D6C3D3DACBAEC6BDD7B4CCACC0
:104E5000C7D2B1A3B3D6BEB2D6B900E000FF1020CE
:104E600002F29292929292F2020000FF0000404FF2
:104E700044444444444F401010FF1090040484E420
:104E80009C8484840444827F01040201FF404040EA
:104E900040FF0024A4FEA3220022CC0000FF00005B
:104EA000000601FF00010404040404FF02020210D2
:104EB00010FF109008888888FF8888880844827FBF
:104EC00001808040432C102846818000F888888823
:104ED00088FF88888888F80000001F080808087F75
:104EE000888888889F80F042CC0000FE829292FEE3
:104EF000929282FE00003F10887F001E1212125E06
:104F0000807F0010D0FF9010804828090E082848A4
:104F1000880300FF00018080432C102C4380800216
:104F20000CE04020F84F4849FE48484808047F00FC
:104F30000000FF2222223F2222222042CC000044F5
:104F40005454547F5454544440007F201000FF15A3
:104F5000151555957F0000083000FF008884532206
:104F600012CA060000040201FF00020A1242827FF8
:104F70000202020202020202020202FE40A0100825
:104F8000000000000000000000030C102142F0109F
:104F900088C4330040424242C2424242400100FFC4
:104FA0000000000040807F00000000809E929292EE
:104FB0009EE0809EB2D2929E8008F4949292F1007C
:104FC00001F2929494F8081715D55557557D555709
:104FD00055D515170040407F555555555555557FAA
:104FE000404040404242424242FE424242424240EF
:104FF000400000000040807F000000000000002012
:105000002020A06000FF60804020180000100806EB
:105010000140807F000102040810100202126202A7
:1050200002FE02024232020200010101010101FFFF
:1050300001010101010101083000FF20202020FFB3
:105040002020222C20040201FF8040300E0106188F
:105050002040800484844424548F14244484840491
:10506000003900003C4040424C404070040931008F
:1050700000FE22222222222222FE00000040407F47
:10508000424242424242427F4040408060F8070034
:105090003E2222E222223E00000000FF20110905EC
:1050A00003FF03050911201010FF10104048484865
:1050B0007F48C8484044827F010002020A124282AF
:1050C0007F020254547F545444202827E4342CE0B7
:1050D00000FF1555957F000949897F09091F0100C7
:1050E00000F0000000FF4040404040000040407F92
:1050F0004040407F404040404040400000000000B1
:105100000000000000000000000000000000F800A7
:10511000000000000000333000000000100C0610FA
:105120000C0600000000000000000040C07840C0F5
:10513000784000043F04043F040400007088FC0829
:10514000300000001820FF211E0000F008F000E0F1
:1051500018000000211C031E211E0000F0088870AA
:105160000000001E2123241927211010160E000014
:105170000000000000000000000000000000E01837
:10518000040200000000071820400000020418E09C
:105190000000000040201807000000404080F08020
:1051A0004040000202010F01020200000000F00076
:1051B0000000000101011F010101000000000000CA
:1051C00000000080B070000000000000000000003F
:1051D00000000000010101010101010000000000C8
:1051E00000000000303000000000000000000080DF
:1051F000601804006018060100000000E0100808B4
:1052000010E000000F102020100F00001010F80018
:105210000000000020203F20200000007008080847
:10522000887000003028242221300000300888884F
:105230004830000018202020110E000000C020106F
:10524000F8000000070424243F240000F8088888A0
:105250000808000019212020110E0000E0108888A5
:10526000180000000F112020110E0000380808C897
:105270003808000000003F000000000070880808A7
:10528000887000001C222121221C0000E010080868
:1052900010E0000000312222110F00000000C0C009
:1052A000000000000000303000000000000080001E
:1052B000000000000080600000000000008040202E
:1052C0001008000001020408102000404040404047
:1052D00040400004040404040404000008102040BA
:1052E0008000000020100804020100007048080837
:1052F00008F0000000003036010000C030C828E887
:1053000010E0000718272423140B000000C038E029
:10531000000000203C23020227382008F8888888F3
:10532000700000203F202020110E00C03008080827
:10533000083800071820202010080008F80808087E
:1053400010E000203F202020100F0008F88888E897
:10535000081000203F20202320180008F88888E843
:10536000081000203F200003000000C0300808089B
:1053700038000007182020221E020008F80800004C
:1053800008F808203F210101213F20000808F80803
:105390000800000020203F2020000000000808F83E
:1053A000080800C08080807F00000008F888C028BE
:1053B000180800203F20012638200008F8080000C7
:1053C000000000203F20202020300008F8F800F8DE
:1053D000F80800203F003F003F200008F830C000E0
:1053E00008F808203F200007183F00E010080808D0
:1053F00010E0000F10202020100F0008F808080807
:1054000008F000203F210101010000E01008080819
:1054100010E0000F18242438504F0008F8888888BE
:10542000887000203F2000030C302000708808089E
:105430000838000038202121221C00180808F8082C
:105440000818000000203F2000000008F8080000B5
:1054500008F808001F202020201F0008788800007E
:10546000C83808000007380E010000F80800F800EE
:1054700008F800033C0700073C0300081868808018
:1054800068180820302C03032C30200838C800C8C6
:105490003808000000203F2000000010080808C85D
:1054A0003808002038262120201800000000FE02C5
:1054B0000202000000007F40404000000C30C000AD
:1054C000000000000000010638C00000020202FED9
:1054D000000000004040407F000000000004020285
:1054E00002040000000000000000000000000000B6
:1054F00000000080808080808080800002020400A4
:10550000000000000000000000000000008080801B
:105510008000000019242222223F2008F800808009
:10552000000000003F112020110E000000008080CC
:10553000800000000E11202020110000000080805B
:1055400088F800000E112020103F2000008080808D
:10555000800000001F222222221300008080F08899
:105560008888180020203F202000000000808080D4
:10557000808000006B94949493600008F800808011
:10558000800000203F210000203F200080989800EC
:105590000000000020203F20200000000000809834
:1055A00098000000C08080807F000008F800008024
:1055B000808000203F24022D302000000808F800E1
:1055C0000000000020203F2020000080808080809C
:1055D000808000203F20003F20003F8080008080AE
:1055E000800000203F210000203F200000808080BC
:1055F000800000001F202020201F0080800080806D
:1056000000000080FFA12020110E0000000080801B
:10561000808000000E112020A0FF8080808000800C
:1056200080800020203F2120000100000080808039
:105630008080000033242424241900008080E0802E
:105640008000000000001F2020000080800000007B
:10565000808000001F202020103F208080800000DC
:1056600080808000010E30080601008080008000EC
:105670008080800F300C030C300F00008080008091
:105680008080000020312E0E3120008080800000BC
:1056900080808080818E701806010000808080806C
:1056A0008080000021302C2221300000000000808A
:1056B0007C020200000000003F404000000000FFAC
:1056C00000000000000000FF0000000002027C80DB
:1056D0000000000040403F0000000000000000000B
:1056E00000808000000000000001010000000000B8
:1056F00000000000000000000000000000000000AA
:105700000000000000000000000000000000000099
:105710000000000000000000000000181C3C3C7C61
:10572000FC3C3C7CD80000000000000000000000B1
:105730000000000000000000000000000000000069
:105740000000000000000000000000000000000059
:105750000000000000000000000000000000000049
:105760000000000000000000000000000000000039
:105770000000000000000000000000000000000029
:105780000000000000000000002060E0C0C0C0C0B9
:1057900080C0800000000000000000000000000049
:1057A000FF8040201F0000000000000000000000FB
:1057B0000000000000000000000000000000008069
:1057C000C08080C0C0C0C060600000000000000059
:1057D00000000000000000000000000000000000C9
:1057E00000000000000000000000000000000000B9
:1057F00000000000000000000000000000000000A9
:10580000000000000000000000000000000101197D
:10581000FFFFFFFF73F2F6E4E4ECC8C8C0C080F0FD
:10582000FFF0E0F0D0D8FCFEFFFFFFFFFCC0C0C0DF
:10583000E0E0F0F0E0C0C0C4E4E4E2F2727BFFFF1D
:10584000FFFF19010101000000000000000000003E
:105850000000000000000000000000000000000048
:105860000000000000000000000000000000000038
:105870000000000000000080808080808080C040A8
:10588000C0F0F8F0F0E060F0F07070707030303020
:105890003FBF9F98988888C9C9C3C3E7EFFFFFFF40
:1058A000FFFFFFFFFFFFFFFFFFFFFFFFFFFFFFFF08
:1058B000FFFFFFFFFFFFF7E3E3C1C9C8C8C8999F17
:1058C0009F9FB838383030307070707070F0F8F8D2
:1058D000F8F0E0604040404040C0C0C08080808020
:1058E00080808080000000000000000602020202AA
:1058F0000303030101010101010101010000207006
:10590000FFFFFFFFFFFFFE7E3E3E3E3E3F1F1F1F8D
:105910001F1F1F1F0F0F0F0F0F0F070301010101A3
:1059200003878F8F8F87BFFFFFFFFFFFFFDF878713
:105930008F878103030101010107070F0F0F0F1F5D
:105940001F1F1F1F1F1F1F3F3F3E3E3C7FFFFFFFCC
:10595000FFFFFF3810000000000000000000000002
:10596000000101010101010101010100000000002D
:105970000000000000000000000000000000000027
:1059800003FFFFFFFF1F01000000000000000000F8
:105990000000000000000000000000000000000007
:1059A000003F3F3F3F3F3F7FFFFFFFFFFFFFFFFF06
:1059B000FFFFFF1F000000000000000000000000CB
:1059C0000000000000000000000000000003FFFFD6
:1059D000FFFF0300000000000000000000000000C6
:1059E00000000000000000000000000000000000B7
:1059F00000000000000000000000000000000000A7
:105A00000007FFFFFF000000000000000000000092
:105A10000000000000000000000000000000000086
:105A20000000000000000000000000000000000076
:105A30000000000000000000000000000000000066
:105A4000000000000000000000000000000003FF54
:105A5000FF03000000000000000000000000000044
:105A60000000000000000000000000000000000036
:105A70000000000000000000000000000000000026
:105A80000000F0FFFFF0C000000000000000000078
:105A90000000000000000000000000000000000006
:105AA00000000000000000000000000000000000F6
:105AB00000000000000000000000000000000000E6
:105AC00000000000000000000000000000007C7FDB
:105AD0007F780000000000000000000000000000CF
