:020000040802F0
:1000000020140020CD0102085D1B0208510F0208D8
:10001000F51A0208E90802083B2A0208000000005D
:10002000000000000000000000000000CF240208D3
:10003000ED08020800000000751F020851260208A2
:10004000E7010208E7010208E7010208E7010208E8
:10005000E7010208E7010208E7010208E7010208D8
:10006000E7010208E7010208E7010208E7010208C8
:10007000E7010208E7010208E7010208E7010208B8
:10008000E7010208E7010208E7010208E7010208A8
:10009000E7010208E7010208E7010208E701020898
:1000A000E7010208E7010208E7010208E701020888
:1000B000B526020821270208E7010208E701020825
:1000C000E7010208E7010208E7010208E701020868
:1000D000E7010208E7010208E70102086D290208AA
:1000E000E7010208E7010208E7010208E701020848
:1000F000E7010208E7010208E7010208E701020838
:10010000E7010208E7010208E7010208E701020827
:10011000E7010208E7010208E7010208E701020817
:10012000E7010208E7010208E7010208E701020807
:1001300000F002F800F03AF80AA090E8000C8244BF
:100140008344AAF10107DA4501D100F02FF8AFF29C
:10015000090EBAE80F0013F0010F18BFFB1A43F0A5
:1001600001031847CC5B0000EC5B0000103A24BF91
:1001700078C878C1FAD8520724BF30C830C144BF0C
:1001800004680C607047000000230024002500264E
:10019000103A28BF78C1FBD8520728BF30C148BFEA
:1001A0000B6070471FB51FBD10B510BD00F044F8BF
:1001B0001146FFF7F7FF03F0C9FB00F062F803B444
:1001C000FFF7F2FF03BC00F063F800000948804726
:1001D00009480047FEE7FEE7FEE7FEE7FEE7FEE729
:1001E000FEE7FEE7FEE7FEE704480549054A064B41
:1001F000704700005526020831010208200E002039
:10020000201400202010002020100020704770478C
:10021000704710B500F008F8006810BD10B504462E
:1002200000F002F8046010BD00487047BC0D0020CB
:1002300000487047BC0D00207546FFF7F9FFAE4639
:1002400005006946534620F00700854618B020B5E2
:10025000FFF7CAFFBDE820404FF000064FF000074F
:100260004FF000084FF0000B21F00701AC46ACE85E
:10027000C009ACE8C009ACE8C009ACE8C0098D46CB
:1002800070470446AFF300802046FFF798FF000058
:1002900001491820ABBEFEE72600020070470000AF
:1002A0002DE9F04F8FB0924A516C506C04F042FA35
:1002B00007468F4A116C106C04F03CFA80468C4A59
:1002C000D16BD06B04F036FA8346414604F080F8D7
:1002D0000646394604F07CF8054601F04DFE0890CC
:1002E0008349C86B089904F025FA0E908049086C80
:1002F000089904F01FFA0D907D49486C089904F0A4
:1003000019FA0C907B4905A801F0C6FF05AD7A49A2
:100310000598086006984860079888600846416814
:100320000C9804F007FA0546734881680D9804F0AC
:1003300001FA0646294604F08DFB04466E488168A2
:100340000E9804F0F7F905466B4801680C9804F024
:10035000F1F90646294604F07DFB814666480168AE
:100360000D9804F0E7F90546634841680E9804F0DB
:10037000E1F90646294604F06DFB82465F492046B6
:1003800004F0D8F905465E480168284604F020F8D4
:100390005B4908605949484604F0CCF9054659487C
:1003A0000168284604F014F856490860534950463D
:1003B00004F0C0F9054654480168284604F008F8DE
:1003C000514908604E48006803F0D6FFCDE90401AA
:1003D000204602F035FB83464C4904F0ABF98046D9
:1003E000214604F0A7F9074603F0C6FFCDE9000156
:1003F0003F49886803F0C0FF074601F0B7FF054694
:10040000DDE9002303F062FBCDE90201DDE904230D
:1004100003F05CFBCDE9060103F026FB0B903948A5
:10042000006803F0A9FFCDE90401484602F008FB8B
:100430008346364904F07EF90646494604F07AF9C7
:10044000054603F099FFCDE900012949C86803F08A
:1004500093FF054601F08AFF0746DDE9002303F01C
:1004600035FBCDE90201DDE9042303F02FFBCDE9E3
:10047000060103F0F9FA0A902348006803F07CFFB4
:10048000CDE90401504602F0DBFA2049009004F067
:1004900051F95146019004F04DF9834603F06CFF89
:1004A000CDE902011249C86803F066FFCDE90001F9
:1004B00001F05CFF0546DDE9022303F007FB074678
:1004C000DDE9042303F002FBCDE9060103F0CCFAD9
:1004D00009900F4800900748DDE909320B9901F0B7
:1004E000B0FD044801F070FD0FB0BDE8F08F0000D2
:1004F000E400002098000020B00D00200AD7A33BA4
:10050000BC000020C0000020C4000020000070419A
:100510000AD7A33A2DE9F04F87B000F02DF98A48A9
:10052000FFF7BEFE8949884801F01CFE87494868EC
:1005300003F022FF064603F031FA044603F094FA72
:1005400005908249086803F017FF064603F026FA73
:10055000044603F089FA06907C49486803F00CFFD2
:10056000064603F07BF9044603F07EFA04907749CF
:10057000086803F001FF064603F070F9044603F033
:1005800073FA039000207249C87048700846C0781A
:1005900000287DD108464078002879D06D49B1F90E
:1005A000040004F067F80746049904F0C3F806460F
:1005B000069904F0BFF804466649B1F9020004F058
:1005C00059F88146069904F0B5F88046059904F07B
:1005D000B1F806465F49B1F9000004F04BF88046D7
:1005E000039904F0A7F80746314603F0F1FE0546EB
:1005F000214604F02FFA83465649B1F9040004F06D
:1006000039F80646059904F095F804465149B1F9C0
:10061000020004F02FF80646049904F08BF8054612
:10062000214603F0D5FE0290584603F0A5FE804611
:100630008946029803F0A0FE42464B46CDE90001F0
:1006400002F01EFF064600F053F981F00041044617
:1006500003F00AFA82464048C0F800A03F49086902
:100660004FF0804104F066F805463D4904F062F819
:10067000044636488168204603F0AAFE3349886064
:100680003849504604F022F907D23749886800E01B
:1006900033E0364904F01AF80AD33449504604F0DE
:1006A00015F819D2304988682E4904F00FF913D291
:1006B0002F49504604F03EF806462B48806880F0EB
:1006C00000452C49284604F035F80446314603F02D
:1006D0007FFE254988600FE02549504604F02AF83E
:1006E000044621498868234904F024F80546214638
:1006F00003F06EFE1C4988600BE01449886803F023
:100700003BFE064600F0F4F8044603F0ADF9164946
:1007100088600E49486803F02FFE064600F0E8F8AE
:10072000044603F0A1F9104948600849086803F03D
:1007300023FE064600F0DCF8044603F095F90A496A
:10074000086007B0BDE8F08F98000020980D0020E9
:10075000C8000020A800002090000020E400002035
:100760000AD7A33A0000B442A40D00200000B4C28E
:10077000A69B443C91ED7C3F2DE9FF4100F026FA19
:10078000454800F01DFB4549B1F9340003F0D5FBA5
:1007900006460F4605204249424BCDE90030424B08
:1007A000424ACDE902103046394600F00EFD0446BB
:1007B00003F05AF93949C863B1F9360003F0BDFBBB
:1007C00006460F4605203649364BCDE90030364BFC
:1007D0002833364A2832CDE902103046394600F037
:1007E000F4FC044603F040F901462C48016401463C
:1007F000B1F9380003F0A1FB06460F460520284951
:10080000284BCDE90030284B5033284A5032CDE9EF
:1008100002103046394600F0D8FC044603F024F9B3
:1008200001461E4841640146086A214903F082FFDF
:100830000446204A21462048006800F05AFD174926
:100840008860084680681C4908601449486A18494D
:1008500003F070FF0446174A21461848006800F06C
:1008600048FD0E49C8600846C068144908600B4935
:10087000886A0F4903F05EFF04460E4A214610487D
:10088000006800F036FD05490861084600690C491A
:100890000860BDE8FF810000A8000020E4000020FF
:1008A0006800002040000020200D0020A80C00203F
:1008B000F6FFF93CCBA1C53EB0000020B4000020FB
:1008C000B800002008B506480649086040F2055007
:1008D0000090012269460248103801F071FD08BD00
:1008E0000000020808ED00E000BFFEE770470000CE
:1008F0002DE9F04104460D464FF0C042054B20461D
:10090000294603F093F906460022034B03F040FB0F
:10091000BDE8F081FB210940008066402DE9FF4FD2
:1009200087B0824691461D464FF0000829460A20AE
:1009300003F028F8019003F0B5FE4946029003F059
:10094000F9FE834603F07AFE0646002E03DB2020E4
:100950008DF80C0003E076422D208DF80C000B245E
:100960000BE0601EC1B20A2003F00CF8B6FBF0F0F9
:1009700008B1A04603E0601EC4B2002CF1DC00BF49
:10098000A8EB0500002821DC30208DF80D002E207A
:100990008DF80E00002412E0281B401EC1B20A2070
:1009A00002F0F0FFB6FBF0F00A21B0FBF1F201FB20
:1009B0001200303003AAE11C5054601CC4B2AC4297
:1009C000EADD002103AAE81C11543AE0002413E0F8
:1009D000A8EB0400401EC1B20A2002F0D3FFB6FB10
:1009E000F0F00A21B0FBF1F201FB1200303003AA53
:1009F000611C5054601CC4B2A8EB0500A042E7DCA7
:100A00002E2103AA601C1154002713E0E81B401E8E
:100A1000C1B20A2002F0B6FFB6FBF0F00A21B0FB2B
:100A2000F1F201FB12003030A11C394403AA5054EA
:100A3000781CC7B2AF42E9DD002103AA08F1020029
:100A4000115403AA5046089901F082F90BB0BDE891
:100A5000F08F2DE9FE438046894615461E4600214B
:100A6000701C0DF80010002D03DB20208DF8000015
:100A700003E06D422D208DF80000002413E0301BB0
:100A8000401EC1B20A2002F07DFFB5FBF0F00A2142
:100A9000B0FBF1F201FB120707F13000C1B2601C9C
:100AA0000DF80010C4B2B442E9DB6A46494640463C
:100AB00001F04EF9BDE8FE8330B5044604254FF43D
:100AC000302000F06FF80546042D17D10C4800695E
:100AD00040F002000A49086108464461006940F09C
:100AE000400008614FF4302000F05CF805460448EF
:100AF000006941F6FD71084001490861284630BD92
:100B00000020024004200B49C96801F0010109B12D
:100B100001200EE00749C96801F0040109B1022073
:100B200007E00449C96801F0100109B1032000E0A1
:100B300004207047002002400348006940F0800014
:100B400001490861704700000020024070B504466A
:100B50000D460426F00200F025F80646042E11D1B9
:100B60000948006940F00100074908612580F0024A
:100B700000F018F806460448006941F6FE71084086
:100B800001490861304670BD002002400248034917
:100B900048600348486070472301674500200240D1
:100BA000AB89EFCD00B502460423FFF7ABFF034648
:100BB00003E0FFF7A7FF0346521E012B01D1002AD5
:100BC000F7D102B90523184600BD000010B500F0AA
:100BD000B3FD2D4840882C49097840EA01212B4873
:100BE000B0F86000081A00B2284988862648C088F4
:100BF0002549097940EA01212448B0F86000081A23
:100C000001B22248C186204840891F49097A40EA3A
:100C1000012001B21D4801871B48C0891A49097B80
:100C200040EA012000B2194908801748408A164955
:100C3000097C40EA012000B2144948801248C08A69
:100C40001149097D40EA012000B210498880B1F9BC
:100C500000100E4AB2F92C20881A03F00BFD0B4944
:100C60000862B1F90220B1F92E10501A03F002FD0A
:100C700006494862B1F90420B1F93010501A03F066
:100C8000F9FC0249886210BD4C010020E4000020FC
:100C90002DE9F04102460025002600200023002413
:100CA000002791F803C00CF00F0591F803C00CF079
:100CB000100CBCF1000F03D091F802C04CEA0505FE
:100CC00091F800C0BCF1000F31D0146800202BE077
:100CD0004FF0010C0CFA00F3B1F800C00CEA030667
:100CE0009E4220D183004FF00F0C0CFA03F7BC4357
:100CF00005FA03FC4CEA040491F803C0BCF1280F88
:100D000006D14FF0010C0CFA00FCC2F814C00AE046
:100D100091F803C0BCF1480F05D14FF0010C0CFA5B
:100D200000FCC2F810C0401C0828D1D31460B1F8F0
:100D300000C0BCF1FF0F34DD546800202EE000F14C
:100D4000080C4FF0010808FA0CF3B1F800C00CEAE7
:100D500003069E4221D183004FF00F0C0CFA03F7DB
:100D6000BC4305FA03FC4CEA040491F803C0BCF14F
:100D7000280F05D100F1080C08FA0CF8C2F814800D
:100D800091F803C0BCF1480F07D100F1080C4FF0F7
:100D9000010808FA0CF8C2F81080401C0828CED3CD
:100DA0005460BDE8F0810246002093680B400BB10F
:100DB000012000E0002070474161704701617047E9
:100DC0002DE9FF410546002602AB062203213C2007
:100DD00000F092FE594800680A2190FBF1F0574953
:100DE0000968081A554908609DF809009DF808101F
:100DF00040EA012000B25149096808444F4908609F
:100E0000084600680A2190FBF1F000B2ADF800003E
:100E10004A48406890FBF1F048494968081A474938
:100E200048609DF80D009DF80C1040EA012000B2CA
:100E300042494968084441494860084640680A21D7
:100E400090FBF1F000B2ADF802003C48806890FBE6
:100E5000F1F03A498968081A384988609DF80B0012
:100E60009DF80A1040EA012000B23449896808441C
:100E700032498860084680680A2190FBF1F000B290
:100E8000ADF80400BDF804002D4908809DF80A0063
:100E900048809DF80B0088802A48407A40B10120A4
:100EA0002949087000202749C870684600F090FC66
:100EB0002548007808B3002023490870002415E075
:100EC0002248006830F91400002805DA1F4800683D
:100ED00030F91400404203E01C48006830F9140067
:100EE000142801DA701CC6B2601CC4B2062CE7DB01
:100EF000022E02DB01201349C87000241AE01349B6
:100F0000096801EB4401B1F90610104A126832F980
:100F100014208F1807EBD7713DF91420A2EB610064
:100F200003F0A8FB804603F089FB00B225F814000B
:100F3000601CC4B2032CE2DBBDE8FF817C01002011
:100F400070010020C80000200E00002004000020D6
:100F500000BFFEE710B54FF480600C49086000F058
:100F60002FF94FF400600949086000F029F94FF4A7
:100F700080600649091F086000F022F94FF4806084
:100F80000249086000F01CF910BD0000140C01407B
:100F900008B50121082001F0D9F94FF48060ADF8BF
:100FA000000003208DF8020014208DF8030069462C
:100FB0000848FFF76DFE4FF40060ADF80000032015
:100FC0008DF8020014208DF8030069460148FFF7F0
:100FD0005FFE08BD000C014010B54FF480600C4965
:100FE000086000F0EDF84FF400600949091F08603F
:100FF00000F0E6F84FF480600549091F086000F032
:10100000DFF84FF480600249086000F0D9F810BDA5
:10101000140C014070B5082500242802124908600C
:1010200016E06006040E4FF480600F49091D086049
:1010300000F0C6F84FF480600B49086000F0C0F87B
:1010400009480838006800F4006008B144F0010461
:101050002800A5F10101CDB2E3D14FF4806002492F
:10106000091D0860204670BD100C014070B5044693
:1010700008251DE04FF480601249086000F0A0F8D8
:1010800004F0800028B14FF400600E49091F086089
:1010900003E04FF400600B4908606006040E00F0A6
:1010A0008FF84FF480600749091F086000F088F846
:1010B0002800A5F10101CDB2DCD14FF480600149D7
:1010C000086070BD140C014010B54FF40060154964
:1010D00008604010086000F073F812480838006893
:1010E00008B9012000E0002000F4006008B10020F1
:1010F00010BD4FF400600B49091D086000F060F856
:1011000008480838006800F4006008B10020EFE7E4
:101110004FF400600349091D086000F051F80120F8
:10112000E6E70000100C014010B54FF480600C4958
:10113000086000F045F84FF400600949086000F0CD
:101140003FF84FF480600649091F086000F038F846
:101150004FF400600249091F086000F031F810BD2B
:10116000140C014010B54FF480601449086000F081
:1011700027F84FF400601149091F086000F020F8BB
:101180004FF480600D49091F086000F019F80B4802
:101190000C38006800F4006038B14FF480600749F3
:1011A000086000F00DF8002010BD4FF48060034986
:1011B000086000F005F80120F6E70000140C01407B
:1011C00010B50A2002F0ADFB10BD2DE9FF5F88B01D
:1011D00092469946DDF85CB0ABF1010004B208E03C
:1011E000601E0AEBC00103C90AEBC40203C2601E01
:1011F00004B2002CF4DCDDE90801CAE90001002595
:101200002E46002418E0169800EBC40003C8CDE970
:1012100002010AEBC40003C8CDE90001DDE90223A5
:1012200002F0B6FE2A463346CDE9040102F04EFC38
:1012300005460E46601C04B25C45E4DB1998401E6E
:1012400004B208E0601E09EBC00103C909EBC40247
:1012500003C2601E04B2002CF4DC0027B84601244F
:1012600018E0189800EBC40103C9CDE9020109EBAD
:10127000C40003C8CDE90001DDE9022302F088FEC5
:101280003A464346CDE9040102F020FC0746884671
:10129000601C04B219988442E3DB3A464346284670
:1012A000314602F07FFFC9E90001D9E90001CDE92B
:1012B0000601DDE906010CB0BDE8F09F10B5FFF7AF
:1012C00001FB00F02FF800F0B7FCFFF761FE4FF4D0
:1012D000487002F011FB00F00BFA00F04BF84FF4ED
:1012E000A06000F075FC472140F6C41001F0EAF957
:1012F00010BD2DE9F04704460D46164631462846F6
:1013000003F018FA804631464FF07E5003F0A2FBFE
:101310008146214603F00EFA0746414603F058F88D
:10132000BDE8F08708B50121602001F00FF80B201F
:10133000ADF8000010208DF8030003208DF80200A6
:1013400069460A48FFF7A4FC0B210848FFF736FD61
:101350004FF4A050ADF8000069460548FFF798FC2F
:101360004FF4A0510248FFF729FD08BD00140140C9
:1013700000180140DCB5002600270020C549087090
:1013800000F03CFCC4A20021084600F013FDC7A2F7
:101390000221002000F00EFDC7A20421002000F071
:1013A00009FD40F2DC5002F0A7FA40F2DC5002F0F6
:1013B000A3FA00F0C1F9C448C089C349097B40EAD7
:1013C000012000B2ADF80000BF48408ABE49097C48
:1013D00040EA012000B2ADF80200BB48C08ABA4919
:1013E000097D40EA012000B2ADF80400C2E0C82F38
:1013F0007EDA00F0A1F9B448C089B349097B40EA1C
:10140000012000B2B1490880AF48408AAE49097C4A
:1014100040EA012000B2AD494880AB48C08AAA49E1
:10142000097D40EA012000B2A84988802088098807
:10143000084400B220806088A4494988084400B26A
:101440006080A088A1498988084400B2A080BDF9C5
:1014500000009E49B1F90010401A06D59B48B0F92A
:101460000000BDF90010401A05E0BDF900009749E1
:10147000B1F90010401A2988084400B22880BDF94B
:1014800002009249B1F90210401A06D58F48B0F90E
:101490000200BDF90210401A05E0BDF902008B49B7
:1014A000B1F90210401A6988084400B26880BDF999
:1014B00004008649B1F90410401A06D58348B0F9F2
:1014C0000400BDF90410401A05E0BDF904007F498D
:1014D000B1F90410401AA988084400B2A8807B48DA
:1014E0000088ADF8000079484088ADF8020000E0BF
:1014F00004E076488088ADF8040039E0B5F90000D2
:10150000B0F5967F09DAB5F90200B0F5967F04DAF6
:10151000B5F90400B0F5967F0CDB0027002606E045
:10152000002025F8160024F81600701CC6B2032E01
:10153000F6DB1DE0BDF90000C82190FBF1F000B220
:1015400062498885BDF90200C82190FBF1F001B223
:101550005E48C185BDF90400C82190FBF1F001B2DD
:101560005A48018601204B490870002058490870EC
:10157000781CC7B24748007800283FF438AF554878
:101580000078002852D0002730E000F0D5F84E480F
:1015900040884D49097840EA012000B24B498886CD
:1015A0004948C0884849097940EA012001B24748C2
:1015B000C186454840894449097A40EA012001B280
:1015C00042480187E0884149898E084400B2E080A2
:1015D00021893E48C08E084400B2208161893B4881
:1015E000008F084400B26081781CC7B2C82FCCDBE2
:1015F000B4F90600C82190FBF1F001B23348A0F81D
:101600006010B4F90800C82190FBF1F001B22F4836
:10161000A0F86210B4F90A00C82190FBF1F001B201
:101620002A48A0F8641000202A490870002000F021
:10163000E5FA29A20021084600F0BCFB29A20221FC
:10164000002000F0B7FB4FF47A7002F055F900204B
:1016500000F0D4FA1D48B0F96020052300210846A7
:10166000FFF7F7F91948B0F962200523022100209D
:10167000FFF7EFF91548B0F9642005230421002095
:10168000FFF7E7F94FF47A7002F036F9002000F026
:10169000B5FADCBD02000020506C65617365204D19
:1016A000616B6520537572650000000074686520E9
:1016B000506C616E65000000697320486F72697A32
:1016C0006F6E74616C0000004C010020E40000208B
:1016D000000000200100002043616C6962726174A7
:1016E000696F6E00436F6D706C657465000000007B
:1016F00010B57521D02000F05FFF04460CB9002022
:1017000010BD00226B21D02000F07EFF072219219E
:10171000D02000F079FF03221A21D02000F074FFBE
:1017200010221B21D02000F06FFF09221C21D020A5
:1017300000F06AFF0120E3E710B53B21D02000F064
:101740003BFF224908803C21D02000F035FF1F4993
:1017500048803D21D02000F02FFF1C4988803E2189
:10176000D02000F029FF1949C8803F21D02000F087
:1017700023FF164908814021D02000F01DFF1349A6
:1017800048814321D02000F017FF1049888144216F
:10179000D02000F011FF0D49C8814521D02000F074
:1017A0000BFF0A4908824621D02000F005FF0749B7
:1017B00048824721D02000F0FFFE0449888248215A
:1017C000D02000F0F9FE0149C88210BD4C01002074
:1017D0002DE9FF5F8146AE48007898B10020AC4902
:1017E0000870AC490860AC490860AC490860002446
:1017F00006E00020AA49096821F81400601CC4B260
:10180000062CF6DB002421E0A548006830F914001E
:1018100039F91410884206DD39F81400A049096826
:1018200021F8140010E09E48006800EB4400B0F975
:10183000060039F91410884206DA39F8140098497C
:10184000096801EB4401C880601CC4B2032CDBDBD7
:101850009448407A012854D19349486C002102F001
:1018600035FF04D29048406C80F0004001E08E4883
:10187000406C05468D4903F029F842D208218C4876
:10188000FFF79AFA8BA20421002000F061FA864942
:10189000886A02F071FD4FF04042894BCDE90001AA
:1018A00002F076FB07464FF06042864B02F070FB79
:1018B00005460E467748006802F05EFD82462A46DD
:1018C000334602F003F9CDE9020102F0CDF8714987
:1018D000086000216F48006802F0F8FE04D26D48ED
:1018E000006880F0004001E06A48006805467649DB
:1018F00002F0ECFF05D202206A494872002000F095
:101900007DF96848407A022854D16749C86B0021A4
:1019100002F0DCFE04D26448C06B80F0004001E0BD
:101920006148C06B0546614902F0D0FF42D20221F6
:101930005F48FFF741FA65A20421002000F008FA91
:101940005949086A02F018FD82464FF040425C4B4C
:1019500002F01EFB07464FF060425A4B02F018FBA4
:1019600005460E464D48006802F006FD2A463346FD
:10197000CDE9000102F0AAF8CDE9020102F074F805
:101980004649086000214548006802F09FFE04D2E5
:101990004248006880F0004001E040480068054689
:1019A000494902F093FF05D203203E4948720020C6
:1019B00000F024F93B48407A032867D13A49086C83
:1019C000002102F083FE04D23748006C80F0004012
:1019D00001E03548006C0546344902F077FF55D2E6
:1019E00001213348FFF7E8F93BA20421002000F071
:1019F000AFF92D49486A02F0BFFC05464FF040425E
:101A00002F4B02F0C5FA4FF060422E4BCDE900019A
:101A100002F0BEFA074688461F48006802F0ACFC98
:101A200082463A46434602F051F8CDE9020102F0FF
:101A30001BF81949086000211748006802F046FEAB
:101A400004D21548006880F0004001E012480068A8
:101A500005461D4902F03AFF18D203211448FFF74A
:101A6000ABF920A20421002000F072F901200849FE
:101A7000087000200B4948724FF4FA6001F03CFFF7
:101A8000002000F0BBF8012006490876BDE8FF9F62
:101A90000F0000201800002014000020100000207B
:101AA00004000020C8000020E400002000409C4505
:101AB00000140140726F74617465206279207A00AD
:101AC000FE3F9F3F4D62603F0000B443726F746100
:101AD0007465206279207800726F74617465206289
:101AE00079207900686D6320636F6D706C65746533
:101AF0000000000000BFFEE72DE9F04107460E465A
:101B000015469846FFF7E0FA3846FFF7AFFAFFF7B9
:101B100029FB3046FFF7AAFAFFF724FBFFF7D4FAB8
:101B2000791CC8B2FFF7A2FAFFF71CFB00240DE0F6
:101B3000FFF770FA08F80400681EA04202D1FFF710
:101B40004BFA01E0FFF706FA601CC4B2AC42EFDBCF
:101B5000FFF7EAFAFFF734FBBDE8F08170470000B9
:101B600070B5002100230F22C47804B3154C2468FB
:101B700004F4E064C4F5E064210AC1F10403CA403E
:101B8000447804FA03F184781440214309010E4C8F
:101B90000678A155047804F01F050124AC400578AF
:101BA0006D11AD0005F1E025C5F8004109E00478AC
:101BB00004F01F050124AC40044D0678761145F869
:101BC000264070BD0CED00E000E400E080E100E0A4
:101BD00002490143024A1160704700000000FA0503
:101BE0000CED00E007E040F2375100BF0A00A1F120
:101BF0000101FBD1401E0028F5D1704770B50646A3
:101C0000002415E004F1B001C8B200F059F9012038
:101C100000F056F9102000F053F9002504E030469A
:101C200000F07AF9681CC5B2802DF8DB601CC4B2E4
:101C3000082CE7DB70BD000008B50121102000F082
:101C400085FB0F20ADF8000003208DF80200102066
:101C50008DF8030069463D48FFF71AF808213B4814
:101C6000FFF7ACF802213948FFF7A6F83220FFF75A
:101C7000B9FF02213548FFF7A1F80021AE2000F09E
:101C8000EFF80021D52000F0EBF80021802000F0D3
:101C9000E7F80021A82000F0E3F800213F2000F041
:101CA000DFF80021D32000F0DBF80021084600F027
:101CB000D7F80021402000F0D3F800218D2000F05B
:101CC000CFF80021142000F0CBF80021202000F0F4
:101CD000C7F80021022000F0C3F80021A12000F085
:101CE000BFF80021C82000F0BBF80021DA2000F086
:101CF000B7F80021122000F0B3F80021812000F095
:101D0000AFF80021EF2000F0ABF80021D92000F05F
:101D1000A7F80021F12000F0A3F80021DB2000F05B
:101D20009FF80021402000F09BF80021A42000F043
:101D300097F80021A62000F093F80021AF2000F0D2
:101D40008FF80020FFF75AFF08BD00000010014087
:101D50002DE9F0470446884615464FF00009002655
:101D600000274146204600F069F81CE0E85D203875
:101D700000F0FF097E2C04DD002408F1010000F0D2
:101D8000FF08002609E009EB4901094A02EB41017D
:101D9000885D00F0C1F8701CC6B2062EF3DBA01DF2
:101DA000C4B2781CC7B2E85D0028DFD1BDE8F08777
:101DB0007A4C02082DE9F04706460F46904600256A
:101DC0000024A14631E018F809002038C5B2782E69
:101DD00002DD0026781CC7B23946304600F02EF8E6
:101DE000002407E004EB0511134A505C00F094F85E
:101DF000601CC4B2082CF5DB781CC1B2304600F080
:101E00001DF8002408E004EB051108310A4A505C73
:101E100000F082F8601CC4B2082CF4DB06F1080064
:101E2000C6B209F1010000F0FF0918F80900002806
:101E3000C9D1BDE8F08700007351020870B50446AF
:101E40000D4605F1B001C8B200F03AF8102141EAA0
:101E5000141000F035F804F00F0000F031F870BDF8
:101E600070B504460E4626B101211448FEF7A6FFC0
:101E700003E001211148FEF79FFF002517E008212C
:101E80000E48FEF799FF04F0800020B104210B48B2
:101E9000FEF794FF03E004210848FEF78DFF0821B8
:101EA0000648FEF78BFF6006040E681CC5B2082DBD
:101EB000E5DB01210148FEF781FF70BD0010014004
:101EC00070B50446082501211248FEF775FF082168
:101ED0001048FEF771FF00BF16E004F0800020B14B
:101EE00004210C48FEF76AFF03E004210948FEF7CD
:101EF00063FF08210748FEF761FF00BF082105487E
:101F0000FEF75AFF6006040E2800A5F10101CDB2CC
:101F1000E3D170BD0010014070B5044608250121D1
:101F20001348FEF74BFF00BF08211148FEF744FF9E
:101F300000BF16E004F0800020B104210C48FEF739
:101F40003DFF03E004210A48FEF736FF0821084858
:101F5000FEF734FF00BF08210548FEF72DFF60069D
:101F6000040E2800A5F10101CDB2E3D170BD00003F
:101F700000100140704700002DE9F05F04464FF06B
:101F80007F594FF07C51204602F0D4FB8246254613
:101F90002E460C48A0EB660635462946504602F010
:101FA000C9FB8346294602F0C5FB8046494602F03C
:101FB000BEFC0746294602F0BDFB05462846BDE8A3
:101FC000F09F0000DF59375F2DE9F84F04460025E8
:101FD000E168E06802F0AEFB0090A168A06802F042
:101FE000A9FB81466168606802F0A4FB8246216813
:101FF000206802F09FFB8346514602F0E9F98046D3
:10200000494602F0E5F90746009902F0E1F9064673
:10201000FFF7B2FF05462068294602F08BFB2060DF
:102020006068294602F086FB6060A068294602F0DD
:1020300081FBA060E068294602F07CFBE060BDE81F
:10204000F88F2DE9FF4F87B0044615461E462068DD
:1020500006906768D4F80880E068059031460598D6
:1020600002F068FB29460490404602F063FB0390AF
:1020700087F000400190089902F05CFB0290039900
:1020800002F0E8FC8346049902F0E4FC82461499CD
:1020900002F050FB8146216802F09AF92060314637
:1020A000404602F047FB29460490059802F042FBA7
:1020B00003900899069802F03DFB0290039902F004
:1020C000C9FC8346049902F083F98246149902F010
:1020D00031FB8146616802F07BF960603146384629
:1020E00002F028FB29460490069802F023FB039097
:1020F0000899059802F01EFB0290039902F068F916
:102100008346049902F0A6FC8246149902F012FB61
:102110008146A16802F05CF9A0603146069802F0A1
:1021200009FB29460490384602F004FB039088F02E
:1021300000400190089902F0FDFA0290039902F024
:1021400047F98346049902F043F98246149902F054
:10215000F1FA8146E16802F03BF9E0600BB0BDE8BE
:10216000F08F00002DE9F04F85B004460D46E16880
:10217000E06802F0DFFA0390A168A06802F0DAFAE2
:1021800002906168606802F0D5FA019021682068C9
:1021900002F0D0FA0090019902F01AF983460299F0
:1021A00002F058FC8246039902F054FC0646A168EE
:1021B000606802F0BFFA8346E168206802F0BAFA6C
:1021C0005946039002F004F982464FF0804102F034
:1021D000B1FA0746A168206802F0ACFA8346E168CC
:1021E000606802F0A7FA5946039002F033FC824679
:1021F0004FF0804102F09EFA8046E168A06802F04C
:1022000099FA83466168206802F094FA594603906F
:1022100002F0DEF882464FF0804102F08BFA8146F0
:10222000E168E06802F086FA0390A168A06802F015
:1022300081FA02906168606802F07CFA019021687E
:10224000206802F077FA0090019902F003FC8346BF
:10225000029902F0FFFB8246039902F0B9F804905C
:10226000404600F06BFF80F000402860484604992B
:1022700001F0C6F968600748C07810B90548407891
:1022800020B93146384601F0BBF9A86005B0BDE879
:10229000F08F0000C80000202DE9FE4305460C46E3
:1022A000A168206802F046FA0746E168606802F01B
:1022B00041FA8046394602F0CDFB06464FF0804198
:1022C00002F038FA0090E168A06802F033FA07469D
:1022D0006168206802F02EFA8046394602F078F8EC
:1022E00006464FF0804102F025FA0190A168A068EF
:1022F00002F020FA80466168606802F01BFA8146AD
:10230000414602F065F807464FF0804102F012FAAC
:1023100006464FF07E5102F00AFB029000982860BA
:10232000019868600298A860BDE8FE8329B1064A5A
:10233000D2690243044BDA6104E0034AD269824362
:10234000014BDA61704700000010024029B1064AD3
:1023500092690243044B9A6104E0034A9269824302
:10236000014B9A6170470000001002402DE9F041D6
:1023700004460D464FF0C042054B2046294601F069
:1023800007FE06460022034B01F050FCBDE8F08139
:10239000FB2109400080664030B503460C461546D7
:1023A000002207E0184600F008F824F812009B1CF1
:1023B000501C82B2AA42F5DB30BD01460888704746
:1023C0002DE9F05F80468A461746B8F1006F02D3C8
:1023D0003348804501D3BDE8F09FFEF7D7FBA8F155
:1023E000006B4FEADB25CBF34909C9F58064A742AE
:1023F00000DC3C464DE04FF0006101EBC5204A1483
:102400002849FFF7C9FF00260BE009EB0600254924
:1024100031F810004FF6FF71884200D003E0701CC5
:1024200086B2A642F1DB00BFA6421BDA4FF0006184
:1024300001EBC520FEF740FB002608E03AF8160045
:1024400006EB0901174A22F81100701C86B2A64259
:10245000F4DB4FF0006101EBC5204A14114900F094
:1024600023F804E022465146404600F01DF8A742FA
:1024700000D10FE06D1C4FF000090AEB440AA044A4
:10248000381B87B2B7F5806F02DD4FF4806400E03F
:102490003C46B0E700BFFEF74FFB00BF9BE70000E4
:1024A00000000808A80400202DE9F04105460E466A
:1024B0001746002407E036F814102846FEF746FBBE
:1024C000AD1C601C84B2BC42F5DBBDE8F0817047F6
:1024D00010B500F001F810BD0CB50020019000907F
:1024E0003348006840F480303149086000BF30480C
:1024F000006800F4003000900198401C01900098A2
:1025000018B90198B0F5A06FF1D12948006800F41E
:10251000003010B10120009001E0002000900098F0
:10252000012843D12348006840F010002149086089
:102530000846006820F0030008600846006840F084
:10254000020008601A484068194948600846406817
:1025500048600846406840F480604860084640682B
:1025600020F47C1048600846406840F4F810486049
:102570000846006840F08070086000BF0C480068A2
:1025800000F000700028F9D00948406820F00300EE
:10259000074948600846406840F00200486000BFB4
:1025A0000348406800F00C000828F9D10CBD000079
:1025B000001002400020024070B504460D46FEF7B0
:1025C00083FD08B9002070BD2046FEF74FFDFEF7E1
:1025D000C9FD18B9FEF7A8FD0020F4E72846FEF76C
:1025E00045FDFEF7BFFDFEF76FFD611CC8B2FEF7AB
:1025F0003DFDFEF7B7FDFEF70DFD0646FEF7ECFCD0
:10260000FEF792FD3046DEE770B506460C461546ED
:10261000FEF75AFD08B9002070BD3046FEF726FDD2
:10262000FEF7A0FD18B9FEF77FFD0020F4E7204675
:10263000FEF71CFDFEF796FD2846FEF717FDFEF798
:1026400091FDFEF771FD052001F056F90120E3E749
:102650007047000010B51348006840F001001149B0
:10266000086008464068104908400E49486008461E
:1026700000680E4908400B4908600846006820F4CD
:10268000802008600846406820F4FE0048604FF44F
:102690001F008860FFF71CFF4FF0006004490860CE
:1026A00010BD0000001002400000FFF8FFFFF6FE22
:1026B00008ED00E010B5FDF72DFF0121880700F0BF
:1026C000C9F810BD7FB505460C4601210846FFF745
:1026D0002DFEADF80850ADF804400020ADF806001E
:1026E000ADF80A0001A94FF0804000F0EDF801229A
:1026F0001146900700F0D2F80121880700F0ADF8EC
:102700001C208DF8000001208DF8010003208DF8B9
:10271000020001208DF803006846FFF721FA7FBD13
:1027200070B51021404800F0A8F800287AD0102198
:102730003D4800F08FF802213C48FEF734FB0128A9
:1027400009D10221384800F0B2F8374800F091F87A
:102750003749088066E00021334800F0A8F8324885
:1027600000F087F83349088031480088098888429A
:102770000ADD2F4800884FF6FF71081A2D49098895
:1027800008442D49088006E02A480088284909881D
:10279000401A294908802848008844F62061884268
:1027A00004DD264800882449088003E02248008888
:1027B000224908802048008800EB00104000C82112
:1027C00090FBF1F4204601F055FF1D4908600120FF
:1027D0001C4908701C4801681948006802F03AF961
:1027E000054601F02BFF041E01DB204600E060429D
:1027F000B0F5FA7F07DB1448006811490860002033
:102800001249087002E00120104908700E48016862
:102810000B48006802F01EF90D490860084800687E
:102820000949086070BD000000040040000C014030
:102830002C0000202A0000202E0000203000002064
:102840001C00002029000020240000202800002077
:1028500020000020CA430282704721B1028842F062
:102860000102028004E002884FF6FE731A400280E3
:1028700070470146B1F84000704730B5024600206D
:1028800000230024158A05EA0103958905EA01045D
:1028900013B10CB1012000E0002030BD1AB18389D2
:1028A0000B43838102E083898B43838170470A460F
:1028B0000021018C4DF6FF7319404FF6FF7303EAB8
:1028C0000233194301847047002202881D4B98424D
:1028D0000ED01D4B98420BD0B0F1804F08D01B4B4F
:1028E000984205D01A4B984202D01A4B984204D114
:1028F0004FF68F731A404B881A43174B984207D0F4
:10290000164B984204D04FF6FF431A40CB881A4327
:1029100002808B8883850B8803850A4B98420BD0F5
:10292000094B984208D00E4B984205D00D4B984267
:1029300002D00D4B984201D10B7A0386012383828A
:1029400070470000002C01400034014000040040AA
:1029500000080040000C004000100040001400403F
:1029600000400140004401400048014010B540F2E1
:102970002551154800F032F828B3134800F058F8F4
:10298000C4B21248008800F40040E0B90F48008843
:10299000B0F5C87F11DA00200D4908800B48008887
:1029A00010B901200B490880084801880088401CA4
:1029B000064A10800848445405E00448008840F462
:1029C00000400249088010BD00480040340000204B
:1029D00038000020360000201803002070B50246A1
:1029E000002400230025002040F66A16B14200D1E1
:1029F00000BFC1F3421501F01F03012606FA03F3DD
:102A0000012D02D19689334006E0022D02D1168AAB
:102A1000334001E0968A33400C12012606FA04F492
:102A20001688344013B10CB1012000E0002070BDC5
:102A300001468888C0F30800704700BFFEE7000029
:102A400070B5044600250021204601F03FFE01D26A
:102A500084F000440B49204601F038FF00D2094CB5
:102A60000949204601F066FE06464FF07E5101F00E
:102A70005EFF05460021284601F028FE00D2002511
:102A8000284670BD9A99193F4260D53F490050EAE7
:102A9000C12018BF04204A0D18BF40F0010040F2C9
:102AA000FF72B2EB515F08BF40F00200012808BF7F
:102AB000052070474100080218BF04200A0E18BF05
:102AC00040F001004FF07F4232EA010108BF40F0C0
:102AD0000200012808BF0520704700002DE9F74FCC
:102AE000144694B00021C4E902111599079121F010
:102AF0000045C9498D4206DC1599C4E9000117B0AB
:102B00000020BDE8F08FC549DFF814A3A9423CDDE1
:102B10000799C44E0029C44FC44A1599534619DD7C
:102B200001F040FB554506D0C14AC24B01F03AFBCB
:102B3000C4E900010AE04FF0D352BE4B01F032FB72
:102B400032463B4601F02EFBC4E9000117B00120DC
:102B5000BDE8F08F00F0BAFF554506D0B44AB54B3A
:102B600000F0B4FFC4E900010AE04FF0D352B14BCA
:102B700000F0ACFF32463B4600F0A8FFC4E900017C
:102B800017B04FF0FF30BDE8F08FAB49A94215995F
:102B900078DB21F0004183468846A84AA84B01F023
:102BA000F7F90022A74B00F091FF01F097F9099087
:102BB00001F0C3F906460F469C4A534601F0E8F976
:102BC00043465A4601F0E2FA80468A46984A994BB3
:102BD0003046394601F0DCF92A0D01250B924246B8
:102BE000534601F0D3FA032DC4E9000139D00B9804
:102BF000C1F30A51401A05EB45111139814230DA0F
:102C00009148C346784400EB0510CDF80CA00C9019
:102C1000D0E900233046394601F0BAF902460B46A6
:102C2000049106905846039901F0BCFA80468A4602
:102C300002460B465846039901F0B4FA049B069AE3
:102C400001F0B0FA83460C9803913946D0E902238B
:102C5000304601F09DF95A46039B01F0A3FA6D1C22
:102C6000BDE707980028A2BF099817B0BDE8F08F0C
:102C7000616881F000416160099817B04042BDE889
:102C8000F08FFFE784461598C1F31301C0F30A5093
:102C9000A0F2F5304FEA601800F01F06C6F12000E0
:102CA000139000200690079041F4801E05206D4689
:102CB00076B1664A08EB00017A4452F8213002EB03
:102CC0008101B3404A68139922FA01F1194305E0E2
:102CD0005F4908EB0002794451F82210A1FB0E274E
:102CE000A1FB0C131A449A4234BF0123002303EBC7
:102CF000070A05EB8003D3E901B70F448F4234BFC5
:102D00000121002193448B4411B1934502D903E082
:102D1000934501D2012100E00021C3E901B75144EC
:102D200045F82010011EA0F10100C1DC0298059FAA
:102D300000F10050800F12900298DDE903568000E8
:102D400001F0FBF8834628460D9101F00DF96FF074
:102D50001D0201F026FFCDE90E01304601F004F915
:102D60006FF03D0201F01DFF80468A46384601F0B3
:102D7000FBF86FF05D0201F014FF07464246534630
:102D8000119100F0A3FEDDE90E2300F09FFE5A46EC
:102D90000D9B00F09BFE00250E465A4628460D9BD3
:102DA00001F000FADDE90E2301F0FCF9424653463A
:102DB00001F0F8F93A46119B01F0E8F9DFF898A024
:102DC000244A534601F0E4F807468846234A244B38
:102DD0003146284601F0DCF83A46434600F076FEDC
:102DE000074688464FF0A84253463146284601F030
:102DF000CFF83A46434600F069FE159A12F0004FAC
:102E000004D0129A81F0004152421292C4E90001AA
:102E1000129817B0BDE8F08FFB21E93F7CD9024042
:102E2000FB21F93F7370032E8A19A33B0000405425
:102E30003163621A61B4D03DFB21394183C8C96D49
:102E4000305FE43F0000E03F30300000AC2F000076
:102E50008E2F0000182D4454FB21F93D3326A61176
:102E6000460B113C2DE9FF4D21F0004807460C466A
:102E7000B8F1795F08DA01F031F8002801BF0020CD
:102E8000324904B0BDE8F08D3A4623461046194653
:102E900001F07EF8054602462D480E460B460621F7
:102EA000784400F05DF82A46334601F071F8DDE918
:102EB000022382468B463846214601F069F80446D3
:102EC0000F4652465B462846314601F061F82246DD
:102ED0003B4601F067F907468A464FF0FF32284625
:102EE000314601F05EFE1B4A90450ADA3A465346E7
:102EF00001F058F904B00022BDE8F04D134B01F089
:102F000045B9154A4245A8BFA8F500154FF0000481
:102F1000B8BF124D22462B4601F044F906468846BA
:102F200022462B460020094901F03CF904460D4693
:102F30003A4653463046414601F034F904B0224641
:102F40002B46BDE8F04D01F021B900000000F03F34
:102F50005C2D00003333D33F0000E93F0000D23F37
:102F60002DE9F0414F1E00EBC7010446D1E90001F5
:102F700015461E4637F006020DD02A46334601F0AC
:102F800007F87F1E04EBC703D3E9002300F09EFD82
:102F900037F00602F1D1022F25D0042F13D0062FCF
:102FA00018BFBDE8F0812A46334600F0F1FFD4E9AE
:102FB0000A2300F08BFD2A46334600F0E9FFD4E9EE
:102FC000082300F083FD2A46334600F0E1FFD4E9F0
:102FD000062300F07BFD2A46334600F0D9FFD4E9F2
:102FE000042300F073FD2A46334600F0D1FFD4E9F4
:102FF000022300F06BFD2A46334600F0C9FFD4E9F6
:103000000023BDE8F04100F061BD00002DE9FF4D57
:10301000054621F0004084B00C46B0F1795F0BDA30
:103020002846FFF733FD042808BF00F071F8284652
:1030300008B02146BDE8F08D2A460B46104600F048
:10304000A7FF06460F462A46234600F0A1FF80460A
:1030500026488A4632463B4605217844FFF780FFE2
:1030600083461098029160B3214A224B4046514654
:1030700000F08EFFCDE900015A4640465146029BC2
:1030800000F086FF82468846DDE906014FF0FF32F8
:1030900001F087FD5246434601F084F832463B4634
:1030A00000F076FFDDE9062301F07CF8DDE900237E
:1030B00001F078F808B02A462346BDE8F04D01F04B
:1030C00065B80B465A463046394600F061FF084A5B
:1030D000084B00F0FBFC4246534600F059FF08B095
:1030E0002A462346BDE8F04D00F0F0BCA22C0000BB
:1030F000495555555555C5BF012201F052BD00F047
:10310000E5BC002213461046114600F08FBD0000BA
:10311000024A0020110701F044BD000001FDFFFF3D
:10312000012101F06CBD01F053B90021084601F006
:10313000C3B96FF05E01080701F061BD2DE9F041F0
:1031400004464FF00E4000EB4400B0F1506F2046B3
:1031500055D84FF0FC41B1EB440F1CD224F0004095
:103160004FF07E5101F0E3FB4FF0FF3101F047FDDE
:10317000054600F063FC14F0004F1DBF2F4F304E8A
:1031800080F000402F4F08BF2F4E4FF0404101F01C
:10319000D1FA044605E000273E46014601F0CAFA8E
:1031A00005462A49284601F0C5FA294901F010F9D7
:1031B000294601F0BFFA274901F00AF9294601F032
:1031C000B9FA254901F004F9294601F0B3FA234977
:1031D00001F0FEF880462946204601F0ABFA414650
:1031E00001F0A8FA05463146204601F0F1F82946DB
:1031F00001F0EEF83946BDE8F04101F0E9B84FF0D2
:10320000E441B1EB440F08D9FFF754FC042808BF90
:10321000FFF78FFF2046BDE8F0814FF07F41B1EB13
:10322000440F03D2BDE8F041FFF77ABF0120FCF75D
:10323000F5FFBDE8F041FFF778BF00000000C9BF0F
:1032400022AAFDB90000C93F22AAFD3924FE1C3D77
:10325000C78AD83C1E67383D1B93993DAFAA2A3ECA
:103260002DE9F84F04460D4621F0004000917349C6
:10327000814211DC7249884201DC06D12CB1204622
:103280002946BDE8F84FFFF737BF6E48002DCCBF89
:103290006D496E49BDE8F88F6D49814211DD6D4978
:1032A0008142D8BF4FF0FF366DDD20462946FFF73B
:1032B000EDFB042808BFFFF72BFF20462946BDE899
:1032C000F88F6549654F25F00045814233DD64493B
:1032D000814219DD002632464FF0804320462946C0
:1032E00000F0F4FB80468A4601222046294601F080
:1032F00058FC00223B4600F055FF4246534600F082
:1033000095FC04460D463EE001260022BA463B46A7
:103310002046294600F0DAFB80460F46002253463D
:103320002046294600F03EFF42463B4600F07EFC28
:1033300004460D4627E04B4981421BDDDFF828A1FA
:103340000226002253462046294600F021FE002294
:103350003B4600F0BBFB80460F460022534620460A
:10336000294600F01FFF42463B4600F05FFC044642
:103370000D4608E0032622462B4600203B4900F07C
:1033800055FC04460D4622462B461046194600F0D1
:10339000FFFD8B46824602460B4600F0F9FD0746CC
:1033A0000246334888460B4606217844FFF7D8FD8D
:1033B00052465B4600F0ECFD82462E488B463A466C
:1033C000434605217844FFF7CBFD3A46434600F0DB
:1033D000DFFD02460B46002E504659460CDA00F03F
:1033E00075FB22462B4600F0D3FD01B022462B464A
:1033F000BDE8F04F00F0CABE00F068FB22462B4645
:1034000000F0C6FD1C4A7A4402EBC603D3E9002350
:1034100000F0C8FE22462B4600F0C4FE174A7A444C
:1034200002EBC603D3E9002300F0B0FE009A002AA5
:10343000B8BF81F00041BDE8F88F000000001044E3
:103440000000F07F182D4454FB21F93FFB21F9BF08
:103450000000DC3F0000203E0000F33F0000F03F92
:103460000000E63F008003400000F83F0000F0BF8E
:1034700022280000E02700007E27000046270000E9
:103480002DE9F04D9446CCF1000423F000464CEABF
:103490000404524F46EAD4749A46884621F000420A
:1034A000BC4206D8454240EA050442EAD474BC4214
:1034B00004D9BDE8F04D6246FFF721BEAAF14055A0
:1034C000A5F17F6555EA0C040BD0022404EAAA7426
:1034D000434DDFF810E144EAD87452EA000B04D0FF
:1034E0000CE0BDE8F04DFFF7BBBE002C14BF012C73
:1034F000BDE8F08D022C30D0032C32D056EA0C0BF4
:103500000AD0BE4220D1BA4209D126F0804622F02C
:1035100080423346114617E000291ADB25E0DFF828
:10352000C8B0FB44002C04BFDBE90001BDE8F08D0E
:10353000012C02BFDBE9000181F00041BDE8F08D04
:10354000022C0AD0032C0CD0BA4212D1B8F1000FD1
:103550000BDA23482549BDE8F08D28462449BDE80B
:10356000F08D28467146BDE8F08D1D482149BDE823
:10357000F08D921B12153C2AC4BF19481D490EDC60
:10358000BAF1000FBEBF12F13C0F0020014606DB6E
:10359000624600F04BFB21F00041FFF761FE002C7A
:1035A00008BFBDE8F08D012C04BF81F00041BDE8EB
:1035B000F08D114A114B022C07D000F0F3FD2A4682
:1035C000BDE8F04D0A4B00F0EDBD00F0EBFD2A46E2
:1035D000BDE8F04D064B00F0D9BD00000000F07FC3
:1035E000182D4454FB2109C00A270000FB21F9BF14
:1035F000FB210940FB21F93F075C143326A6A13CBF
:103600002DE9F0474FF0684202EB40030C460546B7
:10361000B3F1654F3CBF02EB4102B2F1654F7CD282
:10362000C0F3C753C1F3C7529A1A1B2A06DD10F024
:10363000004F14BF76487748BDE8F08712F11A0FA3
:1036400017DA11F0004F06D010F0004F0CBF72488F
:103650007248BDE8F0872146284600F02DFF044659
:10366000FFF728FA042808BFFFF763FD2046BDE8EE
:10367000F0874200B2EB410F25D910F0004F19BF7F
:10368000674F684E684F694E224685F000441546E4
:103690000A4680F0004110460A1A5200B2F1807FBB
:1036A00040D248406249DFF88CA110F0004F18D09A
:1036B0004FF03F48384601F0CDF9074651463046B5
:1036C00001F0C8F917E011F0004F04BF002637469B
:1036D000E2D010F0004F19BF574F584E584F594E77
:1036E000DAE74FF07C58384600F072FE0746514644
:1036F000304600F06DFE06464146284601F01AF8B5
:10370000214600F065FE82462146404601F012F84F
:10371000294601F00CF9514600E037E000F0CCFEFC
:10372000044604E02146284600F0C6FE0446014651
:1037300001F000F88046444900F0FCFF434900F0E6
:1037400047FE414600F0F6FF414900F041FE414688
:1037500000F0F0FF3F4900F03BFE414600F0EAFF79
:103760003D4900F035FE05464146204600F0E2FFA7
:10377000294600F0DFFF314600F02AFE214600F026
:1037800027FE3946BDE8F04700F022BE4FF07F42E9
:10379000B2EB400F28BFB2EB410F03D2BDE8F047B8
:1037A000FFF7C1BC40EA01035B0008BF44F0FF41E2
:1037B0000AD0B2EB400F08BFB2EB410F06D125F0A3
:1037C000804024F0804105460C4629E7B2EB400FCB
:1037D00012BF5FEA410245F0FF4004F000413FF4B0
:1037E0001FAF4A0092EA40033FF51AAF002AACBF70
:1037F0004FF09F464FF03E56314600F09BFF054686
:103800003146204600F096FF04462846214607E749
:10381000DB0FC9BFDB0FC93FDB0F4940DB0F49C0DE
:103820000000C9BF22AAFDB90000C93F22AAFD3984
:103830000060ED3EC30ACE37000049C022AA7DBA1F
:103840000000494022AA7D3A2DAD65BD8FB8D53D17
:103850000FB511BE61C84C3EA8AAAABE00B5244B44
:1038600021F0004287B09A42DCBF0022134629DDD6
:10387000204B9A4208D140B94FF00100FCF7CEFC32
:10388000FFF73FFC07B000BD03DBFFF735FC07B0D7
:1038900000BD02AAFFF722F910F0030104BF0DF1E9
:1038A000080C9CE80F000DD0012001290ED0022940
:1038B00014D00DF1080C00909CE80F00FFF7A6FB58
:1038C00007B000BDFFF7CEFA07B000BD0DF1080C40
:1038D00000909CE80F00FFF799FB05E00DF1080C44
:1038E0009CE80F00FFF7BEFA07B081F0004100BD71
:1038F000FB21E93F0000F07F42F2283141434FF0C5
:10390000E02251610121116100BF4FF0E0210969FE
:1039100001F480310029F8D000214FF0E02211613C
:10392000704700EBC0014FF0E022516101211161AD
:1039300000BF4FF0E021096901F480310029F8D07F
:1039400000214FF0E022116170470000FDF7B6FC46
:1039500014E00B480123194602680020FCF7DEFF43
:1039600007480123022142680020FCF7D7FF0448E2
:103970000123032182680020FCF7D0FFE9E7000063
:10398000A40D002010B50246012000E050430B00BA
:10399000A1F10104E1B2F9D110BD000000B5254B41
:1039A00021F0004287B09A4203DC002213460092C5
:1039B0002BE0214B9A4208D140B94FF00100FCF7AF
:1039C0002DFCFFF79EFB07B000BD03DBFFF794FB68
:1039D00007B000BD02AAFFF781F810F003014FF015
:1039E00001000DD0012914D002291AD00DF1080CC4
:1039F0009CE80F00FFF736FA07B081F0004100BDE8
:103A00000DF1080C00909CE80F00FFF7FFFA07B0DB
:103A100000BD0DF1080C9CE80F00FFF723FA07B07A
:103A200000BD0DF1080C00909CE80F00FFF7EEFAC6
:103A3000E2E70000FB21E93F0000F07F70B505469A
:103A400000F080FF044620F00040C0F1FF40C00FAE
:103A500008D025F00040C0F1FF40C00F04BF012096
:103A6000FCF7DCFB204670BD21F00042A2F1605261
:103A7000B2F5801F01F0004328BFD2F17F6C0BD953
:103A80005FEA001C43EAC20242EB507018BF704765
:103A900028BF20F001007047B2F5801FBCBF184658
:103AA00070474FEA410C1CF5001F02D2084600F097
:103AB00008BF70B500F016FB00000089FFF7F6BFE5
:103AC0004FF00040A0F580007047000010B591EA6B
:103AD000030F48BF83F0004300F16C83841A71EB3D
:103AE000030C05D2121943EB0C03001B61EB0C0114
:103AF000DFF824E14FEA1154A4EB135C1EEA430FF4
:103B000018BF9EEA445F73D023EA0E03DCF1200E57
:103B100021EA045143F4801332D322FA0CFE10EB55
:103B20000E0023FA0CFE41EB0E01CCF1200E03FA3D
:103B30000EFE10EB0E0051F10001B1F5801FCCF12B
:103B4000200E32D201EB045112FA0EF2BDE8104001
:103B500058BF7047401C38BF5FEA420218BF704729
:103B6000002814BF20F0010041F100014FEA410399
:103B700013F5001F38BF7047A1F1C04100F000BB32
:103B8000012A43EB0302ACF1200CDCF11F0E32BF23
:103B90004FF0000E23FA0CF310EB030041EB04513D
:103BA000B4EB115FD0D0A1EB045101F580114908AD
:103BB0005FEA300001EB04510ED350F1000038BF32
:103BC00012FA0EFE08D1BDE81040C9E7401C38BF0C
:103BD0005FEA4202CAD1C3E7BDE810404FEA4103A1
:103BE00013F5001F38BF7047A1F1C04100F0C8BAFB
:103BF0009EEA445F08D011EA5E0FBDE8104004BFA2
:103C000001F0004100207047BDE8104070B500F0A1
:103C100069FA00BF64FBBE3E0000E0FF02494FF0BE
:103C2000000000F08CBF00BF0000F87F2DE9C0410C
:103C300030B4DFF8A0C23CEA111418BF3CEA1314F8
:103C400000F0EC8081EA03051CEA111444EAD57403
:103C500018BF1CEA131500F0C780A4EB05044FF051
:103C6000004545EAC12145EAC32341EA505143EAF0
:103C7000525304F17F74994204F500344FEAC02096
:103C80004FEAC22208BF904200F09C804FEA1365C1
:103C90000FF24016765D4FEA134506FB05F7C7F1B4
:103CA000807706FB07F74FEAD737A7FB0368764212
:103CB000C8F58038A7FB06CE38BFA8F1010807FB7E
:103CC00008E64FF0000EA6FB028CE6FB03CEDCF10B
:103CD000000CCEF1004E38BFAEF1010EA6FB0C5821
:103CE0004FF000074FF00005E6FB0E87A1FB08C66A
:103CF000A0FB07CE16EB0E0645F10005E1FB0765BC
:103D000015F1E04E7EBFA4F580345FEA46066D41B2
:103D100016F1800745F100054FEA17274FEA0666BE
:103D200047EA0567A6F1DE46B6F1805F4FEA152542
:103D30001FD9384624F0010C05EBC471BCF1FE6FAD
:103D400001EB0C1102D8F0BCBDE8008124425CBF3D
:103D500001F5801E9EEAC47F02D4F0BCBDE800815C
:103D6000244238D4F0BCA1F1C041BDE8004100F0CC
:103D700007BA4FEAD22242EA43524FEAD323A7FBC3
:103D800002864FEAD02040EA415007FB03661EEA54
:103D90000E0F4FEAD12105FB026658BFA6EB005675
:103DA000B6EB00564FEA520E4EEAC37E18EB0E0EEB
:103DB00056EB530EBDD518EB02085E417F1C55F142
:103DC0000005B6E74FF480154FF000074FF00006EE
:103DD0004FF00008ADE7F0BC4FF0000001F1C0412A
:103DE00001F00041BDE8008111EA0C1F0CEA131537
:103DF00000D00CE013EA0C1F00F025804FF000000B
:103E0000F0BC81EA030101F00041BDE80081F0BC93
:103E1000BDE8004181EA030100F0B2B9F0BCBDE8A1
:103E2000004170B500F05EF9097EFC3E00F007B875
:103E300081EA03014FF0000001F00041704781EA80
:103E4000030100F09DB9F0BCBDE800414FF0000057
:103E500021497047FFFDFBF9F7F5F4F2F0EEEDEBC9
:103E6000E9E8E6E4E3E1E0DEDDDBDAD8D7D5D4D378
:103E7000D1D0CFCDCCCBCAC8C7C6C5C4C2C1C0BFC4
:103E8000BEBDBCBBBAB9B8B7B6B5B4B3B2B1B0AFCA
:103E9000AEADACABAAA9A8A8A7A6A5A4A3A3A2A1AE
:103EA000A09F9F9E9D9C9C9B9A9999989797969569
:103EB00095949393929191908F8F8E8E8D8C8C8B05
:103EC0008B8A89898888878786858584848383828D
:103ED000828181800000FF070000F87F4FEA4103E4
:103EE0004FEA5353A3F58063D3F11E03C8BFD3F148
:103EF000210C0CDD4FF0004242EAC12242EA50524E
:103F000032FA03FC8CEAE17CACEBE1707047102BD9
:103F1000C4BF0020704703F5787CBCF1FF3F04D09C
:103F20006FF0004282EA2100704770B500F0DAF8C5
:103F30004992248000207047F2E710F0004248BF09
:103F40004042B0FA80F310FA03F10AD0C3F11D0326
:103F500003F580634FEA415002EB035202EBD1219B
:103F600070474FF000007047B0FA80F310FA03F189
:103F70000AD0C3F11D0303F580634FEA41504FEAB5
:103F8000035202EBD12170474FF000007047000050
:103F9000DFF848C170B51CEA111E1EBF1CEA1315DC
:103FA0009EEA0C0F95EA0C0F00F06F8081EA030483
:103FB00023EA4C134EEAD47E21EA4C1141F48011DD
:103FC00043F48013AE44A1FB024CA0FB0365AEF1A9
:103FD0007F7E361955EB0C05A1FB034C4CF1000319
:103FE000A0FB021C16EB0C06654153F100030942CD
:103FF00018BF46F0010613F4007F0BD14FEA0331DE
:104000004FEA0530340341EA155140EA16506FF08B
:1040100003020AE04FEAC3214FEAC520F40241EA55
:10402000555140EA56506FF0020202EB2E4201EB6E
:10403000025585EACE710AD05FEA440C18BF24F01D
:10404000004450F1000041F1000120EAD47040F238
:10405000FE7C624500D270BDA84214BF4FF0804480
:104060004FF04044002E08BF0024BEF1806FA8BF6F
:10407000A1F1C041BDE8704080F282804FF00000A5
:1040800001F1C04101F0004170479EEA0C0F0CEABB
:10409000131518BF95EA0C0F06D04FF0000081EA07
:1040A000030E0EF0004170BD00F01CF88900013EC7
:1040B00000F007B800F009B84FEA430C5FEA5C5C17
:1040C00008D081EA030100F05BB84FEA410C5FEAD7
:1040D0005C5CF6D14FF00000014970470000FF071B
:1040E0000000F87F0EF1020E2EF0030E5EF8046B56
:1040F000364205D4012A43EB030515F5001F12D8FB
:10410000012841EB010C1CF5001F0CD80ED14FEA21
:10411000D17C15F5001F0CEB4C0C0CF1020C08BF08
:104120004CEBD37C04E04FF0080C01E04FEAD37C69
:104130000CEB4C0526FA05F606F00706B6F1040C62
:1041400006D20EEB860CBDE870404CF0010C6047C7
:10415000DFE80CF0090B02024FF000414FF00000C5
:10416000A1F5002170BD19461046012851EB01044C
:1041700018BFD4F5001484BF002001F0004170BDC9
:104180000808A0F500114FEA3101704791EA030FCA
:1041900010B581F000413FF5A1AC83F0004300F081
:1041A00009B8000010B591EA030F48BF83F000433F
:1041B0003FF594AC841A71EB030C07D212198CF002
:1041C000004C43EB0C03001B61EB0C01DFF8A4E196
:1041D0004FEA1154A4EB135C1EEA430F18BF9EEA8A
:1041E000445F00F0B08023EA6E03524221EA04519A
:1041F000C3EB6E0338BF5B1EDCF1200E25D322FA21
:104200000CFE10EB0E0043FA0CFE41EB0E01CCF15C
:10421000200E03FA0EFE10EB0E0051F10001CCF15E
:10422000200E29D412FA0EF201EB0451BDE8104021
:1042300058BF7047401C1CBFB2F1004F70470028A8
:104240000CBF491C20F00100704712EB020E43EB3B
:10425000030218BF4FF0010E4EEA4202ACF1200CEF
:10426000DCF11E0E54D943FA0CFE10EB0E0051F196
:10427000FF31CCF11E0ED5D50EF1010E12FA0EFE55
:10428000404141EB010101EB445C5FEA5C5C10D909
:1042900010EBDE7001EB045138BFBEF1004FBDE8FA
:1042A000104018BF704700280CBF491C20F00100C7
:1042B000704730D24FEAD42C11F5001124F4006479
:1042C0001BD0B1FA81F20B3AA41AA41ED2F120033A
:1042D000914030FA03F31943904001EBCC71002C6C
:1042E00001EB0451BDE81040A8BF704701F1C04187
:1042F0004FF0000001F000417047B0FA80F310FA6F
:1043000003F100D110BDE41A173C4805C90AE4E7DF
:1043100001EB045110BD491001EB0451BDE8104000
:104320004FEA300002E04FF0000170474A0008BF3A
:104330000042F8D0B2F5001F28BF704701F00041DD
:104340004FF0000070479EEA445F07D011EA5E0F0D
:10435000BDE8104004BF002100207047BDE81040B8
:1043600070B5FFF7BFFE00BF40DFF63E83F00041AF
:10437000104670470000E0FF43004FEAD30C4FEABD
:104380003C0C43401FBF40070CF1605113F0FE4F3F
:1043900070471CF0006F03D100200CF00041704703
:1043A0000CF0004343EA507010B540EACC0000F036
:1043B00042FA00BF000000924FEA0001FFF7E0BEA2
:1043C0004FF000414FF00000A1F5002170470000C0
:1043D00090EA010F48BF81F0004100F14283421A88
:1043E0003CBF801A89184FEAD0524FF07F4C1CEA2C
:1043F000410FA2EBD15318BF9CEA026F00F03B8043
:104400004FF0004C4CEA00204CEA012121FA03FC59
:1044100010EB0C0C1ED202F1FF325FEA1C2040EBC5
:10442000C25038BF70471CF07F0F4FEA400C18BFD6
:10443000BCF17F4F38BF7047C3F12003994008BFDC
:1044400020F00100BCF17F4F38BF7047A0F1C040A1
:1044500000F037BA4FEA3C00000A40EBC25028BFD8
:104460001CF0FF0F4FEA400CE6D018BFBCF17F4FA5
:1044700038BF7047EAE79CEA026F05D010EA5C0F8C
:1044800008BF00F00040704710B500F0D4F900BF3D
:1044900064FBBE3E014800F052BB00BF0000C07F7D
:1044A000401058BFC0F14040491058BFC1F14041D1
:1044B0008142EFF3008070474FF47F0C1CEAD0126A
:1044C0001EBF1CEAD11392EA0C0F93EA0C0F00F006
:1044D000858090EA010F48BF42F4807240F4000CDE
:1044E00041F400002CF07F4120F07F4000B5814274
:1044F000A2EB03020FF2081CACEB504EC0F100001F
:104500009EF800E04FEA4E0E00FB0EFC38BF49005B
:104510004FEA2C1C02F5FA020CFB0EF34FEACE1EFA
:104520004FEA112C4FEAC1210EEB635E42EB2242AF
:104530000EFB0CFC4FEA1C5300FB03114FEA112C3D
:104540004FEA01310EFB0CFC4FEADC4C00FB0C1176
:10455000C14228BF09184CEB03335DF804EB10EBA4
:10456000410143EBC250B2F57C0F38BF704729D5EB
:1045700012F0F00F1CBF00F1C04000F00040704787
:10458000008182838485868788898B8C8D8E8F912C
:104590009293959697999A9C9D9FA0A2A3A5A7A850
:1045A000AAACAEB0B2B3B5B7B9BCBEC0C2C5C7C97C
:1045B000CCCED1D4D7D9DCDFE2E6E9ECF0F3F7FAE0
:1045C000FE0000004FEA400C0CF1807CBCF17E4FF5
:1045D00028BF7047B0F1C04000F073B990EA010FF6
:1045E0000CEAD11348BF42F48072624538BF63457C
:1045F00007D213F47F0F16D080EA010000F00040CC
:10460000704710B500F017F9097EFC3E00F005B8C0
:1046100080EA010000F00040704780EA010000F0ED
:10462000004000F04EB912F47F0F04BF02487047FB
:1046300080EA010000F045B90000C07F41000B0E88
:10464000D3F19E0208D950F400034FEA032323FA62
:1046500002F048BF4042704710B500F0ECF800BFD0
:1046600049922480002070476FF0004282EA2000C7
:104670007047000010F0004148BF4042B0FA80F39C
:1046800010FA03F2C3F19D030BD051EAC35101EBC1
:104690001220530638BF704700F1010008BF20F018
:1046A00001007047B0FA80F310FA03F2C3F19D03E2
:1046B0000AD0D90501EB1220530638BF704700F12C
:1046C000010008BF20F001007047000050EA010C13
:1046D00000F113801CF5000F58BFBCF5000F01D48A
:1046E0008842704707D710F5000F58BF11F5000F2B
:1046F00015D488427047894270471CF5000F04D5D5
:10470000BCF5000FF7D5814270474FF0807C1CEB61
:10471000400F38BF1CEB410F01D28142704710B5EA
:1047200000F089F8922449004FF000504FF080517A
:10473000FFF7B6BE4FF47F0C1CEAD0121EBF1CEA76
:10474000D11392EA0C0F93EA0C0F00F0478090EA25
:10475000010F48BF42F480724FF0004C4CEA002039
:104760004CEA012102EB0302A0FB0113A2F50002B7
:10477000002918BF43F001035B0028BF4FEA330351
:1047800042EB22425FEA132C4CEBC2502EBFBCEB33
:10479000436FB2F57C0F70474FEA036CBCF1004FDA
:1047A00008BF20F00100B2F57C0F38BF70470BD571
:1047B00082F0FF0212F5803FC8BF704700F1C04091
:1047C000D8BF00F00040704700F5000C5FEA4C0CC9
:1047D00048BF7047B0F1C04000F073B890EA010FD5
:1047E0000CEAD11348BF42F48072624538BF63457A
:1047F00004D280EA010000F00040704710B500F0DC
:104800001AF800BF8900013E00F007B800F009B8AF
:104810005FEA410C5FEA1C6C08D080EA010000F0FE
:1048200050B85FEA400C5FEA1C6CF6D14FF00040D4
:10483000A0F5800070470EF1020E2EF0030E5EF818
:10484000044B244204D44FEA4102B2F17F4F11D805
:104850004FEA4003B3F17F4F0CD80ED14FEAD07C22
:10486000B2F17F4F0CEB4C0C0CF1020C08BF4CEB7F
:10487000D17C04E04FF0080C01E04FEAD17C0CEB56
:104880004C0324FA03F404F00704B4F1040C06D238
:104890000EEB840CBDE810404CF0010C6047DFE8E3
:1048A0000CF0070802024FF00040A0F5800010BD98
:1048B0000846420018BFD2F1807288BF00F0004065
:1048C00010BDFF2141EAD050C005704751EA000CED
:1048D00000F113801CF5000F58BFBCF5000F01D488
:1048E0008142704707D711F5000F58BF10F5000F30
:1048F00015D481427047894270471CF5000F04D5DA
:10490000BCF5000FF7D5884270474FF0807C1CEB58
:10491000410F38BF1CEB400F01D28842704780EA3C
:10492000010081EA000180EA0100FFF7F8BE80F093
:10493000004090EA010F7FF552AD81F0004100F098
:1049400090B800004FEAD051002988BFD1F1FF0292
:1049500040F2758001F17D014FEA002070B54908F1
:1049600040F0004038BF40080EA2430E040CD25C59
:1049700002FB02F304FB03F3C3F14043A3FB025425
:10498000ED0D45EA442202FB02F3A0FB03546D4205
:10499000C4F1404438BF641EA2FB05350023E2FB8E
:1049A0000453EA0B42EA4342A0FB023212F14004F4
:1049B000A2F12103E40903F07F031F2B32D904EB9A
:1049C000C15070BDFEFAF7F3F0ECE9E6E4E1DEDC9D
:1049D000D9D7D4D2D0CECCCAC8C6C4C2C1BFBDBC40
:1049E000BAB9B7B6B4B3B2B0AFAEACABAAA9A8A7C8
:1049F000A6A4A3A2A1A09F9E9E9D9C9B9A999897D6
:104A0000979695949393929190908F8E8E8D8C8C97
:104A10008B8A8A898988878786868584848383822E
:104A20008281818004FB04F6B6EB004603D5E642A2
:104A300048BF641CC3E7A64258BF641CBFE711F01F
:104A4000FF0F02D100F00040704710B5FFF7F3FEF2
:104A50007FDBFFBE90EA010F48BF81F000413FF5C8
:104A6000BEAC421A04D882F00042A0EB020011440E
:104A70004FEAD0524FF07F4C1CEA410FA2EBD153CA
:104A800018BF9CEA026F4AD04FF0004C4CEA00205D
:104A90004CEA012121FA03FCB0EB0C0C0FD412F00C
:104AA000FE0F36D05FEA4C001DD5001240EBC2501D
:104AB00038BF70471CF03F0F18BF70470BE0A2F1E2
:104AC00001025FEA1C2040EBC25038BF70471CF067
:104AD0007F0F18BF7047C3F12003994014BF401ED9
:104AE00020F00100704780084FEA122308BF70478A
:104AF000B0FA80FCA2EB0C02CCF1280C60FA0CF0AE
:104B000093EA122F04BF00EBC25070474FEAC37004
:104B10007047130A5FEADC1008BF7047F6E79CEAAB
:104B2000026F04D010EA5C0F08BF0020704710B578
:104B3000FFF781FE40DFF63E81F0004070470CF049
:104B40000F03092B08BF082000F07F800A2B0BD031
:104B5000082B18BF704708BF1CF0400F0AD04FF059
:104B600000004FF0000170471CF0400F18BF4FF0DD
:104B7000004070471CF0100F08D020F0704300F088
:104B80007F4242EAD3014FEA4370704700F0604031
:104B900021F07F4242EA000201F07F4040EA727059
:104BA00070474FF0FF0C4CF4E06C1CEA11531CBF33
:104BB0009CEA030C9445C2BFDA4201EB02517047F4
:104BC000002B0DD0BCF1000F0FD0002A01F00041E6
:104BD000A4BF41F0E04141F07F614FF00000704719
:104BE00001F000414FF00000704750EA01334FF0F0
:104BF0009B0C18BF4CF0806C7FF410A870474FF0EE
:104C0000FF0212EAD0521CBF92F0FF038B42C2BFD8
:104C1000D14200EBC1507047002A0AD0002B0BD0C4
:104C2000002900F00040A4BF40F0FE4040F4000026
:104C3000704700F00040704743024FF00B0C18BF64
:104C40004CF0806C7FF426AC70471CF4801F11D0B0
:104C50001CF4E02F03D06FEACC31490070474FF0CD
:104C60004050EFF3008222F0704242EA000282F3E9
:104C7000008870474FF000007047000000000000FF
:104C80000000002F000000000700070000147F1440
:104C90007F1400242A7F2A1200626408132300363E
:104CA0004955225000000503000000001C2241006D
:104CB000000041221C000014083E08140008083EB1
:104CC0000808000000A060000808080808080000A4
:104CD00060600000002010080402003E5149453E7B
:104CE0000000427F40000042615149460021414599
:104CF0004B31001814127F10002745454539003C00
:104D00004A494930000171090503003649494936CD
:104D100000064949291E00003636000000005636BC
:104D20000000081C2A490808001414141414080868
:104D3000492A1C0800020151090600324959513E16
:104D4000007C1211127C007F49494936003E4141E6
:104D50004122007F4141221C007F49494941007F97
:104D600009090901003E4149497A007F0808087F86
:104D70000000417F4100002040413F01007F0814B6
:104D80002241007F40404040007F020C027F007FB4
:104D90000408107F003E4141413E007F0909090699
:104DA000003E4151215E007F0919294600464949CC
:104DB00049310001017F0101003F4040403F001F99
:104DC0002040201F003F4038403F00631408146318
:104DD00000070870080700615149454300007F4102
:104DE000410000552A552A55000041417F00040228
:104DF000FF020400002040FF4020000001020400E8
:104E0000002054545478007F4844443800384444C7
:104E1000442000384444487F003854545418000853
:104E20007E0901020018A4A4A47C007F0804047871
:104E30000000447D4000004080847D00007F1028F9
:104E400044000000417F4000007C04180478007C8E
:104E50000804047800384444443800FC242424180E
:104E60000018242418FC007C08040408004854544A
:104E7000542000043F444020003C4040207C001C63
:104E80002040201C003C4030403C00442810284476
:104E9000001CA0A0A07C004464544C4414141414BE
:104EA0001414BAE3CDD8BFC6BCBCB5E7B5F7D0A3E0
:104EB000D7BCC7EBBDABB7C9D0D0C6F7D6C3D3DA22
:104EC000CBAEC6BDD7B4CCACC7D2B1A3B3D6BEB2FD
:104ED000D6B900E000FF102002F29292929292F274
:104EE000020000FF0000404F44444444444F40103F
:104EF00010FF1090040484E49C8484840444827F22
:104F000001040201FF40404040FF0024A4FEA32210
:104F10000022CC0000FF0000000601FF0001040495
:104F2000040404FF0202021010FF10900888888811
:104F3000FF8888880844827F01808040432C1028A5
:104F400046818000F888888888FF88888888F800EB
:104F500000001F080808087F888888889F80F04222
:104F6000CC0000FE829292FE929282FE00003F10E0
:104F7000887F001E1212125E807F0010D0FF9010FA
:104F8000804828090E082848880300FF0001808017
:104F9000432C102C438080020CE04020F84F4849FD
:104FA000FE48484808047F000000FF2222223F22DA
:104FB00022222042CC0000445454547F5454544480
:104FC00040007F201000FF15151555957F00000843
:104FD0003000FF008884532212CA06000004020138
:104FE000FF00020A1242827F020202020202020251
:104FF000020202FE40A010080000000000000000B5
:1050000000030C102142F01088C433004042424299
:10501000C2424242400100FF0000000040807F0089
:10502000000000809E9292929EE0809EB2D2929E5C
:105030008008F4949292F10001F2929494F8081787
:1050400015D55557557D555755D515170040407FF7
:10505000555555555555557F404040404242424276
:1050600042FE424242424240400000000040807FF7
:1050700000000000000000202020A06000FF6080F1
:1050800040201800001008060140807F0001020443
:10509000081010020212620202FE020242320202F2
:1050A00000010101010101FF0101010101010108EC
:1050B0003000FF20202020FF2020222C200402018D
:1050C000FF8040300E010618204080048484442470
:1050D000548F142444848404003900003C4040422E
:1050E0004C4040700409310000FE2222222222227C
:1050F00022FE00000040407F424242424242427F44
:105100004040408060F807003E2222E222223E001A
:10511000000000FF2011090503FF030509112010FD
:1051200010FF1010404848487F48C8484044827FDC
:10513000010002020A1242827F020254547F545438
:1051400044202827E4342CE000FF1555957F000902
:1051500049897F09091F010000F0000000FF40405D
:10516000404040000040407F4040407F4040404041
:10517000404040000000000000000000000000006F
:10518000000000000000F8000000000000003330C4
:1051900000000000100C06100C06000000000000CB
:1051A00000000040C07840C0784000043F04043F45
:1051B000040400007088FC08300000001820FF2163
:1051C0001E0000F008F000E018000000211C031E83
:1051D000211E0000F00888700000001E2123241901
:1051E00027211010160E0000000000000000000033
:1051F000000000000000E018040200000000071892
:1052000020400000020418E00000000040201807C1
:10521000000000404080F0804040000202010F0189
:10522000020200000000F0000000000101011F0167
:10523000010100000000000000000080B0700000CC
:10524000000000000000000000000000010101015A
:1052500001010100000000000000000030300000EB
:1052600000000000000000806018040060180601C3
:1052700000000000E010080810E000000F102020DF
:10528000100F00001010F8000000000020203F2048
:1052900020000000700808088870000030282422D0
:1052A0002130000030088888483000001820202075
:1052B000110E000000C02010F80000000704242494
:1052C0003F240000F80888880808000019212020E1
:1052D000110E0000E0108888180000000F11202037
:1052E000110E0000380808C83808000000003F0010
:1052F0000000000070880808887000001C2221212E
:10530000221C0000E010080810E0000000312222FA
:10531000110F00000000C0C000000000000030308D
:10532000000000000000800000000000008060001D
:105330000000000000804020100800000102040866
:105340001020004040404040404000040404040459
:105350000404000008102040800000002010080411
:10536000020100007048080808F000000000303614
:10537000010000C030C828E810E0000718272423E7
:10538000140B000000C038E0000000203C230202A3
:1053900027382008F8888888700000203F202020C7
:1053A000110E00C030080808083800071820202017
:1053B00010080008F808080810E000203F2020200E
:1053C000100F0008F88888E8081000203F202023EC
:1053D00020180008F88888E8081000203F20000303
:1053E000000000C0300808083800000718202022FC
:1053F0001E020008F808000008F808203F210101FB
:10540000213F20000808F8080800000020203F2065
:1054100020000000000808F8080800C08080807F95
:1054200000000008F888C028180800203F20012646
:1054300038200008F8080000000000203F2020204D
:1054400020300008F8F800F8F80800203F003F007E
:105450003F200008F830C00008F808203F2000076F
:10546000183F00E01008080810E0000F102020206E
:10547000100F0008F808080808F000203F2101017B
:10548000010000E01008080810E0000F182424387C
:10549000504F0008F8888888887000203F2000035B
:1054A0000C302000708808080838000038202121BE
:1054B000221C00180808F8080818000000203F20E7
:1054C00000000008F808000008F808001F2020204D
:1054D000201F000878880000C83808000007380E30
:1054E000010000F80800F80008F800033C07000776
:1054F0003C0300081868808068180820302C0303DB
:105500002C30200838C800C83808000000203F2090
:1055100000000010080808C838080020382621209C
:10552000201800000000FE020202000000007F4080
:10553000404000000C30C0000000000000000106E8
:1055400038C00000020202FE000000004040407F20
:10555000000000000004020202040000000000003D
:1055600000000000000000000000008080808080BB
:1055700080808000020204000000000000000000A3
:10558000000000000080808080000000192422229A
:10559000223F2008F8008080000000003F112020FA
:1055A000110E000000008080800000000E112020FD
:1055B000201100000000808088F800000E112020DB
:1055C000103F200000808080800000001F222222E7
:1055D000221300008080F0888888180020203F2057
:1055E0002000000000808080808000006B949494F4
:1055F00093600008F8008080800000203F210000B8
:10560000203F2000809898000000000020203F20CC
:10561000200000000000809898000000C08080807A
:105620007F000008F8000080808000203F24022DC9
:10563000302000000808F8000000000020203F2073
:105640002000008080808080808000203F20003FFC
:1056500020003F8080008080800000203F210000EB
:10566000203F200000808080800000001F2020203C
:10567000201F00808000808000000080FFA120208B
:10568000110E000000008080808000000E1120209C
:10569000A0FF80808080008080800020203F21202B
:1056A00000010000008080808080000033242424DA
:1056B000241900008080E0808000000000001F208E
:1056C0002000008080000000808000001F2020203B
:1056D000103F20808080000080808000010E300814
:1056E00006010080800080008080800F300C030C59
:1056F000300F0000808000808080000020312E0E5E
:10570000312000808080000080808080818E701831
:1057100006010000808080808080000021302C22E3
:1057200021300000000000807C0202000000000028
:105730003F404000000000FF00000000000000FFAC
:105740000000000002027C800000000040403F009A
:105750000000000000000000008080000000000049
:105760000001010000000000000000000000000037
:105770000000000000000000000000000000000029
:105780000000000000000000000000000000000019
:10579000000000181C3C3C7CFC3C3C7CD800000019
:1057A00000000000000000000000000000000000F9
:1057B00000000000000000000000000000000000E9
:1057C00000000000000000000000000000000000D9
:1057D00000000000000000000000000000000000C9
:1057E00000000000000000000000000000000000B9
:1057F00000000000000000000000000000000000A9
:10580000002060E0C0C0C0C080C080000000000078
:105810000000000000000000FF8040201F0000008A
:105820000000000000000000000000000000000078
:105830000000000000000080C08080C0C0C0C060C8
:1058400060000000000000000000000000000000F8
:105850000000000000000000000000000000000048
:105860000000000000000000000000000000000038
:105870000000000000000000000000000000000028
:105880000000000000010119FFFFFFFF73F2F6E4C2
:10589000E4ECC8C8C0C080F0FFF0E0F0D0D8FCFE57
:1058A000FFFFFFFFFCC0C0C0E0E0F0F0E0C0C0C4FC
:1058B000E4E4E2F2727BFFFFFFFF19010101000047
:1058C00000000000000000000000000000000000D8
:1058D00000000000000000000000000000000000C8
:1058E0000000000000000000000000000000008038
:1058F000808080808080C040C0F0F8F0F0E060F0F0
:10590000F0707070703030303FBF9F98988888C9B1
:10591000C9C3C3E7EFFFFFFFFFFFFFFFFFFFFFFF6D
:10592000FFFFFFFFFFFFFFFFFFFFFFFFFFFFF7E3AB
:10593000E3C1C9C8C8C8999F9F9FB8383830303074
:105940007070707070F0F8F8F8F0E060404040401F
:1059500040C0C0C0808080808080808000000000C7
:10596000000000060202020203030301010101011B
:105970000101010100002070FFFFFFFFFFFFFE7E1D
:105980003E3E3E3E3F1F1F1F1F1F1F1F0F0F0F0FCB
:105990000F0F07030101010103878F8F8F87BFFF5F
:1059A000FFFFFFFFFFDF87878F878103030101016F
:1059B0000107070F0F0F0F1F1F1F1F1F1F1F1F3F65
:1059C0003F3E3E3C7FFFFFFFFFFFFF38100000001F
:1059D00000000000000000000001010101010101C0
:1059E00001010100000000000000000000000000B4
:1059F000000000000000000003FFFFFFFF1F010088
:105A00000000000000000000000000000000000096
:105A10000000000000000000003F3F3F3F3F3F7F8D
:105A2000FFFFFFFFFFFFFFFFFFFFFF1F0000000062
:105A30000000000000000000000000000000000066
:105A4000000000000003FFFFFFFF03000000000054
:105A50000000000000000000000000000000000046
:105A60000000000000000000000000000000000036
:105A700000000000000000000007FFFFFF00000022
:105A80000000000000000000000000000000000016
:105A90000000000000000000000000000000000006
:105AA00000000000000000000000000000000000F6
:105AB00000000000000000000000000000000000E6
:105AC00000000000000003FFFF03000000000000D2
:105AD00000000000000000000000000000000000C6
