:020000040800F2
:1000000038070020CD010008750D000861060008C2
:100010000D0D00087F020008E9180008000000002C
:10002000000000000000000000000000491100086E
:10003000830200080000000005110008CD1200082E
:10004000E7010008E7010008E7010008E7010008F0
:10005000E7010008E7010008E7010008E7010008E0
:10006000E7010008E7010008E7010008E7010008D0
:10007000E7010008E7010008E7010008E7010008C0
:10008000E7010008E7010008E7010008E7010008B0
:10009000E7010008E7010008E7010008E7010008A0
:1000A000E7010008E7010008E7010008E701000890
:1000B00031130008E7010008E7010008E701000824
:1000C000E7010008E7010008E7010008E701000870
:1000D000E7010008E7010008E7010008E701000860
:1000E000E7010008E7010008E7010008E701000850
:1000F000E7010008E7010008E7010008E701000840
:10010000E7010008E7010008E7010008E70100082F
:10011000E7010008E7010008E7010008E70100081F
:10012000E7010008E7010008E7010008E70100080F
:1001300000F002F800F03AF80AA090E8000C8244BF
:100140008344AAF10107DA4501D100F02FF8AFF29C
:10015000090EBAE80F0013F0010F18BFFB1A43F0A5
:10016000010318473C2F00005C2F0000103A24BF09
:1001700078C878C1FAD8520724BF30C830C144BF0C
:1001800004680C607047000000230024002500264E
:10019000103A28BF78C1FBD8520728BF30C148BFEA
:1001A0000B6070471FB51FBD10B510BD00F031F8D2
:1001B0001146FFF7F7FF01F0C2FB00F04FF803B460
:1001C000FFF7F2FF03BC00F053F800000948804736
:1001D00009480047FEE7FEE7FEE7FEE7FEE7FEE729
:1001E000FEE7FEE7FEE7FEE704480549054A064B41
:1001F00070470000D11200083101000838010020CA
:10020000380700203803002038030020704770476B
:100210007047754600F028F8AE460500694653461B
:1002200020F00700854618B020B5FFF7DDFFBDE8D8
:1002300020404FF000064FF000074FF000084FF04D
:10024000000B21F00701AC46ACE8C009ACE8C009DE
:10025000ACE8C009ACE8C0098D4670470446AFF36E
:1002600000802046FFF7ABFF00487047D400002015
:1002700001491820ABBEFEE726000200704700BF10
:10028000FEE770472DE9FE438046894615461E4627
:100290000021701C0DF80010002D03DB20208DF8CC
:1002A000000003E06D422D208DF80000002413E0D3
:1002B000301B401EC1B20A2001F092FBB5FBF0F0EA
:1002C0000A21B0FBF1F201FB120707F13000C1B2C5
:1002D000601C0DF80010C4B2B442E9DB6A4649461E
:1002E000404600F041FEBDE8FE83000010B500F07E
:1002F0007FFB2D4840882C49097840EA01212B4892
:10030000B0F86000081A00B2284988862648C088DC
:100310002549097940EA01212448B0F86000081A0B
:1003200001B22248C186204840891F49097A40EA23
:10033000012001B21D4801871B48C0891A49097B69
:1003400040EA012000B2194908801748408A16493E
:10035000097C40EA012000B2144948801248C08A52
:100360001149097D40EA012000B210498880B1F9A5
:1003700000100E4AB2F92C20881A01F053FE0B49E6
:100380000862B1F90220B1F92E10501A01F04AFEAC
:1003900006494862B1F90420B1F93010501A01F051
:1003A00041FE0249886210BD980000203000002004
:1003B0002DE9F041024600250026002000230024FC
:1003C000002791F803C00CF00F0591F803C00CF062
:1003D000100CBCF1000F03D091F802C04CEA0505E7
:1003E00091F800C0BCF1000F31D0146800202BE060
:1003F0004FF0010C0CFA00F3B1F800C00CEA030650
:100400009E4220D183004FF00F0C0CFA03F7BC433F
:1004100005FA03FC4CEA040491F803C0BCF1280F70
:1004200006D14FF0010C0CFA00FCC2F814C00AE02F
:1004300091F803C0BCF1480F05D14FF0010C0CFA44
:1004400000FCC2F810C0401C0828D1D31460B1F8D9
:1004500000C0BCF1FF0F34DD546800202EE000F135
:10046000080C4FF0010808FA0CF3B1F800C00CEAD0
:1004700003069E4221D183004FF00F0C0CFA03F7C4
:10048000BC4305FA03FC4CEA040491F803C0BCF138
:10049000280F05D100F1080C08FA0CF8C2F81480F6
:1004A00091F803C0BCF1480F07D100F1080C4FF0E0
:1004B000010808FA0CF8C2F81080401C0828CED3B6
:1004C0005460BDE8F08141617047016170470000F0
:1004D0002DE9FF410546002602AB062203213C2000
:1004E00000F016FC594800680A2190FBF1F05749CA
:1004F0000968081A554908609DF809009DF8081018
:1005000040EA012000B25149096808444F49086097
:10051000084600680A2190FBF1F000B2ADF8000037
:100520004A48406890FBF1F048494968081A474931
:1005300048609DF80D009DF80C1040EA012000B2C3
:1005400042494968084441494860084640680A21D0
:1005500090FBF1F000B2ADF802003C48806890FBDF
:10056000F1F03A498968081A384988609DF80B000B
:100570009DF80A1040EA012000B234498968084415
:1005800032498860084680680A2190FBF1F000B289
:10059000ADF80400BDF804002D4908809DF80A005C
:1005A00048809DF80B0088802A48407A40B101209D
:1005B0002949087000202749C870684600F064FA8D
:1005C0002548007808B3002023490870002415E06E
:1005D0002248006830F91400002805DA1F48006836
:1005E00030F91400404203E01C48006830F9140060
:1005F000142801DA701CC6B2601CC4B2062CE7DBFA
:10060000022E02DB01201349C87000241AE01349AE
:10061000096801EB4401B1F90610104A126832F979
:1006200014208F1807EBD7713DF91420A2EB61005D
:1006300001F0F8FC804601F0D9FC00B225F8140066
:10064000601CC4B2032CE2DBBDE8FF81C8000020BF
:10065000BC000020180000200A000020000000203C
:1006600000BFFEE710B54FF480600C49086000F051
:100670002FF94FF400600949086000F029F94FF4A0
:1006800080600649091F086000F022F94FF480607D
:100690000249086000F01CF910BD0000140C014074
:1006A00008B50121082000F03FFD4FF48060ADF84F
:1006B000000003208DF8020014208DF80300694625
:1006C0000848FFF775FE4FF40060ADF80000032006
:1006D0008DF8020014208DF8030069460148FFF7E9
:1006E00067FE08BD000C014010B54FF480600C4956
:1006F000086000F0EDF84FF400600949091F086038
:1007000000F0E6F84FF480600549091F086000F02A
:10071000DFF84FF480600249086000F0D9F810BD9E
:10072000140C014070B50825002428021249086005
:1007300016E06006040E4FF480600F49091D086042
:1007400000F0C6F84FF480600B49086000F0C0F874
:1007500009480838006800F4006008B144F001045A
:100760002800A5F10101CDB2E3D14FF48060024928
:10077000091D0860204670BD100C014070B504468C
:1007800008251DE04FF480601249086000F0A0F8D1
:1007900004F0800028B14FF400600E49091F086082
:1007A00003E04FF400600B4908606006040E00F09F
:1007B0008FF84FF480600749091F086000F088F83F
:1007C0002800A5F10101CDB2DCD14FF480600149D0
:1007D000086070BD140C014010B54FF4006015495D
:1007E00008604010086000F073F81248083800688C
:1007F00008B9012000E0002000F4006008B10020EA
:1008000010BD4FF400600B49091D086000F060F84E
:1008100008480838006800F4006008B10020EFE7DD
:100820004FF400600349091D086000F051F80120F1
:10083000E6E70000100C014010B54FF480600C4951
:10084000086000F045F84FF400600949086000F0C6
:100850003FF84FF480600649091F086000F038F83F
:100860004FF400600249091F086000F031F810BD24
:10087000140C014010B54FF480601449086000F07A
:1008800027F84FF400601149091F086000F020F8B4
:100890004FF480600D49091F086000F019F80B48FB
:1008A0000C38006800F4006038B14FF480600749EC
:1008B000086000F00DF8002010BD4FF4806003497F
:1008C000086000F005F80120F6E70000140C014074
:1008D00010B50A2001F01FF810BD10B500F03CF86B
:1008E00000F0B6FAFFF7DCFEC82000F0FFFF00F0D2
:1008F0005BF800F013F8472144F61F6000F04EFD4E
:1009000001F022F801F054F84FF4A06000F06CFA06
:10091000632140F2077000F013FD10BD10B50A21ED
:100920003C2000F087FC04460CB9002010BD782262
:1009300000213C2000F0A6FC202201213C2000F0F8
:10094000A1FC002202213C2000F09CFC642000F06D
:10095000CDFF0120EAE7000008B50121602000F08A
:10096000E3FB0B20ADF8000010208DF803000320FE
:100970008DF8020069460A48FFF71AFD0B21084866
:10098000FFF7A3FD4FF4A050ADF8000069460548FD
:10099000FFF70EFD4FF4A0510248FFF796FD08BD8A
:1009A000001401400018014010B57521D02000F05E
:1009B00041FC04460CB9002010BD00226B21D02060
:1009C00000F060FC07221921D02000F05BFC03221C
:1009D0001A21D02000F056FC10221B21D02000F05C
:1009E00051FC09221C21D02000F04CFC0120E3E73F
:1009F00010B53B21D02000F01DFC224908803C218D
:100A0000D02000F017FC1F4948803D21D02000F085
:100A100011FC1C4988803E21D02000F00BFC1949B4
:100A2000C8803F21D02000F005FC164908814021F4
:100A3000D02000F0FFFB134948814321D02000F073
:100A4000F9FB104988814421D02000F0F3FB0D49C7
:100A5000C8814521D02000F0EDFB0A4908824621DB
:100A6000D02000F0E7FB074948824721D02000F062
:100A7000E1FB044988824821D02000F0DBFB0149DA
:100A8000C88210BD980000202DE9FF5F8146944880
:100A9000007898B100209249087092490860924904
:100AA000086092490860002406E000209049096827
:100AB00021F81400601CC4B2062CF6DB002421E0EF
:100AC0008B48006830F9140039F91410884206DDAB
:100AD00039F814008649096821F8140010E08448A8
:100AE000006800EB4400B0F9060039F914108842A0
:100AF00006DA39F814007E49096801EB4401C88020
:100B0000601CC4B2032CDBDB7A48407A012848D150
:100B10007949486C002101F09DFA04D27648406C76
:100B200080F0004001E07448406C0546734901F0D4
:100B300010FB36D27049886A01F020FA4FF040422B
:100B40006F4BCDE9000101F031F807464FF06042EC
:100B50006C4B01F02BF805460E466248006801F028
:100B60000DFA82462A46334600F078FFCDE90201AD
:100B700000F042FF5B49086000215A48006801F01C
:100B800069FA04D25748006880F0004001E05548F7
:100B9000006805465C4901F0DCFA02D202205549A2
:100BA00048725448407A022848D15349C86B002102
:100BB00001F050FA04D25048C06B80F0004001E0D0
:100BC0004D48C06B05464D4901F0C3FA36D24A493B
:100BD000086A01F0D3F982464FF04042484B00F0DA
:100BE000E5FF07464FF06042464B00F0DFFF054649
:100BF0000E463E48006801F0C1F92A463346CDE969
:100C0000000100F02BFFCDE9020100F0F5FE3749AD
:100C1000086000213548006801F01CFA04D233480E
:100C2000006880F0004001E0304800680546364921
:100C300001F08FFA02D203202E4948722D48407AE3
:100C400003284BD12C49086C002101F003FA04D28F
:100C50002948006C80F0004001E02748006C054600
:100C6000264901F076FA39D22349486A01F086F91B
:100C700005464FF04042224B00F098FF4FF0604293
:100C8000204BCDE9000100F091FF07468846164849
:100C9000006801F073F982463A46434600F0DEFEF2
:100CA000CDE9020100F0A8FE0F49086000210E48BE
:100CB000006801F0CFF904D20B48006880F00040D2
:100CC00001E00948006805460F4901F042FA05D2E3
:100CD000012003490870002006494872BDE8FF9FC3
:100CE0000B00002014000020100000200C00002049
:100CF00000000020180000203000002000409C452B
:100D0000FE3F9F3F4D62603F0000B44300BFFEE7DF
:100D10002DE9F04107460E4615469846FFF75CFD63
:100D20003846FFF72BFDFFF7A5FD3046FFF726FD00
:100D3000FFF7A0FDFFF750FD791CC8B2FFF71EFDBD
:100D4000FFF798FD00240DE0FFF7ECFC08F8040025
:100D5000681EA04202D1FFF7C7FC01E0FFF782FC4A
:100D6000601CC4B2AC42EFDBFFF766FDFFF7B0FDDD
:100D7000BDE8F0817047000070B5002100230F220C
:100D8000C47804B3154C246804F4E064C4F5E0644A
:100D9000210AC1F10403CA40447804FA03F18478BB
:100DA0001440214309010E4C0678A155047804F043
:100DB0001F050124AC4005786D11AD0005F1E0255B
:100DC000C5F8004109E0047804F01F050124AC4097
:100DD000044D0678761145F8264070BD0CED00E014
:100DE00000E400E080E100E002490143024A1160B2
:100DF000704700000000FA050CED00E007E040F24B
:100E0000375100BF0A00A1F10101FBD1401E0028AB
:100E1000F5D1704770B50646002415E004F1B00125
:100E2000C8B200F015F9012000F012F9102000F00E
:100E30000FF9002504E0304600F036F9681CC5B211
:100E4000802DF8DB601CC4B2082CE7DB70BD00000D
:100E500008B50121102000F067F90F20ADF800005F
:100E600003208DF8020010208DF8030069463D48EC
:100E7000FFF79EFA08213B48FFF727FB022139487C
:100E8000FFF721FB3220FFF7B9FF02213548FFF7BA
:100E90001CFB0021AE2000F0ABF80021D52000F0B3
:100EA000A7F80021802000F0A3F80021A82000F07E
:100EB0009FF800213F2000F09BF80021D32000F094
:100EC00097F80021084600F093F80021402000F038
:100ED0008FF800218D2000F08BF80021142000F005
:100EE00087F80021202000F083F80021022000F084
:100EF0007FF80021A12000F07BF80021C82000F03D
:100F000077F80021DA2000F073F80021122000F0B9
:100F10006FF80021812000F06BF80021EF2000F035
:100F200067F80021D92000F063F80021F12000F0DB
:100F30005FF80021DB2000F05BF80021402000F08A
:100F400057F80021A42000F053F80021A62000F05B
:100F50004FF80021AF2000F04BF80020FFF75AFFB8
:100F600008BD0000001001402DE9F0470446884606
:100F700015464FF00009002600274146204600F0A4
:100F800025F81CE0E85D203800F0FF097E2C04DD28
:100F9000002408F1010000F0FF08002609E009EB39
:100FA0004901094A02EB4101885D00F07DF8701C9F
:100FB000C6B2062EF3DBA01DC4B2781CC7B2E85D32
:100FC0000028DFD1BDE8F087B421000870B50446E1
:100FD0000D4605F1B001C8B200F03AF8102141EA1F
:100FE000141000F035F804F00F0000F031F870BD77
:100FF00070B504460E4626B101211448FFF765FA84
:1010000003E001211148FFF75EFA002517E00821EF
:101010000E48FFF758FA04F0800020B104210B4875
:10102000FFF753FA03E004210848FFF74CFA0821C0
:101030000648FFF74AFA6006040E681CC5B2082D80
:10104000E5DB01210148FFF740FA70BD00100140C7
:1010500070B50446082501211248FFF734FA08212B
:101060001048FFF730FA00BF16E004F0800020B10E
:1010700004210C48FFF729FA03E004210948FFF78F
:1010800022FA08210748FFF720FA00BF0821054887
:10109000FFF719FA6006040E2800A5F10101CDB290
:1010A000E3D170BD0010014070B504460825012150
:1010B0001348FFF70AFA00BF08211148FFF703FAA7
:1010C00000BF16E004F0800020B104210C48FFF7B7
:1010D000FCF903E004210A48FFF7F5F90821084864
:1010E000FFF7F3F900BF08210548FFF7ECF96006A8
:1010F000040E2800A5F10101CDB2E3D170BD0000BE
:10110000001001407047000029B1064AD26902432D
:10111000044BDA6104E0034AD2698243014BDA618D
:10112000704700000010024029B1064A926902434C
:10113000044B9A6104E0034A92698243014B9A612D
:101140007047000000100240704710B500F002F830
:1011500010BD00000CB500200190009033480068DD
:1011600040F480303149086000BF3048006800F426
:10117000003000900198401C0190009818B9019827
:10118000B0F5A06FF1D12948006800F4003010B12B
:101190000120009001E0002000900098012843D138
:1011A0002348006840F010002149086008460068A4
:1011B00020F0030008600846006840F00200086064
:1011C0001A4840681949486008464068486008461F
:1011D000406840F4806048600846406820F47C1015
:1011E00048600846406840F4F810486008460068C7
:1011F00040F08070086000BF0C48006800F000708C
:101200000028F9D00948406820F0030007494860E9
:101210000846406840F00200486000BF034840684C
:1012200000F00C000828F9D10CBD000000100240AD
:101230000020024070B504460D46FFF7CDFA08B90C
:10124000002070BD2046FFF799FAFFF713FB18B98D
:10125000FFF7F2FA0020F4E72846FFF78FFAFFF7CE
:1012600009FBFFF7B9FA611CC8B2FFF787FAFFF76D
:1012700001FBFFF757FA0646FFF736FAFFF7DCFAED
:101280003046DEE770B506460C461546FFF7A4FA71
:1012900008B9002070BD3046FFF770FAFFF7EAFA90
:1012A00018B9FFF7C9FA0020F4E72046FFF766FAFD
:1012B000FFF7E0FA2846FFF761FAFFF7DBFAFFF7DE
:1012C000BBFA052000F012FB0120E3E770470000A5
:1012D00010B51348006840F0010011490860084645
:1012E0004068104908400E494860084600680E49A9
:1012F00008400B4908600846006820F48020086018
:101300000846406820F4FE0048604FF41F008860E3
:10131000FFF71BFF4FF000600449086010BD00009C
:10132000001002400000FFF8FFFFF6FE08ED00E0AD
:1013300010B500F06FFA0121880700F09DF810BD8C
:101340007FB505460C4601210846FFF7DDFEADF8E6
:101350000850ADF804400020ADF80600ADF80A00D2
:1013600001A94FF0804000F003FA012211469007D6
:1013700000F091F80121880700F081F81C208DF819
:10138000000001208DF8010003208DF802000120EB
:101390008DF803006846FFF7EFFC7FBD30B589B0DC
:1013A00004460D4601210420FFF7AEFE012108206E
:1013B000FFF7BAFE4FF47070ADF8200018208DF8DA
:1013C000230003208DF8220008A92348FEF7F0FF30
:1013D000A8B2ADF814000020ADF81600A0B2ADF828
:1013E00018000020ADF81A0005A91C4800F0C0F94B
:1013F0006020ADF804000120ADF806000020ADF833
:101400000C0001A9154800F04FF801A9134800F09D
:10141000A1F801A9114800F0FDF801A90F4800F05A
:1014200053F908210D4800F08BF808210B4800F013
:10143000E3F80821094800F03DF90821074800F0C9
:1014400081F90121054800F00BF80121034800F063
:1014500016F809B030BD0000000C01400008004043
:1014600021B1028842F08002028004E002884FF637
:101470007F731A4002807047CA430282704721B1CD
:10148000028842F00102028004E002884FF6FE73F7
:101490001A40028070471AB183890B43838102E0AE
:1014A00083898B438381704770B500240022002319
:1014B000058C4FF6FE7635400584028C8388048BBC
:1014C0004FF68F752C40B51E2C400D882C43751E91
:1014D0002A400D892A434D882A43144DA8420BD037
:1014E000134DA84208D0134DA84205D0124DA84272
:1014F00002D0124DA84213D14FF6F7752A404D89FC
:101500002A434FF6FB752A408D882A434FF6FF6524
:101510002B404FF6FF552B408D892B43CD892B4314
:1015200083800483CD888586028470BD002C0140B1
:1015300000340140004001400044014000480140A7
:101540000A460021018B4FF6F773194011430183BE
:101550007047000070B5002400220023058C4FF670
:10156000EF7635400584028C8388048B48F6FF753E
:101570002C404FF6FF452C400D884FF6FF7606EACB
:1015800005252C434FF6DF752A400D8906EA05151F
:101590002A434D8806EA05152A43154DA84202D074
:1015A000144DA8421DD14FF67F752A404D894FF644
:1015B000FF7606EA05152A434FF6BF752A408D8847
:1015C00006EA05152A434FF6FF352B404FF2FF750B
:1015D0002B408D8906EA85052B43CD8906EA8505D2
:1015E0002B4383800483CD880587028470BD00006F
:1015F000002C0140003401400A460021018B4FF2CB
:10160000FF7319404FF6FF7303EA02231943018366
:101610007047000070B5002400220023058C4FF6AF
:10162000FF6635400584028C8388848B4FF68F7566
:101630002C404FF6FC752C400D882C434FF6FF557F
:101640002A400D894FF6FF7606EA05252A434D8884
:1016500006EA05252A43154DA84202D0144DA8429A
:101660001DD14FF2FF752A404D894FF6FF7606EAED
:1016700005252A434FF6FF352A408D8806EA0525C1
:101680002A434EF6FF752B404DF6FF752B408D8992
:1016900006EA05152B43CD8906EA05152B43838001
:1016A0008483CD888587028470BD0000002C0140B2
:1016B000003401400A460021818B4FF6F773194030
:1016C000114381837047000070B50022002300247D
:1016D000058C4EF6FF7635400584038C8488828B1A
:1016E00048F6FF752A404FF6FF452A400D884FF611
:1016F000FF7606EA05252A434DF6FF752B400D8936
:1017000006EA05352B434D8806EA05352B430B4D7C
:10171000A84202D00A4DA84208D14BF6FF752C40D2
:101720008D894FF6FF7606EA85152C4384808283E7
:10173000CD88A0F84050038470BD0000002C01400B
:10174000003401400A460021818B4FF2FF7319409B
:101750004FF6FF7303EA02231943818370478186A2
:1017600070470187704781877047A0F84010704725
:10177000002202881D4B98420ED01D4B98420BD080
:10178000B0F1804F08D01B4B984205D01A4B9842BD
:1017900002D01A4B984204D14FF68F731A404B88EF
:1017A0001A43174B984207D0164B984204D04FF675
:1017B000FF431A40CB881A4302808B8883850B88AD
:1017C00003850A4B98420BD0094B984208D00E4B28
:1017D000984205D00D4B984202D00D4B984201D152
:1017E0000B7A03860123838270470000002C01409E
:1017F000003401400004004000080040000C00409C
:10180000001000400014004000400140004401402E
:101810000048014010B5FEF769FD2BA2022100200F
:10182000FFF7A2FB2948B0F9342004230221162037
:10183000FEF728FD26A203210020FFF795FB234891
:10184000B0F93620042303211620FEF71BFD21A248
:1018500004210020FFF788FB1C48B0F9382004233E
:1018600019461620FEF70EFD1B48FEF731FE1BA29F
:1018700002214020FFF778FB1448B0F934200423FC
:1018800002215620FEF7FEFC15A203214020FFF79F
:101890006BFB0E48B0F93620042303215620FEF7D7
:1018A000F1FC10A204214020FFF75EFB0748B0F9CD
:1018B0003820042319465620FEF7E4FC4FF4FA7052
:1018C00000F014F810BD0000412D58003000002039
:1018D000412D5900412D5A0004000020482D580088
:1018E000482D5900482D5A0000BFFEE742F228312A
:1018F00041434FF0E02251610121116100BF4FF0DF
:10190000E021096901F480310029F8D000214FF06D
:10191000E0221161704700EBC0014FF0E0225161FD
:101920000121116100BF4FF0E021096901F480310C
:101930000029F8D000214FF0E02211617047FEF736
:10194000CCFF00BFFEE7000010B540F2CF71174892
:10195000FFF705FF40F2CF711448FFF702FF40F296
:10196000CF711248FFF7FFFE40F2CF710F48FFF72B
:10197000FCFE4FF47A70FFF7B9FF40F2E7310B48F5
:10198000FFF7EDFE40F2E7310848FFF7EAFE40F2CC
:10199000E7310648FFF7E7FE40F2E7310348FFF77B
:1019A000E4FE6420FFF7A2FF10BD00000008004025
:1019B00010B540F2E7310948FFF7D1FE40F2E731B8
:1019C0000648FFF7CEFE40F2E7310448FFF7CBFEB2
:1019D00040F2E7310148FFF7C8FE10BD00080040A3
:1019E00010B50246012000E050430B00A1F10104B4
:1019F000E1B2F9D110BD000021F00042A2F1605225
:101A0000B2F5801F01F0004328BFD2F17F6C0BD9E3
:101A10005FEA001C43EAC20242EB507018BF7047F5
:101A200028BF20F001007047B2F5801FBCBF1846E8
:101A300070474FEA410C1CF5001F02D2084600F027
:101A400083BB70B500F05CF900000089FFF7F6BFBA
:101A50004FF00040A0F580007047000010B591EAFB
:101A6000030F48BF83F0004300F1A681841A71EB95
:101A7000030C05D2121943EB0C03001B61EB0C01A4
:101A8000DFF824E14FEA1154A4EB135C1EEA430F84
:101A900018BF9EEA445F73D023EA0E03DCF1200EE8
:101AA00021EA045143F4801332D322FA0CFE10EBE6
:101AB0000E0023FA0CFE41EB0E01CCF1200E03FACE
:101AC0000EFE10EB0E0051F10001B1F5801FCCF1BC
:101AD000200E32D201EB045112FA0EF2BDE8104092
:101AE00058BF7047401C38BF5FEA420218BF7047BA
:101AF000002814BF20F0010041F100014FEA41032A
:101B000013F5001F38BF7047A1F1C04100F046B97E
:101B1000012A43EB0302ACF1200CDCF11F0E32BFB3
:101B20004FF0000E23FA0CF310EB030041EB0451CD
:101B3000B4EB115FD0D0A1EB045101F5801149083D
:101B40005FEA300001EB04510ED350F1000038BFC2
:101B500012FA0EFE08D1BDE81040C9E7401C38BF9C
:101B60005FEA4202CAD1C3E7BDE810404FEA410331
:101B700013F5001F38BF7047A1F1C04100F00EB946
:101B80009EEA445F08D011EA5E0FBDE8104004BF32
:101B900001F0004100207047BDE8104070B500F032
:101BA000AFF800BF64FBBE3E0000E0FFDFF848C1B5
:101BB00070B51CEA111E1EBF1CEA13159EEA0C0F1D
:101BC00095EA0C0F00F06F8081EA030423EA4C13BE
:101BD0004EEAD47E21EA4C1141F4801143F4801383
:101BE000AE44A1FB024CA0FB0365AEF17F7E36192B
:101BF00055EB0C05A1FB034C4CF10003A0FB021CB0
:101C000016EB0C06654153F10003094218BF46F07C
:101C1000010613F4007F0BD14FEA03314FEA053080
:101C2000340341EA155140EA16506FF003020AE00E
:101C30004FEAC3214FEAC520F40241EA555140EA78
:101C400056506FF0020202EB2E4201EB025585EA7C
:101C5000CE710AD05FEA440C18BF24F0004450F162
:101C6000000041F1000120EAD47040F2FE7C6245A0
:101C700000D270BDA84214BF4FF080444FF04044E2
:101C8000002E08BF0024BEF1806FA8BFA1F1C041A3
:101C9000BDE8704080F282804FF0000001F1C04149
:101CA00001F0004170479EEA0C0F0CEA131518BFB3
:101CB00095EA0C0F06D04FF0000081EA030E0EF0FB
:101CC000004170BD00F01CF88900013E00F007B82B
:101CD00000F009B84FEA430C5FEA5C5C08D081EA87
:101CE000030100F05BB84FEA410C5FEA5C5CF6D19F
:101CF0004FF00000014970470000FF070000F87F27
:101D00000EF1020E2EF0030E5EF8046B364205D47F
:101D1000012A43EB030515F5001F12D8012841EBFA
:101D2000010C1CF5001F0CD80ED14FEAD17C15F523
:101D3000001F0CEB4C0C0CF1020C08BF4CEBD37CDD
:101D400004E04FF0080C01E04FEAD37C0CEB4C05AB
:101D500026FA05F606F00706B6F1040C06D20EEBDD
:101D6000860CBDE870404CF0010C6047DFE80CF0D9
:101D7000090B02024FF000414FF00000A1F50021D5
:101D800070BD19461046012851EB010418BFD4F567
:101D9000001484BF002001F0004170BD0808A0F5C8
:101DA00000114FEA3101704710B591EA030F48BFA7
:101DB00083F000433FF55AAE841A71EB030C07D24F
:101DC00012198CF0004C43EB0C03001B61EB0C016F
:101DD000DFF8A4E14FEA1154A4EB135C1EEA430FB1
:101DE00018BF9EEA445F00F0B08023EA6E035242BF
:101DF00021EA0451C3EB6E0338BF5B1EDCF1200EF9
:101E000025D322FA0CFE10EB0E0043FA0CFE41EB38
:101E10000E01CCF1200E03FA0EFE10EB0E0051F174
:101E20000001CCF1200E29D412FA0EF201EB04517C
:101E3000BDE8104058BF7047401C1CBFB2F1004FB6
:101E4000704700280CBF491C20F00100704712EBBE
:101E5000020E43EB030218BF4FF0010E4EEA42029E
:101E6000ACF1200CDCF11E0E54D943FA0CFE10EB41
:101E70000E0051F1FF31CCF11E0ED5D50EF1010E41
:101E800012FA0EFE404141EB010101EB445C5FEAB6
:101E90005C5C10D910EBDE7001EB045138BFBEF171
:101EA000004FBDE8104018BF704700280CBF491C08
:101EB00020F00100704730D24FEAD42C11F5001108
:101EC00024F400641BD0B1FA81F20B3AA41AA41EC8
:101ED000D2F12003914030FA03F31943904001EB13
:101EE000CC71002C01EB0451BDE81040A8BF704735
:101EF00001F1C0414FF0000001F000417047B0FA1D
:101F000080F310FA03F100D110BDE41A173C480524
:101F1000C90AE4E701EB045110BD491001EB04517B
:101F2000BDE810404FEA300002E04FF0000170477A
:101F30004A0008BF0042F8D0B2F5001F28BF704722
:101F400001F000414FF0000070479EEA445F07D067
:101F500011EA5E0FBDE8104004BF00210020704769
:101F6000BDE8104070B5FFF7CBFE00BF40DFF63E86
:101F700083F00041104670470000E0FF43004FEA45
:101F8000D30C4FEA3C0C43401FBF40070CF160519B
:101F900013F0FE4F70471CF0006F03D100200CF0CF
:101FA000004170470CF0004343EA507010B540EA1E
:101FB000CC0000F083F800BF000000924FEA00015F
:101FC000FFF7ECBE4FF000414FF00000A1F50021FB
:101FD0007047401058BFC0F14040491058BFC1F190
:101FE00040418142EFF300807047000041000B0E3A
:101FF000D3F19E0208D950F400034FEA032323FAD9
:1020000002F048BF4042704710B500F057F800BFDB
:1020100049922480002070476FF0004282EA20003D
:102020007047000010F0004148BF4042B0FA80F312
:1020300010FA03F2C3F19D030BD051EAC35101EB37
:102040001220530638BF704700F1010008BF20F08E
:102050000100704750EA010C00F113801CF5000FDD
:1020600058BFBCF5000F01D48842704707D710F560
:10207000000F58BF11F5000F15D4884270478942F0
:1020800070471CF5000F04D5BCF5000FF7D5814251
:1020900070474FF0807C1CEB400F38BF1CEB410FAA
:1020A00001D28142704710B500F008F8922449002F
:1020B0004FF000504FF08051FFF78BBF0EF1020E32
:1020C0002EF0030E5EF8044B244204D44FEA410282
:1020D000B2F17F4F11D84FEA4003B3F17F4F0CD8D4
:1020E0000ED14FEAD07CB2F17F4F0CEB4C0C0CF1CF
:1020F000020C08BF4CEBD17C04E04FF0080C01E06F
:102100004FEAD17C0CEB4C0324FA03F404F00704EF
:10211000B4F1040C06D20EEB840CBDE810404CF078
:10212000010C6047DFE80CF0070802024FF00040A6
:10213000A0F5800010BD0846420018BFD2F18072A1
:1021400088BF00F0004010BDFF2141EAD050C0051B
:10215000704751EA000C00F113801CF5000F58BFC6
:10216000BCF5000F01D48142704707D711F5000F6D
:1021700058BF10F5000F15D481427047894270474F
:102180001CF5000F04D5BCF5000FF7D58842704749
:102190004FF0807C1CEB410F38BF1CEB400F01D28D
:1021A0008842704780EA010081EA000180EA01006C
:1021B000FFF779BF0000000000000000002F0000C2
:1021C00000000700070000147F147F1400242A7FFA
:1021D0002A12006264081323003649552250000079
:1021E0000503000000001C224100000041221C00E9
:1021F0000014083E08140008083E0808000000A06B
:10220000600008080808080800006060000000205E
:1022100010080402003E5149453E0000427F400044
:10222000004261514946002141454B3100181412CA
:102230007F10002745454539003C4A494930000197
:102240007109050300364949493600064949291EE6
:10225000000036360000000056360000081C2A49EF
:1022600008080014141414140808492A1C08000251
:102270000151090600324959513E007C1211127C6D
:10228000007F49494936003E41414122007F41419A
:10229000221C007F49494941007F09090901003E8C
:1022A0004149497A007F0808087F0000417F4100CA
:1022B000002040413F01007F08142241007F404040
:1022C0004040007F020C027F007F0408107F003E28
:1022D0004141413E007F09090906003E4151215E0E
:1022E000007F091929460046494949310001017F0B
:1022F0000101003F4040403F001F2040201F003FA1
:102300004038403F00631408146300070870080752
:1023100000615149454300007F41410000552A5565
:102320002A55000041417F000402FF020400002002
:1023300040FF402000000102040000205454547863
:10234000007F484444380038444444200038444422
:10235000487F00385454541800087E0901020018C0
:10236000A4A4A47C007F080404780000447D4000FD
:10237000004080847D00007F102844000000417FE1
:102380004000007C04180478007C080404780038BD
:102390004444443800FC242424180018242418FC45
:1023A000007C0804040800485454542000043F44AE
:1023B0004020003C4040207C001C2040201C003C71
:1023C0004030403C004428102844001CA0A0A07CC1
:1023D000004464544C44141414141414BAE3CDD8B7
:1023E000BFC6BCBCB5E7B5F7D0A3D7BCC7EBBDAB88
:1023F000B7C9D0D0C6F7D6C3D3DACBAEC6BDD7B433
:10240000CCACC7D2B1A3B3D6BEB2D6B900E000FF00
:10241000102002F29292929292F2020000FF0000CB
:10242000404F44444444444F401010FF1090040473
:1024300084E49C8484840444827F01040201FF407C
:10244000404040FF0024A4FEA3220022CC0000FF55
:102450000000000601FF00010404040404FF02025E
:10246000021010FF109008888888FF888888084428
:10247000827F01808040432C102846818000F888AC
:10248000888888FF88888888F80000001F08080866
:10249000087F888888889F80F042CC0000FE829266
:1024A00092FE929282FE00003F10887F001E121260
:1024B000125E807F0010D0FF9010804828090E081F
:1024C0002848880300FF00018080432C102C4380A3
:1024D00080020CE04020F84F4849FE484848080474
:1024E0007F000000FF2222223F2222222042CC0035
:1024F00000445454547F5454544440007F201000EE
:10250000FF15151555957F0000083000FF008884E1
:10251000532212CA060000040201FF00020A1242FE
:10252000827F0202020202020202020202FE40A0B6
:102530001008000000000000000000030C10214201
:10254000F01088C4330040424242C242424240013D
:1025500000FF0000000040807F00000000809E928D
:1025600092929EE0809EB2D2929E8008F4949292C3
:10257000F10001F2929494F8081715D55557557D3E
:10258000555755D515170040407F5555555555554C
:10259000557F404040404242424242FE4242424217
:1025A0004240400000000040807F0000000000002A
:1025B00000202020A06000FF608040201800001054
:1025C00008060140807F0001020408101002021278
:1025D000620202FE02024232020200010101010116
:1025E00001FF01010101010101083000FF2020204D
:1025F00020FF2020222C20040201FF8040300E0109
:1026000006182040800484844424548F1424448475
:102610008404003900003C4040424C4040700409B2
:10262000310000FE22222222222222FE000000404F
:10263000407F424242424242427F4040408060F8F6
:1026400007003E2222E222223E00000000FF20116D
:10265000090503FF03050911201010FF1010404861
:1026600048487F48C8484044827F010002020A125D
:1026700042827F020254547F545444202827E43479
:102680002CE000FF1555957F000949897F09091F36
:10269000010000F0000000FF4040404040000040CA
:1026A000407F4040407F404040404040400000006C
:1026B000000000000000000000000000000000001A
:1026C000F800000000000000333000000000100C93
:1026D00006100C0600000000000000000040C0785A
:1026E00040C0784000043F04043F040400007088A8
:1026F000FC08300000001820FF211E0000F008F048
:1027000000E018000000211C031E211E0000F0083C
:1027100088700000001E2123241927211010160E96
:1027200000000000000000000000000000000000A9
:10273000E018040200000000071820400000020416
:1027400018E0000000004020180700000040408012
:10275000F0804040000202010F0102020000000070
:10276000F0000000000101011F0101010000000054
:10277000000000000080B0700000000000000000B9
:102780000000000000000101010101010100000042
:1027900000000000000030300000000000000000D9
:1027A0000080601804006018060100000000E010BE
:1027B000080810E000000F102020100F000010107B
:1027C000F8000000000020203F20200000007008DA
:1027D00008088870000030282422213000003008CA
:1027E00088884830000018202020110E000000C00A
:1027F0002010F8000000070424243F240000F808FB
:1028000088880808000019212020110E0000E0101F
:102810008888180000000F112020110E00003808D1
:1028200008C83808000000003F0000000000708861
:102830000808887000001C222121221C0000E010E2
:10284000080810E0000000312222110F00000000F3
:10285000C0C0000000000000303000000000000098
:102860008000000000000080600000000000008088
:1028700040201008000001020408102000404040E1
:102880004040404000040404040404040000081014
:102890002040800000002010080402010000704861
:1028A000080808F0000000003036010000C030C801
:1028B00028E810E0000718272423140B000000C0AC
:1028C00038E0000000203C23020227382008F88866
:1028D0008888700000203F202020110E00C03008A2
:1028E0000808083800071820202010080008F808F9
:1028F000080810E000203F202020100F0008F88872
:1029000088E8081000203F20202320180008F888BD
:1029100088E8081000203F200003000000C03008B5
:10292000080838000007182020221E020008F808B6
:10293000000008F808203F210101213F200008087D
:10294000F8080800000020203F20200000000008B8
:1029500008F8080800C08080807F00000008F88820
:10296000C028180800203F20012638200008F80859
:102970000000000000203F20202020300008F8F850
:1029800000F8F80800203F003F003F200008F83022
:10299000C00008F808203F200007183F00E010089A
:1029A000080810E0000F10202020100F0008F80881
:1029B000080808F000203F210101010000E0100894
:1029C000080810E0000F18242438504F0008F88839
:1029D0008888887000203F2000030C302000708819
:1029E00008080838000038202121221C0018080897
:1029F000F8080818000000203F2000000008F80830
:102A0000000008F808001F202020201F00087888F8
:102A10000000C83808000007380E010000F8080060
:102A2000F80008F800033C0700073C03000818689A
:102A3000808068180820302C03032C30200838C808
:102A400000C83808000000203F20000000100808DF
:102A500008C838080020382621202018000000006F
:102A6000FE020202000000007F40404000000C30E7
:102A7000C000000000000000010638C00000020293
:102A800002FE000000004040407F00000000000403
:102A9000020202040000000000000000000000002C
:102AA0000000000000808080808080808000020222
:102AB0000400000000000000000000000000008092
:102AC00080808000000019242222223F2008F80084
:102AD0008080000000003F112020110E0000000047
:102AE0008080800000000E112020201100000000D6
:102AF000808088F800000E112020103F2000008008
:102B00008080800000001F2222222213000080808B
:102B1000F0888888180020203F20200000000080D6
:102B20008080808000006B94949493600008F8008B
:102B30008080800000203F210000203F20008098FE
:102B400098000000000020203F202000000000002E
:102B5000809898000000C08080807F000008F80006
:102B60000080808000203F24022D302000000808D3
:102B7000F8000000000020203F202000008080801E
:102B80008080808000203F20003F20003F80800028
:102B90008080800000203F210000203F2000008036
:102BA0008080800000001F202020201F00808000E7
:102BB000808000000080FFA12020110E0000000096
:102BC0008080808000000E112020A0FF8080808007
:102BD000008080800020203F212000010000008034
:102BE0008080808000003324242424190000808009
:102BF000E0808000000000001F2020000080800096
:102C00000000808000001F202020103F2080808056
:102C1000000080808000010E3008060100808000E6
:102C200080008080800F300C030C300F000080800B
:102C300000808080000020312E0E312000808080B6
:102C4000000080808080818E7018060100008080E6
:102C500080808080000021302C2221300000000084
:102C600000807C020200000000003F4040000000A5
:102C700000FF00000000000000FF00000000020252
:102C80007C800000000040403F0000000000000089
:102C90000000008080000000000000010100000032
:102CA0000000000000000000000000000000000024
:102CB0000000000000000000000000000000000014
:102CC00000000000000000000000000000181C3C94
:102CD0003C7CFC3C3C7CD800000000000000000074
:102CE00000000000000000000000000000000000E4
:102CF00000000000000000000000000000000000D4
:102D000000000000000000000000000000000000C3
:102D100000000000000000000000000000000000B3
:102D200000000000000000000000000000000000A3
:102D300000000000000000000000002060E0C0C0B3
:102D4000C0C080C080000000000000000000000043
:102D50000000FF8040201F00000000000000000075
:102D60000000000000000000000000000000000063
:102D70000080C08080C0C0C0C06060000000000053
:102D80000000000000000000000000000000000043
:102D90000000000000000000000000000000000033
:102DA0000000000000000000000000000000000023
:102DB0000000000000000000000000000000000112
:102DC0000119FFFFFFFF73F2F6E4E4ECC8C8C0C0CE
:102DD00080F0FFF0E0F0D0D8FCFEFFFFFFFFFCC06A
:102DE000C0C0E0E0F0F0E0C0C0C4E4E4E2F2727B16
:102DF000FFFFFFFF190101010000000000000000BB
:102E000000000000000000000000000000000000C2
:102E100000000000000000000000000000000000B2
:102E20000000000000000000008080808080808022
:102E3000C040C0F0F8F0F0E060F0F07070707030FA
:102E400030303FBF9F98988888C9C9C3C3E7EFFF58
:102E5000FFFFFFFFFFFFFFFFFFFFFFFFFFFFFFFF82
:102E6000FFFFFFFFFFFFFFFFF7E3E3C1C9C8C8C8CB
:102E7000999F9F9FB838383030307070707070F004
:102E8000F8F8F8F0E0604040404040C0C0C08080AA
:102E90008080808080800000000000000006020228
:102EA000020203030301010101010101010100000C
:102EB0002070FFFFFFFFFFFFFE7E3E3E3E3E3F1FB6
:102EC0001F1F1F1F1F1F0F0F0F0F0F0F07030101E2
:102ED000010103878F8F8F87BFFFFFFFFFFFFFDF9A
:102EE00087878F878103030101010107070F0F0FF8
:102EF0000F1F1F1F1F1F1F1F1F3F3F3E3E3C7FFF17
:102F0000FFFFFFFFFF38100000000000000000007E
:102F100000000001010101010101010101000000A7
:102F200000000000000000000000000000000000A1
:102F3000000003FFFFFFFF1F010000000000000072
:102F40000000000000000000000000000000000081
:102F50000000003F3F3F3F3F3F7FFFFFFFFFFFFF7E
:102F6000FFFFFFFFFF1F0000000000000000000047
:102F7000000000000000000000000000000000034E
:102F8000FFFFFFFF03000000000000000000000042
:102F90000000000000000000000000000000000031
:102FA0000000000000000000000000000000000021
:102FB00000000007FFFFFF0000000000000000000D
:102FC0000000000000000000000000000000000001
:102FD00000000000000000000000000000000000F1
:102FE00000000000000000000000000000000000E1
:102FF00000000000000000000000000000000000D1
:1030000003FFFF03000000000000000000000000BC
:1030100000000000000000000000000000000000B0
:1030200000000000000000000000000000000000A0
:1030300000000000F0FFFFF0C000000000000000F2
:103040000000000000000000000000000000000080
:103050000000000000000000000000000000000070
:103060000000000000000000000000000000000060
:103070000000000000000000000000000000000050
:103080007C7F7F780000000000000000000000004E
:103090000000000000000000000000000000000030
:1030A000C030000800000020180000006C0100087B
:1030B000D830000818000020200700008801000810
:1030C000B00000200000000000000101000000002E
:0830D0000000000000000000F8
:0400000508000131BD
:00000001FF
