:020000040800F2
:10000000500E002079020008D93300082928000882
:100010007133000841220008E94E0008000000008A
:10002000000000000000000000000000E13D0008AA
:100030004522000800000000A5380008633F0008C2
:10004000930200089302000893020008930200083C
:10005000930200089302000893020008930200082C
:10006000930200089302000893020008930200081C
:10007000930200089302000893020008930200080C
:1000800093020008930200089302000893020008FC
:1000900093020008930200089302000893020008EC
:1000A00093020008930200089302000893020008DC
:1000B0000542000815420008930200089302000858
:1000C00093020008930200089302000893020008BC
:1000D0009302000893020008930200081D4C0008D8
:1000E000930200089302000893020008930200089C
:1000F000930200089302000893020008930200088C
:100100009302000893020008794400089302000853
:10011000930200089302000893020008930200086B
:10012000930200089302000893020008930200085B
:1001300000F002F800F090F80AA090E8000C824469
:100140008344AAF10107DA4501D100F085F8AFF246
:10015000090EBAE80F0013F0010F18BFFB1A43F0A5
:10016000010318476884000088840000103A24BF07
:1001700078C878C1FAD8520724BF30C830C144BF0C
:1001800004680C607047000000230024002500264E
:10019000103A28BF78C1FBD8520728BF30C148BFEA
:1001A0000B6070476E2900F06581702900F0A7820E
:1001B000662907F09280652907F08F80672907F08C
:1001C0008C80612907F08B8003681B0A28BF41F0EF
:1001D0008001692900F01281642900F00F817529DE
:1001E00000F00C816F2900F03582782900F07382CD
:1001F000E92900F0CF81E42900F0CC81F52900F055
:10020000C981EF2900F03282F82900F07282036878
:10021000DB0928BF41F08001632900F0778773294B
:1002200000F07C87E32900F08787F32900F08C87B2
:10023000002070471FB500F0DDFF04000020002102
:1002400005F0CAFF401C60600020002105F0AEFFF1
:10025000E0601FBD10B510BD00F09EFF1146FFF716
:10026000E9FF05F0FFFD01F077F803B4FFF7F2FFB7
:1002700003BC01F0B7F8000009488047094800476F
:10028000FEE7FEE7FEE7FEE7FEE7FEE7FEE7FEE746
:10029000FEE7FEE704480549054A064B70470000A3
:1002A000653F00083101000850080020500E002072
:1002B000500A0020500A00201CB50C46064B7B4417
:1002C00069460090204600F0EEF80446002069469A
:1002D00000F0FCF820461CBD0B02000010B5431CCA
:1002E00002E010F8011B71B18107FAD14FF0013221
:1002F00002C88C1A8C4314EAC211F9D0C01A0A063B
:1003000003D0C01E10BDC01A10BD0A0401D0801E4B
:1003100010BD0902FCD0401E10BD704770477047E9
:1003200010B500F0BBFA006810BD10B5044600F02F
:10033000B5FA046010BD70B5044685690068C10651
:1003400001D5302600E02026C00707D070BDD4E9D3
:10035000012130469047206A401C20626D1EF6D570
:1003600070BD70B5044685690078C00707D170BDBF
:10037000D4E9012120209047206A401C20626D1E94
:10038000F6D570BD09684A0501D540B27047C90568
:10039000FCD500B2704709684A0501D5C0B2704764
:1003A000C905FCD580B2704770B50C460546012AD8
:1003B00005D02878800600D5EA69002302E00123F1
:1003C00005E05B1C934202D2E05C0028F9D1A869E9
:1003D000E618C01AA861286A184428622846FFF760
:1003E000AAFF04E0D5E9012114F8010B9047B442BB
:1003F000F8D32846FFF7B5FF70BD00002DE9F041A6
:100400000646002410687529314616A510D0FFF75E
:10041000B9FF002802DA404213A507E031688A07D5
:1004200001D512A502E0490704D511A5012401E078
:10043000FFF7B1FF00210A2206F1240709E0B0FB13
:10044000F2FCB0FBF2F302FB1C003030785418468B
:10045000491C0028F3D123462A463046BDE8F04126
:1004600000F065BA000000002D0000002B00000025
:100470002000000011680268006A530501D5087069
:100480000AE0D30501D5088006E0130603D5C2179C
:10049000C1E9000200E008600120704701694A1CC0
:1004A00002610878704700B58FB0CDE901310021B5
:1004B000059105497944CDE903101146684600F0DD
:1004C00029F90FB000BD0000E5FFFFFF0A6802F840
:1004D000010B0A60704700002DE9FF5F15468A4650
:1004E0000446DFF8AC80F8440027D8E900103E4607
:1004F000CDE9001010E03AF816106A4602A800F0A4
:1005000027FE411C07D02178890603D5E2693918F6
:1005100091420DD80744761C2078800602D5E06908
:10052000B84205DDAE42E6DB3AF816000028E2D11B
:10053000A069C01BA0612046FFF7FDFED8E90010AE
:10054000CDE90010002017E03AF818106A4602A81A
:1005500000F0FEFDB0F1FF3F81460BD000250DF10C
:10056000080B05E0D4E901211BF8050090476D1C3C
:100570004D45F7D308F10100B0428046E4DB206A24
:10058000384420622046FFF7ECFEBDE8FF9F0000E4
:100590001E7E00002DE9F0418046D21D22F00702A8
:1005A0000025D2E90002F52915A614D0011E72F12A
:1005B000000106DA0023D0EB030063EB020211A670
:1005C00008E0D8F800108B0701D50FA602E0490714
:1005D00001D50EA601251146002408F1240704E0E8
:1005E00000F060F930323A55641C50EA0102F7D14C
:1005F0002B46324621464046BDE8F04100F097B90F
:10060000000000002D0000002B0000002000000072
:1006100030B4002100F1240408E002F00705D208FC
:10062000303542EA4372DB086554491C52EA03053F
:10063000F3D10468002310A2250708D504F0200494
:100640000C4304D0C46901230CA2641EC46130BCF5
:1006500000F06DB910B5044621461068FFF79BFE07
:1006600002462046BDE810400023D1E7D21D22F00B
:100670000701D1E90023CBE70000000030000000B3
:10068000F0B40D460188090502D5214C7C4402E0F6
:100690001F4C7C440E34002100F1240608E002F0D7
:1006A0000F071209E75D42EA03721B097754491CE0
:1006B00052EA0307F3D102780023120704D5702D04
:1006C00006D009B1022311342246F0BC00F02FB944
:1006D00001231034F8E770B504460D462146106832
:1006E000FFF759FE024629462046BDE87040002328
:1006F000C6E7D21D22F00703D3E90023C0E7036851
:10070000126843F0200303600823C3610023B7E7A6
:10071000807C00002DE9F05F894604464FF0000A16
:10072000DFF874B1FB44C0F820A02046E168884798
:10073000002874D0252806D0D4E901219047206AEA
:10074000401C2062F1E700265F462046E1688847AA
:100750002028054607DB312D05D2781910F8200C2A
:1007600008B10643F1E7B00701D526F00406C4F846
:100770001CA00027C4F818A02A2D09D0284604F090
:100780004DFF38B304EB8708303DC8F8185019E026
:1007900059F8041B204604EB87029161E168884701
:1007A000012F054618D1E069002820DA26F020063E
:1007B0001DE0D8F8180000EB800005EB4000303851
:1007C000C8F818002046E1688847054604F026FF6F
:1007D0000028EED1012F0AD02E2D08D12046E16845
:1007E00088477F1C0546022F46F02006C4DBA0691F
:1007F000002803DA404246F00106A061F00701D06C
:1008000026F010066C2D0BD0682D09D04C2D39D058
:100810006A2D35D0742D35D07A2D33D016E038E0DE
:10082000E1682F4620468847B842054609D16C2F1B
:1008300026D04FF48060E16806432046884705468D
:1008400004E06C2F1AD04FF4807006430DB3A5F16D
:100850004100192802D8203546F400664A46294648
:10086000204626604E46FFF79DFC80B101280BD044
:10087000F61D26F0070000F1080956E74020E4E7DE
:100880008020D8E70020D6E706F104094DE7284686
:1008900052E7206ABDE8F09F107C000000487047D6
:1008A000F007002030B5B0F10A024FEA900E71F166
:1008B00000034EEA817EB0EB0E0061EB91014FEA3E
:1008C000101E4EEA017E10EB0E0041EB11114FEAB3
:1008D000102E4EEA016E10EB0E0041EB11214FEA93
:1008E000104E4EEA014E10EB0E0041EB1141401844
:1008F00041F100014FEAD00040EA41704FEAD101D6
:1009000010EB80054FEA810444EA907444EB010443
:100910006D1944EB0404521BA3414FF0000348BF80
:100920000A3200D530BD401C41F1000130BD2DE937
:10093000F0470D4699469246044600F124080168A6
:10094000880604D5E06921F01001216000E0012053
:10095000A84201DD471B00E00027A1697A1902EBDC
:100960000900081AA0612078C00602D42046FFF7CB
:10097000E2FC002608E0D4E901211AF806009047BD
:10098000206A401C761C20624E45F4DB2078C006AD
:100990000AD52046FFF7CFFC06E0D4E9012130203C
:1009A0009047206A401C2062381EA7F10107F4DC42
:1009B00007E0D4E9012118F805009047206A401C9F
:1009C0002062281EA5F10105F3DC2046FFF7C9FCD3
:1009D0002078000602D50220BDE8F0870120FBE761
:1009E00070472DE9FF4F0C461E464FF0FF378BB086
:1009F000D2E90001DDF860800A908A46C1F30A5509
:100A000005B93D46002108464FF00000BAF1000F3D
:100A100000F4400005DA00EB80004FF4400101EAE9
:100A200050004FEA9059B9F1010F00DDB9460A981C
:100A300050EA4A000ED044F61050A5F2FF35454367
:100A40002F14B8F1000F1ED07542291E1EDDC9F10A
:100A500000021CE0B8F1010F4FF0000001D030217E
:100A600003E0F24305E02154401CB042FBDB30467A
:100A70000022002121540B99C1F80880C1E900200F
:100A80000FB0BDE8F08FBD1B6D1CDEE74A4600DAF3
:100A9000694206A800F0F2FB06AB93E8070003AB3F
:100AA00083E8070050460A9900F0A3FC8DE8070090
:100AB000A0F500501F3800900398002D09DD42F288
:100AC0001F014A46084403A90390684600F002FF4C
:100AD00008E0A0F500504A461F3803A90390684675
:100AE00000F00CFF8DE807000004000C03D04FF06D
:100AF000FF30410800E01046B8F1000F03D000229B
:100B0000009215461EE0751E05D4FFF7CBFE30326D
:100B100062556D1EF9D5B3460122084302D000226A
:100B20007F1C04E02078302801D100227F1E002A9B
:100B3000099786D01DE0112D07DAFFF7B3FE30329A
:100B400062556D1C50EA0102F5D1084302D00098AD
:100B5000C8B10EE00021681E05E0235C625C6354AE
:100B60002254401E491C8142F7DBAB46A81B401EA5
:100B70000990002004F80B000B98099AC0F808802F
:100B8000C0E9002B7CE711264FF0000859E72DE95A
:100B9000F04F88460446D21D22F0070191B0D1E9FA
:100BA0000001CDE90A0104F0E1F902460B98C00FFB
:100BB00001D02D2007E02068810701D52B2002E01D
:100BC000202101EAC000032A099001D0072A05DB91
:100BD00003464146204600F011FB0BE120788006D9
:100BE00001D5E06900E00620B8F1650F814606D026
:100BF000B8F1660F18D0B8F1670F70D131E000205E
:100C0000B9F1110F009001DB112301E009F101039B
:100C10000AAA01A90CA8FFF7E4FEDDE90C70002682
:100C200009F10105834647E001204B4600904FF053
:100C300000470AAA01A90CA8FFF7D3FEDDE90DB011
:100C40000C995D46002610B909F101000D18B9EBA9
:100C5000050003D4C0F1FF3609F10105A5EB090039
:100C60002BE0B9F1010F01DA4FF001090020B9F1D1
:100C7000110F0090484601DD112300E003460AAA47
:100C800001A90CA8FFF7ADFEDDE90C704D4600266A
:100C90008346207800070AD4AB4500DA5D4601A8F8
:100CA000012D04DD411911F8011C302907D04F45F1
:100CB00002DA17F1040F04DA012082460FE06D1EFC
:100CC000EEE7002F02DCED1B3E4403E0781CA84257
:100CD00000DD7D1CB81B00F1010A4FF000472078B1
:100CE000000703D4AA4501DB4FF0FF3A0021B7F11A
:100CF000004F0DF143088DF8431024D002202B2320
:100D0000002F01DA7F422D230A21021EA0F10100EB
:100D100000DC5FB197FBF1FC97FBF1F201FB1C7C5F
:100D200017460CF1300C08F801CDEEE7A8F10100F0
:100D300003702188090501D5452100E06521A0F156
:100D4000010800F8011C09980FA9A1EB0807FF1D75
:100D500000B10120411901EBEA70A1693844081A79
:100D6000401EA0612078C00602D42046FFF7E3FAB7
:100D7000099828B1D4E901219047206A401C2062DB
:100D80002078C00622D52046FFF7D5FA1EE0002EB7
:100D900004DBB34502DD01A8805D00E03020D4E92A
:100DA00001219047206A401C2062761CAAF10100B4
:100DB0005FEA000A0AD100F01DFAC0680168405CD1
:100DC000D4E901219047206A401C2062281EA5F129
:100DD0000105DCDC07E0D4E9012118F8010B90479C
:100DE000206A401C2062381EA7F10107F3DC204670
:100DF000FFF7B7FA032011B043E600002DE9F04FEA
:100E000004460D46D21D22F0070089B0D0E90092B9
:100E100048461746394604F0A9F80246F80F01D0B3
:100E20002D2307E02068810701D52B2302E0202134
:100E300001EAC0038DF820300BB1012000E0002052
:100E4000032A824601D0072A04DB2946204600F007
:100E5000D5F93DE12078800601D40D2500E0E56953
:100E6000C7F30A560D2D49DA00214FEA175B0846F1
:100E70004FF00000002F00F4400007DA00EB800084
:100E80004FF4400100EBD07001EA600081150129A8
:100E900001DD4FF0FF3100224FEA850CBCF1180F45
:100EA00006D31346ACF118004FF08052C24003E065
:100EB0004FF4801323FA0CF30CF10C0CBCF1200F4F
:100EC00004D3ACF1200C09FA0CF001E007FA0CF0A5
:100ED00000294FF0004801DD18B90FE00ED1404560
:100EE0000CD319EB02095F4121B9404502D19F4360
:100EF00029EA0209BBEB175F00D0761C20880005A9
:100F000002D57B48784402E079487844193808AA29
:100F1000302302F80A30037C0AF10101002E0AF1A5
:100F2000020A53546A4602DC4FF0300101E04FF0F0
:100F300031014FF001088DF8001002D0A6F2FF3603
:100F400003E059EA470100D06A4E002D02DC217807
:100F5000090704D54FF002082E218DF80110C44670
:100F600000210BE0C7F303433F01C35C491C6D1E26
:100F700002F80830052908F1010801DA002DF1DC3A
:100F800000210CE000EB1973491C1B786D1E082929
:100F900002F808304FEA091908F1010801DA002DBA
:100FA000F0DC2178890602D514E0A8F10108E045BB
:100FB00005DD02EB080111F8011C3029F5D0B8F16C
:100FC000000F07DD02EB080111F8011C2E2901D1E9
:100FD000A8F10108002D05DD3E2102F808106D1E64
:100FE00008F10108407C002E02F8080008F1010811
:100FF00004DA2D20764202F8080002E02B2002F8E5
:1010000008000A214FF47A70864208F101080BDBD0
:1010100096FBF0F3303302F8083096FBF0F308F15A
:10102000010800FB136601E0642E0CDB642096FBD4
:10103000F0F3303302F8083096FBF0F308F10108C2
:1010400000FB136601E00A2E06DB96FBF1F0303060
:1010500002F8080008F1010896FBF1F001FB1060AE
:10106000303002F80800A16908F1010808EB050218
:1010700002EB0A00081AA0612078C00602D42046BC
:10108000FFF759F9216A08AE01EB0A00206204E07B
:10109000D4E9012116F8010B9047BAF1010AF7D201
:1010A0002078C00602D52046FFF745F96E4609E0D4
:1010B00016F8010B3E280FD0D4E901219047206A91
:1010C000401C2062B8F10108F2D22046FFF749F92E
:1010D00009B00320BDE8F08F206A2844206203E0B5
:1010E000D4E90121302090476D1EEBD3F8E70000D2
:1010F0001B76000002FCFFFF10B5436913B1AFF38C
:10110000008001E0FFF750F9012010BD127800F1D6
:1011100024010A7000224A700122EDE711684FF0A5
:10112000FF32E9E710B5436913B1AFF3008001E086
:10113000FFF7D2F9012010BD128800F1240182844A
:101140000022C2840122EDE711684FF0FF32E9E787
:1011500070B516460C46054600F044F8036893F84F
:101160000101012806D0FF2C0FD8185D68B10120BD
:101170002C7070BDD3F807013246214603F20713E5
:1011800003442846BDE8704018474FF0FF3070BD5B
:1011900000487047F00700207546FFF7F9FFAE469C
:1011A00005006946534620F00700854618B020B573
:1011B000FFF770F8BDE820404FF000064FF0000741
:1011C0004FF000084FF0000B21F00701AC46ACE8EF
:1011D000C009ACE8C009ACE8C009ACE8C0098D465C
:1011E0007047000010B500F005F8001D10BD00BFED
:1011F000E94F000000487047100800202DE9F04139
:101200001F46044603260168072A01F4006004DB38
:1012100008B116A505E016A503E008B115A500E084
:1012200015A521F010002060A069C01EA0610FB1BB
:10123000401EA0612046FFF77EF84FB1D4E901219E
:1012400038469047206A401C2062C01C206206E09D
:10125000206AFAE7D4E9012115F8010B9047761EC0
:10126000F8D22046FFF77DF8BDE8F0814E414E00F0
:101270006E616E00494E4600696E66002DE9F047CA
:10128000814616468AB0334878440DC88DE80D0073
:1012900030487844801C03AC0DC884E80D0041F64A
:1012A0009B300844372190FBF1F290FBF1F5A5F15A
:1012B000800501FB12041B3C02D56442012000E0C2
:1012C0000020DFF890A080460027FA44AAF1BE0A69
:1012D0000DE0E00709D03246684607EB47010AEB0C
:1012E000810100F00BFB8DE8070064107F1C002CCF
:1012F000EFD1184F7F44AC3F18E0E80714D007EB5C
:1013000004100DF1180A90E80E008AE80E00C0687B
:10131000F04201D198190890324606A903A800F0BE
:10132000EDFA03AB83E807006D10641C002DE4D1D7
:1013300032466946B8F1000F03A802D000F0CAFA9D
:1013400001E000F0DBFAC9E90001C9F808200AB0A1
:10135000BDE8F087287300000446AFF30080204604
:10136000FEF783FF4FF0013C50F8042B51F8043B8B
:101370009A4221D1A2EB0C03934313EACC1317D169
:1013800050F8042B51F8043B9A4215D1A2EB0C0300
:10139000934313EACC130BD150F8042B51F8043BC0
:1013A0009A4209D1A2EB0C03934313EACC13DBD08E
:1013B0004FF00000704700BFD01A01BAB1FA81F1B6
:1013C00001F0180122FA01F0CB40C1F12001DBB29B
:1013D000C0B2C01A2CFA01F3D11A914311EAC31119
:1013E000E6D1704701491820ABBEFEE72600020097
:1013F00070475FEA400C08BF91F0000F4FEA8C2362
:101400004FEAC12243EA51514FEA1C5018BF00F580
:10141000F0404FEA300018BF41F000415FEA6C5CD9
:1014200000F02980BCF1FF3F08BF40F080407047CA
:10143000130C06BF12044FF0100C4FF0000C130EEB
:1014400004BF12020CF1080C130F04BF12010CF1BF
:10145000040C930F04BF92000CF1020CD30F04BFD5
:1014600052000CF1010C11464FF00002A0F11F00D8
:10147000A0EB0C00704711F0004F08BF704731F02F
:1014800000413FF4D5AF0B0C06BF09044FF0100C20
:101490004FF0000C0B0E04BF09020CF1080C0B0FEF
:1014A00004BF09010CF1040C8B0F04BF89000CF17F
:1014B000020CCB0F04BF49000CF1010CCCF120034E
:1014C000A0EB0C0022FA03F302FA0CF241EA03014A
:1014D00000F10100704720F07F4C80EA030023F008
:1014E0007F47ACEB070303F57C5300F0004003F1AA
:1014F000FF032DE980494FEA154B09B44FEA144325
:1015000025EA0B4E24EA03480FF2042606EB1327C4
:1015100049083E785FEA320203FB0667C7F5000719
:1015200007FB06F64FEA54374FEAD64606F10206A5
:1015300007FB066CCCF1005C4FEA1C472CEA074C19
:1015400007FB06F40CFB06F504EB15464FEA96166E
:1015500034BF00204FF000404FEAD13706FB07FCB4
:101560004FEA1C4C0CFB0BF7D21B03FB0CF761EB97
:1015700007010CFB0EF7B0EB074072EB17420CFBB8
:1015800008F734BFA2EB0742B2EB074261EB174109
:101590004FEA0C444FEA910706FB07FC4FEA1C4C4C
:1015A0000CFB0BF7B0EBC74072EB573203FB0CF7A9
:1015B00034BFA2EBC742B2EBC74261EB57310CFB21
:1015C0000EF7B0EBC70072EB57720CFB08F734BF95
:1015D000A2EBC702B2EBC70261EB5771039F4FEA60
:1015E000816141EA921104EBCC044FEAD1374FEA12
:1015F000826206FB07FC42EA90124FEA80604FEAE3
:101600001C4C0CFB0BF7D21B03FB0CF761EB070127
:101610000CFB0EF7B0EB074072EB17420CFB08F720
:1016200034BFA2EB0742B2EB074261EB17414FEA2E
:101630008C554FEA910704EB9C2406FB07FC4FEA0C
:101640001C4C0CFB0BF7B0EBC74072EB573203FBA3
:101650000CF734BFA2EBC742B2EBC74261EB573184
:101660000CFB0EF7B0EBC70072EB57720CFB08F7E0
:1016700034BFA2EBC702B2EBC70261EB577115EBA7
:101680004C254FEA816141EA92114FEA82624FEAAA
:10169000D13742EA901206FB07FC44F100044FEAFE
:1016A00080604FEA1C4C0CFB0BF7D21B03FB0CF7C2
:1016B00061EB07010CFB0EF7B0EB074072EB174232
:1016C0000CFB08F734BFA2EB0742B2EB074261EB19
:1016D000174115EB1C154FEA813141EA92414FEA5F
:1016E000823242EA90424FEA80304FEA0C7644F16F
:1016F000000448EA03434EEA0B484FF0000EB2EBF9
:10170000080C71EB030724BF624639464EEB0E0E00
:101710004FF0000B0018524149414BEB0B0BB2EB61
:10172000080C71EB03077BF1000B24BF62463946BE
:101730004EEB0E0E4FF0000B0018524149414BEB9F
:101740000B0BB2EB080C71EB03077BF1000B24BF12
:10175000624639464EEB0E0E51EA020718BF46F0BC
:10176000010616EB0E7655F1000254F1000103D587
:10177000BDE88901BDE80088BDE88901BDE80048F1
:10178000B619524141EB0101A3F10103704780807A
:101790007F7E7D7C7B7A79787776767574737271CB
:1017A00071706F6E6E6D6C6C6B6A6A696868676683
:1017B00066656464636362616160605F5F5E5E5D15
:1017C0005D5C5C5B5B5A5A59595858575756565589
:1017D00055555454535352525251515050504F4FEB
:1017E0004F4E4E4D4D4D4C4C4C4B4B4B4A4A4A493B
:1017F000494948484847474747464646454545447E
:101800004444444343434342424242414141002B0A
:1018100026D4770021D01CB54FEA370703B44FF028
:1018200010004FF010014FF000000FBCBDE8104059
:101830000BF1010BBBF1010F08BF5FEA170722BFD5
:1018400012F1010211F101014FF0004143F10003D7
:1018500000F0004043EA00007047F9D35708DAE788
:1018600046EA064613F1400F4FEA16461FDD13F114
:10187000200FDFBF16430A46002120335B42C8D049
:10188000C3F1200746EA064602FA07F74FEA164672
:1018900046EA0706C3F1200722FA03F201FA07F726
:1018A00021FA03F14FF0000342EA0702B1E746EAEA
:1018B000020646EA06464FEA164646EA0106BCBF5D
:1018C00046EA0646360C4FF000034FF000024FF098
:1018D00000019EE72DE9C048934630B491E83800F6
:1018E00007C831EA400C48BF34EA430C03D5FFF780
:1018F000F2FDFFF78CFFF0BCBDE800882DE9C04881
:10190000934630B491E8380007C810F0804F08BF04
:1019100013F0804F03D100F005F8FFF778FFF0BC1B
:10192000BDE8008820F07F4780EA030023F07F4C69
:1019300007EB0C03A3F57C5300F00040A3F1FE037A
:1019400092F0000F00F0B38095F0000F00F0778068
:101950002DE901494FEA11404FEA144621EA0048B7
:1019600000FB06FC24EA064708FB06F607FB08F81E
:1019700000FB07F718EB06484CEB164C4FEA124BEE
:1019800018EB07484FEA15464CEB174022EA0B4E7E
:101990000BFB06FC25EA06470EFB06F607FB0EFED0
:1019A0000BFB07F71EEB064E4CEB164C4FF00006F8
:1019B0001EEB074E4CEB174B18EB0B0840F10000E9
:1019C00018EB0E0B58EB000840F100008F1A4FF097
:1019D00000013CBFC943661B14BFB5EB040C0021DA
:1019E0003CBFC943F61B4FEA17444EEA8E0E27EA66
:1019F00004454FEA1C4704FB07622CEA074C05FB31
:101A000007F70CFB05F604FB0CFC16EB074642EB54
:101A1000174216EB0C4642EB1C421BEB060658EB3A
:101A20000202414146EA9E0601D5BDE80189B61988
:101A3000524141EB0101A3F10103BDE801894FEAE5
:101A400014454FEA114724EA054621EA074C05FBF5
:101A500007F406FB07F70CFB06F105FB0CFC11EB8A
:101A6000074144EB17444FEA124711EB0C4144EB9A
:101A70001C4422EA074C05FB07F206FB07F70CFBA8
:101A800006F605FB0CFC16EB074642EB174216EB7D
:101A90000C4642EB1C456A1854F1000148BF7047E0
:101AA000B619524141EB0101A3F10103704795F0D2
:101AB000000F37D04FEA11424FEA144721EA02469D
:101AC00024EA074C02FB07F106FB07F70CFB06F4C0
:101AD00002FB0CFC14EB074441EB17414FEA15479E
:101AE00014EB0C4441EB1C4125EA074C02FB07F5C3
:101AF00006FB07F70CFB06F602FB0CFC16EB074691
:101B000045EB174516EB0C4645EB1C42121951F1FB
:101B1000000148BF7047B619524141EB0101A3F1E2
:101B2000010370474FEA14454FEA114724EA05467E
:101B300021EA074C05FB07F106FB07F70CFB06F251
:101B40004FF0000605FB0CFC12EB074241EB17417E
:101B500012EB0C4251EB1C4148BF7047921841EB0D
:101B60000101A3F1010370472DE9F04F8FB0924AB4
:101B7000516C506C05F0ACF907468F4A116C106C33
:101B800005F0A6F980468C4AD16BD06B05F0A0F920
:101B90008346414604F0EAFF0646394604F0E6FF74
:101BA000054601F081FE08908349C86B089905F04D
:101BB0008FF90E908049086C089905F089F90D900D
:101BC0007D49486C089905F083F90C907B4905A87C
:101BD00001F0FAFF05AD7A4905980860069848605B
:101BE00007988860084641680C9805F071F9054629
:101BF000734881680D9805F06BF90646294605F093
:101C0000F7FA04466E4881680E9805F061F90546BA
:101C10006B4801680C9805F05BF90646294605F00B
:101C2000E7FA8146664801680D9805F051F90546C6
:101C3000634841680E9805F04BF90646294605F0C1
:101C4000D7FA82465F49204605F042F905465E48CC
:101C50000168284604F08AFF5B49086059494846F4
:101C600005F036F9054659480168284604F07EFF1C
:101C7000564908605349504605F02AF9054654482C
:101C80000168284604F072FF514908604E48006818
:101C900004F040FFCDE90401204603F027F9834614
:101CA0004C4905F015F98046214605F011F9074623
:101CB00004F030FFCDE900013F49886804F02AFFB5
:101CC000074602F077F80546DDE9002304F0CCFA78
:101CD000CDE90201DDE9042304F0C6FACDE90601ED
:101CE00004F090FA0B903948006804F013FFCDE936
:101CF0000401484603F0FAF88346364905F0E8F84F
:101D00000646494605F0E4F8054604F003FFCDE930
:101D100000012949C86804F0FDFE054602F04AF8B2
:101D20000746DDE9002304F09FFACDE90201DDE971
:101D3000042304F099FACDE9060104F063FA0A904D
:101D40002348006804F0E6FECDE90401504603F0A4
:101D5000CDF82049009005F0BBF85146019005F000
:101D6000B7F8834604F0D6FECDE9020112490869AE
:101D700004F0D0FECDE9000102F01CF80546DDE9D3
:101D8000022304F071FA0746DDE9042304F06CFA3B
:101D9000CDE9060104F036FA09900F480090074893
:101DA000DDE909320B9901F0E4FD044801F0A4FDDE
:101DB0000FB0BDE8F08F000010010020C00000202F
:101DC000D80500206F12033AE4000020E80000204C
:101DD000EC000020CDCC4C3F0AD7A33A2DE9F04FC0
:101DE00087B000F0DFF86848FFF7BEFE6749664835
:101DF00001F050FE6549486804F08CFE064604F088
:101E0000E5F8044604F0FEF905906049086804F01E
:101E100081FE064604F0DAF8044604F0F3F9069071
:101E20005A49486804F076FE064603F08FFF0446E0
:101E300004F0E8F904905549086804F06BFE064682
:101E400003F084FF044604F0DDF903905048C078A5
:101E5000002872D14E48407800286ED04D49B1F923
:101E6000040004F0D5FF0746049905F031F8064652
:101E7000069905F02DF804464649B1F9020004F030
:101E8000C7FF8146069905F023F88046059905F0BD
:101E90001FF806463F49B1F9000004F0B9FF80463B
:101EA000039905F015F80746314604F05FFE054634
:101EB000214605F09DF983463649B1F9040004F046
:101EC000A7FF0646059905F003F804463149B1F924
:101ED000020004F09DFF0646049904F0F9FF054650
:101EE000214604F043FE0290584604F013FE80465B
:101EF0008946029804F00EFE42464B46CDE90001A9
:101F000003F036FD064600F09FF981F000410446DB
:101F100004F078F982462048C0F800A04FF07C52C7
:101F200051461E48006800F0AFFE1D498860084613
:101F300080681A4908600CE0FFE71449886804F0DB
:101F4000E9FD064600F080F9044604F05BF9144907
:101F500088600E49486804F0DDFD064600F074F91B
:101F6000044604F04FF90E4948600849086804F037
:101F7000D1FD064600F068F9044604F043F908492B
:101F8000086007B0BDE8F08FC0000020C005002049
:101F9000F4000020D0000020B8000020F000002055
:101FA000CC0500202DE9FF4100F032FA4F4800F047
:101FB00073FB4F49B1F9340004F08DFB06460F4620
:101FC00005204C494C4BCDE900304C4B4C4ACDE9F7
:101FD00002103046394600F061FD044604F012F963
:101FE0004349C863B1F9360004F075FB06460F4655
:101FF00005204049404BCDE90030404B2833404A52
:102000002832CDE902103046394600F047FD04463B
:1020100004F0F8F80146364801640146B1F9380089
:1020200004F059FB06460F4605203249324BCDE9F4
:102030000030324B5033324A5032CDE90210304634
:10204000394600F02BFD044604F0DCF80146284830
:1020500041640146086A04F05DFD0746294A2A4B9F
:1020600004F064FB054604F0CDF80446274A2146F7
:102070002748006800F008FE1D498860084680680F
:10208000234908601A49486A04F044FD07461D4A7E
:102090001D4B04F04BFB054604F0B4F804461B4A04
:1020A00021461C48006800F0EFFD1149C860084651
:1020B000C068184908600E49886A04F02BFD07467D
:1020C000104A114B04F032FB054604F09BF804461D
:1020D0000E4A21461048006800F0D6FD0449086108
:1020E000084600690C490860BDE8FF81D000002067
:1020F000100100209000002068000020480500200A
:10210000D004002030689DC8FE3F9F3FCBA1C53E54
:10211000D8000020DC000020E000002030B50020C6
:102120000021002200230025184CA4F86050A4F8D8
:102130006250A4F8645000BF0DE0144CB4F9344070
:102140002044124CB4F936402144104CB4F93840C4
:1021500022445C1CE3B2C82BEFDBC82490FBF4F4F0
:1021600025B20A4CA4F86050C82491FBF4F425B2BF
:10217000064CA4F86250C82492FBF4F425B2034C38
:10218000A4F864500024024D2C7230BD10010020D0
:10219000F400002010B50446254840786F2829D166
:1021A000234880786D2825D1002021494870887007
:1021B000A4F1310006281BD2DFE800F003070B0F63
:1021C000131701201B49487213E001201949487177
:1021D0000FE00020174948710BE0012015494876AF
:1021E00007E001201349887603E003F081FE00BF79
:1021F00000BF00BF632C05D100200F4908700120EB
:102200000E4908700D48007801280FD108480A4986
:102210000978445408480078401C0749087008466B
:102220000078032802D100200449087010BD000086
:1022300045000020F4000020490000204400002058
:1022400000BFFEE7704700002DE9F04104460D464F
:102250004FF0C042054B2046294604F0B5F806462B
:102260000022034B04F062FABDE8F081FB21094033
:10227000008066402DE9FF4F87B0824691461D469B
:102280004FF0000829460A2003F04AFE019004F0AE
:10229000D7FD4946029004F01BFE834604F09CFDE6
:1022A0000646002E03DB20208DF80C0003E076426A
:1022B0002D208DF80C000B240BE0601EC1B20A200B
:1022C00003F02EFEB6FBF0F008B1A04603E0601E5E
:1022D000C4B2002CF1DC00BFA8EB0500002821DC13
:1022E00030208DF80D002E208DF80E00002412E015
:1022F000281B401EC1B20A2003F012FEB6FBF0F00C
:102300000A21B0FBF1F201FB1200303003AAE11CFC
:102310005054601CC4B2AC42EADD002103AAE81CA0
:1023200011543AE0002413E0A8EB0400401EC1B2AF
:102330000A2003F0F5FDB6FBF0F00A21B0FBF1F244
:1023400001FB1200303003AA611C5054601CC4B25F
:10235000A8EB0500A042E7DC2E2103AA601C115463
:10236000002713E0E81B401EC1B20A2003F0D8FD8D
:10237000B6FBF0F00A21B0FBF1F201FB12003030A5
:10238000A11C394403AA5054781CC7B2AF42E9DDFE
:10239000002103AA08F10200115403AA504608992B
:1023A00001F014F90BB0BDE8F08F2DE9FE43804633
:1023B000894615461E460021701C0DF80010002DA0
:1023C00003DB20208DF8000003E06D422D208DF806
:1023D0000000002413E0301B401EC1B20A2003F0AD
:1023E0009FFDB5FBF0F00A21B0FBF1F201FB1207F3
:1023F00007F13000C1B2601C0DF80010C4B2B44245
:10240000E9DB6A464946404601F0E0F8BDE8FE8354
:1024100010B500F0C5FD2D4840782C49097840EAF8
:1024200001212B48B0F86000081A00B228498886BC
:102430002648C0782549897840EA01212448B0F827
:102440006000081A01B22248C186204840791F491D
:10245000097940EA012001B21D4801871B48C07973
:102460001A49897940EA012000B2194908801748C1
:10247000407A1649097A40EA012000B2144948809E
:102480001248C07A1149897A40EA012000B2104905
:102490008880B1F900100E4AB2F92C20881A04F095
:1024A000B7FC0B490862B1F90220B1F92E10501A9D
:1024B00004F0AEFC06494862B1F90420B1F93010CD
:1024C000501A04F0A5FC0249886210BD7801002072
:1024D000100100202DE9F0410246002500260020D1
:1024E00000230024002791F803C00CF00F0591F899
:1024F00003C00CF0100CBCF1000F03D091F802C027
:102500004CEA050591F800C0BCF1000F31D0146809
:1025100000202BE04FF0010C0CFA00F3B1F800C0E2
:102520000CEA03069E4220D183004FF00F0C0CFAF8
:1025300003F7BC4305FA03FC4CEA040491F803C01A
:10254000BCF1280F06D14FF0010C0CFA00FCC2F8C8
:1025500014C00AE091F803C0BCF1480F05D14FF058
:10256000010C0CFA00FCC2F810C0401C0828D1D3A2
:102570001460B1F800C0BCF1FF0F34DD54680020D6
:102580002EE000F1080C4FF0010808FA0CF3B1F846
:1025900000C00CEA03069E4221D183004FF00F0CCD
:1025A0000CFA03F7BC4305FA03FC4CEA040491F867
:1025B00003C0BCF1280F05D100F1080C08FA0CF893
:1025C000C2F8148091F803C0BCF1480F07D100F1A4
:1025D000080C4FF0010808FA0CF8C2F81080401CF3
:1025E0000828CED35460BDE8F0810000F0B50A465B
:1025F000002300240021002500F00046B6F1004F22
:1026000002D11D4EF16901E01B4E7168C0F3034514
:1026100083B200F44016B6F5401F08D121F0706176
:10262000154E766826F07066134F7E6012E000F457
:102630008016B6F5801F06D1032606FA05F4A143DD
:1026400041F0706106E0460D360103FA06F6B1432B
:1026500041F0706122B1460D360103FA06F63143AE
:1026600000F00046B6F1004F02D1034EF16101E0E7
:10267000014E7160F0BD00000000014002460020E4
:1026800093680B400BB1012000E0002070474161CE
:1026900070470161704700002DE9FF4105460026A3
:1026A00002AB062203213C2000F064FE594800687A
:1026B0000A2190FBF1F057490968081A554908604A
:1026C0009DF809009DF8081040EA012000B2514928
:1026D000096808444F490860084600680A2190FBD1
:1026E000F1F000B2ADF800004A48406890FBF1F00C
:1026F00048494968081A474948609DF80D009DF807
:102700000C1040EA012000B242494968084441499E
:102710004860084640680A2190FBF1F000B2ADF82D
:1027200002003C48806890FBF1F03A498968081A39
:10273000384988609DF80B009DF80A1040EA012096
:1027400000B2344989680844324988600846806884
:102750000A2190FBF1F000B2ADF80400BDF80000D2
:102760002D490880BDF802004880BDF8040088802B
:102770002A48407A40B101202949087000202749A1
:10278000C870684600F064FC2548007808B3002053
:1027900023490870002415E02248006830F914002D
:1027A000002805DA1F48006830F91400404203E0B1
:1027B0001C48006830F91400142801DA701CC6B2F5
:1027C000601CC4B2062CE7DB022E02DB0120134999
:1027D000C87000241AE01349096801EB4401B1F9FB
:1027E0000610104A126832F914208F1807EBD771BF
:1027F0003DF91420A2EB610004F00AFB804604F0CE
:10280000EBFA00B225F81400601CC4B2032CE2DB22
:10281000BDE8FF81A001002094010020F400002009
:102820000E0000200400002000BFFEE700B54FF4BA
:1028300080600C49086000F02FF94FF400600949EE
:10284000086000F029F94FF480600649091F08600C
:1028500000F022F94FF480600249086000F01CF992
:1028600000BD0000140C014008B50121082001F052
:1028700015FA4FF48060ADF8000003208DF80200D7
:1028800014208DF8030069460848FFF723FE4FF433
:102890000060ADF8000003208DF8020014208DF8D0
:1028A000030069460148FFF715FE08BD000C014012
:1028B00000B54FF480600C49086000F0EDF84FF46B
:1028C00000600949091F086000F0E6F84FF48060D5
:1028D0000549091F086000F0DFF84FF480600249E5
:1028E000086000F0D9F800BD140C014000B50821C3
:1028F00000200A02124B1A6016E04206100E4FF436
:1029000080620F4B1B1D1A6000F0C6F84FF4806206
:102910000B4B1A6000F0C0F8094A083A126802F43A
:1029200000620AB140F001000A00A1F10103D9B22E
:10293000E3D14FF48062024B1B1D1A6000BD000002
:10294000100C014000B508211DE04FF48062134BCC
:102950001A6000F0A1F800F080022AB14FF4006282
:102960000E4B1B1F1A6003E04FF400620B4B1A6002
:102970004206100E00F090F84FF48062074B1B1FC8
:102980001A6000F089F80A00A1F10103D9B2DCD184
:102990004FF48062014B1A6000BD0000140C01402E
:1029A00000B54FF40060154908604010086000F061
:1029B00073F812480838006808B9012000E00020C8
:1029C00000F4006008B1002000BD4FF400600B4926
:1029D000091D086000F060F808480838006800F435
:1029E000006008B10020EFE74FF400600349091DC3
:1029F000086000F051F80120E6E70000100C0140EB
:102A000000B54FF480600C49086000F045F84FF4C1
:102A100000600949086000F03FF84FF48060064903
:102A2000091F086000F038F84FF400600249091FE0
:102A3000086000F031F800BD140C014000B54FF4FF
:102A400080601449086000F027F84FF400601149D5
:102A5000091F086000F020F84FF480600D49091F3D
:102A6000086000F019F80B480C38006800F40060AA
:102A700038B14FF480600749086000F00DF800207D
:102A800000BD4FF480600349086000F005F80120A4
:102A9000F6E70000140C014000BF70472DE9FF5F0E
:102AA00088B092469946DDF85CB0ABF1010004B203
:102AB00008E0601E0AEBC00103C90AEBC40203C2AE
:102AC000601E04B2002CF4DCDDE90801CAE9000153
:102AD00000252E46002418E0169800EBC40003C819
:102AE000CDE902010AEBC40003C8CDE90001DDE92C
:102AF000022303F01BFE2A463346CDE9040103F00E
:102B0000B3FB05460E46601C04B25C45E4DB199835
:102B1000401E04B208E0601E09EBC00103C909EBC6
:102B2000C40203C2601E04B2002CF4DC0027B846C5
:102B3000012418E0189800EBC40103C9CDE9020193
:102B400009EBC40003C8CDE90001DDE9022303F06D
:102B5000EDFD3A464346CDE9040103F085FB074607
:102B60008846601C04B219988442E3DB3A46434627
:102B70002846314603F0E4FEC9E90001D9E9000125
:102B8000CDE90601DDE906010CB0BDE8F09F0000CB
:102B900010B5482003F030F94FF4A06000F056FC67
:102BA00000F08CF800F086FC4FF4E13003F09CFA62
:102BB000FFF75AFE4FF4487003F03EF900F0CCF9ED
:102BC0000D49087000F01CF80B494870472144F685
:102BD0001F6001F0B9FB03F08BF902F06BF900F014
:102BE00007FE00F093F803F0A7F901F00FFC0121B4
:102BF000024801F0ADFC10BDF4000020000C0040C4
:102C000010B50A213C2001F061F904460CB90020FE
:102C100010BD782200213C2001F080F92022012102
:102C20003C2001F07BF9002202213C2001F076F9E2
:102C3000642003F001F901200149487000BFE7E773
:102C4000F400002050B502460B46002100240BE0A2
:102C50000A2092FBF0F600FB1620303068540A2060
:102C600092FBF0F082B2491C002AF1D10020685496
:102C7000491E03E0685C1855491E641C0029F9DAF6
:102C800000201855184650BD2DE9F04704460D4662
:102C900016463146284604F01BF9804631464FF06F
:102CA0007E5004F0A5FA8146214604F011F907464A
:102CB000414603F05BFFBDE8F087000008B5012145
:102CC000602000F0EBFF0B20ADF8000010208DF825
:102CD000030003208DF8020069460A48FFF7FAFB5B
:102CE0000B210848FFF7D5FC4FF4A050ADF80000C9
:102CF00069460548FFF7EEFB4FF4A0510248FFF785
:102D0000C8FC08BD00140140001801402DE9F04145
:102D100086B00024A0460020039004900590019006
:102D200002900025002600277549087000F0A4FBDA
:102D300074A20021084600F07BFC77A2022100204B
:102D400000F076FC77A20421002000F071FC40F234
:102D5000DC5003F071F840F2DC5003F06DF8ADE0A8
:102D6000B8F1C80F72DA00F01BF97248C0797149E6
:102D7000897940EA012000B26F4908806D48407AA5
:102D80006C49097A40EA012000B26B4948806948E1
:102D9000C07A6849897A40EA012000B26649888091
:102DA000B1F900100398084403906349B1F9021087
:102DB0000498084404906049B1F904100598084447
:102DC0000590BDF904105C48B0F90000281A04D53C
:102DD0005948B0F90000401B03E05748B0F9000023
:102DE000281A084400B2ADF80400BDF90610524894
:102DF000B0F90200301A04D54F48B0F90200801B28
:102E000003E04D48B0F90200301A084400B2ADF8B2
:102E10000600BDF908104848B0F90400381A04D576
:102E20004548B0F90400C01B03E04348B0F9040072
:102E3000381A084400B2ADF808003F48B0F9005015
:102E4000B0F90260B0F9047034E0FFE7BDF90400A6
:102E50001E2807DABDF906001E2803DABDF90800AE
:102E60001E280FDB4FF00008002408E0002001A915
:102E700021F8140003A941F82400601CC4B2032CFB
:102E8000F4DB17E0C82095FBF0F000B22A498885F2
:102E9000C82096FBF0F001B22748C185C82097FBF7
:102EA000F0F001B224480186012015490870002085
:102EB0002249C87208F1010000F0FF0810480078AC
:102EC00000283FF44DAF1D48007A08B1FFF726F9FE
:102ED000002000F0D1FA1AA20021084600F0A8FB59
:102EE0001AA20221002000F0A3FB4FF4FA6002F0C6
:102EF000A3FF002000F0C0FA06B0BDE8F08100009A
:102F000000000020506C65617365204D616B652089
:102F1000537572650000000074686520506C616E26
:102F200065000000697320486F72697A6F6E746182
:102F30006C0000007801002010010020F400002047
:102F400043616C6962726174696F6E00436F6D708A
:102F50006C6574650000000010B57521D02000F08C
:102F6000B5FF04460CB9002010BD00226B21D02013
:102F700000F0D4FF07221921D02000F0CFFF032258
:102F80001A21D02000F0CAFF10221B21D02000F00F
:102F9000C5FF09221C21D02000F0C0FF0120E3E77B
:102FA00010B53B21D02000F091FF284908703C214A
:102FB000D02000F08BFF254948703D21D02000F043
:102FC00085FF224988703E21D02000F07FFF1F49F5
:102FD000C8703F21D02000F079FF1C4908714021C2
:102FE000D02000F073FF194948714121D02000F032
:102FF0006DFF164908734221D02000F067FF134986
:1030000048734321D02000F061FF104988714421AA
:10301000D02000F05BFF0D49C8714521D02000F0A1
:1030200055FF0A4908724621D02000F04FFF07499A
:1030300048724721D02000F049FF04498872482196
:10304000D02000F043FF0149C87210BD7801002074
:103050002DE9FF5F8146B048007898B10020AE4965
:103060000870AE490860AE490860AE4908600024A7
:1030700006E00020AC49096821F81400601CC4B2C5
:10308000062CF6DB002421E0A748006830F9140084
:1030900039F91410884206DD39F81400A24909688C
:1030A00021F8140010E0A048006800EB4400B0F9DB
:1030B000060039F91410884206DA39F814009A49E2
:1030C000096801EB4401C880601CC4B2032CDBDB3F
:1030D0009648407A01285FD19549486C002103F059
:1030E000C3FE04D29248406C80F0004001E090485A
:1030F000406C05468F4903F0B7FF4DD20B218E4837
:10310000FFF7C7FA08218C48FFF7C1FA8BA2042108
:10311000002000F05BFA8649886A03F0FBFC8A4ACB
:103120008A4BCDE9000103F001FB07464FF06042F6
:10313000874B03F0FBFA05460E467848006803F01B
:10314000E9FC82462A46334603F08EF8CDE90201B7
:1031500003F058F87149086000217048006803F0D6
:1031600083FE04D26D48006880F0004001E06B48A7
:1031700000680546774903F077FF0DD202206B49BE
:103180004872002000F078F90B216B48FFF781FAB4
:1031900002216948FFF77BFA6448407A022857D138
:1031A0006349C86B002103F05FFE04D26048C06B26
:1031B00080F0004001E05E48C06B05465D4903F0C9
:1031C00053FF45D264A20421002000F0FFF95849C2
:1031D000086A03F09FFC82465B4A5C4B03F0A6FA48
:1031E00007464FF060425A4B03F0A0FA05460E46E0
:1031F0004C48006803F08EFC2A463346CDE90001B6
:1032000003F032F8CDE9020102F0FCFF4549086005
:1032100000214448006803F027FE04D241480068BA
:1032200080F0004001E03F4800680546494903F04E
:103230001BFF0DD203203D4948720B213E48FFF78A
:1032400028FA01213C48FFF722FA002000F014F987
:103250003648407A03285DD13549086C002103F0D7
:1032600003FE04D23248006C80F0004001E0304898
:10327000006C05462F4903F0F7FE4BD239A204211A
:10328000002000F0A3F92A49486A03F043FC0546F0
:103290002D4A2E4B03F04AFA4FF060422C4BCDE9F9
:1032A000000103F043FA074688461D48006803F012
:1032B00031FC82463A46434602F0D6FFCDE9020190
:1032C00002F0A0FF1649086000211548006803F0CD
:1032D000CBFD04D21248006880F0004001E01048A5
:1032E000006805461B4903F0BFFE13D2002000F022
:1032F000C3F800200D4948720B210F48FFF7C9F9A8
:1033000003210D48FFF7C3F9002000F0B5F80120B4
:1033100006490876BDE8FF9F0F0000201800002036
:10332000140000201000002004000020F400002001
:103330001001002000409C4500140140726F746130
:103340007465206279207A0030689DC8FE3F9F3FF7
:103350004D62603F0000B443726F74617465206217
:1033600079207800726F7461746520627920790029
:1033700000BFFEE72DE9F04107460E461546984688
:10338000FFF70EFB3846FFF7DDFAFFF757FB304635
:10339000FFF7D8FAFFF752FBFFF702FB791CC8B220
:1033A000FFF7D0FAFFF74AFB00240DE0FFF79EFA83
:1033B00008F80400681EA04202D1FFF779FA01E084
:1033C000FFF734FA601CC4B2AC42EFDBFFF718FB26
:1033D000FFF762FBBDE8F0817047000070B5002187
:1033E00000230F22C47804B3154C246804F4E0646D
:1033F000C4F5E064210AC1F10403CA40447804FA28
:1034000003F184781440214309010E4C0678A1553C
:10341000047804F01F050124AC4005786D11AD005F
:1034200005F1E025C5F8004109E0047804F01F0526
:103430000124AC40044D0678761145F8264070BD55
:103440000CED00E000E400E080E100E0024901430F
:10345000024A1160704700000000FA050CED00E020
:1034600007E040F2375100BF0A00A1F10101FBD192
:10347000401E0028F5D1704770B50646002415E0BF
:1034800004F1B001C8B200F059F9012000F056F97A
:10349000102000F053F9002504E0304600F07AF9DE
:1034A000681CC5B2802DF8DB601CC4B2082CE7DBB9
:1034B00070BD000008B50121102000F0EFFB0F20C7
:1034C000ADF8000003208DF8020010208DF80300F5
:1034D00069463D48FEF7FEFF08213B48FFF7D9F853
:1034E00002213948FFF7D3F83220FFF7B9FF022154
:1034F0003548FFF7CEF80021AE2000F0EFF80021AC
:10350000D52000F0EBF80021802000F0E7F8002142
:10351000A82000F0E3F800213F2000F0DFF80021B0
:10352000D32000F0DBF80021084600F0D7F8002196
:10353000402000F0D3F800218D2000F0CFF80021CA
:10354000142000F0CBF80021202000F0C7F8002163
:10355000022000F0C3F80021A12000F0BFF80021F4
:10356000C82000F0BBF80021DA2000F0B7F80021F5
:10357000122000F0B3F80021812000F0AFF8002104
:10358000EF2000F0ABF80021D92000F0A7F80021CF
:10359000F12000F0A3F80021DB2000F09FF80021CB
:1035A000402000F09BF80021A42000F097F80021B3
:1035B000A62000F093F80021AF2000F08FF8002043
:1035C000FFF75AFF08BD0000001001402DE9F04749
:1035D0000446884615464FF000090026002741465C
:1035E000204600F069F81CE0E85D203800F0FF0993
:1035F0007E2C04DD002408F1010000F0FF08002605
:1036000009E009EB4901094A02EB4101885D00F03C
:10361000C1F8701CC6B2062EF3DBA01DC4B2781C24
:10362000C7B2E85D0028DFD1BDE8F0871E7400084E
:103630002DE9F04706460F46904600250024A14696
:1036400031E018F809002038C5B2782E02DD0026D6
:10365000781CC7B23946304600F02EF8002407E047
:1036600004EB0511134A505C00F094F8601CC4B2DE
:10367000082CF5DB781CC1B2304600F01DF80024A0
:1036800008E004EB051108310A4A505C00F082F8AA
:10369000601CC4B2082CF4DB06F10800C6B209F1C4
:1036A000010000F0FF0918F809000028C9D1BDE8A1
:1036B000F08700001779000870B504460D4605F143
:1036C000B001C8B200F03AF8102141EA141000F03D
:1036D00035F804F00F0000F031F870BD70B5044605
:1036E0000E4626B101211448FEF7D3FF03E0012165
:1036F0001148FEF7CCFF002517E008210E48FEF721
:10370000C6FF04F0800020B104210B48FEF7C1FF82
:1037100003E004210848FEF7BAFF08210648FEF737
:10372000B8FF6006040E681CC5B2082DE5DB012158
:103730000148FEF7AEFF70BD0010014070B50446B1
:10374000082501211248FEF7A2FF08211048FEF7C4
:103750009EFF00BF16E004F0800020B104210C4859
:10376000FEF797FF03E004210948FEF790FF0821C8
:103770000748FEF78EFF00BF08210548FEF787FFC8
:103780006006040E2800A5F10101CDB2E3D170BDA1
:103790000010014070B50446082501211348FEF7CA
:1037A00078FF00BF08211148FEF771FF00BF16E047
:1037B00004F0800020B104210C48FEF76AFF03E00A
:1037C00004210A48FEF763FF08210848FEF761FF5D
:1037D00000BF08210548FEF75AFF6006040E2800C6
:1037E000A5F10101CDB2E3D170BD00000010014090
:1037F00000B589B01D208DF8040000208DF805006B
:1038000002208DF8060001208DF8070001A8FFF7BF
:10381000E5FD0121022000F021FA0121082000F03D
:103820003DFA0220ADF8200018208DF82300032077
:103830008DF8220008A91948FEF74CFE4720ADF884
:1038400014000020ADF816004FF6FF70ADF8180018
:103850000020ADF81A0005A9114801F08DF90C20DF
:10386000ADF808000020ADF80A000120ADF80C000A
:103870000020ADF80E000120ADF8100002A90848A4
:1038800000F07CFF01221021054800F0CDFF01214E
:10389000034800F05DFE09B000BD0000000C0140CF
:1038A00000040040704700002DE9F05F04464FF02F
:1038B0007F594FF07C51204603F00AFB8246254693
:1038C0002E460C48A0EB660635462946504603F0C6
:1038D000FFFA8346294603F0FBFA8046494603F087
:1038E000F4FB0746294603F0F3FA05462846BDE8EF
:1038F000F09F0000DF59375F2DE9F84F044600259F
:10390000E168E06803F0E4FA0090A168A06803F0C1
:10391000DFFA81466168606803F0DAFA824621685E
:10392000206803F0D5FA8346514603F01FF980461C
:10393000494603F01BF90746009903F017F90646BC
:10394000FFF7B2FF05462068294603F0C1FA206060
:103950006068294603F0BCFA6060A068294603F05D
:10396000B7FAA060E068294603F0B2FAE060BDE86B
:10397000F88F2DE9FF4F87B0044615461E46206894
:1039800006906768D4F80880E0680590314605988D
:1039900003F09EFA29460490404603F099FA0390FA
:1039A00087F000400190089903F092FA0290039981
:1039B00003F01EFC8346049903F01AFC8246149916
:1039C00003F086FA8146216803F0D0F82060314682
:1039D000404603F07DFA29460490059803F078FAF2
:1039E00003900899069803F073FA0290039903F084
:1039F000FFFB8346049903F0B9F88246149903F05B
:103A000067FA8146616803F0B1F860603146384674
:103A100003F05EFA29460490069803F059FA0390E1
:103A20000899059803F054FA0290039903F09EF860
:103A30008346049903F0DCFB8246149903F048FAAC
:103A40008146A16803F092F8A0603146069803F021
:103A50003FFA29460490384603F03AFA039088F07A
:103A600000400190089903F033FA0290039903F0A3
:103A70007DF88346049903F079F88246149903F09F
:103A800027FA8146E16803F071F8E0600BB0BDE809
:103A9000F08F00002DE9F04F85B004460D46E16837
:103AA000E06803F015FA0390A168A06803F010FA2B
:103AB00002906168606803F00BFA01902168206849
:103AC00003F006FA0090019903F050F8834602993A
:103AD00003F08EFB8246039903F08AFB0646A16839
:103AE000606803F0F5F98346E168206803F0F0F9B7
:103AF0005946039003F03AF882464FF0804103F0B4
:103B0000E7F90746A168206803F0E2F98346E16817
:103B1000606803F0DDF95946039003F069FB8246C3
:103B20004FF0804103F0D4F98046E168A06803F0CB
:103B3000CFF983466168206803F0CAF959460390BB
:103B400003F014F882464FF0804103F0C1F981463A
:103B5000E168E06803F0BCF90390A168A06803F095
:103B6000B7F902906168606803F0B2F901902168CA
:103B7000206803F0ADF90090019903F039FB83460A
:103B8000029903F035FB8246039902F0EFFF04909F
:103B9000404601F04BFD80F0004028604846049903
:103BA00001F0A6FF68600748C07810B90548407862
:103BB00020B93146384601F09BFFA86005B0BDE84A
:103BC000F08F0000F40000202DE9FE4305460C466E
:103BD000A168206803F07CF90746E168606803F09B
:103BE00077F98046394603F003FB06464FF08041E3
:103BF00003F06EF90090E168A06803F069F90746E8
:103C00006168206803F064F98046394602F0AEFF2F
:103C100006464FF0804103F05BF90190A168A0686F
:103C200003F056F980466168606803F051F98146F7
:103C3000414602F09BFF07464FF0804103F048F9F0
:103C400006464FF07E5103F040FA0290009828603B
:103C5000019868600298A860BDE8FE8329B1064A11
:103C6000D2690243044BDA6104E0034AD269824319
:103C7000014BDA61704700000010024029B1064A8A
:103C800012690243044B1A6104E0034A1269824339
:103C9000014B1A61704700000010024029B1064A2A
:103CA00092690243044B9A6104E0034A9269824399
:103CB000014B9A61704700000010024029B1064A8A
:103CC000D2680243044BDA6004E0034AD2688243BC
:103CD000014BDA60704700000010024030B500214F
:103CE0000022002400232D4D6D6805F00C0121B148
:103CF000042905D0082923D105E0294D056022E0DB
:103D0000284D05601FE0254D6D6805F47012234DA8
:103D10006D6805F48034022505EB92421CB9224DF2
:103D2000554305600BE01D4D6D6805F400351DB170
:103D30001B4D5543056002E01A4D5543056002E0F6
:103D4000174D056000BF00BF144D6D6805F0F00110
:103D50000909164D6B5C0568DD4045600F4D6D68C7
:103D600005F4E061090A114D6B5C4568DD40856032
:103D70000A4D6D6805F46051C90A0C4D6B5C4568CD
:103D8000DD40C560054D6D6805F44041890B084D67
:103D90006B5CC568B5FBF3F5056130BD00100240F2
:103DA00000127A000024F40000093D004E000020BB
:103DB0005E0000202DE9F04104460D464FF0C04260
:103DC000054B2046294602F0B1FC06460022034B73
:103DD00002F0FAFABDE8F081FB210940008066405C
:103DE000704710B500F002F810BD00000CB50020BF
:103DF000019000903348006840F4803031490860F9
:103E000000BF3048006800F4003000900198401C6A
:103E10000190009818B90198B0F5A06FF1D1294828
:103E2000006800F4003010B10120009001E0002093
:103E300000900098012843D12348006840F010000A
:103E4000214908600846006820F003000860084621
:103E5000006840F0020008601A484068194948604C
:103E60000846406848600846406840F48060486002
:103E70000846406820F47C1048600846406840F4DA
:103E8000F81048600846006840F08070086000BF85
:103E90000C48006800F000700028F9D0094840681C
:103EA00020F00300074948600846406840F00200DF
:103EB000486000BF0348406800F00C000828F9D1B2
:103EC0000CBD0000001002400020024070B5044606
:103ED0000D46FEF765FD08B9002070BD2046FEF7CF
:103EE00031FDFEF7ABFD18B9FEF78AFD0020F4E7BF
:103EF0002846FEF727FDFEF7A1FDFEF751FD611CE8
:103F0000C8B2FEF71FFDFEF799FDFEF7EFFC06466F
:103F1000FEF7CEFCFEF774FD3046DEE770B50646D0
:103F20000C461546FEF73CFD08B9002070BD304632
:103F3000FEF708FDFEF782FD18B9FEF761FD0020CF
:103F4000F4E72046FEF7FEFCFEF778FD2846FEF774
:103F5000F9FCFEF773FDFEF753FD01F045FF01206C
:103F6000E4E7704710B51348006840F001001149BC
:103F7000086008464068104908400E4948600846F5
:103F800000680E4908400B4908600846006820F4A4
:103F9000802008600846406820F4FE0048604FF426
:103FA0001F008860FFF71DFF4FF0006004490860A4
:103FB00010BD0000001002400000FFF8FFFFF6FEF9
:103FC00008ED00E0F0B50C46154600220021068CF5
:103FD0004FF6FE773E400684028B018C4FF60C763E
:103FE00032407E1C06EA03162E433243104EB04286
:103FF0000ED0104EB0420BD0B0F1804F08D00E4E14
:10400000B04205D00D4EB04202D00D4EB04206D1A6
:104010004FF6FD76314044F00106314305E04FF69E
:10402000F576314044F00106314302830184F0BD4E
:10403000002C014000340140000400400008004012
:10404000000C0040F0B50C46154600220021002669
:10405000078C4FF6EF7C07EA0C070784028B018C74
:104060004FF6FF7707EA041640F6FF473A404FF64F
:10407000FF7707EA03373A434FF6FF7707EA05274A
:104080003A43114FB8420ED0104FB8420BD0B0F1A6
:10409000804F08D00E4FB84205D00E4FB84202D024
:1040A0000D4FB84206D14FF6DF77394046F0100782
:1040B000394305E04FF65F77394044F01007394344
:1040C00002830184F0BD0000002C01400034014057
:1040D0000004004000080040000C0040F0B50C4611
:1040E0001546002200210026078C4FF6FF6C07EAD8
:1040F0000C070784828B018C4FF6FF7707EA0426B2
:104100004FF60C773A404FF6FF7707EA03172F4335
:104110003A43114FB8420ED0104FB8420BD0B0F115
:10412000804F08D00E4FB84205D00E4FB84202D093
:104130000D4FB84206D14FF6FF57394046F480770D
:10414000394305E04FF2FF57394044F48077394353
:1041500082830184F0BD0000002C01400034014046
:104160000004004000080040000C0040F0B50C4680
:104170001546002200210026078C4EF6FF7C07EA38
:104180000C070784828B018C4FF6FF7707EA043611
:1041900040F6FF473A404FF6FF7707EA05273A43D4
:1041A0004FF6FF7707EA03373A43114FB8420ED074
:1041B000104FB8420BD0B0F1804F08D00E4FB8422C
:1041C00005D00E4FB84202D00D4FB84206D14DF681
:1041D000FF77394046F48057394305E047F6FF57EB
:1041E000394044F48057394382830184F0BD000094
:1041F000002C014000340140000400400008004051
:10420000000C004010B5FDF7E9FD0121880700F022
:104210009CF910BD70B51021404800F09DFA0028AF
:104220007AD010213D4800F090F902213C48FEF779
:1042300025FA012809D10221384800F04DFC374801
:1042400000F086FA3749088066E00021334800F024
:1042500043FC324800F07CFA33490880314800883A
:10426000098888420ADD2F4800884FF6FF71081A36
:104270002D49098808442D49088006E02A4800880D
:1042800028490988401A294908802848008844F6A6
:104290002061884204DD264800882449088003E024
:1042A00022480088224908802048008800EB00103E
:1042B0004000C82190FBF1F4204602F0A9FD1D4901
:1042C000086001201C4908701C48016819480068F2
:1042D00002F08EFF054602F07FFD041E01DB204642
:1042E00000E06042B0F5FA7F07DB1448006811492E
:1042F000086000201249087002E00120104908708F
:104300000E4801680B48006802F072FF0D49086012
:10431000084800680949086070BD000000040040BA
:10432000000C014038000020360000203A00002038
:104330003C00002028000020350000203000002034
:10434000340000202C00002030B589B004460D4612
:1043500001210420FFF782FC01210820FFF79EFCC9
:104360004FF47070ADF8200018208DF82300032062
:104370008DF8220008A92348FEF7ACF8A8B2ADF8E2
:1043800014000020ADF81600A0B2ADF8180000200F
:10439000ADF81A0005A91C4800F0EEFB6020ADF84E
:1043A00004000120ADF806000020ADF80C0001A9C2
:1043B000154800F043FA01A9134800F095FA01A945
:1043C000114800F0F1FA01A90F4800F047FB08215D
:1043D0000D4800F07FFA08210B4800F0D7FA0821B9
:1043E000094800F031FB0821074800F082FB012159
:1043F000054800F09BF80121034800F0A9F809B036
:1044000030BD0000000C0140000800401FB5322004
:104410008DF8000001208DF801008DF802008DF864
:1044200003006846FEF7DAFF01210820FFF716FCBB
:10443000104800F099F840F6C410ADF80800472085
:10444000ADF804000020ADF80A00ADF8060001A99F
:10445000084800F091FB0121064800F073F80122A2
:104460001146044800F0E0F90021024800F070F81D
:104470001FBD0000000C004010B500242648008835
:1044800000F00100002845D04FF6FE702249088058
:104490002248407EE8B100BF08E0214830F814000F
:1044A00032301F4921F81400601CC4B2042CF4DB24
:1044B00000201A4948761A4801F002FD1849088878
:1044C0001849FEF7BFFB174801F0E6FD16A001F002
:1044D000E3FD1248807EE8B1002408E0104830F87F
:1044E000140032380E4921F81400601CC4B2042CA8
:1044F000F4DB002009498876094801F0E1FC08490D
:1045000008880849FEF79EFB064801F0C5FD06A095
:1045100001F0C2FD10BD0000100C0040F4000020AE
:104520001C000020240000202020200021B102884F
:1045300042F08002028004E002884FF67F731A4046
:1045400002807047CA4302827047CA4302827047A2
:1045500021B1028842F00102028004E002884FF695
:10456000FE731A400280704710B5044668488442C2
:1045700008D10121C014FFF7A1FB0021E014FFF7CF
:104580009DFBC4E0B4F1804F08D101210846FFF73C
:1045900075FB00210120FFF771FBB8E05D48844204
:1045A00008D101210220FFF769FB00210220FFF75B
:1045B00065FBACE05848844208D101210420FFF794
:1045C0005DFB00210420FFF759FBA0E05348844223
:1045D00008D101210820FFF751FB00210820FFF737
:1045E0004DFB94E04E48844208D101211020FFF792
:1045F00045FB00211020FFF741FB88E04948844239
:1046000008D101212020FFF739FB00212020FFF7EE
:1046100035FB7CE04448844208D101214014FFF777
:104620004DFB00216014FFF749FB70E03F488442D6
:1046300009D10121C804FFF741FB00214FF40020FC
:10464000FFF73CFB63E03A48844209D101210805A9
:10465000FFF734FB00214FF48010FFF72FFB56E0EB
:104660003448844209D101214805FFF727FB002186
:104670004FF40010FFF722FB49E02F48844208D195
:1046800001214020FFF7FAFA00214020FFF7F6FA57
:104690003DE02A48844208D101218020FFF7EEFA4C
:1046A00000218020FFF7EAFA31E02548844208D152
:1046B00001218015FFF7E2FA0021A015FFF7DEFACD
:1046C00025E02048844209D101210804FFF7F6FAC9
:1046D00000214FF48030FFF7F1FA18E01A488442C5
:1046E00009D101214804FFF7E9FA00214FF4003015
:1046F000FFF7E4FA0BE01548844208D10121880451
:10470000FFF7DCFA00214FF48020FFF7D7FA10BD45
:10471000002C01400004004000080040000C004054
:10472000001000400014004000340140004C0140E3
:10473000005001400054014000180040001C00409F
:10474000002000400040014000440140004801407A
:104750000146B1F84000704730B502460020002302
:104760000024158A05EA0103958905EA010413B1BD
:104770000CB1012000E0002030BD000070B50546FE
:104780000C46244885420ED0234885420BD0B5F113
:10479000804F08D02148854205D02148854202D06B
:1047A0002048854200D100E000BF208850B923890D
:1047B000A28861882846FFF705FCE188284600F0BA
:1047C000AEF925E0208804280AD12389A2886188CF
:1047D0002846FFF737FCE188284600F0A9F917E0E2
:1047E000208808280AD12389A28861882846FFF7F3
:1047F00075FCE188284600F0A8F909E02389A28821
:1048000061882846FFF7B2FCE188284600F0A6F947
:1048100070BD0000002C0140003401400004004045
:1048200000080040000C00401AB183890B438381CB
:1048300002E083898B4383817047000070B50024B8
:1048400000220023058C4FF6FE7635400584028C4D
:104850008388048B4FF68F752C40B51E2C400D8835
:104860002C43751E2A400D892A434D882A43144D36
:10487000A8420BD0134DA84208D0134DA84205D032
:10488000124DA84202D0124DA84213D14FF6F7752F
:104890002A404D892A434FF6FB752A408D882A43CA
:1048A0004FF6FF652B404FF6FF552B408D892B436C
:1048B000CD892B4383800483CD888586028470BD97
:1048C000002C014000340140004001400044014000
:1048D000004801400A460021018B4FF6F77319404A
:1048E000114301837047000070B5002400220023AB
:1048F000058C4FF6EF7635400584028C8388048B57
:1049000048F6FF752C404FF6FF452C400D884FF6BA
:10491000FF7606EA05252C434FF6DF752A400D8900
:1049200006EA05152A434D8806EA05152A43154D62
:10493000A84202D0144DA8421DD14FF67F752A40DF
:104940004D894FF6FF7606EA05152A434FF6BF75E7
:104950002A408D8806EA05152A434FF6FF352B407D
:104960004FF2FF752B408D8906EA85052B43CD89D3
:1049700006EA85052B4383800483CD88058702845E
:1049800070BD0000002C0140003401400A460021A7
:10499000018B4FF2FF7319404FF6FF7303EA0223B6
:1049A000194301837047000070B5002400220023E2
:1049B000058C4FF6FF6635400584028C8388848B16
:1049C0004FF68F752C404FF6FC752C400D882C430C
:1049D0004FF6FF552A400D894FF6FF7606EA05256A
:1049E0002A434D8806EA05252A43154DA84202D0E0
:1049F000144DA8421DD14FF2FF752A404D894FF644
:104A0000FF7606EA05252A434FF6FF352A408D88B2
:104A100006EA05252A434EF6FF752B404DF6FF7535
:104A20002B408D8906EA05152B43CD8906EA05152D
:104A30002B4383808483CD888587028470BD0000EA
:104A4000002C0140003401400A460021818B4FF6C2
:104A5000F7731940114381837047000070B500223D
:104A600000230024058C4EF6FF7635400584038C28
:104A70008488828B48F6FF752A404FF6FF452A400E
:104A80000D884FF6FF7606EA05252A434DF6FF7599
:104A90002B400D8906EA05352B434D8806EA05357E
:104AA0002B430B4DA84202D00A4DA84208D14BF629
:104AB000FF752C408D894FF6FF7606EA85152C434D
:104AC00084808283CD88A0F84050038470BD0000AC
:104AD000002C0140003401400A460021018C4DF6B3
:104AE000FF7319404FF6FF7303EA02331943018441
:104AF00070470A460021818B4FF2FF7319404FF631
:104B0000FF7303EA0223194381837047818670474C
:104B10000187704781877047A0F840107047028B6B
:104B20004FF6F3731A400283028B0A4302837047E5
:104B3000028B4FF2FF331A400283028B4FF6FF7352
:104B400003EA01231A4302837047828B4FF6F37303
:104B50001A408283828B0A4382837047828B4FF292
:104B6000FF331A408283828B4FF6FF7303EA0123DF
:104B70001A43828370470000002202881D4B98422E
:104B80000ED01D4B98420BD0B0F1804F08D01B4B7C
:104B9000984205D01A4B984202D01A4B984204D141
:104BA0004FF68F731A404B881A43174B984207D021
:104BB000164B984204D04FF6FF431A40CB881A4355
:104BC00002808B8883850B8803850A4B98420BD023
:104BD000094B984208D00E4B984205D00D4B984295
:104BE00002D00D4B984201D10B7A038601238382B8
:104BF00070470000002C01400034014000040040D8
:104C000000080040000C004000100040001400406C
:104C100000400140004401400048014010B540F20E
:104C20002551064800F073F830B1044800F02AF925
:104C3000C4B22046FDF7AEFA10BD000000480040A7
:104C400021B1828942F40052828104E082894DF6CA
:104C5000FF731A408281704710B504462048844291
:104C600009D101218803FFF729F800214FF4804082
:104C7000FFF724F832E01B48844209D1012148049F
:104C8000FEF7FCFF00214FF40030FEF7F7FF25E0B0
:104C90001548844209D101218804FEF7EFFF002165
:104CA0004FF48020FEF7EAFF18E01048844209D153
:104CB0000121C804FEF7E2FF00214FF40020FEF7B7
:104CC000DDFF0BE00A48844208D101210805FEF708
:104CD000D5FF00214FF48010FEF7D0FF10BD00007B
:104CE000003801400044004000480040004C0040B3
:104CF0000050004002460020B1F5007F00D100BF07
:104D000013880B400BB1012000E00020704770B504
:104D10000246002400230025002040F66A16B14216
:104D200000D100BFC1F3421501F01F03012606FAAE
:104D300003F3012D02D19689334006E0022D02D102
:104D4000168A334001E0968A33400C12012606FA97
:104D500004F41688344013B10CB1012000E00020A7
:104D600070BDF0B50346002400260025002040F663
:104D70006A17B94200D100BF1846C1F3421401F0CE
:104D80001F06012707FA06F5012C01D10C3004E0BB
:104D9000022C01D1103000E014301AB107682F4303
:104DA000076002E00768AF430760F0BD2DE9F047F8
:104DB00086B005460E460024A24600BFA146002745
:104DC000B08900B100BF2F462C8A4CF6FF7004401A
:104DD000F08804432C82AC894EF6F3100440B0886E
:104DE00031890843718908430443AC81AC8A4FF68A
:104DF000FF400440B0890443AC8201A8FEF76EFF77
:104E00001F48874202D1DDF810A001E0DDF80CA0B8
:104E1000A88900F4004040B10AEBCA0000EB0A1078
:104E200031684900B0FBF1F807E00AEBCA0000EB7B
:104E30000A1031688900B0FBF1F86420B8FBF0F08B
:104E400004012009642101FB1089A88900F40040B5
:104E500040B1322000EBC900B0FBF1F000F00700D8
:104E6000044308E0322000EB09106421B0FBF1F0AC
:104E700000F00F0004432C8106B0BDE8F08700006D
:104E80000038014001468888C0F308007047C1F32C
:104E900008028280704700004FF07C500349086090
:104EA000002088600248486070470000E00600204B
:104EB0000000204008B501210820FEF7EFFE012088
:104EC000ADF8000010208DF8030003208DF80200DB
:104ED00069460448FDF7FEFA01210248FDF7D7FBB9
:104EE00008BD0000000C014000BFFEE770B504469D
:104EF00000250021204601F0B7FF01D284F00044D4
:104F00000B49204602F0B0F800D2094C094920466E
:104F100001F0DEFF06464FF07E5102F0D6F805465E
:104F20000021284601F0A0FF00D20025284670BDD0
:104F30009A99193F4260D53F4FF07A50074908606F
:104F4000074888604FF0824048600648064908607C
:104F5000034888604FF08240486070470C0700208B
:104F60000AD7A33DCDCCCC3D00070020490050EA34
:104F7000C12018BF04204A0D18BF40F0010040F2C4
:104F8000FF72B2EB515F08BF40F00200012808BF7A
:104F9000052070474100080218BF04200A0E18BF00
:104FA00040F001004FF07F4232EA010108BF40F0BB
:104FB0000200012808BF0520704700002DE9F74FC7
:104FC000144694B00021C4E902111599079121F00B
:104FD0000045C9498D4206DC1599C4E9000117B0A6
:104FE0000020BDE8F08FC549DFF814A3A9423CDDDD
:104FF0000799C44E0029C44FC44A1599534619DD78
:1050000001F09EFC554506D0C14AC24B01F098FC08
:10501000C4E900010AE04FF0D352BE4B01F090FC0E
:1050200032463B4601F08CFCC4E9000117B0012078
:10503000BDE8F08F01F018F9554506D0B44AB54BDC
:1050400001F012F9C4E900010AE04FF0D352B14B6C
:1050500001F00AF932463B4601F006F9C4E90001C5
:1050600017B04FF0FF30BDE8F08FAB49A94215995A
:1050700078DB21F0004183468846A84AA84B01F01E
:1050800055FB0022A74B01F0EFF801F0F5FA09906B
:1050900001F021FB06460F469C4A534601F046FBB1
:1050A00043465A4601F040FC80468A46984A994B4E
:1050B0003046394601F03AFB2A0D01250B92424653
:1050C000534601F031FC032DC4E9000139D00B989F
:1050D000C1F30A51401A05EB45111139814230DA0A
:1050E0009148C346784400EB0510CDF80CA00C9015
:1050F000D0E900233046394601F018FB02460B4642
:10510000049106905846039901F01AFC80468A469D
:1051100002460B465846039901F012FC049B069A7E
:1051200001F00EFC83460C9803913946D0E9022326
:10513000304601F0FBFA5A46039B01F001FC6D1C5E
:10514000BDE707980028A2BF099817B0BDE8F08F07
:10515000616881F000416160099817B04042BDE884
:10516000F08FFFE784461598C1F31301C0F30A508E
:10517000A0F2F5304FEA601800F01F06C6F12000DB
:10518000139000200690079041F4801E05206D4684
:1051900076B1664A08EB00017A4452F8213002EBFE
:1051A0008101B3404A68139922FA01F1194305E0DD
:1051B0005F4908EB0002794451F82210A1FB0E2749
:1051C000A1FB0C131A449A4234BF0123002303EBC2
:1051D000070A05EB8003D3E901B70F448F4234BFC0
:1051E0000121002193448B4411B1934502D903E07E
:1051F000934501D2012100E00021C3E901B75144E8
:1052000045F82010011EA0F10100C1DC0298059FA5
:1052100000F10050800F12900298DDE903568000E3
:1052200001F059FA834628460D9101F06BFA6FF0B0
:105230001D0202F088F8CDE90E01304601F062FA55
:105240006FF03D0202F07FF880468A46384601F052
:1052500059FA6FF05D0202F076F80746424653466F
:10526000119101F001F8DDE90E2300F0FDFF5A462F
:105270000D9B00F0F9FF00250E465A4628460D9B6F
:1052800001F05EFBDDE90E2301F05AFB4246534676
:1052900001F056FB3A46119B01F046FBDFF898A05F
:1052A000244A534601F042FA07468846234A244BD3
:1052B0003146284601F03AFA3A46434600F0D4FF18
:1052C000074688464FF0A84253463146284601F02B
:1052D0002DFA3A46434600F0C7FF159A12F0004FE8
:1052E00004D0129A81F0004152421292C4E90001A6
:1052F000129817B0BDE8F08FFB21E93F7CD902403E
:10530000FB21F93F7370032E8A19A33B0000405420
:105310003163621A61B4D03DFB21394183C8C96D44
:10532000305FE43F0000E03F38330000B43200005B
:1053300096320000182D4454FB21F93D3326A61166
:10534000460B113C2DE9FF4D21F0004807460C4665
:10535000B8F1795F08DA01F08FF9002801BF002069
:10536000324904B0BDE8F08D3A462346104619464E
:1053700001F0DCF9054602462D480E460B46062193
:10538000784400F05DF82A46334601F0CFF9DDE9B4
:10539000022382468B463846214601F0C7F904466F
:1053A0000F4652465B462846314601F0BFF9224679
:1053B0003B4601F0C5FA07468A464FF0FF322846C1
:1053C000314601F0C0FF1B4A90450ADA3A4653467F
:1053D00001F0B6FA04B00022BDE8F04D134B01F025
:1053E000A3BA154A4245A8BFA8F500154FF000041E
:1053F000B8BF124D22462B4601F0A2FA0646884657
:1054000022462B460020094901F09AFA04460D462F
:105410003A4653463046414601F092FA04B02246DD
:105420002B46BDE8F04D01F07FBA00000000F03FD0
:10543000643000003333D33F0000E93F0000D23F27
:105440002DE9F0414F1E00EBC7010446D1E90001F0
:1054500015461E4637F006020DD02A46334601F0A7
:1054600065F97F1E04EBC703D3E9002300F0FCFEBF
:1054700037F00602F1D1022F25D0042F13D0062FCA
:1054800018BFBDE8F0812A46334601F04FF9D4E950
:105490000A2300F0E9FE2A46334601F047F9D4E931
:1054A000082300F0E1FE2A46334601F03FF9D4E933
:1054B000062300F0D9FE2A46334601F037F9D4E935
:1054C000042300F0D1FE2A46334601F02FF9D4E937
:1054D000022300F0C9FE2A46334601F027F9D4E939
:1054E0000023BDE8F04100F0BFBE00002DE9FF4DF4
:1054F000054621F0004084B00C46B0F1795F0BDA2C
:105500002846FFF733FD042808BF00F071F828464D
:1055100008B02146BDE8F08D2A460B46104601F042
:1055200005F906460F462A46234601F0FFF8804655
:1055300026488A4632463B4605217844FFF780FFDD
:1055400083461098029160B3214A224B404651464F
:1055500001F0ECF8CDE900015A4640465146029B65
:1055600001F0E4F882468846DDE906014FF0FF329B
:1055700001F0E9FE5246434601F0E2F932463B466D
:1055800001F0D4F8DDE9062301F0DAF9DDE90023C2
:1055900001F0D6F908B02A462346BDE8F04D01F0E7
:1055A000C3B90B465A463046394601F0BFF8084A9F
:1055B000084B00F059FE4246534601F0B7F808B0D8
:1055C0002A462346BDE8F04D00F04EBEAA2F00004B
:1055D000495555555555C5BF012201F0B4BE00F0DF
:1055E00043BE002213461046114600F0EDBE0000F7
:1055F000024A0020110701F0A6BE000001FDFFFFD6
:10560000012101F0CEBE01F0B1BA0021084601F03F
:1056100021BB6FF05E01080701F0C3BE30380A28D5
:1056200001D2012070470020704700002DE9F041B1
:1056300004464FF00E4000EB4400B0F1506F20469E
:1056400055D84FF0FC41B1EB440F1CD224F0004080
:105650004FF07E5101F039FD4FF0FF3101F0A1FE16
:10566000054600F003FD14F0004F1DBF2F4F304ED4
:1056700080F000402F4F08BF2F4E4FF0404101F007
:1056800027FC044605E000273E46014601F020FCC9
:1056900005462A49284601F01BFC294901F066FA13
:1056A000294601F015FC274901F060FA294601F06E
:1056B0000FFC254901F05AFA294601F009FC23495B
:1056C00001F054FA80462946204601F001FC41468B
:1056D00001F0FEFB05463146204601F047FA294617
:1056E00001F044FA3946BDE8F04101F03FBA4FF00D
:1056F000E441B1EB440F08D9FFF74CFC042808BF84
:10570000FFF787FF2046BDE8F0814FF07F41B1EB06
:10571000440F03D2BDE8F041FFF772BF0120FAF752
:1057200004FEBDE8F041FFF770BF00000000C9BFF4
:1057300022AAFDB90000C93F22AAFD3924FE1C3D62
:10574000C78AD83C1E67383D1B93993DAFAA2A3EB5
:105750002DE9F84F04460D4621F0004000917349B1
:10576000814211DC7249884201DC06D12CB120460D
:105770002946BDE8F84FFFF72FBF6E48002DCCBF7C
:105780006D496E49BDE8F88F6D49814211DD6D4963
:105790008142D8BF4FF0FF366DDD20462946FFF726
:1057A000E5FB042808BFFFF723FF20462946BDE894
:1057B000F88F6549654F25F00045814233DD644926
:1057C000814219DD002632464FF0804320462946AB
:1057D00000F04AFD80468A4601222046294601F013
:1057E000B2FD00223B4601F0ABF84246534600F0C2
:1057F000EBFD04460D463EE001260022BA463B463C
:105800002046294600F030FD80460F4600225346D0
:105810002046294601F094F842463B4600F0D4FD6C
:1058200004460D4627E04B4981421BDDDFF828A1E5
:105830000226002253462046294600F077FF002228
:105840003B4600F011FD80460F460022534620469D
:10585000294601F075F842463B4600F0B5FD044686
:105860000D4608E0032622462B4600203B4900F067
:10587000ABFD04460D4622462B461046194600F065
:1058800055FF8B46824602460B4600F04FFF074607
:105890000246334888460B4606217844FFF7D0FD80
:1058A00052465B4600F042FF82462E488B463A46FF
:1058B000434605217844FFF7C3FD3A46434600F0CE
:1058C00035FF02460B46002E504659460CDA00F0D2
:1058D000CBFC22462B4600F029FF01B022462B4686
:1058E000BDE8F04F01F020B800F0BEFC22462B4688
:1058F00000F01CFF1C4A7A4402EBC603D3E90023E4
:1059000001F01EF822462B4601F01AF8174A7A4495
:1059100002EBC603D3E9002301F006F8009A002A3F
:10592000B8BF81F00041BDE8F88F000000001044CE
:105930000000F07F182D4454FB21F93FFB21F9BFF3
:105940000000DC3F0000203E0000F33F0000F03F7D
:105950000000E63F008003400000F83F0000F0BF79
:105960001A2B0000D82A0000762A00003E2A0000E8
:105970002DE9F04D9446CCF1000423F000464CEAAA
:105980000404524F46EAD4749A46884621F00042F5
:10599000BC4206D8454240EA050442EAD474BC42FF
:1059A00004D9BDE8F04D6246FFF719BEAAF1405593
:1059B000A5F17F6555EA0C040BD0022404EAAA7411
:1059C000434DDFF810E144EAD87452EA000B04D0EA
:1059D0000CE0BDE8F04DFFF7BBBE002C14BF012C5E
:1059E000BDE8F08D022C30D0032C32D056EA0C0BDF
:1059F0000AD0BE4220D1BA4209D126F0804622F018
:105A000080423346114617E000291ADB25E0DFF813
:105A1000C8B0FB44002C04BFDBE90001BDE8F08DF9
:105A2000012C02BFDBE9000181F00041BDE8F08DEF
:105A3000022C0AD0032C0CD0BA4212D1B8F1000FBC
:105A40000BDA23482549BDE8F08D28462449BDE8F6
:105A5000F08D28467146BDE8F08D1D482149BDE80E
:105A6000F08D921B12153C2AC4BF19481D490EDC4B
:105A7000BAF1000FBEBF12F13C0F0020014606DB59
:105A8000624600F0A1FC21F00041FFF761FE002C0E
:105A900008BFBDE8F08D012C04BF81F00041BDE8D6
:105AA000F08D114A114B022C07D000F049FF2A4615
:105AB000BDE8F04D0A4B00F043BF00F041FF2A461D
:105AC000BDE8F04D064B00F02FBF00000000F07F56
:105AD000182D4454FB2109C0022A0000FB21F9BF04
