:020000040800F2
:10000000C009002079020008511D0008E919000804
:100010004D1D00084D180008453200080000000082
:100020000000000000000000000000001123000894
:1000300051180008000000009521000895240008D0
:10004000930200089302000893020008930200083C
:10005000930200089302000893020008930200082C
:10006000930200089302000893020008930200081C
:10007000930200089302000893020008930200080C
:1000800093020008930200089302000893020008FC
:1000900093020008930200089302000893020008EC
:1000A00093020008930200089302000893020008DC
:1000B000392700083128000893020008930200083D
:1000C00093020008930200089302000893020008BC
:1000D000930200089302000893020008292F0008E9
:1000E000930200089302000893020008930200089C
:1000F000930200089302000893020008930200088C
:10010000930200089302000893020008930200087B
:10011000930200089302000893020008930200086B
:10012000930200089302000893020008930200085B
:1001300000F002F800F090F80AA090E8000C824469
:100140008344AAF10107DA4501D100F085F8AFF246
:10015000090EBAE80F0013F0010F18BFFB1A43F0A5
:10016000010318470446000024460000103A24BF4B
:1001700078C878C1FAD8520724BF30C830C144BF0C
:1001800004680C607047000000230024002500264E
:10019000103A28BF78C1FBD8520728BF30C148BFEA
:1001A0000B6070476E2900F05981702900F09B8226
:1001B000662903F0F282652903F0EF82672903F0D4
:1001C000EC826129AFF3008003681B0A28BF41F06D
:1001D0008001692900F00681642900F003817529F6
:1001E00000F000816F2900F02982782900F06782F1
:1001F000E92900F0C381E42900F0C081F52900F06D
:10020000BD81EF2900F02682F82900F0668203689C
:10021000DB0928BF41F08001632900F0E8857329DC
:1002200000F0ED85E32900F0F885F32900F0FD8565
:10023000002070471FB500F04FFE04000020002191
:1002400003F03EF9401C60600020002103F022F919
:10025000E0601FBD10B510BD00F010FE1146FFF7A5
:10026000E9FF03F040F800F0E9FE03B4FFF7F2FF06
:1002700003BC00F029FF00000948804709480047F7
:10028000FEE7FEE7FEE7FEE7FEE7FEE7FEE7FEE746
:10029000FEE7FEE704480549054A064B70470000A3
:1002A0009924000831010008C0030020C009002083
:1002B000C0050020C00500201CB50C46064B7B4441
:1002C00069460090204600F0E2F8044600206946A6
:1002D00000F0F0F820461CBDF301000010B5431CEF
:1002E00002E010F8011B71B18107FAD14FF0013221
:1002F00002C88C1A8C4314EAC211F9D0C01A0A063B
:1003000003D0C01E10BDC01A10BD0A0401D0801E4B
:1003100010BD0902FCD0401E10BD704770477047E9
:1003200070B5044685690068C10601D5302600E035
:100330002026C00707D070BDD4E901213046904780
:10034000206A401C20626D1EF6D570BD70B5044653
:1003500085690078C00707D170BDD4E9012120204C
:100360009047206A401C20626D1EF6D570BD09685A
:100370004A0501D540B27047C905FCD500B27047A7
:1003800009684A0501D5C0B27047C905FCD580B2DD
:10039000704770B50C460546012A05D028788006BE
:1003A00000D5EA69002302E0012305E05B1C9342CB
:1003B00002D2E05C0028F9D1A869E618C01AA86149
:1003C000286A184428622846FFF7AAFF04E0D5E906
:1003D000012114F8010B9047B442F8D32846FFF7E7
:1003E000B5FF70BD2DE9F04106460024106875295F
:1003F000314616A510D0FFF7BAFF002802DA4042B6
:1004000013A507E031688A0701D512A502E0490764
:1004100004D511A5012401E0FFF7B2FF00210A2253
:1004200006F1240709E0B0FBF2FCB0FBF2F302FB9B
:100430001C00303078541846491C0028F3D123465C
:100440002A463046BDE8F04100F061BA00000000E5
:100450002D0000002B000000200000001168026841
:10046000006A530501D508700AE0D30501D508805C
:1004700006E0130603D5C217C1E9000200E00860D8
:100480000120704701694A1C02610878704700B575
:100490008FB0CDE901310021059105497944CDE9BD
:1004A00003101146684600F029F90FB000BD0000A6
:1004B000E5FFFFFF0A6802F8010B0A6070470000C1
:1004C0002DE9FF5F15468A460446DFF8AC80F84404
:1004D0000027D8E900103E46CDE9001010E03AF8B8
:1004E00016106A4602A800F0A4FC411C07D021782F
:1004F000890603D5E269391891420DD80744761C64
:100500002078800602D5E069B84205DDAE42E6DB20
:100510003AF816000028E2D1A069C01BA06120466D
:10052000FFF7FEFED8E90010CDE90010002017E02B
:100530003AF818106A4602A800F07BFCB0F1FF3FC1
:1005400081460BD000250DF1080B05E0D4E901210F
:100550001BF8050090476D1C4D45F7D308F10100CD
:10056000B0428046E4DB206A384420622046FFF730
:10057000EDFEBDE8FF9F0000B64100002DE9F0410F
:100580008046D21D22F007020025D2E90002F5299B
:1005900015A614D0011E72F1000106DA0023D0EB7B
:1005A000030063EB020211A608E0D8F800108B07E5
:1005B00001D50FA602E0490701D50EA60125114677
:1005C000002408F1240704E000F05CF930323A55C9
:1005D000641C50EA0102F7D12B46324621464046C0
:1005E000BDE8F04100F093B9000000002D000000CC
:1005F0002B0000002000000030B4002100F1240492
:1006000008E002F00705D208303542EA4372DB0801
:100610006554491C52EA0305F3D10468002310A273
:10062000250708D504F020040C4304D0C469012335
:100630000CA2641EC46130BC00F069B910B5044658
:1006400021461068FFF79CFE02462046BDE8104098
:100650000023D1E7D21D22F00701D1E90023CBE727
:100660000000000030000000F0B40D4601880905CC
:1006700002D5214C7C4402E01F4C7C440E34002106
:1006800000F1240608E002F00F071209E75D42EAD4
:1006900003721B097754491C52EA0307F3D102780D
:1006A0000023120704D5702D06D009B1022311349E
:1006B0002246F0BC00F02BB901231034F8E770B5E6
:1006C00004460D4621461068FFF75AFE02462946A9
:1006D0002046BDE870400023C6E7D21D22F0070384
:1006E000D3E90023C0E70368126843F020030360E6
:1006F0000823C3610023B7E7184000002DE9F05F2D
:10070000894604464FF0000ADFF874B1FB44C0F894
:1007100020A02046E1688847002874D0252806D00C
:10072000D4E901219047206A401C2062F1E70026AD
:100730005F462046E16888472028054607DB312DC3
:1007400005D2781910F8200C08B10643F1E7B0077C
:1007500001D526F00406C4F81CA00027C4F818A090
:100760002A2D09D0284602F083FD38B304EB870810
:10077000303DC8F8185019E059F8041B204604EB26
:1007800087029161E1688847012F054618D1E06929
:10079000002820DA26F020061DE0D8F8180000EB2B
:1007A000800005EB40003038C8F818002046E168AA
:1007B0008847054602F05CFD0028EED1012F0AD0E3
:1007C0002E2D08D12046E16888477F1C0546022F60
:1007D00046F02006C4DBA069002803DA404246F058
:1007E0000106A061F00701D026F010066C2D0BD099
:1007F000682D09D04C2D39D06A2D35D0742D35D0C7
:100800007A2D33D016E038E0E1682F46204688473D
:10081000B842054609D16C2F26D04FF48060E168BC
:10082000064320468847054604E06C2F1AD04FF453
:10083000807006430DB3A5F14100192802D8203578
:1008400046F400664A462946204626604E46FFF793
:10085000A9FC80B101280BD0F61D26F0070000F19D
:10086000080956E74020E4E78020D8E70020D6E7D3
:1008700006F104094DE7284652E7206ABDE8F09FDB
:10088000A83F000030B5B0F10A024FEA900E71F1B6
:1008900000034EEA817EB0EB0E0061EB91014FEA5E
:1008A000101E4EEA017E10EB0E0041EB11114FEAD3
:1008B000102E4EEA016E10EB0E0041EB11214FEAB3
:1008C000104E4EEA014E10EB0E0041EB1141401864
:1008D00041F100014FEAD00040EA41704FEAD101F6
:1008E00010EB80054FEA810444EA907444EB010464
:1008F0006D1944EB0404521BA3414FF0000348BFA1
:100900000A3200D530BD401C41F1000130BD2DE957
:10091000F0470D4699469246044600F124080168C6
:10092000880604D5E06921F01001216000E0012073
:10093000A84201DD471B00E00027A1697A1902EBFC
:100940000900081AA0612078C00602D42046FFF7EB
:10095000E7FC002608E0D4E901211AF806009047D8
:10096000206A401C761C20624E45F4DB2078C006CD
:100970000AD52046FFF7D4FC06E0D4E90121302057
:100980009047206A401C2062381EA7F10107F4DC62
:1009900007E0D4E9012118F805009047206A401CBF
:1009A0002062281EA5F10105F3DC2046FFF7CEFCEE
:1009B0002078000602D50220BDE8F0870120FBE781
:1009C00070472DE9FF4F0C461E464FF0FF378BB0A6
:1009D000D2E90001DDF860800A908A46C1F30A5529
:1009E00005B93D46002108464FF00000BAF1000F5E
:1009F00000F4400005DA00EB80004FF4400101EA0A
:100A000050004FEA9059B9F1010F00DDB9460A983C
:100A100050EA4A000ED044F61050A5F2FF35454387
:100A20002F14B8F1000F1ED07542291E1EDDC9F12A
:100A300000021CE0B8F1010F4FF0000001D030219E
:100A400003E0F24305E02154401CB042FBDB30469A
:100A50000022002121540B99C1F80880C1E900202F
:100A60000FB0BDE8F08FBD1B6D1CDEE74A4600DA13
:100A7000694206A800F074FA06AB93E8070003ABDE
:100A800083E8070050460A9900F025FB8DE807002F
:100A9000A0F500501F3800900398002D09DD42F2A8
:100AA0001F014A46084403A90390684600F084FDEC
:100AB00008E0A0F500504A461F3803A90390684695
:100AC00000F08EFD8DE807000004000C03D04FF00D
:100AD000FF30410800E01046B8F1000F03D00022BB
:100AE000009215461EE0751E05D4FFF7CBFE30328E
:100AF00062556D1EF9D5B3460122084302D000228B
:100B00007F1C04E02078302801D100227F1E002ABB
:100B1000099786D01DE0112D07DAFFF7B3FE3032BA
:100B200062556D1C50EA0102F5D1084302D00098CD
:100B3000C8B10EE00021681E05E0235C625C6354CE
:100B40002254401E491C8142F7DBAB46A81B401EC5
:100B50000990002004F80B000B98099AC0F808804F
:100B6000C0E9002B7CE711264FF0000859E72DE97A
:100B7000F04F88460446D21D22F0070191B0D1E91A
:100B80000001CDE90A0102F05FFB02460B98C00F9D
:100B900001D02D2007E02068810701D52B2002E03D
:100BA000202101EAC000032A099001D0072A05DBB1
:100BB00003464146204600F093F90BE12078800679
:100BC00001D5E06900E00620B8F1650F814606D046
:100BD000B8F1660F18D0B8F1670F70D131E000207E
:100BE000B9F1110F009001DB112301E009F10103BC
:100BF0000AAA01A90CA8FFF7E4FEDDE90C700026A3
:100C000009F10105834647E001204B4600904FF073
:100C100000470AAA01A90CA8FFF7D3FEDDE90DB031
:100C20000C995D46002610B909F101000D18B9EBC9
:100C3000050003D4C0F1FF3609F10105A5EB090059
:100C40002BE0B9F1010F01DA4FF001090020B9F1F1
:100C5000110F0090484601DD112300E003460AAA67
:100C600001A90CA8FFF7ADFEDDE90C704D4600268A
:100C70008346207800070AD4AB4500DA5D4601A818
:100C8000012D04DD411911F8011C302907D04F4511
:100C900002DA17F1040F04DA012082460FE06D1E1C
:100CA000EEE7002F02DCED1B3E4403E0781CA84277
:100CB00000DD7D1CB81B00F1010A4FF000472078D1
:100CC000000703D4AA4501DB4FF0FF3A0021B7F13A
:100CD000004F0DF143088DF8431024D002202B2340
:100CE000002F01DA7F422D230A21021EA0F101000C
:100CF00000DC5FB197FBF1FC97FBF1F201FB1C7C80
:100D000017460CF1300C08F801CDEEE7A8F1010010
:100D100003702188090501D5452100E06521A0F176
:100D2000010800F8011C09980FA9A1EB0807FF1D95
:100D300000B10120411901EBEA70A1693844081A99
:100D4000401EA0612078C00602D42046FFF7E8FAD2
:100D5000099828B1D4E901219047206A401C2062FB
:100D60002078C00622D52046FFF7DAFA1EE0002ED2
:100D700004DBB34502DD01A8805D00E03020D4E94A
:100D800001219047206A401C2062761CAAF10100D4
:100D90005FEA000A0AD100F09FF8C0680168405C71
:100DA000D4E901219047206A401C2062281EA5F149
:100DB0000105DCDC07E0D4E9012118F8010B9047BC
:100DC000206A401C2062381EA7F10107F3DC204690
:100DD000FFF7BCFA032011B043E610B5436913B125
:100DE000AFF3008001E0FFF7D4FA012010BD1278C4
:100DF00000F124010A7000224A700122EDE7116817
:100E00004FF0FF32E9E710B5436913B1AFF300804B
:100E100001E0FFF755FB012010BD128800F124010D
:100E200082840022C2840122EDE711684FF0FF3274
:100E3000E9E770B516460C46054600F045F803682C
:100E400093F80101012806D0FF2C0FD8185D68B176
:100E500001202C7070BDD3F807013246214603F201
:100E6000071303442846BDE8704018474FF0FF3091
:100E700070BD000000487047600300207546FFF712
:100E8000F9FFAE4605006946534620F00700854647
:100E900018B020B5FFF7FEF9BDE820404FF000067E
:100EA0004FF000074FF000084FF0000B21F0070152
:100EB000AC46ACE8C009ACE8C009ACE8C009ACE895
:100EC000C0098D467047000010B500F005F8001D00
:100ED00010BD00BFED2500000048704780030020D2
:100EE0002DE9F0411F46044603260168072A01F454
:100EF000006004DB08B116A505E016A503E008B103
:100F000015A500E015A521F010002060A069C01E05
:100F1000A0610FB1401EA0612046FFF701FA4FB15A
:100F2000D4E9012138469047206A401C2062C01C49
:100F3000206206E0206AFAE7D4E9012115F8010BE6
:100F40009047761EF8D22046FFF700FABDE8F08100
:100F50004E414E006E616E00494E4600696E66005D
:100F60002DE9F047814616468AB0334878440DC8CB
:100F70008DE80D0030487844801C03AC0DC884E82F
:100F80000D0041F69B300844372190FBF1F290FBB5
:100F9000F1F5A5F1800501FB12041B3C02D564426A
:100FA000012000E00020DFF890A080460027FA44EE
:100FB000AAF1BE0A0DE0E00709D03246684607EB09
:100FC00047010AEB810100F00BFB8DE8070064107C
:100FD0007F1C002CEFD1184F7F44AC3F18E0E8078E
:100FE00014D007EB04100DF1180A90E80E008AE8FF
:100FF0000E00C068F04201D198190890324606A947
:1010000003A800F0EDFA03AB83E807006D10641C41
:10101000002DE4D132466946B8F1000F03A802D092
:1010200000F0CAFA01E000F0DBFAC9E90001C9F8F2
:1010300008200AB0BDE8F087D83700000446AFF3B7
:1010400000802046FFF711F94FF0013C50F8042BC7
:1010500051F8043B9A4221D1A2EB0C03934313EACB
:10106000CC1317D150F8042B51F8043B9A4215D1F8
:10107000A2EB0C03934313EACC130BD150F8042BCF
:1010800051F8043B9A4209D1A2EB0C03934313EAB3
:10109000CC13DBD04FF00000704700BFD01A01BA6C
:1010A000B1FA81F101F0180122FA01F0CB40C1F14F
:1010B0002001DBB2C0B2C01A2CFA01F3D11A91435D
:1010C00011EAC311E6D1704701491820ABBEFEE713
:1010D0002600020070475FEA400C08BF91F0000F45
:1010E0004FEA8C234FEAC12243EA51514FEA1C5088
:1010F00018BF00F5F0404FEA300018BF41F0004142
:101100005FEA6C5C00F02980BCF1FF3F08BF40F053
:1011100080407047130C06BF12044FF0100C4FF0C4
:10112000000C130E04BF12020CF1080C130F04BFC5
:1011300012010CF1040C930F04BF92000CF1020C8D
:10114000D30F04BF52000CF1010C11464FF0000206
:10115000A0F11F00A0EB0C00704711F0004F08BF7A
:10116000704731F000413FF4D5AF0B0C06BF0904C6
:101170004FF0100C4FF0000C0B0E04BF09020CF1E5
:10118000080C0B0F04BF09010CF1040C8B0F04BFFA
:1011900089000CF1020CCB0F04BF49000CF1010CCB
:1011A000CCF12003A0EB0C0022FA03F302FA0CF2BC
:1011B00041EA030100F10100704720F07F4C80EA12
:1011C000030023F07F47ACEB070303F57C5300F0EB
:1011D000004003F1FF032DE980494FEA154B09B4A4
:1011E0004FEA144325EA0B4E24EA03480FF2042683
:1011F00006EB132749083E785FEA320203FB0667D5
:10120000C7F5000707FB06F64FEA54374FEAD64604
:1012100006F1020607FB066CCCF1005C4FEA1C47A6
:101220002CEA074C07FB06F40CFB06F504EB15460D
:101230004FEA961634BF00204FF000404FEAD137F6
:1012400006FB07FC4FEA1C4C0CFB0BF7D21B03FB05
:101250000CF761EB07010CFB0EF7B0EB074072EBEC
:1012600017420CFB08F734BFA2EB0742B2EB074270
:1012700061EB17414FEA0C444FEA910706FB07FC6C
:101280004FEA1C4C0CFB0BF7B0EBC74072EB57322C
:1012900003FB0CF734BFA2EBC742B2EBC74261EBD2
:1012A00057310CFB0EF7B0EBC70072EB57720CFB1B
:1012B00008F734BFA2EBC702B2EBC70261EB57716C
:1012C000039F4FEA816141EA921104EBCC044FEA9B
:1012D000D1374FEA826206FB07FC42EA90124FEADE
:1012E00080604FEA1C4C0CFB0BF7D21B03FB0CF786
:1012F00061EB07010CFB0EF7B0EB074072EB1742F6
:101300000CFB08F734BFA2EB0742B2EB074261EBDC
:1013100017414FEA8C554FEA910704EB9C2406FBDA
:1013200007FC4FEA1C4C0CFB0BF7B0EBC74072EB11
:10133000573203FB0CF734BFA2EBC742B2EBC742F4
:1013400061EB57310CFB0EF7B0EBC70072EB577235
:101350000CFB08F734BFA2EBC702B2EBC70261EB8C
:10136000577115EB4C254FEA816141EA92114FEA22
:1013700082624FEAD13742EA901206FB07FC44F141
:1013800000044FEA80604FEA1C4C0CFB0BF7D21BA9
:1013900003FB0CF761EB07010CFB0EF7B0EB07400A
:1013A00072EB17420CFB08F734BFA2EB0742B2EB1B
:1013B000074261EB174115EB1C154FEA813141EAF9
:1013C00092414FEA823242EA90424FEA80304FEA3D
:1013D0000C7644F1000448EA03434EEA0B484FF010
:1013E000000EB2EB080C71EB030724BF62463946CE
:1013F0004EEB0E0E4FF0000B0018524149414BEBE3
:101400000B0BB2EB080C71EB03077BF1000B24BF55
:10141000624639464EEB0E0E4FF0000B001852415B
:1014200049414BEB0B0BB2EB080C71EB03077BF163
:10143000000B24BF624639464EEB0E0E51EA0207FE
:1014400018BF46F0010616EB0E7655F1000254F176
:10145000000103D5BDE88901BDE80088BDE8890128
:10146000BDE80048B619524141EB0101A3F1010367
:10147000704780807F7E7D7C7B7A79787776767501
:101480007473727171706F6E6E6D6C6C6B6A6A6979
:101490006868676666656464636362616160605F13
:1014A0005F5E5E5D5D5C5C5B5B5A5A59595858578C
:1014B00057565655555554545353525252515150F4
:1014C00050504F4F4F4E4E4D4D4D4C4C4C4B4B4B47
:1014D0004A4A4A494949484848474747474646468D
:1014E00045454544444444434343434242424241C8
:1014F0004141002B26D4770021D01CB54FEA370795
:1015000003B44FF010004FF010014FF000000FBC7B
:10151000BDE810400BF1010BBBF1010F08BF5FEA02
:10152000170722BF12F1010211F101014FF0004132
:1015300043F1000300F0004043EA00007047F9D394
:101540005708DAE746EA064613F1400F4FEA164617
:101550001FDD13F1200FDFBF16430A4600212033A1
:101560005B42C8D0C3F1200746EA064602FA07F7F5
:101570004FEA164646EA0706C3F1200722FA03F2AD
:1015800001FA07F721FA03F14FF0000342EA0702DC
:10159000B1E746EA020646EA06464FEA164646EA3A
:1015A0000106BCBF46EA0646360C4FF000034FF07A
:1015B00000024FF000019EE72DE9C048934630B489
:1015C00091E8380007C831EA400C48BF34EA430CC0
:1015D00003D5FFF7F2FDFFF78CFFF0BCBDE80088F4
:1015E0002DE9C048934630B491E8380007C810F0A0
:1015F000804F08BF13F0804F03D100F005F8FFF7CC
:1016000078FFF0BCBDE8008820F07F4780EA030047
:1016100023F07F4C07EB0C03A3F57C5300F0004054
:10162000A3F1FE0392F0000F00F0B38095F0000FDD
:1016300000F077802DE901494FEA11404FEA144646
:1016400021EA004800FB06FC24EA064708FB06F6F0
:1016500007FB08F800FB07F718EB06484CEB164CA5
:101660004FEA124B18EB07484FEA15464CEB174070
:1016700022EA0B4E0BFB06FC25EA06470EFB06F69C
:1016800007FB0EFE0BFB07F71EEB064E4CEB164C52
:101690004FF000061EEB074E4CEB174B18EB0B08F8
:1016A00040F1000018EB0E0B58EB000840F1000071
:1016B0008F1A4FF000013CBFC943661B14BFB5EB46
:1016C000040C00213CBFC943F61B4FEA17444EEA05
:1016D0008E0E27EA04454FEA1C4704FB07622CEAFA
:1016E000074C05FB07F70CFB05F604FB0CFC16EB9F
:1016F000074642EB174216EB0C4642EB1C421BEB33
:10170000060658EB0202414146EA9E0601D5BDE8B5
:101710000189B619524141EB0101A3F10103BDE872
:1017200001894FEA14454FEA114724EA054621EAA8
:10173000074C05FB07F406FB07F70CFB06F105FB5E
:101740000CFC11EB074144EB17444FEA124711EB35
:101750000C4144EB1C4422EA074C05FB07F206FB54
:1017600007F70CFB06F605FB0CFC16EB074642EBF5
:10177000174216EB0C4642EB1C456A1854F1000167
:1017800048BF7047B619524141EB0101A3F1010373
:10179000704795F0000F37D04FEA11424FEA1447D7
:1017A00021EA024624EA074C02FB07F106FB07F791
:1017B0000CFB06F402FB0CFC14EB074441EB174155
:1017C0004FEA154714EB0C4441EB1C4125EA074C4A
:1017D00002FB07F506FB07F70CFB06F602FB0CFC09
:1017E00016EB074645EB174516EB0C4645EB1C423E
:1017F000121951F1000148BF7047B619524141EB2F
:101800000101A3F1010370474FEA14454FEA114764
:1018100024EA054621EA074C05FB07F106FB07F71A
:101820000CFB06F24FF0000605FB0CFC12EB074226
:1018300041EB174112EB0C4251EB1C4148BF704782
:10184000921841EB0101A3F10103704700BFFEE7CD
:1018500070472DE9FE438046894615461E46002105
:10186000701C0DF80010002D03DB20208DF8000007
:1018700003E06D422D208DF80000002413E0301BA2
:10188000401EC1B20A2001F07FFDB5FBF0F00A2135
:10189000B0FBF1F201FB120707F13000C1B2601C8E
:1018A0000DF80010C4B2B442E9DB6A46494640462E
:1018B00000F048FBBDE8FE832DE9F041024600251B
:1018C0000026002000230024002791F803C00CF01C
:1018D0000F0591F803C00CF0100CBCF1000F03D001
:1018E00091F802C04CEA050591F800C0BCF1000F68
:1018F00031D0146800202BE04FF0010C0CFA00F3FB
:10190000B1F800C00CEA03069E4220D183004FF0DC
:101910000F0C0CFA03F7BC4305FA03FC4CEA040471
:1019200091F803C0BCF1280F06D14FF0010C0CFA5E
:1019300000FCC2F814C00AE091F803C0BCF1480FE3
:1019400005D14FF0010C0CFA00FCC2F810C0401C8D
:101950000828D1D31460B1F800C0BCF1FF0F34DD0A
:10196000546800202EE000F1080C4FF0010808FA3E
:101970000CF3B1F800C00CEA03069E4221D18300AB
:101980004FF00F0C0CFA03F7BC4305FA03FC4CEACA
:10199000040491F803C0BCF1280F05D100F1080C34
:1019A00008FA0CF8C2F8148091F803C0BCF1480F93
:1019B00007D100F1080C4FF0010808FA0CF8C2F842
:1019C0001080401C0828CED35460BDE8F081024648
:1019D000002093680B400BB1012000E0002070470D
:1019E000416170470161704700BFFEE708B5012102
:1019F000082000F001FC4FF48060ADF800000320E7
:101A00008DF8020014208DF8030069460848FFF79E
:101A100053FF4FF40060ADF8000003208DF8020082
:101A200014208DF8030069460148FFF745FF08BD03
:101A3000000C014010B54FF480600C49086000F0C4
:101A4000EDF84FF400600949091F086000F0E6F85E
:101A50004FF480600549091F086000F0DFF84FF47B
:101A600080600249086000F0D9F810BD140C0140F4
:101A700070B50825002428021249086016E06006A7
:101A8000040E4FF480600F49091D086000F0C6F88D
:101A90004FF480600B49086000F0C0F8094808382E
:101AA000006800F4006008B144F001042800A5F1CA
:101AB0000101CDB2E3D14FF480600249091D0860F5
:101AC000204670BD100C014070B5044608251DE08D
:101AD0004FF480601249086000F0A0F804F0800024
:101AE00028B14FF400600E49091F086003E04FF46D
:101AF00000600B4908606006040E00F08FF84FF498
:101B000080600749091F086000F088F82800A5F1E7
:101B10000101CDB2DCD14FF480600149086070BD95
:101B2000140C014010B54FF40060154908604010D6
:101B3000086000F073F812480838006808B90120FE
:101B400000E0002000F4006008B1002010BD4FF458
:101B500000600B49091D086000F060F8084808386B
:101B6000006800F4006008B10020EFE74FF4006067
:101B70000349091D086000F051F80120E6E7000064
:101B8000100C014010B54FF480600C49086000F063
:101B900045F84FF400600949086000F03FF84FF441
:101BA00080600649091F086000F038F84FF40060B3
:101BB0000249091F086000F031F810BD140C014003
:101BC00010B54FF480601449086000F027F84FF416
:101BD00000601149091F086000F020F84FF4806090
:101BE0000D49091F086000F019F80B480C3800680F
:101BF00000F4006038B14FF480600749086000F0DD
:101C00000DF8002010BD4FF480600349086000F01B
:101C100005F80120F6E70000140C014010B50A2079
:101C200001F04DFB10BD10B500F044F800F0FEF8D7
:101C3000FFF7DCFEC82001F02DFB00F063F800F098
:101C40001BF801F0D5FA4FF4E13001F0D1FB472148
:101C500044F61F6000F086FE00F042FA01F048FBF7
:101C600001F07AFB4FF4A06000F0ACF8632140F281
:101C7000077000F0AFFD10BD10B50A213C2000F048
:101C8000BDFB04460CB9002010BD782200213C2089
:101C900000F0DCFB202201213C2000F0D7FB0022D9
:101CA00002213C2000F0D2FB642001F0F3FA012075
:101CB000EAE7000008B50121602000F09DFA0B2042
:101CC000ADF8000010208DF8030003208DF802000D
:101CD00069460A48FFF7F0FD0B210848FFF782FE2E
:101CE0004FF4A050ADF8000069460548FFF7E4FD49
:101CF0004FF4A0510248FFF775FE08BD00140140E3
:101D00000018014010B57521D02000F077FB044683
:101D10000CB9002010BD00226B21D02000F096FBF2
:101D200007221921D02000F091FB03221A21D02094
:101D300000F08CFB10221B21D02000F087FB092231
:101D40001C21D02000F082FB0120E3E700BFFEE76A
:101D50007047000070B5002100230F22C47804B33F
:101D6000154C246804F4E064C4F5E064210AC1F170
:101D70000403CA40447804FA03F1847814402143F0
:101D800009010E4C0678A155047804F01F050124C2
:101D9000AC4005786D11AD0005F1E025C5F80041B6
:101DA00009E0047804F01F050124AC40044D0678D6
:101DB000761145F8264070BD0CED00E000E400E02F
:101DC00080E100E002490143024A116070470000CF
:101DD0000000FA050CED00E007E040F2375100BFCB
:101DE0000A00A1F10101FBD1401E0028F5D1704786
:101DF00070B50646002415E004F1B001C8B200F049
:101E000015F9012000F012F9102000F00FF900255B
:101E100004E0304600F036F9681CC5B2802DF8DBCE
:101E2000601CC4B2082CE7DB70BD000008B50121BE
:101E3000102000F0E1F90F20ADF8000003208DF82C
:101E4000020010208DF8030069463D48FFF734FD7D
:101E500008213B48FFF7C6FD02213948FFF7C0FDC6
:101E60003220FFF7B9FF02213548FFF7BBFD002103
:101E7000AE2000F0ABF80021D52000F0A7F800213B
:101E8000802000F0A3F80021A82000F09FF8002196
:101E90003F2000F09BF80021D32000F097F80021AC
:101EA000084600F093F80021402000F08FF8002150
:101EB0008D2000F08BF80021142000F087F800211D
:101EC000202000F083F80021022000F07FF800219C
:101ED000A12000F07BF80021C82000F077F8002155
:101EE000DA2000F073F80021122000F06FF80021D2
:101EF000812000F06BF80021EF2000F067F800214E
:101F0000D92000F063F80021F12000F05FF80021F3
:101F1000DB2000F05BF80021402000F057F80021A2
:101F2000A42000F053F80021A62000F04FF8002173
:101F3000AF2000F04BF80020FFF75AFF08BD00006B
:101F4000001001402DE9F0470446884615464FF041
:101F50000009002600274146204600F025F81CE035
:101F6000E85D203800F0FF097E2C04DD002408F134
:101F7000010000F0FF08002609E009EB4901094AC9
:101F800002EB4101885D00F07DF8701CC6B2062EA0
:101F9000F3DBA01DC4B2781CC7B2E85D0028DFD116
:101FA000BDE8F0879E37000870B504460D4605F180
:101FB000B001C8B200F03AF8102141EA141000F064
:101FC00035F804F00F0000F031F870BD70B504462C
:101FD0000E4626B101211448FFF704FD03E001215C
:101FE0001148FFF7FDFC002517E008210E48FFF718
:101FF000F7FC04F0800020B104210B48FFF7F2FC4D
:1020000003E004210848FFF7EBFC08210648FFF72E
:10201000E9FC6006040E681CC5B2082DE5DB012151
:102020000148FFF7DFFC70BD0010014070B50446A9
:10203000082501211248FFF7D3FC08211048FFF7BB
:10204000CFFC00BF16E004F0800020B104210C4852
:10205000FFF7C8FC03E004210948FFF7C1FC082191
:102060000748FFF7BFFC00BF08210548FFF7B8FC91
:102070006006040E2800A5F10101CDB2E3D170BDC8
:102080000010014070B50446082501211348FFF7F0
:10209000A9FC00BF08211148FFF7A2FC00BF16E011
:1020A00004F0800020B104210C48FFF79BFC03E002
:1020B00004210A48FFF794FC08210848FFF792FC26
:1020C00000BF08210548FFF78BFC6006040E2800BE
:1020D000A5F10101CDB2E3D170BD000000100140B7
:1020E00000B589B01D208DF8040000208DF8050092
:1020F00002208DF8060001208DF8070001A8FFF7E7
:1021000029FE0121022000F057F80121082000F0EB
:1021100073F80220ADF8200018208DF8230003206A
:102120008DF8220008A91948FFF7C6FB4720ADF833
:1021300014000020ADF816004FF6FF70ADF818003F
:102140000020ADF81A0005A9114800F09BFE0C20F4
:10215000ADF808000020ADF80A000120ADF80C0031
:102160000020ADF80E000120ADF8100002A90848CB
:1021700000F08AFC01221021054800F0DBFC01215F
:10218000034800F060FC09B000BD0000000C0140F5
:10219000000400407047000029B1064A526902431A
:1021A000044B5A6104E0034A52698243014B5A616D
:1021B000704700000010024029B1064AD26902436C
:1021C000044BDA6104E0034AD2698243014BDA61CD
:1021D000704700000010024029B1064A126902430C
:1021E000044B1A6104E0034A12698243014B1A61ED
:1021F000704700000010024029B1064A926902436C
:10220000044B9A6104E0034A92698243014B9A614C
:10221000704700000010024029B1064AD26802430C
:10222000044BDA6004E0034AD2688243014BDA606F
:10223000704700000010024030B500210022002449
:1022400000232D4D6D6805F00C0121B1042905D046
:10225000082923D105E0294D056022E0284D0560BD
:102260001FE0254D6D6805F47012234D6D6805F46F
:102270008034022505EB92421CB9224D554305607E
:102280000BE01D4D6D6805F400351DB11B4D554328
:10229000056002E01A4D5543056002E0174D0560E8
:1022A00000BF00BF144D6D6805F0F0010909164D1F
:1022B0006B5C0568DD4045600F4D6D6805F4E061BD
:1022C000090A114D6B5C4568DD4085600A4D6D68FB
:1022D00005F46051C90A0C4D6B5C4568DD40C56072
:1022E000054D6D6805F44041890B084D6B5CC56870
:1022F000B5FBF3F5056130BD0010024000127A0015
:102300000024F40000093D002800002038000020CF
:10231000704710B500F002F810BD00000CB50020A9
:10232000019000903348006840F4803031490860E3
:1023300000BF3048006800F4003000900198401C55
:102340000190009818B90198B0F5A06FF1D1294813
:10235000006800F4003010B10120009001E000207E
:1023600000900098012843D12348006840F01000F5
:10237000214908600846006820F00300086008460C
:10238000006840F0020008601A4840681949486037
:102390000846406848600846406840F480604860ED
:1023A0000846406820F47C1048600846406840F4C5
:1023B000F81048600846006840F08070086000BF70
:1023C0000C48006800F000700028F9D00948406807
:1023D00020F00300074948600846406840F00200CA
:1023E000486000BF0348406800F00C000828F9D19D
:1023F0000CBD0000001002400020024070B50446F1
:102400000D46FFF78FFB08B9002070BD2046FFF78F
:102410005BFBFFF7D5FB18B9FFF7B4FB0020F4E72F
:102420002846FFF751FBFFF7CBFBFFF77BFB611C57
:10243000C8B2FFF749FBFFF7C3FBFFF719FB0646DE
:10244000FFF7F8FAFFF79EFB3046DEE770B5064669
:102450000C461546FFF766FB08B9002070BD3046F4
:10246000FFF732FBFFF7ACFB18B9FFF78BFB00203F
:10247000F4E72046FFF728FBFFF7A2FB2846FFF70B
:1024800023FBFFF79DFBFFF77DFB052000F002FF1C
:102490000120E3E77047000010B51348006840F0E2
:1024A00001001149086008464068104908400E497B
:1024B0004860084600680E4908400B490860084615
:1024C000006820F4802008600846406820F4FE0080
:1024D00048604FF41F008860FFF71BFF4FF000605B
:1024E0000449086010BD0000001002400000FFF821
:1024F000FFFFF6FE08ED00E0F0B50C4615460022A1
:102500000021068C4FF6FE773E400684028B018C3C
:102510004FF60C7632407E1C06EA03162E433243F9
:10252000104EB0420ED0104EB0420BD0B0F1804FE2
:1025300008D00E4EB04205D00D4EB04202D00D4E26
:10254000B04206D14FF6FD76314044F001063143EA
:1025500005E04FF6F576314044F001063143028341
:102560000184F0BD002C0140003401400004004013
:1025700000080040000C0040F0B50C461546002253
:1025800000210026078C4FF6EF7C07EA0C07078432
:10259000028B018C4FF6FF7707EA041640F6FF47DF
:1025A0003A404FF6FF7707EA03373A434FF6FF7793
:1025B00007EA05273A43114FB8420ED0104FB842F0
:1025C0000BD0B0F1804F08D00E4FB84205D00E4F5F
:1025D000B84202D00D4FB84206D14FF6DF773940EE
:1025E00046F01007394305E04FF65F77394044F075
:1025F0001007394302830184F0BD0000002C014024
:10260000003401400004004000080040000C00407D
:10261000F0B50C461546002200210026078C4FF627
:10262000FF6C07EA0C070784828B018C4FF6FF775B
:1026300007EA04264FF60C773A404FF6FF7707EA91
:1026400003172F433A43114FB8420ED0104FB842F0
:102650000BD0B0F1804F08D00E4FB84205D00E4FCE
:10266000B84202D00D4FB84206D14FF6FF5739405D
:1026700046F48077394305E04FF2FF57394044F480
:102680008077394382830184F0BD0000002C014033
:10269000003401400004004000080040000C0040ED
:1026A000F0B50C461546002200210026078C4EF698
:1026B000FF7C07EA0C070784828B018C4FF6FF77BB
:1026C00007EA043640F6FF473A404FF6FF7707EA3D
:1026D00005273A434FF6FF7707EA03373A43114F8E
:1026E000B8420ED0104FB8420BD0B0F1804F08D096
:1026F0000E4FB84205D00E4FB84202D00D4FB8422F
:1027000006D14DF6FF77394046F48057394305E04E
:1027100047F6FF57394044F4805739438283018498
:10272000F0BD0000002C01400034014000040040D6
:1027300000080040000C004010B520480088012827
:1027400004D11F480088401C1D4908801C4800888F
:10275000282816DD1B48008840F4004019490880ED
:1027600000201649088016490880174800F018FE16
:102770004FF4C8720021144800F081FD0020114977
:10278000088012480078401C1049087008460078FC
:1027900032280ED10020087000F044FD0C4800687B
:1027A00000F006FF04460423224602211620FFF70C
:1027B00050F80121880700F043F910BD1E000020E9
:1027C000200000201C000020D0010020000000207C
:1027D000040000207FB505460C4601210846FFF79E
:1027E000EBFCADF80850ADF804400020ADF8060051
:1027F000ADF80A0001A94FF0804000F043FB012230
:102800001146900700F096F90121880700F01BF9A6
:102810001C208DF8000001208DF8010003208DF8A8
:10282000020001208DF803006846FFF793FA7FBD90
:1028300070B51021404800F016F900287AD0102118
:102840003D4800F0FDF802213C48FFF7C0F80128A0
:1028500009D10221384800F0C5FA374800F0FFF8E6
:102860003749088066E00021334800F0BBFA32485F
:1028700000F0F5F83349088031480088098888421B
:102880000ADD2F4800884FF6FF71081A2D49098884
:1028900008442D49088006E02A480088284909880C
:1028A000401A294908802848008844F62061884257
:1028B00004DD264800882449088003E02248008877
:1028C000224908802048008800EB00104000C82101
:1028D00090FBF1F4204600F087FE1D4908600120BE
:1028E0001C4908701C4801681948006800F0E0FEA7
:1028F000054600F05DFE041E01DB204600E060425C
:10290000B0F5FA7F07DB1448006811490860002021
:102910001249087002E00120104908700E48016851
:102920000B48006800F0C4FE0D49086008480068C4
:102930000949086070BD000000040040000C01401F
:1029400014000020120000201600002018000020B3
:1029500004000020110000200C00002010000020C6
:102960000800002030B589B004460D46012104203E
:10297000FFF722FC01210820FFF73EFC4FF47070A6
:10298000ADF8200018208DF8230003208DF82200D8
:1029900008A92348FEF790FFA8B2ADF81400002064
:1029A000ADF81600A0B2ADF818000020ADF81A007E
:1029B00005A91C4800F066FA6020ADF8040001206B
:1029C000ADF806000020ADF80C0001A9154800F094
:1029D000BBF801A9134800F00DF901A9114800F056
:1029E00069F901A90F4800F0BFF908210D4800F06E
:1029F000F7F808210B4800F04FF90821094800F0CA
:102A0000A9F90821074800F0FAF90121054800F06A
:102A10000BF80121034800F016F809B030BD0000A2
:102A2000000C01400008004021B1028842F0800201
:102A3000028004E002884FF67F731A4002807047DC
:102A4000CA430282704721B1028842F0010202802B
:102A500004E002884FF6FE731A4002807047014678
:102A6000B1F84000704730B5024600200023002432
:102A7000158A05EA0103958905EA010413B10CB131
:102A8000012000E0002030BD70B505460C4624480A
:102A900085420ED0234885420BD0B5F1804F08D037
:102AA0002148854205D02148854202D020488542F0
:102AB00000D100E000BF208850B92389A288618836
:102AC0002846FFF719FDE188284600F0AEF925E019
:102AD000208804280AD12389A28861882846FFF724
:102AE0004BFDE188284600F0A9F917E02088082866
:102AF0000AD12389A28861882846FFF789FDE188E9
:102B0000284600F0A8F909E02389A28861882846B0
:102B1000FFF7C6FDE188284600F0A6F970BD000069
:102B2000002C014000340140000400400008004037
:102B3000000C00401AB183890B43838102E0838932
:102B40008B4383817047000070B50024002200236E
:102B5000058C4FF6FE7635400584028C8388048B05
:102B60004FF68F752C40B51E2C400D882C43751EDA
:102B70002A400D892A434D882A43144DA8420BD080
:102B8000134DA84208D0134DA84205D0124DA842BB
:102B900002D0124DA84213D14FF6F7752A404D8945
:102BA0002A434FF6FB752A408D882A434FF6FF656E
:102BB0002B404FF6FF552B408D892B43CD892B435E
:102BC00083800483CD888586028470BD002C0140FB
:102BD00000340140004001400044014000480140F1
:102BE0000A460021018B4FF6F77319401143018308
:102BF0007047000070B5002400220023058C4FF6BA
:102C0000EF7635400584028C8388048B48F6FF7587
:102C10002C404FF6FF452C400D884FF6FF7606EA14
:102C200005252C434FF6DF752A400D8906EA051568
:102C30002A434D8806EA05152A43154DA84202D0BD
:102C4000144DA8421DD14FF67F752A404D894FF68D
:102C5000FF7606EA05152A434FF6BF752A408D8890
:102C600006EA05152A434FF6FF352B404FF2FF7554
:102C70002B408D8906EA85052B43CD8906EA85051B
:102C80002B4383800483CD880587028470BD0000B8
:102C9000002C0140003401400A460021018B4FF214
:102CA000FF7319404FF6FF7303EA022319430183B0
:102CB0007047000070B5002400220023058C4FF6F9
:102CC000FF6635400584028C8388848B4FF68F75B0
:102CD0002C404FF6FC752C400D882C434FF6FF55C9
:102CE0002A400D894FF6FF7606EA05252A434D88CE
:102CF00006EA05252A43154DA84202D0144DA842E4
:102D00001DD14FF2FF752A404D894FF6FF7606EA36
:102D100005252A434FF6FF352A408D8806EA05250A
:102D20002A434EF6FF752B404DF6FF752B408D89DB
:102D300006EA05152B43CD8906EA05152B4383804A
:102D40008483CD888587028470BD0000002C0140FB
:102D5000003401400A460021818B4FF6F773194079
:102D6000114381837047000070B5002200230024C6
:102D7000058C4EF6FF7635400584038C8488828B63
:102D800048F6FF752A404FF6FF452A400D884FF65A
:102D9000FF7606EA05252A434DF6FF752B400D897F
:102DA00006EA05352B434D8806EA05352B430B4DC6
:102DB000A84202D00A4DA84208D14BF6FF752C401C
:102DC0008D894FF6FF7606EA85152C438480828331
:102DD000CD88A0F84050038470BD0000002C014055
:102DE000003401400A460021018C4DF6FF73194062
:102DF0004FF6FF7303EA02331943018470470A4612
:102E00000021818B4FF2FF7319404FF6FF7303EAE5
:102E10000223194381837047818670470187704779
:102E200081877047A0F840107047028B4FF6F3730C
:102E30001A400283028B0A4302837047028B4FF2CF
:102E4000FF331A400283028B4FF6FF7303EA01231C
:102E50001A4302837047828B4FF6F3731A408283C2
:102E6000828B0A4382837047828B4FF2FF331A4072
:102E70008283828B4FF6FF7303EA01231A43828316
:102E800070470000002202881D4B98420ED01D4B57
:102E900098420BD0B0F1804F08D01B4B984205D020
:102EA0001A4B984202D01A4B984204D14FF68F73B6
:102EB0001A404B881A43174B984207D0164B98423A
:102EC00004D04FF6FF431A40CB881A4302808B8808
:102ED00083850B8803850A4B98420BD0094B984297
:102EE00008D00E4B984205D00D4B984202D00D4BA6
:102EF000984201D10B7A0386012383827047000038
:102F0000002C014000340140000400400008004053
:102F1000000C004000100040001400400040014040
:102F2000004401400048014010B540F225511548C9
:102F300000F099F828B3134800F050F9C4B21248D1
:102F4000008800F40040E0B90F480088B0F5C87F61
:102F500011DA00200D4908800B48008810B90120C3
:102F60000B490880084801880088401C064A1080E8
:102F70000848445405E00448008840F400400249F1
:102F8000088010BD004800401C00002020000020E8
:102F90001E000020D001002021B1828942F400529D
:102FA000828104E082894DF6FF731A408281704766
:102FB00010B504462048844209D101218803FFF757
:102FC0002BF900214FF48040FFF726F932E01B482F
:102FD000844209D101214804FFF7FEF800214FF493
:102FE0000030FFF7F9F825E01548844209D10121A6
:102FF0008804FFF7F1F800214FF48020FFF7ECF888
:1030000018E01048844209D10121C804FFF7E4F810
:1030100000214FF40020FFF7DFF80BE00A4884425C
:1030200008D101210805FFF7D7F800214FF48010DF
:10303000FFF7D2F810BD0000003801400044004006
:1030400000480040004C0040005000400246002074
:10305000B1F5007F00D100BF13880B400BB10120F8
:1030600000E00020704770B50246002400230025D0
:10307000002040F66A16B14200D100BFC1F34215EC
:1030800001F01F03012606FA03F3012D02D19689F0
:10309000334006E0022D02D1168A334001E0968AC1
:1030A00033400C12012606FA04F41688344013B19A
:1030B0000CB1012000E0002070BDF0B503460024F3
:1030C00000260025002040F66A17B94200D100BF53
:1030D0001846C1F3421401F01F06012707FA06F54E
:1030E000012C01D10C3004E0022C01D1103000E0A1
:1030F00014301AB107682F43076002E00768AF4336
:103100000760F0BD2DE9F04786B005460E46002465
:10311000A24600BFA1460027B08900B100BF2F46DC
:103120002C8A4CF6FF700440F08804432C82AC8952
:103130004EF6F3100440B088318908437189084382
:103140000443AC81AC8A4FF6FF400440B08904438D
:10315000AC8201A8FFF770F81F48874202D1DDF862
:1031600010A001E0DDF80CA0A88900F4004040B1F7
:103170000AEBCA0000EB0A1031684900B0FBF1F815
:1031800007E00AEBCA0000EB0A1031688900B0FBC7
:10319000F1F86420B8FBF0F004012009642101FB80
:1031A0001089A88900F4004040B1322000EBC9002A
:1031B000B0FBF1F000F00700044308E0322000EB20
:1031C00009106421B0FBF1F000F00F0004432C81E2
:1031D00006B0BDE8F087000000380140014688884D
:1031E000C0F308007047C1F30802828070470000F6
:1031F00008B501210820FEF7FFFF0120ADF800000F
:1032000010208DF8030003208DF802006946044861
:10321000FEF752FB01210248FEF7E2FB08BD000069
:10322000000C014010B501210548FEF7DBFB14201E
:1032300000F045F801210248FEF7D2FB10BD000066
:10324000000C014000BFFEE7490050EAC12018BF52
:1032500004204A0D18BF40F0010040F2FF72B2EBAB
:10326000515F08BF40F00200012808BF05207047E9
:1032700030380A2801D2012070470020704710B56D
:103280000346002000BF02E01954441CA0B2904243
:10329000FADB10BD42F2283141434FF0E022516188
:1032A0000121116100BF4FF0E021096901F4803173
:1032B0000029F8D000214FF0E0221161704700EBA7
:1032C000C0014FF0E02251610121116100BF4FF0B8
:1032D000E021096901F480310029F8D000214FF084
:1032E000E02211617047FEF79EFC00BFFEE7000080
:1032F00010B540F2CF711748FFF78EFD40F2CF7145
:103300001448FFF78BFD40F2CF711248FFF788FD9C
:1033100040F2CF710F48FFF785FD4FF47A70FFF749
:10332000B9FF40F2E7310B48FFF776FD40F2E73195
:103330000848FFF773FD40F2E7310648FFF770FDDC
:1033400040F2E7310348FFF76DFD6420FFF7A2FF6D
:1033500010BD00000008004010B540F2E7310948F8
:10336000FFF75AFD40F2E7310648FFF757FD40F2FC
:10337000E7310448FFF754FD40F2E7310148FFF719
:1033800051FD10BD0008004010B50246012000E0CC
:1033900050430B00A1F10104E1B2F9D110BD0000CE
:1033A0000FB438B505A800900F48009A0499FCF7AF
:1033B00083FF002000900C48FCF790FF85B20024AA
:1033C0000DE000BF40210948FFF740FE0028F9D07A
:1033D0000548015D0548FFF706FF601C84B2AC425A
:1033E000EFDB38BC5DF814FB4000002000480040D3
:1033F00010B586B004462448FFF7DAFD01214020CD
:10340000FEF7CAFE01218804FEF7D6FE4FF42060C5
:10341000ADF8100018208DF8130003208DF812006D
:1034200004A91A48FEF748FA00940020ADF80400F9
:10343000ADF80600ADF80800ADF80C000C20ADF8B2
:103440000A0069461048FFF75DFE012240F225514F
:103450000D48FFF732FE01210B48FFF79DFD2720A5
:103460008DF8140000208DF8150003208DF816004B
:1034700001208DF8170005A8FEF76CFC0020044918
:10348000088006B010BD0000004800400018014050
:103490001C00002010B500290AD00878002807D0A9
:1034A00005487844FDF7D0FD002801D0002010BD6C
:1034B0000248784410BD0000E6120000DE12000051
:1034C00010B500290AD00878002807D005487844AC
:1034D000FDF7BAFD002801D0002010BD0248784455
:1034E00010BD0000D6120000CE12000090EA010FBD
:1034F00048BF81F0004100F1E280421A3CBF801ACF
:1035000089184FEAD0524FF07F4C1CEA410FA2EBD2
:10351000D15318BF9CEA026F00F03B804FF0004C83
:103520004CEA00204CEA012121FA03FC10EB0C0CC0
:103530001ED202F1FF325FEA1C2040EBC25038BFBE
:1035400070471CF07F0F4FEA400C18BFBCF17F4F53
:1035500038BF7047C3F12003994008BF20F0010035
:10356000BCF17F4F38BF7047A0F1C04000F09AB85F
:103570004FEA3C00000A40EBC25028BF1CF0FF0F8E
:103580004FEA400CE6D018BFBCF17F4F38BF704700
:10359000EAE79CEA026F05D010EA5C0F08BF00F072
:1035A0000040704710B500F037F800BF64FBBE3E26
:1035B00041000B0ED3F19E0208D950F400034FEAEC
:1035C000032323FA02F048BF4042704710B500F0D1
:1035D00023F800BF49922480002070476FF000421A
:1035E00082EA20007047000010F0004148BF4042CE
:1035F000B0FA80F310FA03F2C3F19D030BD051EA45
:10360000C35101EB1220530638BF704700F101008F
:1036100008BF20F0010070470EF1020E2EF0030EDD
:103620005EF8044B244204D44FEA4102B2F17F4FCA
:1036300011D84FEA4003B3F17F4F0CD80ED14FEAB7
:10364000D07CB2F17F4F0CEB4C0C0CF1020C08BF9C
:103650004CEBD17C04E04FF0080C01E04FEAD17C48
:103660000CEB4C0324FA03F404F00704B4F1040C4B
:1036700006D20EEB840CBDE810404CF0010C604704
:10368000DFE80CF0070802024FF00040A0F58000D0
:1036900010BD0846420018BFD2F1807288BF00F00A
:1036A000004010BDFF2141EAD050C0057047000026
:1036B00090EA010F48BF81F000413FF51EAF421A6A
:1036C00004D882F00042A0EB020011444FEAD0522D
:1036D0004FF07F4C1CEA410FA2EBD15318BF9CEA7C
:1036E000026F4AD04FF0004C4CEA00204CEA012116
:1036F00021FA03FCB0EB0C0C0FD412F0FE0F36D005
:103700005FEA4C001DD5001240EBC25038BF704735
:103710001CF03F0F18BF70470BE0A2F101025FEAF7
:103720001C2040EBC25038BF70471CF07F0F18BF01
:103730007047C3F12003994014BF401E20F00100E0
:10374000704780084FEA122308BF7047B0FA80FC28
:10375000A2EB0C02CCF1280C60FA0CF093EA122FC9
:1037600004BF00EBC25070474FEAC3707047130AA2
:103770005FEADC1008BF7047F6E79CEA026F04D0EE
:1037800010EA5C0F08BF0020704710B5FFF744FF38
:1037900040DFF63E81F000407047FDF7E8B90000D9
:1037A000000000000000002F0000000007000700DC
:1037B00000147F147F1400242A7F2A1200626408F8
:1037C0001323003649552250000005030000000075
:1037D0001C224100000041221C000014083E081475
:1037E0000008083E0808000000A06000080808085B
:1037F0000808000060600000002010080402003E7D
:103800005149453E0000427F400000426151494617
:10381000002141454B31001814127F100027454507
:103820004539003C4A494930000171090503003619
:103830004949493600064949291E0000363600002C
:10384000000056360000081C2A4908080014141409
:1038500014140808492A1C08000201510906003204
:103860004959513E007C1211127C007F494949366A
:10387000003E41414122007F4141221C007F4949D5
:103880004941007F09090901003E4149497A007F09
:103890000808087F0000417F4100002040413F01AF
:1038A000007F08142241007F40404040007F020C0E
:1038B000027F007F0408107F003E4141413E007FAF
:1038C00009090906003E4151215E007F0919294678
:1038D0000046494949310001017F0101003F404054
:1038E000403F001F2040201F003F4038403F006302
:1038F0001408146300070870080700615149454324
:1039000000007F41410000552A552A5500004141E1
:103910007F000402FF020400002040FF402000005E
:1039200001020400002054545478007F4844443875
:1039300000384444442000384444487F00385454FC
:10394000541800087E0901020018A4A4A47C007F7A
:10395000080404780000447D4000004080847D001D
:10396000007F102844000000417F4000007C0418C4
:103970000478007C0804047800384444443800FC8F
:10398000242424180018242418FC007C08040408AB
:1039900000485454542000043F444020003C404020
:1039A000207C001C2040201C003C4030403C004457
:1039B00028102844001CA0A0A07C004464544C445F
:1039C000141414141414BAE3CDD8BFC6BCBCB5E7A4
:1039D000B5F7D0A3D7BCC7EBBDABB7C9D0D0C6F73E
:1039E000D6C3D3DACBAEC6BDD7B4CCACC7D2B1A3A5
:1039F000B3D6BEB2D6B900E000FF102002F2929218
:103A0000929292F2020000FF0000404F444444446E
:103A1000444F401010FF1090040484E49C8484847C
:103A20000444827F01040201FF40404040FF002423
:103A3000A4FEA3220022CC0000FF0000000601FF2C
:103A400000010404040404FF0202021010FF10909D
:103A500008888888FF8888880844827F01808040A1
:103A6000432C102846818000F888888888FF888841
:103A70008888F80000001F080808087F8888888860
:103A80009F80F042CC0000FE829292FE929282FED3
:103A900000003F10887F001E1212125E807F00100F
:103AA000D0FF9010804828090E082848880300FF9E
:103AB00000018080432C102C438080020CE04020C9
:103AC000F84F4849FE48484808047F000000FF229C
:103AD00022223F2222222042CC0000445454547F10
:103AE0005454544440007F201000FF15151555957F
:103AF0007F0000083000FF008884532212CA0600AD
:103B000000040201FF00020A1242827F0202020246
:103B100002020202020202FE40A0100800000000A1
:103B20000000000000030C102142F01088C4330094
:103B300040424242C2424242400100FF00000000B7
:103B400040807F00000000809E9292929EE0809EC6
:103B5000B2D2929E8008F4949292F10001F2929473
:103B600094F8081715D55557557D555755D5151740
:103B70000040407F555555555555557F4040404074
:103B80004242424242FE4242424242404000000023
:103B90000040807F00000000000000202020A06086
:103BA00000FF608040201800001008060140807F60
:103BB00000010204081010020212620202FE020258
:103BC0004232020200010101010101FF0101010174
:103BD000010101083000FF20202020FF2020222C9E
:103BE00020040201FF8040300E01061820408004AE
:103BF00084844424548F14244484840400390000B1
:103C00003C4040424C4040700409310000FE2222FA
:103C10002222222222FE00000040407F42424242F5
:103C20004242427F4040408060F807003E2222E24C
:103C300022223E00000000FF2011090503FF0305BA
:103C40000911201010FF1010404848487F48C8480C
:103C50004044827F010002020A1242827F02025423
:103C6000547F545444202827E4342CE000FF155599
:103C7000957F000949897F09091F010000F00000B4
:103C800000FF4040404040000040407F4040407FB7
:103C90004040404040404000000000000000000064
:103CA00000000000000000000000F800000000001C
:103CB0000000333000000000100C06100C0600005D
:103CC0000000000000000040C07840C078400004C0
:103CD0003F04043F040400007088FC08300000002A
:103CE0001820FF211E0000F008F000E0180000007E
:103CF000211C031E211E0000F00888700000001E19
:103D00002123241927211010160E000000000000A6
:103D100000000000000000000000E01804020000A5
:103D20000000071820400000020418E00000000016
:103D300040201807000000404080F0804040000212
:103D400002010F01020200000000F000000000016B
:103D500001011F01010100000000000000000080BF
:103D6000B070000000000000000000000000000033
:103D7000010101010101010000000000000000003C
:103D800030300000000000000000008060180400D7
:103D90006018060100000000E010080810E00000B4
:103DA0000F102020100F00001010F800000000007D
:103DB00020203F20200000007008080888700000C4
:103DC0003028242221300000300888884830000044
:103DD00018202020110E000000C02010F800000064
:103DE000070424243F240000F808888808080000FD
:103DF00019212020110E0000E01088881800000012
:103E00000F112020110E0000380808C838080000E3
:103E100000003F0000000000708808088870000063
:103E20001C222121221C0000E010080810E00000E4
:103E300000312222110F00000000C0C0000000006D
:103E40000000303000000000000080000000000092
:103E5000008060000000000000804020100800008A
:103E6000010204081020004040404040404000044F
:103E70000404040404040000081020408000000032
:103E800020100804020100007048080808F0000033
:103E900000003036010000C030C828E810E00007FC
:103EA00018272423140B000000C038E00000002075
:103EB0003C23020227382008F888888870000020F8
:103EC0003F202020110E00C03008080808380007E5
:103ED0001820202010080008F808080810E000202A
:103EE0003F202020100F0008F88888E808100020E4
:103EF0003F20202320180008F88888E808100020B8
:103F00003F200003000000C0300808083800000708
:103F1000182020221E020008F808000008F80820D7
:103F20003F210101213F20000808F8080800000097
:103F300020203F2020000000000808F8080800C0EA
:103F40008080807F00000008F888C02818080020C2
:103F50003F20012638200008F8080000000000205B
:103F60003F20202020300008F8F800F8F808002052
:103F70003F003F003F200008F830C00008F808204C
:103F80003F200007183F00E01008080810E0000F6D
:103F900010202020100F0008F808080808F0002062
:103FA0003F210101010000E01008080810E0000FA7
:103FB00018242438504F0008F8888888887000201A
:103FC0003F2000030C3020007088080808380000EB
:103FD00038202121221C00180808F80808180000C1
:103FE00000203F2000000008F808000008F8080042
:103FF0001F202020201F000878880000C8380800F3
:104000000007380E010000F80800F80008F8000367
:104010003C0700073C0300081868808068180820E7
:10402000302C03032C30200838C800C838080000A2
:1040300000203F2000000010080808C838080020B1
:1040400038262120201800000000FE020202000095
:1040500000007F40404000000C30C0000000000025
:104060000000010638C00000020202FE000000004D
:104070004040407F000000000004020202040000F3
:1040800000000000000000000000000000000080B0
:104090008080808080808000020204000000000098
:1040A0000000000000000000008080808000000010
:1040B00019242222223F2008F800808000000000FE
:1040C0003F112020110E00000000808080000000C1
:1040D0000E112020201100000000808088F80000D0
:1040E0000E112020103F2000008080808000000002
:1040F0001F222222221300008080F0888888180066
:1041000020203F2020000000008080808080000070
:104110006B94949493600008F800808080000020E5
:104120003F210000203F2000809898000000000000
:1041300020203F2020000000000080989800000010
:10414000C08080807F000008F80000808080002010
:104150003F24022D302000000808F8000000000075
:1041600020203F20200000808080808080800020F0
:104170003F20003F20003F808000808080000020A2
:104180003F210000203F2000008080808000000050
:104190001F202020201F00808000808000000080E1
:1041A000FFA12020110E0000000080808080000010
:1041B0000E112020A0FF8080808000808080002061
:1041C000203F2120000100000080808080800000CE
:1041D00033242424241900008080E0808000000023
:1041E00000001F2020000080800000008080000070
:1041F0001F202020103F20808080000080808000D1
:10420000010E300806010080800080008080800F51
:10421000300C030C300F0000808000808080000094
:1042200020312E0E31200080808000008080808030
:10423000818E7018060100008080808080800000E0
:1042400021302C2221300000000000807C0202007E
:10425000000000003F404000000000FF00000000A0
:10426000000000FF0000000002027C80000000004F
:1042700040403F000000000000000000008080007F
:10428000000000000001010000000000000000002C
:10429000000000000000000000000000000000001E
:1042A000000000000000000000000000000000000E
:1042B00000000000000000181C3C3C7CFC3C3C7CE6
:1042C000D800000000000000000000000000000016
:1042D00000000000000000000000000000000000DE
:1042E00000000000000000000000000000000000CE
:1042F00000000000000000000000000000000000BE
:1043000000000000000000000000000000000000AD
:10431000000000000000000000000000000000009D
:1043200000000000002060E0C0C0C0C080C080006D
:10433000000000000000000000000000FF8040209E
:104340001F0000000000000000000000000000004E
:10435000000000000000000000000080C08080C05D
:10436000C0C0C0606000000000000000000000004D
:10437000000000000000000000000000000000003D
:10438000000000000000000000000000000000002D
:10439000000000000000000000000000000000001D
:1043A000000000000000000000010119FFFFFFFFF6
:1043B00073F2F6E4E4ECC8C8C0C080F0FFF0E0F0AF
:1043C000D0D8FCFEFFFFFFFFFCC0C0C0E0E0F0F073
:1043D000E0C0C0C4E4E4E2F2727BFFFFFFFF19011A
:1043E00001010000000000000000000000000000CB
:1043F00000000000000000000000000000000000BD
:1044000000000000000000000000000000000000AC
:1044100000000080808080808080C040C0F0F8F084
:10442000F0E060F0F0707070703030303FBF9F98F7
:10443000988888C9C9C3C3E7EFFFFFFFFFFFFFFFED
:10444000FFFFFFFFFFFFFFFFFFFFFFFFFFFFFFFF7C
:10445000FFFFF7E3E3C1C9C8C8C8999F9F9FB83859
:10446000383030307070707070F0F8F8F8F0E0604C
:104470004040404040C0C0C08080808080808080BC
:104480000000000000000006020202020303030114
:10449000010101010101010100002070FFFFFFFF88
:1044A000FFFFFE7E3E3E3E3E3F1F1F1F1F1F1F1F82
:1044B0000F0F0F0F0F0F07030101010103878F8FEC
:1044C0008F87BFFFFFFFFFFFFFDF87878F87810396
:1044D000030101010107070F0F0F0F1F1F1F1F1FF0
:1044E0001F1F1F3F3F3E3E3C7FFFFFFFFFFFFF3888
:1044F00010000000000000000000000000010101A9
:1045000001010101010101000000000000000000A4
:1045100000000000000000000000000003FFFFFF9B
:10452000FF1F01000000000000000000000000006C
:10453000000000000000000000000000003F3F3FBE
:104540003F3F3F7FFFFFFFFFFFFFFFFFFFFFFF1F1B
:10455000000000000000000000000000000000005B
:1045600000000000000000000003FFFFFFFF030049
:10457000000000000000000000000000000000003B
:10458000000000000000000000000000000000002B
:104590000000000000000000000000000007FFFF16
:1045A000FF0000000000000000000000000000000C
:1045B00000000000000000000000000000000000FB
:1045C00000000000000000000000000000000000EB
:1045D00000000000000000000000000000000000DB
:1045E0000000000000000000000003FFFF030000C7
:1045F00000000000000000000000000000000000BB
:1046000000000000000000000000000000000000AA
:104610000000000000000000000000000000F0FFAB
:10462000FFF0C000000000000000000000000000DB
:10463000000000000000000000000000000000007A
:10464000000000000000000000000000000000006A
:10465000000000000000000000000000000000005A
:10466000000000000000000000007C7F7F78000058
:10467000000000000000000000000000000000003A
:10468000000000000000000000000000000000002A
:104690003031323334353637383941424344454678
:1046A0004030580030313233343536373839616272
:1046B0006364656640307800040000080000000074
:1046C0000000000200010000100000000240000095
:1046D000000000A00000000005400000000000C82D
:1046E000000000000C4000000000409C00000000A2
:1046F000194000000020BCBE000000003440000053
:10470000BFC91B8E00000004B5400000504BCFD045
:104710006607E2CF010000006C4100003E8251AA12
:10472000DFEEA73401000000D9420000DCB5A0E2B2
:104730003A301F97FFFFFFFFB4450000FD25A0C8DA
:10474000E9A3C14FFFFFFFFFFF3F00000000008013
:1047500000000000FF3F000000000080000000009B
:104760006869676800000000B44800080000002085
:104770003C0000006C010008F04800083C000020EC
:1047800084090000880100081C00000043000000AC
:10479000F8FFFFFF0C0000000E0000000F000000FB
:1047A0002E0000001001000043000000F8FFFFFF92
:1047B0000040404040404040404041414141414034
:1047C00040404040404040404040404040404040E9
:1047D0004005020202020202020202020202020278
:1047E000022020202020202020202002020202027D
:1047F00002029090909090901010101010101010D5
:1048000010101010101010101010101002020202E0
:104810000202888888888888080808080808080824
:104820000808080808080808080808080202020220
:104830004000000000000000000000000000000038
:104840000000000000000000000000000000000068
:104850000000000000000000000000000000000058
:104860000000000000000000000000000000000048
:104870000000000000000000000000000000000038
:104880000000000000000000000000000000000028
:104890000000000000000000000000000000000018
:1048A0000000000000000000000000000000000008
:1048B00000000000000000000000000000000000F8
:1048C00000000000000000000000000000000000E8
:1048D0000000000000000000604700080000000029
:1048E0000102030401020304060708090204060882
:0400000508000131BD
:00000001FF
