:020000040800F2
:10000000F00F0020B9020008693D0008312C0008FB
:10001000253B0008AD240008FD5C0008000000003E
:1000200000000000000000000000000089470008F8
:100030004D26000800000000354200080B4900086A
:10004000D3020008D3020008D3020008D30200083C
:10005000D3020008D3020008D3020008D30200082C
:10006000D3020008D3020008D3020008D30200081C
:10007000D3020008D3020008D3020008D30200080C
:10008000D3020008D3020008D3020008D3020008FC
:10009000D3020008D3020008D3020008D3020008EC
:1000A000D3020008D3020008D3020008D3020008DC
:1000B000AD4B0008BD4B0008D3020008D302000876
:1000C000D3020008D3020008D3020008D3020008BC
:1000D000D3020008D3020008D3020008E15500084B
:1000E000D3020008D3020008D3020008D30200089C
:1000F000D3020008D3020008D3020008D30200088C
:10010000D3020008D3020008214E0008D3020008E1
:10011000D3020008D3020008D3020008D30200086B
:10012000D3020008D3020008D3020008D30200085B
:1001300000F002F800F0B0F80AA090E8000C824449
:100140008344AAF10107DA4501D100F0A5F8AFF226
:10015000090EBAE80F0013F0010F18BFFB1A43F0A5
:100160000103184798960000B89600000A444FF023
:10017000000C10F8013B13F0070408BF10F8014B06
:100180001D1108BF10F8015B641E05D010F8016B4B
:10019000641E01F8016BF9D113F0080F1EBF10F8AF
:1001A000014BAD1C0C1B09D16D1E58BF01F801CBD2
:1001B000FAD505E014F8016B01F8016B6D1EF9D555
:1001C0009142D6D37047000000230024002500266A
:1001D000103A28BF78C1FBD8520728BF30C148BFAA
:1001E0000B6070476E2900F06581702900F0A782CE
:1001F000662908F08C81652908F08981672908F053
:100200008681612908F0858103681B0A28BF41F0B7
:100210008001692900F01281642900F00F8175299D
:1002200000F00C816F2900F03582782900F073828C
:10023000E92900F0CF81E42900F0CC81F52900F014
:10024000C981EF2900F03282F82900F07282036838
:10025000DB0928BF41F08001632900F0778773290B
:1002600000F07C87E32900F08787F32900F08C8772
:10027000002070471FB500F0DDFF040000200021C2
:1002800006F0DEFF401C60600020002106F0C2FF87
:10029000E0601FBD10B510BD00F09EFF1146FFF7D6
:1002A000E9FF06F0BBFD01F077F803B4FFF7F2FFBA
:1002B00003BC01F0B7F8000009488047094800472F
:1002C000FEE7FEE7FEE7FEE7FEE7FEE7FEE7FEE706
:1002D000FEE7FEE704480549054A064B7047000063
:1002E0000D49000831010008F0090020F00F00203E
:1002F000F00B0020F00B00201CB50C46064B7B4495
:1003000069460090204600F0EEF804460020694659
:1003100000F0FCF820461CBD0B02000010B5431C89
:1003200002E010F8011B71B18107FAD14FF00132E0
:1003300002C88C1A8C4314EAC211F9D0C01A0A06FA
:1003400003D0C01E10BDC01A10BD0A0401D0801E0B
:1003500010BD0902FCD0401E10BD704770477047A9
:1003600010B500F0BBFA006810BD10B5044600F0EF
:10037000B5FA046010BD70B5044685690068C10611
:1003800001D5302600E02026C00707D070BDD4E993
:10039000012130469047206A401C20626D1EF6D530
:1003A00070BD70B5044685690078C00707D170BD7F
:1003B000D4E9012120209047206A401C20626D1E54
:1003C000F6D570BD09684A0501D540B27047C90528
:1003D000FCD500B2704709684A0501D5C0B2704724
:1003E000C905FCD580B2704770B50C460546012A98
:1003F00005D02878800600D5EA69002302E00123B1
:1004000005E05B1C934202D2E05C0028F9D1A869A8
:10041000E618C01AA861286A184428622846FFF71F
:10042000AAFF04E0D5E9012114F8010B9047B4427A
:10043000F8D32846FFF7B5FF70BD00002DE9F04165
:100440000646002410687529314616A510D0FFF71E
:10045000B9FF002802DA404213A507E031688A0795
:1004600001D512A502E0490704D511A5012401E038
:10047000FFF7B1FF00210A2206F1240709E0B0FBD3
:10048000F2FCB0FBF2F302FB1C003030785418464B
:10049000491C0028F3D123462A463046BDE8F041E6
:1004A00000F065BA000000002D0000002B000000E5
:1004B0002000000011680268006A530501D5087029
:1004C0000AE0D30501D5088006E0130603D5C2175C
:1004D000C1E9000200E008600120704701694A1C80
:1004E00002610878704700B58FB0CDE90131002175
:1004F000059105497944CDE903101146684600F09D
:1005000029F90FB000BD0000E5FFFFFF0A6802F8FF
:10051000010B0A60704700002DE9FF5F15468A460F
:100520000446DFF8AC80F8440027D8E900103E46C6
:10053000CDE9001010E03AF816106A4602A800F063
:1005400027FE411C07D02178890603D5E2693918B6
:1005500091420DD80744761C2078800602D5E069C8
:10056000B84205DDAE42E6DB3AF816000028E2D1DB
:10057000A069C01BA0612046FFF7FDFED8E900106E
:10058000CDE90010002017E03AF818106A4602A8DA
:1005900000F0FEFDB0F1FF3F81460BD000250DF1CC
:1005A000080B05E0D4E901211BF8050090476D1CFC
:1005B0004D45F7D308F10100B0428046E4DB206AE4
:1005C000384420622046FFF7ECFEBDE8FF9F0000A4
:1005D000129000002DE9F0418046D21D22F0070262
:1005E0000025D2E90002F52915A614D0011E72F1EA
:1005F000000106DA0023D0EB030063EB020211A630
:1006000008E0D8F800108B0701D50FA602E04907D3
:1006100001D50EA601251146002408F1240704E0A7
:1006200000F060F930323A55641C50EA0102F7D10B
:100630002B46324621464046BDE8F04100F097B9CE
:10064000000000002D0000002B0000002000000032
:1006500030B4002100F1240408E002F00705D208BC
:10066000303542EA4372DB086554491C52EA0305FF
:10067000F3D10468002310A2250708D504F0200454
:100680000C4304D0C46901230CA2641EC46130BCB5
:1006900000F06DB910B5044621461068FFF79BFEC7
:1006A00002462046BDE810400023D1E7D21D22F0CB
:1006B0000701D1E90023CBE7000000003000000073
:1006C000F0B40D460188090502D5214C7C4402E0B6
:1006D0001F4C7C440E34002100F1240608E002F097
:1006E0000F071209E75D42EA03721B097754491CA0
:1006F00052EA0307F3D102780023120704D5702DC4
:1007000006D009B1022311342246F0BC00F02FB903
:1007100001231034F8E770B504460D4621461068F1
:10072000FFF759FE024629462046BDE870400023E7
:10073000C6E7D21D22F00703D3E90023C0E7036810
:10074000126843F0200303600823C3610023B7E766
:10075000748E00002DE9F05F894604464FF0000AD0
:10076000DFF874B1FB44C0F820A02046E168884758
:10077000002874D0252806D0D4E901219047206AAA
:10078000401C2062F1E700265F462046E16888476A
:100790002028054607DB312D05D2781910F8200CEA
:1007A00008B10643F1E7B00701D526F00406C4F806
:1007B0001CA00027C4F818A02A2D09D0284605F04F
:1007C00037FE38B304EB8708303DC8F8185019E0FD
:1007D00059F8041B204604EB87029161E1688847C1
:1007E000012F054618D1E069002820DA26F02006FE
:1007F0001DE0D8F8180000EB800005EB4000303811
:10080000C8F818002046E1688847054605F010FE44
:100810000028EED1012F0AD02E2D08D12046E16804
:1008200088477F1C0546022F46F02006C4DBA069DE
:10083000002803DA404246F00106A061F00701D02B
:1008400026F010066C2D0BD0682D09D04C2D39D018
:100850006A2D35D0742D35D07A2D33D016E038E09E
:10086000E1682F4620468847B842054609D16C2FDB
:1008700026D04FF48060E16806432046884705464D
:1008800004E06C2F1AD04FF4807006430DB3A5F12D
:100890004100192802D8203546F400664A46294608
:1008A000204626604E46FFF79DFC80B101280BD004
:1008B000F61D26F0070000F1080956E74020E4E79E
:1008C0008020D8E70020D6E706F104094DE7284646
:1008D00052E7206ABDE8F09F048E00000048704790
:1008E0009009002030B5B0F10A024FEA900E71F184
:1008F00000034EEA817EB0EB0E0061EB91014FEAFE
:10090000101E4EEA017E10EB0E0041EB11114FEA72
:10091000102E4EEA016E10EB0E0041EB11214FEA52
:10092000104E4EEA014E10EB0E0041EB1141401803
:1009300041F100014FEAD00040EA41704FEAD10195
:1009400010EB80054FEA810444EA907444EB010403
:100950006D1944EB0404521BA3414FF0000348BF40
:100960000A3200D530BD401C41F1000130BD2DE9F7
:10097000F0470D4699469246044600F12408016866
:10098000880604D5E06921F01001216000E0012013
:10099000A84201DD471B00E00027A1697A1902EB9C
:1009A0000900081AA0612078C00602D42046FFF78B
:1009B000E2FC002608E0D4E901211AF8060090477D
:1009C000206A401C761C20624E45F4DB2078C0066D
:1009D0000AD52046FFF7CFFC06E0D4E901213020FC
:1009E0009047206A401C2062381EA7F10107F4DC02
:1009F00007E0D4E9012118F805009047206A401C5F
:100A00002062281EA5F10105F3DC2046FFF7C9FC92
:100A10002078000602D50220BDE8F0870120FBE720
:100A200070472DE9FF4F0C461E464FF0FF378BB045
:100A3000D2E90001DDF860800A908A46C1F30A55C8
:100A400005B93D46002108464FF00000BAF1000FFD
:100A500000F4400005DA00EB80004FF4400101EAA9
:100A600050004FEA9059B9F1010F00DDB9460A98DC
:100A700050EA4A000ED044F61050A5F2FF35454327
:100A80002F14B8F1000F1ED07542291E1EDDC9F1CA
:100A900000021CE0B8F1010F4FF0000001D030213E
:100AA00003E0F24305E02154401CB042FBDB30463A
:100AB0000022002121540B99C1F80880C1E90020CF
:100AC0000FB0BDE8F08FBD1B6D1CDEE74A4600DAB3
:100AD000694206A800F0F2FB06AB93E8070003ABFF
:100AE00083E8070050460A9900F0A3FC8DE8070050
:100AF000A0F500501F3800900398002D09DD42F248
:100B00001F014A46084403A90390684600F002FF0B
:100B100008E0A0F500504A461F3803A90390684634
:100B200000F00CFF8DE807000004000C03D04FF02C
:100B3000FF30410800E01046B8F1000F03D000225A
:100B4000009215461EE0751E05D4FFF7CBFE30322D
:100B500062556D1EF9D5B3460122084302D000222A
:100B60007F1C04E02078302801D100227F1E002A5B
:100B7000099786D01DE0112D07DAFFF7B3FE30325A
:100B800062556D1C50EA0102F5D1084302D000986D
:100B9000C8B10EE00021681E05E0235C625C63546E
:100BA0002254401E491C8142F7DBAB46A81B401E65
:100BB0000990002004F80B000B98099AC0F80880EF
:100BC000C0E9002B7CE711264FF0000859E72DE91A
:100BD000F04F88460446D21D22F0070191B0D1E9BA
:100BE0000001CDE90A0105F0CBF802460B98C00FD1
:100BF00001D02D2007E02068810701D52B2002E0DD
:100C0000202101EAC000032A099001D0072A05DB50
:100C100003464146204600F011FB0BE12078800698
:100C200001D5E06900E00620B8F1650F814606D0E5
:100C3000B8F1660F18D0B8F1670F70D131E000201D
:100C4000B9F1110F009001DB112301E009F101035B
:100C50000AAA01A90CA8FFF7E4FEDDE90C70002642
:100C600009F10105834647E001204B4600904FF013
:100C700000470AAA01A90CA8FFF7D3FEDDE90DB0D1
:100C80000C995D46002610B909F101000D18B9EB69
:100C9000050003D4C0F1FF3609F10105A5EB0900F9
:100CA0002BE0B9F1010F01DA4FF001090020B9F191
:100CB000110F0090484601DD112300E003460AAA07
:100CC00001A90CA8FFF7ADFEDDE90C704D4600262A
:100CD0008346207800070AD4AB4500DA5D4601A8B8
:100CE000012D04DD411911F8011C302907D04F45B1
:100CF00002DA17F1040F04DA012082460FE06D1EBC
:100D0000EEE7002F02DCED1B3E4403E0781CA84216
:100D100000DD7D1CB81B00F1010A4FF00047207870
:100D2000000703D4AA4501DB4FF0FF3A0021B7F1D9
:100D3000004F0DF143088DF8431024D002202B23DF
:100D4000002F01DA7F422D230A21021EA0F10100AB
:100D500000DC5FB197FBF1FC97FBF1F201FB1C7C1F
:100D600017460CF1300C08F801CDEEE7A8F10100B0
:100D700003702188090501D5452100E06521A0F116
:100D8000010800F8011C09980FA9A1EB0807FF1D35
:100D900000B10120411901EBEA70A1693844081A39
:100DA000401EA0612078C00602D42046FFF7E3FA77
:100DB000099828B1D4E901219047206A401C20629B
:100DC0002078C00622D52046FFF7D5FA1EE0002E77
:100DD00004DBB34502DD01A8805D00E03020D4E9EA
:100DE00001219047206A401C2062761CAAF1010074
:100DF0005FEA000A0AD100F01DFAC0680168405C91
:100E0000D4E901219047206A401C2062281EA5F1E8
:100E10000105DCDC07E0D4E9012118F8010B90475B
:100E2000206A401C2062381EA7F10107F3DC20462F
:100E3000FFF7B7FA032011B043E600002DE9F04FA9
:100E400004460D46D21D22F0070089B0D0E9009279
:100E500048461746394604F093FF0246F80F01D082
:100E60002D2307E02068810701D52B2302E02021F4
:100E700001EAC0038DF820300BB1012000E0002012
:100E8000032A824601D0072A04DB2946204600F0C7
:100E9000D5F93DE12078800601D40D2500E0E56913
:100EA000C7F30A560D2D49DA00214FEA175B0846B1
:100EB0004FF00000002F00F4400007DA00EB800044
:100EC0004FF4400100EBD07001EA60008115012968
:100ED00001DD4FF0FF3100224FEA850CBCF1180F05
:100EE00006D31346ACF118004FF08052C24003E025
:100EF0004FF4801323FA0CF30CF10C0CBCF1200F0F
:100F000004D3ACF1200C09FA0CF001E007FA0CF064
:100F100000294FF0004801DD18B90FE00ED140451F
:100F20000CD319EB02095F4121B9404502D19F431F
:100F300029EA0209BBEB175F00D0761C2088000568
:100F400002D57B48784402E079487844193808AAE9
:100F5000302302F80A30037C0AF10101002E0AF165
:100F6000020A53546A4602DC4FF0300101E04FF0B0
:100F700031014FF001088DF8001002D0A6F2FF36C3
:100F800003E059EA470100D06A4E002D02DC2178C7
:100F9000090704D54FF002082E218DF80110C44630
:100FA00000210BE0C7F303433F01C35C491C6D1EE6
:100FB00002F80830052908F1010801DA002DF1DCFA
:100FC00000210CE000EB1973491C1B786D1E0829E9
:100FD00002F808304FEA091908F1010801DA002D7A
:100FE000F0DC2178890602D514E0A8F10108E0457B
:100FF00005DD02EB080111F8011C3029F5D0B8F12C
:10100000000F07DD02EB080111F8011C2E2901D1A8
:10101000A8F10108002D05DD3E2102F808106D1E23
:1010200008F10108407C002E02F8080008F10108D0
:1010300004DA2D20764202F8080002E02B2002F8A4
:1010400008000A214FF47A70864208F101080BDB90
:1010500096FBF0F3303302F8083096FBF0F308F11A
:10106000010800FB136601E0642E0CDB642096FB94
:10107000F0F3303302F8083096FBF0F308F1010882
:1010800000FB136601E00A2E06DB96FBF1F0303020
:1010900002F8080008F1010896FBF1F001FB10606E
:1010A000303002F80800A16908F1010808EB0502D8
:1010B00002EB0A00081AA0612078C00602D420467C
:1010C000FFF759F9216A08AE01EB0A00206204E03B
:1010D000D4E9012116F8010B9047BAF1010AF7D2C1
:1010E0002078C00602D52046FFF745F96E4609E094
:1010F00016F8010B3E280FD0D4E901219047206A51
:10110000401C2062B8F10108F2D22046FFF749F9ED
:1011100009B00320BDE8F08F206A2844206203E074
:10112000D4E90121302090476D1EEBD3F8E7000091
:101130000B88000002FCFFFF10B5436913B1AFF349
:10114000008001E0FFF750F9012010BD127800F196
:1011500024010A7000224A700122EDE711684FF065
:10116000FF32E9E710B5436913B1AFF3008001E046
:10117000FFF7D2F9012010BD128800F1240182840A
:101180000022C2840122EDE711684FF0FF32E9E747
:1011900070B516460C46054600F044F8036893F80F
:1011A0000101012806D0FF2C0FD8185D68B101207D
:1011B0002C7070BDD3F807013246214603F20713A5
:1011C00003442846BDE8704018474FF0FF3070BD1B
:1011D00000487047900900207546FFF7F9FFAE46BA
:1011E00005006946534620F00700854618B020B533
:1011F000FFF770F8BDE820404FF000064FF0000701
:101200004FF000084FF0000B21F00701AC46ACE8AE
:10121000C009ACE8C009ACE8C009ACE8C0098D461B
:101220007047000010B500F005F8001D10BD00BFAC
:101230001160000000487047B00900202DE9F0411E
:101240001F46044603260168072A01F4006004DBF8
:1012500008B116A505E016A503E008B115A500E044
:1012600015A521F010002060A069C01EA0610FB17B
:10127000401EA0612046FFF77EF84FB1D4E901215E
:1012800038469047206A401C2062C01C206206E05D
:10129000206AFAE7D4E9012115F8010B9047761E80
:1012A000F8D22046FFF77DF8BDE8F0814E414E00B0
:1012B0006E616E00494E4600696E66002DE9F0478A
:1012C000814616468AB0334878440DC88DE80D0033
:1012D00030487844801C03AC0DC884E80D0041F60A
:1012E0009B300844372190FBF1F290FBF1F5A5F11A
:1012F000800501FB12041B3C02D56442012000E082
:101300000020DFF890A080460027FA44AAF1BE0A28
:101310000DE0E00709D03246684607EB47010AEBCB
:10132000810100F00BFB8DE8070064107F1C002C8E
:10133000EFD1184F7F44AC3F18E0E80714D007EB1B
:1013400004100DF1180A90E80E008AE80E00C0683B
:10135000F04201D198190890324606A903A800F07E
:10136000EDFA03AB83E807006D10641C002DE4D197
:1013700032466946B8F1000F03A802D000F0CAFA5D
:1013800001E000F0DBFAC9E90001C9F808200AB061
:10139000BDE8F087188500000446AFF300802046C2
:1013A000FEF783FF4FF0013C50F8042B51F8043B4B
:1013B0009A4221D1A2EB0C03934313EACC1317D129
:1013C00050F8042B51F8043B9A4215D1A2EB0C03C0
:1013D000934313EACC130BD150F8042B51F8043B80
:1013E0009A4209D1A2EB0C03934313EACC13DBD04E
:1013F0004FF00000704700BFD01A01BAB1FA81F176
:1014000001F0180122FA01F0CB40C1F12001DBB25A
:10141000C0B2C01A2CFA01F3D11A914311EAC311D8
:10142000E6D1704701491820ABBEFEE72600020056
:1014300070475FEA400C08BF91F0000F4FEA8C2321
:101440004FEAC12243EA51514FEA1C5018BF00F540
:10145000F0404FEA300018BF41F000415FEA6C5C99
:1014600000F02980BCF1FF3F08BF40F0804070478A
:10147000130C06BF12044FF0100C4FF0000C130EAB
:1014800004BF12020CF1080C130F04BF12010CF17F
:10149000040C930F04BF92000CF1020CD30F04BF95
:1014A00052000CF1010C11464FF00002A0F11F0098
:1014B000A0EB0C00704711F0004F08BF704731F0EF
:1014C00000413FF4D5AF0B0C06BF09044FF0100CE0
:1014D0004FF0000C0B0E04BF09020CF1080C0B0FAF
:1014E00004BF09010CF1040C8B0F04BF89000CF13F
:1014F000020CCB0F04BF49000CF1010CCCF120030E
:10150000A0EB0C0022FA03F302FA0CF241EA030109
:1015100000F10100704720F07F4C80EA030023F0C7
:101520007F47ACEB070303F57C5300F0004003F169
:10153000FF032DE980494FEA154B09B44FEA1443E4
:1015400025EA0B4E24EA03480FF2042606EB132784
:1015500049083E785FEA320203FB0667C7F50007D9
:1015600007FB06F64FEA54374FEAD64606F1020665
:1015700007FB066CCCF1005C4FEA1C472CEA074CD9
:1015800007FB06F40CFB06F504EB15464FEA96162E
:1015900034BF00204FF000404FEAD13706FB07FC74
:1015A0004FEA1C4C0CFB0BF7D21B03FB0CF761EB57
:1015B00007010CFB0EF7B0EB074072EB17420CFB78
:1015C00008F734BFA2EB0742B2EB074261EB1741C9
:1015D0004FEA0C444FEA910706FB07FC4FEA1C4C0C
:1015E0000CFB0BF7B0EBC74072EB573203FB0CF769
:1015F00034BFA2EBC742B2EBC74261EB57310CFBE1
:101600000EF7B0EBC70072EB57720CFB08F734BF54
:10161000A2EBC702B2EBC70261EB5771039F4FEA1F
:10162000816141EA921104EBCC044FEAD1374FEAD1
:10163000826206FB07FC42EA90124FEA80604FEAA2
:101640001C4C0CFB0BF7D21B03FB0CF761EB0701E7
:101650000CFB0EF7B0EB074072EB17420CFB08F7E0
:1016600034BFA2EB0742B2EB074261EB17414FEAEE
:101670008C554FEA910704EB9C2406FB07FC4FEACC
:101680001C4C0CFB0BF7B0EBC74072EB573203FB63
:101690000CF734BFA2EBC742B2EBC74261EB573144
:1016A0000CFB0EF7B0EBC70072EB57720CFB08F7A0
:1016B00034BFA2EBC702B2EBC70261EB577115EB67
:1016C0004C254FEA816141EA92114FEA82624FEA6A
:1016D000D13742EA901206FB07FC44F100044FEABE
:1016E00080604FEA1C4C0CFB0BF7D21B03FB0CF782
:1016F00061EB07010CFB0EF7B0EB074072EB1742F2
:101700000CFB08F734BFA2EB0742B2EB074261EBD8
:10171000174115EB1C154FEA813141EA92414FEA1E
:10172000823242EA90424FEA80304FEA0C7644F12E
:10173000000448EA03434EEA0B484FF0000EB2EBB8
:10174000080C71EB030724BF624639464EEB0E0EC0
:101750004FF0000B0018524149414BEB0B0BB2EB21
:10176000080C71EB03077BF1000B24BF624639467E
:101770004EEB0E0E4FF0000B0018524149414BEB5F
:101780000B0BB2EB080C71EB03077BF1000B24BFD2
:10179000624639464EEB0E0E51EA020718BF46F07C
:1017A000010616EB0E7655F1000254F1000103D547
:1017B000BDE88901BDE80088BDE88901BDE80048B1
:1017C000B619524141EB0101A3F10103704780803A
:1017D0007F7E7D7C7B7A797877767675747372718B
:1017E00071706F6E6E6D6C6C6B6A6A696868676643
:1017F00066656464636362616160605F5F5E5E5DD5
:101800005D5C5C5B5B5A5A59595858575756565548
:1018100055555454535352525251515050504F4FAA
:101820004F4E4E4D4D4D4C4C4C4B4B4B4A4A4A49FA
:10183000494948484847474747464646454545443D
:101840004444444343434342424242414141002BCA
:1018500026D4770021D01CB54FEA370703B44FF0E8
:1018600010004FF010014FF000000FBCBDE8104019
:101870000BF1010BBBF1010F08BF5FEA170722BF95
:1018800012F1010211F101014FF0004143F1000397
:1018900000F0004043EA00007047F9D35708DAE748
:1018A00046EA064613F1400F4FEA16461FDD13F1D4
:1018B000200FDFBF16430A46002120335B42C8D009
:1018C000C3F1200746EA064602FA07F74FEA164632
:1018D00046EA0706C3F1200722FA03F201FA07F7E6
:1018E00021FA03F14FF0000342EA0702B1E746EAAA
:1018F000020646EA06464FEA164646EA0106BCBF1D
:1019000046EA0646360C4FF000034FF000024FF057
:1019100000019EE72DE9C048934630B491E83800B5
:1019200007C831EA400C48BF34EA430C03D5FFF73F
:10193000F2FDFFF78CFFF0BCBDE800882DE9C04840
:10194000934630B491E8380007C810F0804F08BFC4
:1019500013F0804F03D100F005F8FFF778FFF0BCDB
:10196000BDE8008820F07F4780EA030023F07F4C29
:1019700007EB0C03A3F57C5300F00040A3F1FE033A
:1019800092F0000F00F0B38095F0000F00F0778028
:101990002DE901494FEA11404FEA144621EA004877
:1019A00000FB06FC24EA064708FB06F607FB08F8DE
:1019B00000FB07F718EB06484CEB164C4FEA124BAE
:1019C00018EB07484FEA15464CEB174022EA0B4E3E
:1019D0000BFB06FC25EA06470EFB06F607FB0EFE90
:1019E0000BFB07F71EEB064E4CEB164C4FF00006B8
:1019F0001EEB074E4CEB174B18EB0B0840F10000A9
:101A000018EB0E0B58EB000840F100008F1A4FF056
:101A100000013CBFC943661B14BFB5EB040C002199
:101A20003CBFC943F61B4FEA17444EEA8E0E27EA25
:101A300004454FEA1C4704FB07622CEA074C05FBF0
:101A400007F70CFB05F604FB0CFC16EB074642EB14
:101A5000174216EB0C4642EB1C421BEB060658EBFA
:101A60000202414146EA9E0601D5BDE80189B61948
:101A7000524141EB0101A3F10103BDE801894FEAA5
:101A800014454FEA114724EA054621EA074C05FBB5
:101A900007F406FB07F70CFB06F105FB0CFC11EB4A
:101AA000074144EB17444FEA124711EB0C4144EB5A
:101AB0001C4422EA074C05FB07F206FB07F70CFB68
:101AC00006F605FB0CFC16EB074642EB174216EB3D
:101AD0000C4642EB1C456A1854F1000148BF7047A0
:101AE000B619524141EB0101A3F10103704795F092
:101AF000000F37D04FEA11424FEA144721EA02465D
:101B000024EA074C02FB07F106FB07F70CFB06F47F
:101B100002FB0CFC14EB074441EB17414FEA15475D
:101B200014EB0C4441EB1C4125EA074C02FB07F582
:101B300006FB07F70CFB06F602FB0CFC16EB074650
:101B400045EB174516EB0C4645EB1C42121951F1BB
:101B5000000148BF7047B619524141EB0101A3F1A2
:101B6000010370474FEA14454FEA114724EA05463E
:101B700021EA074C05FB07F106FB07F70CFB06F211
:101B80004FF0000605FB0CFC12EB074241EB17413E
:101B900012EB0C4251EB1C4148BF7047921841EBCD
:101BA0000101A3F1010370472DE9F04F8FB0924A74
:101BB000516C506C06F0A6FA07468F4A116C106CF7
:101BC00006F0A0FA80468C4AD16BD06B06F09AFAE8
:101BD0008346414606F0E4F80646394606F0E0F84A
:101BE000054602F029FB08908349C86B089906F066
:101BF00089FA0E908049086C089906F083FA0D90D6
:101C00007D49486C089906F07DFA0C907B4905A83F
:101C100002F0A2FC05AD7A49059808600698486074
:101C200007988860084641680C9806F06BFA0546EC
:101C3000734881680D9806F065FA0646294606F055
:101C4000F1FB04466E4881680E9806F05BFA054683
:101C50006B4801680C9806F055FA0646294606F0CE
:101C6000E1FB8146664801680D9806F04BFA05468F
:101C7000634841680E9806F045FA0646294606F084
:101C8000D1FB82465F49204606F03CFA05465E4895
:101C90000168284606F084F85B49086059494846BF
:101CA00006F030FA054659480168284606F078F8EB
:101CB000564908605349504606F024FA05465448F0
:101CC0000168284606F06CF8514908604E480068E3
:101CD00006F03AF8CDE90401204604F011F88346F5
:101CE0004C4906F00FFA8046214606F00BFA0746EB
:101CF00006F02AF8CDE900013F49886806F024F88B
:101D0000074602F01FFD0546DDE9002305F0E0FA75
:101D1000CDE90201DDE9042305F0DAFACDE9060197
:101D200005F0A4FA0B903948006806F00DF8CDE9EB
:101D30000401484603F0E4FF8346364906F0E2F921
:101D40000646494606F0DEF9054605F0FDFFCDE9F9
:101D500000012949C86805F0F7FF054602F0F2FCCA
:101D60000746DDE9002305F0B3FACDE90201DDE91C
:101D7000042305F0ADFACDE9060105F077FA0A90E3
:101D80002348006805F0E0FFCDE90401504603F068
:101D9000B7FF2049009006F0B5F95146019006F0D2
:101DA000B1F9834605F0D0FFCDE902011249086977
:101DB00005F0CAFFCDE9000102F0C4FC0546DDE9EB
:101DC000022305F085FA0746DDE9042305F080FAD1
:101DD000CDE9060105F04AFA09900F48009007483E
:101DE000DDE909320B9902F08CFA044802F04CFA52
:101DF0000FB0BDE8F08F0000E4010020C800002013
:101E0000B80600206F12033AEC000020F00000201A
:101E1000F4000020CDCC4C3F0AD7A33A2DE9F04F77
:101E200087B000F0DFF86848FFF7BEFE67496648F4
:101E300002F0F8FA6549486805F086FF064605F0A5
:101E4000D3F8044605F012FA05906049086805F0D9
:101E50007BFF064605F0C8F8044605F007FA069031
:101E60005A49486805F070FF064604F085FE0446AE
:101E700005F0FCF904905549086805F065FF064631
:101E800004F07AFE044605F0F1F903905048C0785A
:101E9000002872D14E48407800286ED04D49B1F9E3
:101EA000040006F0CFF80746049906F02BF9064621
:101EB000069906F027F904464649B1F9020006F0F2
:101EC000C1F88146069906F01DF98046059906F08D
:101ED00019F906463F49B1F9000006F0B3F880460B
:101EE000039906F00FF90746314605F059FF0546FC
:101EF000214606F097FA83463649B1F9040006F008
:101F0000A1F80646059906F0FDF804463149B1F9F5
:101F1000020006F097F80646049906F0F3F8054625
:101F2000214605F03DFF0290584605F00DFF804622
:101F30008946029805F008FF42464B46CDE900016C
:101F400004F02CFC064600F083FB81F000410446BF
:101F500005F08CF982462048C0F800A04FF07C5272
:101F600051461E48006801F029FA1D49886008465C
:101F700080681A4908600CE0FFE71449886805F09A
:101F8000E3FE064600F064FB044605F06FF91449D1
:101F900088600E49486805F0D7FE064600F058FBF9
:101FA000044605F063F90E4948600849086805F0E1
:101FB000CBFE064600F04CFB044605F057F90849F5
:101FC000086007B0BDE8F08FC8000020A006002020
:101FD000C8010020D8000020C0000020F800002028
:101FE000AC0600202DE9FF4100F016FC4F4800F040
:101FF00057FD4F49B1F9340005F0A1FB06460F46E5
:1020000005204C494C4BCDE900304C4B4C4ACDE9B6
:1020100002103046394601F0D7F8044605F026F99B
:102020004349C863B1F9360005F089FB06460F46FF
:1020300005204049404BCDE90030404B2833404A11
:102040002832CDE902103046394601F0BDF8044689
:1020500005F00CF90146364801640146B1F9380033
:1020600005F06DFB06460F4605203249324BCDE99F
:102070000030324B5033324A5032CDE902103046F4
:10208000394601F0A1F8044605F0F0F80146284869
:1020900041640146086A05F057FE0746294A2A4B63
:1020A00005F078FB054605F0E1F80446274A21468D
:1020B0002748006801F082F91D4988600846806859
:1020C000234908601A49486A05F03EFE07461D4A42
:1020D0001D4B05F05FFB054605F0C8F804461B4A9A
:1020E00021461C48006801F069F91149C86008469A
:1020F000C068184908600E49886A05F025FE074641
:10210000104A114B05F046FB054605F0AFF80446B2
:102110000E4A21461048006801F050F90449086150
:10212000084600690C490860BDE8FF81D80000201E
:10213000E401002098000020700000202806002004
:10214000B005002030689DC8FE3F9F3FCBA1C53E33
:10215000E0000020E4000020E800002030B500206E
:102160000021002200230025184CA4F86050A4F898
:102170006250A4F8645000BF0DE0144CB4F9344030
:102180002044124CB4F936402144104CB4F9384084
:1021900022445C1CE3B2C82BEFDBC82490FBF4F4B0
:1021A00025B20A4CA4F86050C82491FBF4F425B27F
:1021B000064CA4F86250C82492FBF4F425B2034CF8
:1021C000A4F864500024024D2C7230BDE4010020BC
:1021D000C80100202DE9F041794AD168794A506A56
:1021E00006F020F90546764A1169764AD2F8B4001D
:1021F00006F018F90746724A9168734A506806F06B
:1022000011F906466F49486B294605F0C9FD01469C
:102210006C4841630146C86F314605F0C1FD014677
:102220006848C1670146D1F8C400394605F0B8FDD9
:1022300001466448C0F8C4100146644A486B6449CA
:1022400004F0E8FC01465F48416301465F4AC86FFD
:102250005F4904F0DFFC01465A48C16701465B4A0A
:10226000D1F8C4005A4904F0D5FC01465548C0F8DD
:10227000C4100146886A294605F044FF01465148CA
:10228000C1630146086F314605F03CFF01464D48E9
:10229000C0F884100146D1F8B800394605F032FF85
:1022A00001464848C0F8CC100246516BD06A05F090
:1022B00029FF0146434801640246D16F506F05F083
:1022C00021FF01463F48C0F888100246D2F8C410EA
:1022D000D2F8BC0005F016FF01463A48C0F8D0100D
:1022E000374AD168906906F09DF880463548016B01
:1022F000404605F007FF0446364905F003FF014656
:10230000304841642E4A9168506906F08BF8804647
:102310002C48816F404605F0F5FE04462D4905F036
:10232000F1FE01462748C0F88C10254A1169D06992
:1023300006F078F880462348D0F8C010404605F0F3
:10234000E1FE0446234905F0DDFE01461D48C0F8C4
:10235000D4101B48C16881618068194948610846EA
:102360000169C161174A116CD06B05F019FD044673
:102370001448416C204605F013FD01461148816464
:102380000246D2F88810D2F8840005F009FD044610
:102390000C48D0F88C10204605F002FD0146094893
:1023A000C0F890100246D2F8D410D2F8CC0005F054
:1023B000F7FC01460348C0F8D810BDE8F0810000E2
:1023C000E401002084070020800200200000A0C15A
:1023D0000000A0410000044210B504462E48407899
:1023E0006F283BD12C4880786D2837D100202A49AE
:1023F00048708870352C20D008DC312C0DD0322C60
:102400000FD0332C11D0342C26D112E0362C18D01A
:10241000372C19D0612C1FD11AE001201F494872B6
:102420001BE001201D49487117E000201B4948713D
:1024300013E00120194948760FE0012017498876FA
:102440000BE004F071FD08E002201449087504E077
:1024500000201349486000E000BF00BF632C05D195
:1024600000201049087001200F4908700E480078BC
:1024700001280FD108480B490978445409480078CD
:10248000401C0849087008460078032802D1002043
:102490000549087010BD000051000020C80100204F
:1024A00080020020550000205000002000BFFEE701
:1024B0002DE9F7436048007802287DDB5F4A116808
:1024C000009805F0AFFF06465B490869314605F004
:1024D00067FC594908610846406980F000450A4692
:1024E000516910692A4604F095FB534908610A4670
:1024F0001169906805F006FE05464F494868314667
:1025000005F000FE8046294605F04AFC4A4948622B
:102510004A4A5168019805F085FF07464649886D8B
:10252000394605F03DFC444988650846C06D80F099
:1025300000450A46D16D906D2A4604F06BFB3E497A
:1025400088650A46916D106D05F0DCFD05463A4937
:10255000C86C394605F0D6FD8046294605F020FCBA
:102560003549C866354A9168029805F05BFF054613
:10257000334905F093FE09D3304A9168029805F07B
:1025800051FF05462F4905F089FD36D200210298FA
:1025900005F084FE16D229498868002105F07EFDE9
:1025A00010D22749029805F03DFF0546234881686F
:1025B000244805F037FF00E030E08046294605F06A
:1025C000EFFB04460021029805F068FD1BD21B4971
:1025D0008868002105F062FE15D21949029805F0BD
:1025E000DFFB054615488168154805F01BFF80464E
:1025F000294605F0D5FB044605E0104A916802988B
:1026000005F010FF04460C49D1F89400214605F06E
:1026100079FD0949C1F8B400002008700648007827
:10262000401C05490870FFF7D5FD074802F0B4FFCC
:1026300001F07AFABDE8FE8384070020AC06002092
:1026400000003443000034C30AD7233B7047000026
:102650002DE9F04104460D464FF0C042054B20469F
:10266000294604F0E5FE06460022034B05F092F8E9
:10267000BDE8F081FB210940008066402DE9FF4F55
:1026800087B0824691461D464FF0000829460A2031
:1026900004F062FC019005F0EDFC4946029005F063
:1026A00031FD834605F0B2FC0646002E03DB2020F8
:1026B0008DF80C0003E076422D208DF80C000B24E1
:1026C0000BE0601EC1B20A2004F046FCB6FBF0F03D
:1026D00008B1A04603E0601EC4B2002CF1DC00BFCC
:1026E000A8EB0500002821DC30208DF80D002E20FD
:1026F0008DF80E00002412E0281B401EC1B20A20F3
:1027000004F02AFCB6FBF0F00A21B0FBF1F201FB69
:102710001200303003AAE11C5054601CC4B2AC4219
:10272000EADD002103AAE81C11543AE0002413E07A
:10273000A8EB0400401EC1B20A2004F00DFCB6FB59
:10274000F0F00A21B0FBF1F201FB1200303003AAD5
:10275000611C5054601CC4B2A8EB0500A042E7DC29
:102760002E2103AA601C1154002713E0E81B401E11
:10277000C1B20A2004F0F0FBB6FBF0F00A21B0FB76
:10278000F1F201FB12003030A11C394403AA50546D
:10279000781CC7B2AF42E9DD002103AA08F10200AC
:1027A000115403AA5046089901F0D8FB0BB0BDE8BC
:1027B000F08F2DE9FE438046894615461E460021CE
:1027C000701C0DF80010002D03DB20208DF8000098
:1027D00003E06D422D208DF80000002413E0301B33
:1027E000401EC1B20A2004F0B7FBB5FBF0F00A218D
:1027F000B0FBF1F201FB120707F13000C1B2601C1F
:102800000DF80010C4B2B442E9DB6A4649464046BE
:1028100001F0A4FBBDE8FE8310B500F09BFF2D483E
:1028200040782C49097840EA01212B48B0F8600033
:10283000081A00B2284988862648C0782549897830
:1028400040EA01212448B0F86000081A01B2224889
:10285000C186204840791F49097940EA012001B228
:102860001D4801871B48C0791A49897940EA01202F
:1028700000B2194908801748407A1649097A40EA97
:10288000012000B2144948801248C07A1149897A5F
:1028900040EA012000B210498880B1F900100E4AC8
:1028A000B2F92C20881A05F0CDFB0B490862B1F96A
:1028B0000220B1F92E10501A05F0C4FB06494862F7
:1028C000B1F90420B1F93010501A05F0BBFB0249F0
:1028D000886210BD4C020020E40100202DE9F04187
:1028E000024600250026002000230024002791F83E
:1028F00003C00CF00F0591F803C00CF0100CBCF1F4
:10290000000F03D091F802C04CEA050591F800C011
:10291000BCF1000F31D0146800202BE04FF0010C07
:102920000CFA00F3B1F800C00CEA03069E4220D175
:1029300083004FF00F0C0CFA03F7BC4305FA03FCBD
:102940004CEA040491F803C0BCF1280F06D14FF003
:10295000010C0CFA00FCC2F814C00AE091F803C0A4
:10296000BCF1480F05D14FF0010C0CFA00FCC2F885
:1029700010C0401C0828D1D31460B1F800C0BCF1CD
:10298000FF0F34DD546800202EE000F1080C4FF0FA
:10299000010808FA0CF3B1F800C00CEA03069E42E5
:1029A00021D183004FF00F0C0CFA03F7BC4305FA5A
:1029B00003FC4CEA040491F803C0BCF1280F05D1D4
:1029C00000F1080C08FA0CF8C2F8148091F803C062
:1029D000BCF1480F07D100F1080C4FF0010808FACC
:1029E0000CF8C2F81080401C0828CED35460BDE813
:1029F000F0810000F0B50A460023002400210025E4
:102A000000F00046B6F1004F02D11D4EF16901E021
:102A10001B4E7168C0F3034583B200F44016B6F54F
:102A2000401F08D121F07061154E766826F070665F
:102A3000134F7E6012E000F48016B6F5801F06D1B9
:102A4000032606FA05F4A14341F0706106E0460D45
:102A5000360103FA06F6B14341F0706122B1460D2A
:102A6000360103FA06F6314300F00046B6F1004F96
:102A700002D1034EF16101E0014E7160F0BD000032
:102A8000000001400246002093680B400BB101207A
:102A900000E000207047416170470161704700000D
:102AA0002DE9FF410546002602AB062203213C200A
:102AB00001F028F9594800680A2190FBF1F05749C4
:102AC0000968081A554908609DF809009DF8081022
:102AD00040EA012000B25149096808444F490860A2
:102AE000084600680A2190FBF1F000B2ADF8000042
:102AF0004A48406890FBF1F048494968081A47493C
:102B000048609DF80D009DF80C1040EA012000B2CD
:102B100042494968084441494860084640680A21DA
:102B200090FBF1F000B2ADF802003C48806890FBE9
:102B3000F1F03A498968081A384988609DF80B0015
:102B40009DF80A1040EA012000B23449896808441F
:102B500032498860084680680A2190FBF1F000B293
:102B6000ADF80400BDF800002D490880BDF8020052
:102B70004880BDF8040088802A48407A40B101208E
:102B80002949087000202749C870684600F03AFEBD
:102B90002548007808B3002023490870002415E078
:102BA0002248006830F91400002805DA1F48006840
:102BB00030F91400404203E01C48006830F914006A
:102BC000142801DA701CC6B2601CC4B2062CE7DB04
:102BD000022E02DB01201349C87000241AE01349B9
:102BE000096801EB4401B1F90610104A126832F984
:102BF00014208F1807EBD7713DF91420A2EB610068
:102C000005F020FA804605F001FA00B225F814001C
:102C1000601CC4B2032CE2DBBDE8FF81740200201B
:102C200068020020C80100200E00002004000020DF
:102C300000BFFEE72DE9F14F86B0AB48007810B138
:102C400001287DD109E0A949486CA94905F026FB76
:102C500002D20120A449087041E100F0F1FBA5482F
:102C6000007D012819D1A4480078012815D1A34876
:102C7000007890B90020A2490860A2490860086065
:102C8000A1490860A14948600860C86002209A49CB
:102C9000087001209949087008E09648007D0228D4
:102CA00004D1002094490870944908708F49B1F903
:102CB000640004F044FD8D4ACDE90401D16BD06B72
:102CC00005F020FA834605F0A1F9B0F1000A01DB16
:102CD000D34601E0CAF1000B844A116C106C05F078
:102CE00011FA009005F092F9B0F1000901DB4846B5
:102CF00001E0C9F1000083447C4A516C506C05F03E
:102D000001FA009005F082F9041E01DB204600E084
:102D100060425844019004F012FDCDE9020104F034
:102D2000B3F90746DDE9042304F024FF054604F067
:102D30009DFA774908607748774B3222774900E05F
:102D4000CCE000907248006800F046FF4FF08C41E4
:102D50007048006805F098F80446714905F0D2F90A
:102D6000704908600846006805F050F9041E01DB50
:102D7000204600E06042322802DA002069490860FB
:102D800068480168069805F0BDF904465C4801688A
:102D9000204605F005F85A49086063480078012884
:102DA00005D1624802F004FE02205F4908705148D4
:102DB000007D012814D15E4800685E49086008461D
:102DC00001685D4805F09EF904464D4801685B487E
:102DD00005F098F90546214604F0E2FF48490860ED
:102DE000494801685348006805F01CFB05465449F2
:102DF000069805F087F90646294605F083F904464A
:102E000040480168204604F0CBFF3E4908604D4928
:102E10003C48006805F042F901D24A4809E04A49B5
:102E20003848006805F03AFA01D2474801E03548D1
:102E3000006834490860324801683E48006805F07F
:102E4000F1FA80464149069805F05CF98146494609
:102E50004FF07E5005F018F807464FF07E5104F011
:102E60009FFF054629464FF07E5005F00DF80646B7
:102E7000414605F047F9044621480168204604F020
:102E80008FFF1F4908601F4801681D48006804F053
:102E900087FF1D4908601748007D012811D124488B
:102EA00002682B480168069803F004FF1E4800786A
:102EB000022806D124491D4802F0D0FCFF201A49FF
:102EC00008700C48007D012804D110480069214990
:102ED000086002E000201F49086000E000BF00BF5A
:102EE00007B0BDE8F08F0000B2010020E40100202F
:102EF00000C0DA45C801002084010020AC01002098
:102F0000C0010020BC010020A00100208C0800208E
:102F1000B4010020B8010020AE010020C408002048
:102F200000201946A8010020410000209999193D70
:102F300090010020C40100200AD7233CA4707D3FEB
:102F4000CDCCCC3E0000FAC30000FA439CC4A03EA6
:102F50009C0100207C01002000B54FF480600C49EA
:102F6000086000F02FF94FF400600949086000F094
:102F700029F94FF480600649091F086000F022F922
:102F80004FF480600249086000F01CF900BD0000A9
:102F9000140C014008B50121082001F047FB4FF453
:102FA0008060ADF8000003208DF8020014208DF839
:102FB000030069460848FFF791FC4FF40060ADF844
:102FC000000003208DF8020014208DF803006946EC
:102FD0000148FFF783FC08BD000C014000B54FF429
:102FE00080600C49086000F0EDF84FF4006009497A
:102FF000091F086000F0E6F84FF480600549091FDA
:10300000086000F0DFF84FF480600249086000F0CB
:10301000D9F800BD140C014000B5082100200A02B7
:10302000124B1A6016E04206100E4FF480620F4BEE
:103030001B1D1A6000F0C6F84FF480620B4B1A603B
:1030400000F0C0F8094A083A126802F400620AB1B6
:1030500040F001000A00A1F10103D9B2E3D14FF41D
:103060008062024B1B1D1A6000BD0000100C014065
:1030700000B508211DE04FF48062134B1A6000F088
:10308000A1F800F080022AB14FF400620E4B1B1F22
:103090001A6003E04FF400620B4B1A604206100EF8
:1030A00000F090F84FF48062074B1B1F1A6000F08D
:1030B00089F80A00A1F10103D9B2DCD14FF4806292
:1030C000014B1A6000BD0000140C014000B54FF424
:1030D0000060154908604010086000F073F812485D
:1030E0000838006808B9012000E0002000F4006002
:1030F00008B1002000BD4FF400600B49091D0860B5
:1031000000F060F808480838006800F4006008B172
:103110000020EFE74FF400600349091D086000F04C
:1031200051F80120E6E70000100C014000B54FF413
:1031300080600C49086000F045F84FF400600949D0
:10314000086000F03FF84FF480600649091F0860EE
:1031500000F038F84FF400600249091F086000F0E1
:1031600031F800BD140C014000B54FF480601449E3
:10317000086000F027F84FF400601149091F08604B
:1031800000F020F84FF480600D49091F086000F03E
:1031900019F80B480C38006800F4006038B14FF49F
:1031A00080600749086000F00DF8002000BD4FF472
:1031B00080600349086000F005F80120F6E7000090
:1031C000140C014000BF70472DE9FF5F88B09246A4
:1031D0009946DDF85CB0ABF1010004B208E0601E76
:1031E0000AEBC00103C90AEBC40203C2601E04B2A9
:1031F000002CF4DCDDE90801CAE9000100252E46B7
:10320000002418E0169800EBC40003C8CDE90201C1
:103210000AEBC40003C8CDE90001DDE9022304F094
:10322000B9FA2A463346CDE9040104F051F80546BF
:103230000E46601C04B25C45E4DB1998401E04B2E3
:1032400008E0601E09EBC00103C909EBC40203C218
:10325000601E04B2002CF4DC0027B846012418E0FC
:10326000189800EBC40103C9CDE9020109EBC400C1
:1032700003C8CDE90001DDE9022304F08BFA3A46E8
:103280004346CDE9040104F023F807468846601C54
:1032900004B219988442E3DB3A4643462846314655
:1032A00004F068FCC9E90001D9E90001CDE9060193
:1032B000DDE906010CB0BDE8F09F000010B5482024
:1032C00003F0C2FC4FF4A06000F088FD00F090F81D
:1032D00000F0B8FD4FF4E13003F03AFF022013494B
:1032E0000875FFF757FE4FF4487003F0CDFC00F06F
:1032F0000DFA0E49087000F01DF80C49487047217E
:1033000044F61F6001F0F4FC03F00EFE02F0DCFC5A
:1033100000F036FF00F0D4F803F02AFE01F04AFD79
:103320000121034801F0D2FD10BD0000C8010020BA
:10333000000C004010B50A213C2001F09BFA044625
:103340000CB9002010BD782200213C2001F0BAFA0F
:10335000202201213C2001F0B5FA002202213C206C
:1033600001F0B0FA642003F08FFC0120014948709D
:1033700000BFE7E7C801002050B502460B46002118
:1033800000240BE00A2092FBF0F600FB1620303000
:1033900068540A2092FBF0F082B2491C002AF1D155
:1033A00000206854491E03E0685C1855491E641CDF
:1033B0000029F9DA00201855184650BD2DE9F047CC
:1033C00004460D4616463146284604F09BFE8046CC
:1033D00031464FF07E5005F025F88146214604F035
:1033E00091FE0746414604F0DBFCBDE8F087000093
:1033F00008B50121602001F019F90B20ADF800009B
:1034000010208DF8030003208DF8020069460A4859
:10341000FFF764FA0B210848FFF73FFB4FF4A05079
:10342000ADF8000069460548FFF758FA4FF4A0517F
:103430000248FFF732FB08BD0014014000180140AC
:103440001548007D01281ED114480078D8B91448C9
:103450000068144908601248806888601048406815
:103460004860114800681149086000201049086050
:103470001049C860104908601049C86048600120C0
:103480000649087006E00448007D022802D10020A9
:103490000249087070470000C80100208401002024
:1034A000AC080020A0080020980100208C0100201A
:1034B000800100208C080020900100206C08002072
:1034C0002DE9F04186B00024A0460020039004902E
:1034D000059001900290002500260027754908708C
:1034E00000F092FC74A20021084600F069FD77A26A
:1034F0000221002000F064FD77A20421002000F0EA
:103500005FFD40F2DC5003F0BFFB40F2DC5003F003
:10351000BBFBADE0B8F1C80F72DA00F01BF97248DE
:10352000C0797149897940EA012000B26F49088069
:103530006D48407A6C49097A40EA012000B26B4933
:1035400048806948C07A6849897A40EA012000B217
:1035500066498880B1F900100398084403906349D4
:10356000B1F902100498084404906049B1F90410BC
:10357000059808440590BDF904105C48B0F90000B6
:10358000281A04D55948B0F90000401B03E05748F9
:10359000B0F90000281A084400B2ADF80400BDF9E3
:1035A00006105248B0F90200301A04D54F48B0F95D
:1035B0000200801B03E04D48B0F90200301A0844B5
:1035C00000B2ADF80600BDF908104848B0F9040093
:1035D000381A04D54548B0F90400C01B03E043483D
:1035E000B0F90400381A084400B2ADF808003F48AA
:1035F000B0F90050B0F90260B0F9047034E0FFE7B0
:10360000BDF904001E2807DABDF906001E2803DAFA
:10361000BDF908001E280FDB4FF00008002408E069
:10362000002001A921F8140003A941F82400601C1E
:10363000C4B2032CF4DB17E0C82095FBF0F000B215
:103640002A498885C82096FBF0F001B22748C18539
:10365000C82097FBF0F001B22448018601201549EB
:10366000087000202249C87208F1010000F0FF082C
:103670001048007800283FF44DAF1D48007A08B18B
:10368000FEF76CFD002000F0BFFB1AA200210846E7
:1036900000F096FC1AA20221002000F091FC4FF4E9
:1036A000FA6003F0F1FA002000F0AEFB06B0BDE8CE
:1036B000F081000000000020506C65617365204DB2
:1036C000616B6520537572650000000074686520A9
:1036D000506C616E65000000697320486F72697AF2
:1036E0006F6E74616C0000004C020020E401002049
:1036F000C801002043616C6962726174696F6E0079
:10370000436F6D706C6574650000000010B5752125
:10371000D02001F0AFF804460CB9002010BD002203
:103720006B21D02001F0CEF807221921D02001F022
:10373000C9F803221A21D02001F0C4F810221B215D
:10374000D02001F0BFF809221C21D02001F0BAF8E6
:103750000120E3E710B53B21D02001F08BF8284988
:1037600008703C21D02001F085F8254948703D21A2
:10377000D02001F07FF8224988703E21D02001F04E
:1037800079F81F49C8703F21D02001F073F81C4917
:1037900008714021D02001F06DF81949487141218C
:1037A000D02001F067F8164908734221D02001F0BB
:1037B00061F8134948734321D02001F05BF81049A8
:1037C00088714421D02001F055F80D49C871452178
:1037D000D02001F04FF80A4908724621D02001F0AC
:1037E00049F8074948724721D02001F043F80449BD
:1037F00088724821D02001F03DF80149C87210BDFF
:103800004C0200202DE9FF5F8146B048007898B156
:103810000020AE490870AE490860AE490860AE4964
:103820000860002406E00020AC49096821F8140073
:10383000601CC4B2062CF6DB002421E0A748006817
:1038400030F9140039F91410884206DD39F81400F3
:10385000A249096821F8140010E0A048006800EBB4
:103860004400B0F9060039F91410884206DA39F834
:1038700014009A49096801EB4401C880601CC4B275
:10388000032CDBDB9648407A01285FD19549486CD0
:10389000002104F003FC04D29248406C80F0004008
:1038A00001E09048406C05468F4904F0F7FC4DD28A
:1038B0000B218E48FFF7F1F808218C48FFF7EBF851
:1038C0008BA20421002000F049FB8649886A04F09D
:1038D0003BFA8A4A8A4BCDE9000103F05BFF0746B9
:1038E0004FF06042874B03F055FF05460E4678487F
:1038F000006804F029FA82462A46334603F0E8FCC1
:10390000CDE9020103F0B2FC714908600021704862
:10391000006804F0C3FB04D26D48006880F00040EA
:1039200001E06B4800680546774904F0B7FC0DD20A
:1039300002206B494872002000F066FA0B216B48A8
:10394000FFF7ABF802216948FFF7A5F86448407A11
:10395000022857D16349C86B002104F09FFB04D2B1
:103960006048C06B80F0004001E05E48C06B0546D7
:103970005D4904F093FC45D264A20421002000F0CC
:10398000EDFA5849086A04F0DFF982465B4A5C4B5D
:1039900003F000FF07464FF060425A4B03F0FAFE77
:1039A00005460E464C48006804F0CEF92A463346D8
:1039B000CDE9000103F08CFCCDE9020103F056FCD7
:1039C0004549086000214448006804F067FB04D2C0
:1039D0004148006880F0004001E03F48006805462B
:1039E000494904F05BFC0DD203203D4948720B218C
:1039F0003E48FFF752F801213C48FFF74CF8002001
:103A000000F002FA3648407A03285DD13549086C47
:103A1000002104F043FB04D23248006C80F00040E7
:103A200001E03048006C05462F4904F037FC4BD2CA
:103A300039A20421002000F091FA2A49486A04F0D2
:103A400083F905462D4A2E4B03F0A4FE4FF0604249
:103A50002C4BCDE9000103F09DFE074688461D482A
:103A6000006804F071F982463A46434603F030FCA0
:103A7000CDE9020103F0FAFB164908600021154860
:103A8000006804F00BFB04D21248006880F000408C
:103A900001E01048006805461B4904F0FFFB13D203
:103AA000002000F0B1F900200D4948720B210F48A9
:103AB000FEF7F3FF03210D48FEF7EDFF002000F0B5
:103AC000A3F9012006490876BDE8FF9F0F000020FA
:103AD0001800002014000020100000200400002026
:103AE000C8010020E401002000409C450014014072
:103AF000726F74617465206279207A0030689DC8A5
:103B0000FE3F9F3F4D62603F0000B443726F74619F
:103B10007465206279207800726F74617465206228
:103B20007920790000BFFEE72DE9F0410025264904
:103B3000886C04F06BFA07B22349D1F8900004F0C6
:103B400065FA04B22048D0F8D80080F0004630462C
:103B500004F05CFA0FFA80F81C48007D012803D0BD
:103B60001A48007D02280BD1C4F1FA0018490880D8
:103B700004F1FA0048808880C4F1FA00C88006E0A9
:103B80000422FA21124802F05AFC00F0F1FD0F481D
:103B9000407978B1002507E00D4830F815000D494F
:103BA00021F81500681CC5B2042DF5DB094803F0A7
:103BB00063F906E004220021064802F040FC03F00D
:103BC000B3F9BDE8F081000084070020C80100209F
:103BD00060010020580100202DE9F84F80460D4675
:103BE00016461C46DDF8289037462088401C80B2D7
:103BF0002080B84204DD002020800120608007E0A2
:103C00002088B84201D1002001E02088401C60805B
:103C1000208845F82080384604F02CFA83466088D6
:103C200055F82010404604F0FDFB5946009004F082
:103C30002BF98246D9F8001004F0B2F8C9F8000058
:103C4000BDE8F88F2DE9F0438BB004460D46904651
:103C5000042C01DA0B2D03DB00200BB0BDE8F08350
:103C60002648005D401CC0B224490855A84201DB2B
:103C70000020085504EB440000EBC400204901EB90
:103C800080001E49095D40F8218000260CE004EB0D
:103C9000440000EBC4001A4901EB800050F82600F4
:103CA0004DF82600701CC6B2AE42F0DB00261BE0C9
:103CB000002713E07A1C5DF822105DF8270004F05D
:103CC000EDFA09D25DF82790781C5DF820004DF8D8
:103CD0002700781C4DF82090781CC7B2681E801B06
:103CE000B842E7DC701CC6B2681EB042E0DC294670
:103CF00005EBD17040105DF82000AEE70001002018
:103D0000C40600202DE9F04107460E4615469846A8
:103D1000FFF7DCF93846FFF7ABF9FFF725FA304635
:103D2000FFF7A6F9FFF720FAFFF7D0F9791CC8B220
:103D3000FFF79EF9FFF718FA00240DE0FFF76CF982
:103D400008F80400681EA04202D1FFF747F901E01D
:103D5000FFF702F9601CC4B2AC42EFDBFFF7E6F9F3
:103D6000FFF730FABDE8F0817047000070B5002120
:103D700000230F22C47804B3154C246804F4E064D3
:103D8000C4F5E064210AC1F10403CA40447804FA8E
:103D900003F184781440214309010E4C0678A155A3
:103DA000047804F01F050124AC4005786D11AD00C6
:103DB00005F1E025C5F8004109E0047804F01F058D
:103DC0000124AC40044D0678761145F8264070BDBC
:103DD0000CED00E000E400E080E100E00249014376
:103DE000024A1160704700000000FA050CED00E087
:103DF00007E040F2375100BF0A00A1F10101FBD1F9
:103E0000401E0028F5D1704770B50646002415E025
:103E100004F1B001C8B200F059F9012000F056F9E0
:103E2000102000F053F9002504E0304600F07AF944
:103E3000681CC5B2802DF8DB601CC4B2082CE7DB1F
:103E400070BD000008B50121102000F0EFFB0F202D
:103E5000ADF8000003208DF8020010208DF803005B
:103E600069463D48FEF73AFD08213B48FEF715FE3E
:103E700002213948FEF70FFE3220FFF7B9FF022179
:103E80003548FEF70AFE0021AE2000F0EFF80021D1
:103E9000D52000F0EBF80021802000F0E7F80021A9
:103EA000A82000F0E3F800213F2000F0DFF8002117
:103EB000D32000F0DBF80021084600F0D7F80021FD
:103EC000402000F0D3F800218D2000F0CFF8002131
:103ED000142000F0CBF80021202000F0C7F80021CA
:103EE000022000F0C3F80021A12000F0BFF800215B
:103EF000C82000F0BBF80021DA2000F0B7F800215C
:103F0000122000F0B3F80021812000F0AFF800216A
:103F1000EF2000F0ABF80021D92000F0A7F8002135
:103F2000F12000F0A3F80021DB2000F09FF8002131
:103F3000402000F09BF80021A42000F097F8002119
:103F4000A62000F093F80021AF2000F08FF80020A9
:103F5000FFF75AFF08BD0000001001402DE9F047AF
:103F60000446884615464FF00009002600274146C2
:103F7000204600F069F81CE0E85D203800F0FF09F9
:103F80007E2C04DD002408F1010000F0FF0800266B
:103F900009E009EB4901094A02EB4101885D00F0A3
:103FA000C1F8701CC6B2062EF3DBA01DC4B2781C8B
:103FB000C7B2E85D0028DFD1BDE8F087528600086F
:103FC0002DE9F04706460F46904600250024A146FD
:103FD00031E018F809002038C5B2782E02DD00263D
:103FE000781CC7B23946304600F02EF8002407E0AE
:103FF00004EB0511134A505C00F094F8601CC4B245
:10400000082CF5DB781CC1B2304600F01DF8002406
:1040100008E004EB051108310A4A505C00F082F810
:10402000601CC4B2082CF4DB06F10800C6B209F12A
:10403000010000F0FF0918F809000028C9D1BDE807
:10404000F08700004B8B000870B504460D4605F163
:10405000B001C8B200F03AF8102141EA141000F0A3
:1040600035F804F00F0000F031F870BD70B504466B
:104070000E4626B101211448FEF70FFD03E0012191
:104080001148FEF708FD002517E008210E48FEF74D
:1040900002FD04F0800020B104210B48FEF7FDFC76
:1040A00003E004210848FEF7F6FC08210648FEF765
:1040B000F4FC6006040E681CC5B2082DE5DB012186
:1040C0000148FEF7EAFC70BD0010014070B50446DF
:1040D000082501211248FEF7DEFC08211048FEF7F2
:1040E000DAFC00BF16E004F0800020B104210C4887
:1040F000FEF7D3FC03E004210948FEF7CCFC0821BD
:104100000748FEF7CAFC00BF08210548FEF7C3FCBC
:104110006006040E2800A5F10101CDB2E3D170BD07
:104120000010014070B50446082501211348FEF730
:10413000B4FC00BF08211148FEF7ADFC00BF16E03B
:1041400004F0800020B104210C48FEF7A6FC03E037
:1041500004210A48FEF79FFC08210848FEF79DFC51
:1041600000BF08210548FEF796FC6006040E2800F3
:10417000A5F10101CDB2E3D170BD000000100140F6
:1041800000B589B01D208DF8040000208DF80500D1
:1041900002208DF8060001208DF8070001A8FFF726
:1041A000E5FD0121022000F021FA0121082000F0A4
:1041B0003DFA0220ADF8200018208DF823000320DE
:1041C0008DF8220008A91948FEF788FB4720ADF8B2
:1041D00014000020ADF816004FF6FF70ADF818007F
:1041E0000020ADF81A0005A9114801F083F90C2050
:1041F000ADF808000020ADF80A000120ADF80C0071
:104200000020ADF80E000120ADF8100002A908480A
:1042100000F072FF01221021054800F0C3FF0121C8
:10422000034800F053FE09B000BD0000000C01403F
:1042300000040040704700002DE9F05F04464FF095
:104240007F594FF07C51204603F05CFF82462546A3
:104250002E460C48A0EB660635462946504603F02C
:1042600051FF8346294603F04DFF8046494604F03E
:1042700046F80746294603F045FF05462846BDE8AF
:10428000F09F0000DF59375F2DE9F84F0446002505
:10429000E168E06803F036FF0090A168A06803F0D1
:1042A00031FF81466168606803F02CFF8246216817
:1042B000206803F027FF8346514603F071FD8046D6
:1042C000494603F06DFD0746009903F069FD064677
:1042D000FFF7B2FF05462068294603F013FF206070
:1042E0006068294603F00EFF6060A068294603F06D
:1042F00009FFA060E068294603F004FFE060BDE824
:10430000F88F2DE9FF4F87B0044615461E462068FA
:1043100006906768D4F80880E068059031460598F3
:1043200003F0F0FE29460490404603F0EBFE0390B4
:1043300087F000400190089903F0E4FE0290039991
:1043400004F070F88346049904F06CF882461499DE
:1043500003F0D8FE8146216803F022FD206031463B
:10436000404603F0CFFE29460490059803F0CAFEAC
:1043700003900899069803F0C5FE0290039904F093
:1043800051F88346049903F00BFD8246149903F01B
:10439000B9FE8146616803F003FD6060314638462E
:1043A00003F0B0FE29460490069803F0ABFE03909C
:1043B0000899059803F0A6FE0290039903F0F0FC1B
:1043C0008346049904F02EF88246149903F09AFE6D
:1043D0008146A16803F0E4FCA0603146069803F032
:1043E00091FE29460490384603F08CFE039088F035
:1043F00000400190089903F085FE0290039903F0B4
:10440000CFFC8346049903F0CBFC8246149903F059
:1044100079FE8146E16803F0C3FCE0600BB0BDE8C3
:10442000F08F00002DE9F04F85B004460D46E1689D
:10443000E06803F067FE0390A168A06803F062FEE5
:1044400002906168606803F05DFE01902168206859
:1044500003F058FE0090019903F0A2FC83460299F4
:1044600003F0E0FF8246039903F0DCFF0646A168F3
:10447000606803F047FE8346E168206803F042FE6F
:104480005946039003F08CFC82464FF0804103F0C4
:1044900039FE0746A168206803F034FE8346E168D0
:1044A000606803F02FFE5946039003F0BBFF82467D
:1044B0004FF0804103F026FE8046E168A06803F0DB
:1044C00021FE83466168206803F01CFE5946039074
:1044D00003F066FC82464FF0804103F013FE8146F4
:1044E000E168E06803F00EFE0390A168A06803F0A5
:1044F00009FE02906168606803F004FE0190216883
:10450000206803F0FFFD0090019903F08BFF8346C4
:10451000029903F087FF8246039903F041FC04905F
:10452000404601F099FF80F0004028604846049919
:1045300002F0F4F968600748C07810B9054840787F
:1045400020B93146384602F0E9F9A86005B0BDE867
:10455000F08F0000C80100202DE9FE4305460C46FF
:10456000A168206803F0CEFD0746E168606803F0AB
:10457000C9FD8046394603F055FF06464FF080419D
:1045800003F0C0FD0090E168A06803F0BBFD0746A2
:104590006168206803F0B6FD8046394603F000FCF0
:1045A00006464FF0804103F0ADFD0190A168A06880
:1045B00003F0A8FD80466168606803F0A3FD8146B2
:1045C000414603F0EDFB07464FF0804103F09AFDB2
:1045D00006464FF07E5103F092FE0290009828604C
:1045E000019868600298A860BDE8FE8329B1064A78
:1045F000D2690243044BDA6104E0034AD269824380
:10460000014BDA61704700000010024029B1064AF0
:1046100012690243044B1A6104E0034A126982439F
:10462000014B1A61704700000010024029B1064A90
:1046300092690243044B9A6104E0034A92698243FF
:10464000014B9A61704700000010024029B1064AF0
:10465000D2680243044BDA6004E0034AD268824322
:10466000014BDA60704700000010024030B50021B5
:104670000022002400232D4D6D6805F00C0121B1AE
:10468000042905D0082923D105E0294D056022E041
:10469000284D05601FE0254D6D6805F47012234D0F
:1046A0006D6805F48034022505EB92421CB9224D59
:1046B000554305600BE01D4D6D6805F400351DB1D7
:1046C0001B4D5543056002E01A4D5543056002E05D
:1046D000174D056000BF00BF144D6D6805F0F00177
:1046E0000909164D6B5C0568DD4045600F4D6D682E
:1046F00005F4E061090A114D6B5C4568DD40856099
:104700000A4D6D6805F46051C90A0C4D6B5C456833
:10471000DD40C560054D6D6805F44041890B084DCD
:104720006B5CC568B5FBF3F5056130BD0010024058
:1047300000127A000024F40000093D005A00002015
:104740006A0000202DE9F04104460D464FF0C042BA
:10475000054B2046294603F01DF806460022034B70
:1047600002F066FEBDE8F081FB2109400080664052
:1047700000210448016181654163C167C0F8C4102C
:104780007047000084070020704710B500F002F861
:1047900010BD00000CB50020019000903348006867
:1047A00040F480303149086000BF3048006800F4B0
:1047B000003000900198401C0190009818B90198B1
:1047C000B0F5A06FF1D12948006800F4003010B1B5
:1047D0000120009001E0002000900098012843D1C2
:1047E0002348006840F0100021490860084600682E
:1047F00020F0030008600846006840F002000860EE
:104800001A484068194948600846406848600846A8
:10481000406840F4806048600846406820F47C109E
:1048200048600846406840F4F81048600846006850
:1048300040F08070086000BF0C48006800F0007015
:104840000028F9D00948406820F003000749486073
:104850000846406840F00200486000BF03484068D6
:1048600000F00C000828F9D10CBD00000010024037
:104870000020024070B504460D46FEF727FC08B93B
:10488000002070BD2046FEF7F3FBFEF76DFC18B963
:10489000FEF74CFC0020F4E72846FEF7E9FBFEF7A4
:1048A00063FCFEF713FC611CC8B2FEF7E1FBFEF7E8
:1048B0005BFCFEF7B1FB0646FEF790FBFEF736FC0D
:1048C0003046DEE770B506460C461546FEF7FEFBA1
:1048D00008B9002070BD3046FEF7CAFBFEF744FC65
:1048E00018B9FEF723FC0020F4E72046FEF7C0FBD2
:1048F000FEF73AFC2846FEF7BBFBFEF735FCFEF759
:1049000015FC02F09AF90120E4E7704710B513484E
:10491000006840F0010011490860084640681049ED
:1049200008400E494860084600680E4908400B4997
:1049300008600846006820F4802008600846406847
:1049400020F4FE0048604FF41F008860FFF71DFF51
:104950004FF000600449086010BD000000100240E4
:104960000000FFF8FFFFF6FE08ED00E0F0B50C4692
:10497000154600220021068C4FF6FE773E40068445
:10498000028B018C4FF60C7632407E1C06EA031631
:104990002E433243104EB0420ED0104EB0420BD0D8
:1049A000B0F1804F08D00E4EB04205D00D4EB0424F
:1049B00002D00D4EB04206D14FF6FD76314044F0A4
:1049C0000106314305E04FF6F576314044F001062B
:1049D000314302830184F0BD002C014000340140CA
:1049E0000004004000080040000C0040F0B50C46F8
:1049F0001546002200210026078C4FF6EF7C07EABF
:104A00000C070784028B018C4FF6FF7707EA041628
:104A100040F6FF473A404FF6FF7707EA03373A433D
:104A20004FF6FF7707EA05273A43114FB8420ED0F9
:104A3000104FB8420BD0B0F1804F08D00E4FB842A3
:104A400005D00E4FB84202D00D4FB84206D14FF6F6
:104A5000DF77394046F01007394305E04FF65F77BE
:104A6000394044F01007394302830184F0BD00004F
:104A7000002C0140003401400004004000080040C8
:104A8000000C0040F0B50C4615460022002100261F
:104A9000078C4FF6FF6C07EA0C070784828B018CAA
:104AA0004FF6FF7707EA04264FF60C773A404FF6A9
:104AB000FF7707EA03172F433A43114FB8420ED04E
:104AC000104FB8420BD0B0F1804F08D00E4FB84213
:104AD00005D00E4FB84202D00D4FB84206D14FF666
:104AE000FF57394046F48077394305E04FF2FF57CE
:104AF000394044F48077394382830184F0BD00005B
:104B0000002C014000340140000400400008004037
:104B1000000C0040F0B50C4615460022002100268E
:104B2000078C4EF6FF7C07EA0C070784828B018C0A
:104B30004FF6FF7707EA043640F6FF473A404FF654
:104B4000FF7707EA05273A434FF6FF7707EA03376F
:104B50003A43114FB8420ED0104FB8420BD0B0F1CB
:104B6000804F08D00E4FB84205D00E4FB84202D049
:104B70000D4FB84206D14DF6FF77394046F48057C5
:104B8000394305E047F6FF57394044F4805739432D
:104B900082830184F0BD0000002C014000340140FC
:104BA0000004004000080040000C004010B5FDF774
:104BB00035F90121880700F086F910BD70B5102184
:104BC000404800F087FA00287AD010213D4800F0D4
:104BD0007AF902213C48FDF755FF012809D102214D
:104BE000384800F037FC374800F070FA3749088041
:104BF00066E00021334800F02DFC324800F066FAF0
:104C00003349088031480088098888420ADD2F48E6
:104C100000884FF6FF71081A2D49098808442D496C
:104C2000088006E02A48008828490988401A29494E
:104C300008802848008844F62061884204DD264820
:104C400000882449088003E022480088224908801F
:104C50002048008800EB00104000C82190FBF1F4D0
:104C6000204603F0EFF91D49086001201C49087037
:104C70001C4801681948006803F0D4FB054603F09E
:104C8000C5F9041E01DB204600E06042B0F5FA7F62
:104C900007DB1448006811490860002012490870B9
:104CA00002E00120104908700E4801680B480068B6
:104CB00003F0B8FB0D49086008480068094908601E
:104CC00070BD000000040040000C014044000020C2
:104CD0004200002046000020480000203400002050
:104CE000410000203C00002040000020380000204F
:104CF00030B589B004460D4601210420FFF776FC4B
:104D000001210820FFF792FC4FF47070ADF82000ED
:104D100018208DF8230003208DF8220008A92348CD
:104D2000FDF7DCFDA8B2ADF814000020ADF81600C8
:104D3000A0B2ADF818000020ADF81A0005A91C4873
:104D400000F0D8FB6020ADF804000120ADF80600AB
:104D50000020ADF80C0001A9154800F02DFA01A9BA
:104D6000134800F07FFA01A9114800F0DBFA01A90D
:104D70000F4800F031FB08210D4800F069FA0821C6
:104D80000B4800F0C1FA0821094800F01BFB08217C
:104D9000074800F06CFB0121054800F085F801216F
:104DA000034800F093F809B030BD0000000C01404A
:104DB000000800401FB532208DF8000001208DF85A
:104DC00001008DF802008DF803006846FEF7CEFF63
:104DD00001210820FFF70AFC104800F083F840F694
:104DE000C410ADF808004720ADF804000020ADF86D
:104DF0000A00ADF8060001A9084800F07BFB01217C
:104E0000064800F05DF801221146044800F0CAF996
:104E10000021024800F05AF81FBD0000000C0040BD
:104E200010B500241A48008800F0010048B34FF67E
:104E3000FE7017490880FCF7F1FF1648006843F63A
:104E4000972188421ED213480068401C114908600F
:104E5000084600684FF4C871B0FBF1F201FB120084
:104E600078B90D480088401C0B4908800B490A4856
:104E70000088FEF781FA094802F042F908A002F022
:104E80003FF903E0074807C8FDF712FB10BD00001B
:104E9000100C00402C0000203000002028000020D2
:104EA000202020008002002021B1028842F08002F0
:104EB000028004E002884FF67F731A400280704738
:104EC000CA4302827047CA430282704721B10288F6
:104ED00042F00102028004E002884FF6FE731A409D
:104EE0000280704710B504466848844208D1012109
:104EF000C014FFF7ABFB0021E014FFF7A7FBC4E0F1
:104F0000B4F1804F08D101210846FFF77FFB002153
:104F10000120FFF77BFBB8E05D48844208D1012106
:104F20000220FFF773FB00210220FFF76FFBACE0CC
:104F30005848844208D101210420FFF767FB002173
:104F40000420FFF763FBA0E05348844208D101210D
:104F50000820FFF75BFB00210820FFF757FB94E0D8
:104F60004E48844208D101211020FFF74FFB002159
:104F70001020FFF74BFB88E04948844208D101210B
:104F80002020FFF743FB00212020FFF73FFB7CE0C0
:104F90004448844208D101214014FFF757FB002107
:104FA0006014FFF753FB70E03F48844209D10121B0
:104FB000C804FFF74BFB00214FF40020FFF746FB2E
:104FC00063E03A48844209D101210805FFF73EFB1E
:104FD00000214FF48010FFF739FB56E0344884423B
:104FE00009D101214805FFF731FB00214FF40010E2
:104FF000FFF72CFB49E02F48844208D101214020D3
:10500000FFF704FB00214020FFF700FB3DE02A48AA
:10501000844208D101218020FFF7F8FA0021802086
:10502000FFF7F4FA31E02548844208D101218015C8
:10503000FFF7ECFA0021A015FFF7E8FA25E0204879
:10504000844209D101210804FFF700FB00214FF43D
:105050008030FFF7FBFA18E01A48844209D1012199
:105060004804FFF7F3FA00214FF40030FFF7EEFA9F
:105070000BE01548844208D101218804FFF7E6FAC5
:1050800000214FF48020FFF7E1FA10BD002C014011
:105090000004004000080040000C004000100040E8
:1050A0000014004000340140004C01400050014019
:1050B0000054014000180040001C00400020004047
:1050C0000040014000440140004801400146B1F861
:1050D0004000704730B50246002000230024158AA6
:1050E00005EA0103958905EA010413B10CB1012019
:1050F00000E0002030BD000070B505460C46244895
:1051000085420ED0234885420BD0B5F1804F08D0A0
:105110002148854205D02148854202D02048854259
:1051200000D100E000BF208850B92389A28861889F
:105130002846FFF71BFCE188284600F0AEF925E081
:10514000208804280AD12389A28861882846FFF78D
:105150004DFCE188284600F0A9F917E020880828CE
:105160000AD12389A28861882846FFF78BFCE18851
:10517000284600F0A8F909E02389A288618828461A
:10518000FFF7C8FCE188284600F0A6F970BD0000D2
:10519000002C0140003401400004004000080040A1
:1051A000000C00401AB183890B43838102E083899C
:1051B0008B4383817047000070B5002400220023D8
:1051C000058C4FF6FE7635400584028C8388048B6F
:1051D0004FF68F752C40B51E2C400D882C43751E44
:1051E0002A400D892A434D882A43144DA8420BD0EA
:1051F000134DA84208D0134DA84205D0124DA84225
:1052000002D0124DA84213D14FF6F7752A404D89AE
:105210002A434FF6FB752A408D882A434FF6FF65D7
:105220002B404FF6FF552B408D892B43CD892B43C7
:1052300083800483CD888586028470BD002C014064
:10524000003401400040014000440140004801405A
:105250000A460021018B4FF6F77319401143018371
:105260007047000070B5002400220023058C4FF623
:10527000EF7635400584028C8388048B48F6FF75F1
:105280002C404FF6FF452C400D884FF6FF7606EA7E
:1052900005252C434FF6DF752A400D8906EA0515D2
:1052A0002A434D8806EA05152A43154DA84202D027
:1052B000144DA8421DD14FF67F752A404D894FF6F7
:1052C000FF7606EA05152A434FF6BF752A408D88FA
:1052D00006EA05152A434FF6FF352B404FF2FF75BE
:1052E0002B408D8906EA85052B43CD8906EA850585
:1052F0002B4383800483CD880587028470BD000022
:10530000002C0140003401400A460021018B4FF27D
:10531000FF7319404FF6FF7303EA02231943018319
:105320007047000070B5002400220023058C4FF662
:10533000FF6635400584028C8388848B4FF68F7519
:105340002C404FF6FC752C400D882C434FF6FF5532
:105350002A400D894FF6FF7606EA05252A434D8837
:1053600006EA05252A43154DA84202D0144DA8424D
:105370001DD14FF2FF752A404D894FF6FF7606EAA0
:1053800005252A434FF6FF352A408D8806EA052574
:105390002A434EF6FF752B404DF6FF752B408D8945
:1053A00006EA05152B43CD8906EA05152B438380B4
:1053B0008483CD888587028470BD0000002C014065
:1053C000003401400A460021818B4FF6F7731940E3
:1053D000114381837047000070B500220023002430
:1053E000058C4EF6FF7635400584038C8488828BCD
:1053F00048F6FF752A404FF6FF452A400D884FF6C4
:10540000FF7606EA05252A434DF6FF752B400D89E8
:1054100006EA05352B434D8806EA05352B430B4D2F
:10542000A84202D00A4DA84208D14BF6FF752C4085
:105430008D894FF6FF7606EA85152C43848082839A
:10544000CD88A0F84050038470BD0000002C0140BE
:10545000003401400A460021018C4DF6FF731940CB
:105460004FF6FF7303EA02331943018470470A467B
:105470000021818B4FF2FF7319404FF6FF7303EA4F
:1054800002231943818370478186704701877047E3
:1054900081877047A0F840107047028B4FF6F37376
:1054A0001A400283028B0A4302837047028B4FF239
:1054B000FF331A400283028B4FF6FF7303EA012386
:1054C0001A4302837047828B4FF6F3731A4082832C
:1054D000828B0A4382837047828B4FF2FF331A40DC
:1054E0008283828B4FF6FF7303EA01231A43828380
:1054F00070470000002202881D4B98420ED01D4BC1
:1055000098420BD0B0F1804F08D01B4B984205D089
:105510001A4B984202D01A4B984204D14FF68F731F
:105520001A404B881A43174B984207D0164B9842A3
:1055300004D04FF6FF431A40CB881A4302808B8871
:1055400083850B8803850A4B98420BD0094B984200
:1055500008D00E4B984205D00D4B984202D00D4B0F
:10556000984201D10B7A03860123838270470000A1
:10557000002C0140003401400004004000080040BD
:10558000000C0040001000400014004000400140AA
:10559000004401400048014010B504462046FDF794
:1055A00049FB0C4800680C49086000210A48006863
:1055B00002F074FD01D2002009E0084906480068A5
:1055C00002F06CFE01D2054801E003480068024980
:1055D000086010BD7C0100207001002000004844DC
:1055E00010B540F22551064800F073F830B1044878
:1055F00000F02AF9C4B22046FCF7EEFE10BD000010
:105600000048004021B1828942F40052828104E0C6
:1056100082894DF6FF731A408281704710B50446A7
:105620002048844209D101218803FFF70FF80021A7
:105630004FF48040FFF70AF832E01B48844209D15A
:1056400001214804FEF7E2FF00214FF40030FEF78D
:10565000DDFF25E01548844209D101218804FEF7C9
:10566000D5FF00214FF48020FEF7D0FF18E010484E
:10567000844209D10121C804FEF7C8FF00214FF47C
:105680000020FEF7C3FF0BE00A48844208D1012145
:105690000805FEF7BBFF00214FF48010FEF7B6FFB0
:1056A00010BD0000003801400044004000480040A8
:1056B000004C00400050004002460020B1F5007F41
:1056C00000D100BF13880B400BB1012000E0002087
:1056D000704770B50246002400230025002040F6E4
:1056E0006A16B14200D100BFC1F3421501F01F0399
:1056F000012606FA03F3012D02D19689334006E014
:10570000022D02D1168A334001E0968A33400C12F2
:10571000012606FA04F41688344013B10CB10120B6
:1057200000E0002070BDF0B50346002400260025EF
:10573000002040F66A17B94200D100BF1846C1F3F5
:10574000421401F01F06012707FA06F5012C01D1CA
:105750000C3004E0022C01D1103000E014301AB1FA
:1057600007682F43076002E00768AF430760F0BD9A
:105770002DE9F04786B005460E460024A24600BF3C
:10578000A1460027B08900B100BF2F462C8A4CF6F5
:10579000FF700440F08804432C82AC894EF6F3106D
:1057A0000440B08831890843718908430443AC81BF
:1057B000AC8A4FF6FF400440B0890443AC8201A894
:1057C000FEF754FF1F48874202D1DDF810A001E028
:1057D000DDF80CA0A88900F4004040B10AEBCA0033
:1057E00000EB0A1031684900B0FBF1F807E00AEB62
:1057F000CA0000EB0A1031688900B0FBF1F86420A0
:10580000B8FBF0F004012009642101FB1089A8898C
:1058100000F4004040B1322000EBC900B0FBF1F0D1
:1058200000F00700044308E0322000EB0910642177
:10583000B0FBF1F000F00F0004432C8106B0BDE88E
:10584000F08700000038014001468888C0F3080056
:105850007047C1F308028280704700002DE9F047CD
:1058600004460D4641480560414801683F480068CC
:1058700002F0D8FD06463F480168304602F042FC7F
:105880003D4908600A4611683A4A906802F03AFCBD
:105890000746214602F036FC06463748C1683046C6
:1058A00002F07EFA3449C860C868344902F0F6FB59
:1058B00001D2324809E03049C868314902F0EEFCB3
:1058C00001D22F4801E02C48C0682B49C8600A4625
:1058D0005168106802F0A6FD81464FF07C5102F03D
:1058E00011FC07462748006880F0004A21465046D0
:1058F00002F008FC81464FF07C5102F003FC804628
:10590000394602F04DFA06461A484168304602F020
:10591000F9FB194988600A46D168106802F040FA1C
:10592000064615488168304602F03AFA1249086185
:105930000869154902F0B2FB01D2134809E00E498B
:105940000869124902F0AAFC01D2104801E00A4895
:10595000006909490861084600690D490860064860
:10596000006805494860BDE8F08700008C01002010
:1059700098010020800800206C080020000096C3D9
:1059800000009643A00100200000FAC30000FA4383
:105990009C0100204FF07C50034908600020886083
:1059A0000248486070470000800800200000204046
:1059B0002DE9F84F0546B748052102680120FEF79A
:1059C00041F90090B449009802F068FB42D2B34814
:1059D0000168009802F026FD0746002102F05EFCF7
:1059E00005D2AE480168009802F01CFD06E0AB4805
:1059F0000168009802F016FD80F000400646A849B4
:105A000002F04CFB27D2A5480168009802F00AFD7D
:105A10008246A449284602F075FB834659464FF05A
:105A20007E5002F031FA81464FF07E5102F0B8F913
:105A3000804641464FF07E5002F026FA0746514616
:105A400002F060FB064695480168304602F0A8F96E
:105A500092490860AEE091480168009802F0E2FCCB
:105A60000746002102F01AFC05D28C480168009814
:105A700002F0D8FC06E089480168009802F0D2FCE8
:105A800080F000400646884902F008FB27D2834890
:105A90000168009802F0C6FC82468449284602F05C
:105AA00031FB834659464FF07E5002F0EDF98146B6
:105AB0004FF07E5102F074F9804641464FF07E501F
:105AC00002F0E2F90746514602F01CFB0646734815
:105AD0000168304602F064F9704908606AE06F4876
