:020000040800F2
:1000000060060020B101000805060008AB050008E5
:1000100001060008630200086D0C000800000000E3
:100020000000000000000000000000001D0B0008A0
:100030006702000800000000F90A0008090C000827
:10004000CB010008CB010008CB010008CB01000860
:10005000CB010008CB010008CB010008CB01000850
:10006000CB010008CB010008CB010008CB01000840
:10007000CB010008CB010008CB010008CB01000830
:10008000CB010008CB010008CB010008CB01000820
:10009000CB010008CB010008CB010008CB01000810
:1000A000CB010008CB010008CB010008CB01000800
:1000B000CB010008CB010008CB010008CB010008F0
:1000C000CB010008CB010008CB010008CB010008E0
:1000D000CB010008CB010008CB010008CB010008D0
:1000E000CB010008CB010008CB010008CB010008C0
:1000F000CB010008CB010008CB010008CB010008B0
:10010000CB010008CB010008CB010008CB0100089F
:10011000CB010008CB010008CB010008CB0100088F
:10012000CB010008CB010008CB010008CB0100087F
:1001300000F002F800F02CF80AA090E8000C8244CD
:100140008344AAF10107DA4501D100F021F8AFF2AA
:10015000090EBAE80F0013F0010F18BFFB1A43F0A5
:10016000010318476C1D00007C1D000000230024C3
:1001700000250026103A28BF78C1FBD8520728BFB7
:1001800030C148BF0B6070471FB51FBD10B510BD13
:1001900000F031F81146FFF7F7FF00F07FFD00F0A7
:1001A0004FF803B4FFF7F2FF03BC00F053F8000070
:1001B0000948804709480047FEE7FEE7FEE7FEE7FB
:1001C000FEE7FEE7FEE7FEE7FEE7FEE70448054937
:1001D000054A064B704700000D0C0008310100086D
:1001E0006000002060060020600200206002002005
:1001F000704770477047754600F028F8AE46050016
:100200006946534620F00700854618B020B5FFF731
:10021000DDFFBDE820404FF000064FF000074FF033
:1002200000084FF0000B21F00701AC46ACE8C00914
:10023000ACE8C009ACE8C009ACE8C0098D4670471D
:100240000446AFF300802046FFF7ABFF004870473D
:100250000000002001491820ABBEFEE72600020086
:10026000704700BFFEE770472DE9FF4F87B0824619
:1002700091461D464FF0000829460A2000F0AAFDCD
:10028000019000F0CFFD4946029000F0DFFD83466B
:1002900000F0ACFD0646002E03DB20208DF80C009C
:1002A00003E076422D208DF80C000B240BE0601E3D
:1002B000C1B20A2000F08EFDB6FBF0F008B1A046F6
:1002C00003E0601EC4B2002CF1DC00BFA8EB050007
:1002D000002821DC30208DF80D002E208DF80E0036
:1002E000002412E0281B401EC1B20A2000F072FD5B
:1002F000B6FBF0F00A21B0FBF1F201FB1200303046
:1003000003AAE11C5054601CC4B2AC42EADD0021D7
:1003100003AAE81C11543AE0002413E0A8EB0400FF
:10032000401EC1B20A2000F055FDB6FBF0F00A21D4
:10033000B0FBF1F201FB1200303003AA611C5054F3
:10034000601CC4B2A8EB0500A042E7DC2E2103AA82
:10035000601C1154002713E0E81B401EC1B20A20A4
:1003600000F038FDB6FBF0F00A21B0FBF1F201FB22
:1003700012003030A11C394403AA5054781CC7B273
:10038000AF42E9DD002103AA08F10200115403AADB
:100390005046089900F06CFA0BB0BDE8F08F2DE9DB
:1003A000FE438046894615461E460021701C0DF806
:1003B0000010002D03DB20208DF8000003E06D42CB
:1003C0002D208DF80000002413E0301B401EC1B228
:1003D0000A2000F0FFFCB5FBF0F00A21B0FBF1F2BF
:1003E00001FB120707F13000C1B2601C0DF80010CC
:1003F000C4B2B442E9DB6A464946404600F038FAE6
:10040000BDE8FE832DE9FE438046894616461C461C
:1004100000200DF80400002513E0601B401EC1B24F
:100420000A2000F0D7FCB6FBF0F00A21B0FBF1F295
:1004300001FB120707F13000C0B20DF80500681C7F
:10044000C5B2A542E9DB6A464946404600F010FACB
:10045000BDE8FE8370B50026002411E0214600208F
:1004600000F0AEFA002507E03146761C064A505CE3
:1004700000F014FB681CC5B2802DF5DB601CC4B213
:10048000082CEBDB70BD0000CD1A00082DE9F0410F
:10049000024600250026002000230024002791F8B2
:1004A00003C00CF00F0591F803C00CF0100CBCF168
:1004B000000F03D091F802C04CEA050591F800C086
:1004C000BCF1000F31D0146800202BE04FF0010C7C
:1004D0000CFA00F3B1F800C00CEA03069E4220D1EA
:1004E00083004FF00F0C0CFA03F7BC4305FA03FC32
:1004F0004CEA040491F803C0BCF1280F06D14FF078
:10050000010C0CFA00FCC2F814C00AE091F803C018
:10051000BCF1480F05D14FF0010C0CFA00FCC2F8F9
:1005200010C0401C0828D1D31460B1F800C0BCF141
:10053000FF0F34DD546800202EE000F1080C4FF06E
:10054000010808FA0CF3B1F800C00CEA03069E4259
:1005500021D183004FF00F0C0CFA03F7BC4305FACE
:1005600003FC4CEA040491F803C0BCF1280F05D148
:1005700000F1080C08FA0CF8C2F8148091F803C0D6
:10058000BCF1480F07D100F1080C4FF0010808FA40
:100590000CF8C2F81080401C0828CED35460BDE887
:1005A000F081416170470161704700BFFEE70000C4
:1005B00008B50121602000F0A1FA0B20ADF8000081
:1005C00010208DF8030003208DF8020069460A48C8
:1005D000FFF75CFF0B210848FFF7E5FF4FF4A05041
:1005E000ADF8000069460548FFF750FF4FF4A051F1
:1005F0000248FFF7D8FF08BD001401400018014071
:1006000000BFFEE7704707E040F2375100BF0A0025
:10061000A1F10101FBD1401E0028F5D1704770B552
:100620000646002415E004F1B001C8B200F00AFA51
:10063000012000F007FA102000F004FA002504E081
:10064000304600F02BFA681CC5B2802DF8DB601C28
:10065000C4B2082CE7DB70BD08B50121102000F002
:100660004DFA0F20ADF8000003208DF80200102095
:100670008DF8030069463D48FFF708FF08213B4815
:10068000FFF791FF02213948FFF78BFF3220FFF778
:10069000BAFF02213548FFF786FF0021AE2000F0A7
:1006A000A1F90021D52000F09DF90021802000F063
:1006B00099F90021A82000F095F900213F2000F0D1
:1006C00091F90021D32000F08DF90021084600F0B7
:1006D00089F90021402000F085F900218D2000F0EB
:1006E00081F90021142000F07DF90021202000F084
:1006F00079F90021022000F075F90021A12000F015
:1007000071F90021C82000F06DF90021DA2000F015
:1007100069F90021122000F065F90021812000F024
:1007200061F90021EF2000F05DF90021D92000F0EF
:1007300059F90021F12000F055F90021DB2000F0EB
:1007400051F90021402000F04DF90021A42000F0D3
:1007500049F90021A62000F045F90021AF2000F062
:1007600041F90020FFF75BFF08BD000000100140C9
:100770002DE9F04781460F469046002400260125CA
:100780006BE00024012513E03748005D18F80610DF
:1007900088420BD13449601C095C701C18F80000B9
:1007A000814203D1C4EBC400450005E0A01CC4B2E3
:1007B0002D48005D7F28E7DC00BFB9F1760F03DD2F
:1007C0004FF00009781CC7B23946484600F0F8F8E7
:1007D000012D1FD03946484600F0F2F8002406E00B
:1007E0002249485D00F05AF96D1C601CC4B20E2C01
:1007F000F6DB781CC1B2484600F0E2F8002406E0BF
:100800001A49485D00F04AF96D1C601CC4B20E2CF8
:10081000F6DB1CE0701CC6B23946484600F0D0F842
:10082000002404E0002000F039F9601CC4B2102C50
:10083000F8DB781CC1B2484600F0C2F8002404E09E
:10084000002000F02BF9601CC4B2102CF8DB09F179
:100850000E0000F0FF09B01CC6B218F80600002810
:100860008FD1BDE8F08700000C1200083D1200088F
:100870002DE9F0470446884615464FF0000900264A
:1008800000274146204600F09BF81CE0E85D203838
:1008900000F0FF097E2C04DD002408F1010000F0C7
:1008A000FF08002609E009EB4901094A02EB410172
:1008B000885D00F0F3F8701CC6B2062EF3DBA01DB5
:1008C000C4B2781CC7B2E85D0028DFD1BDE8F0876C
:1008D000E40F00082DE9F04706460F469046002534
:1008E0000024A14631E018F809002038C5B2782E5E
:1008F00002DD0026781CC7B23946304600F060F8A9
:10090000002407E004EB0511134A505C00F0C6F820
:10091000601CC4B2082CF5DB781CC1B2304600F074
:100920004FF8002408E004EB051108310A4A505C36
:1009300000F0B4F8601CC4B2082CF4DB06F1080027
:10094000C6B209F1010000F0FF0918F809000028FB
:10095000C9D1BDE8F0870000DD140008F8B50646EF
:100960000F461546002427E0285D7F2814DD285D0A
:100970008DF80000601C285C8DF8010000208DF8C7
:1009800002006A4639463046FFF7F2FE06F10E00D5
:10099000C6B2A01CC4B20FE0285D8DF80000002094
:1009A0008DF801002A1939463046FFF793FF06F10A
:1009B0000800C6B2601CC4B2285D0028D4D1F8BDBE
:1009C00070B504460D4605F1B001C8B200F03AF822
:1009D000102141EA141000F035F804F00F0000F087
:1009E00031F870BD70B504460E4626B10121144899
:1009F000FFF7D9FD03E001211148FFF7D2FD0025E3
:100A000017E008210E48FFF7CCFD04F0800020B16C
:100A100004210B48FFF7C7FD03E004210848FFF756
:100A2000C0FD08210648FFF7BEFD6006040E681CE5
:100A3000C5B2082DE5DB01210148FFF7B4FD70BD0B
:100A40000010014070B50446082501211248FFF747
:100A5000A8FD08211048FFF7A4FD00BF16E004F030
:100A6000800020B104210C48FFF79DFD03E0042124
:100A70000948FFF796FD08210748FFF794FD00BFDE
:100A800008210548FFF78DFD6006040E2800A5F13A
:100A90000101CDB2E3D170BD0010014070B5044634
:100AA000082501211348FFF77EFD00BF08211148EA
:100AB000FFF777FD00BF16E004F0800020B10421AD
:100AC0000C48FFF770FD03E004210A48FFF769FDB9
:100AD00008210848FFF767FD00BF08210548FFF718
:100AE00060FD6006040E2800A5F10101CDB2E3D13E
:100AF00070BD0000001001407047000029B1064A97
:100B000092690243044B9A6104E0034A926982436A
:100B1000014B9A617047000000100240704710B509
:100B200000F002F810BD00000CB50020019000900C
:100B30003348006840F480303149086000BF3048D5
:100B4000006800F4003000900198401C019000986B
:100B500018B90198B0F5A06FF1D12948006800F4E8
:100B6000003010B10120009001E0002000900098BA
:100B7000012843D12348006840F010002149086053
:100B80000846006820F0030008600846006840F04E
:100B9000020008601A4840681949486008464068E1
:100BA00048600846406840F48060486008464068F5
:100BB00020F47C1048600846406840F4F810486013
:100BC0000846006840F08070086000BF0C4800686C
:100BD00000F000700028F9D00948406820F00300B8
:100BE000074948600846406840F00200486000BF7E
:100BF0000348406800F00C000828F9D10CBD000043
:100C000000100240002002407047000010B5134859
:100C1000006840F00100114908600846406810492A
:100C200008400E494860084600680E4908400B49D4
:100C300008600846006820F4802008600846406884
:100C400020F4FE0048604FF41F008860FFF767FF44
:100C50004FF000600449086010BD00000010024021
:100C60000000FFF8FFFFF6FE08ED00E000BFFEE722
:100C700042F2283141434FF0E022516101211161DC
:100C800000BF4FF0E021096901F480310029F8D05C
:100C900000214FF0E022116170470000FFF788FC4F
:100CA000FFF7DAFCFFF7D6FB4FF47A70FFF7E0FFAF
:100CB0004FF47A70FFF7DCFF4FF47A70FFF7D8FF3C
:100CC00069E000203449086001203449C1F88401FA
:100CD0000020FFF7A4FC32A200212420FFF73EFEF3
:100CE00032A202210020FFF739FE0223324A0321FB
:100CF0005920FFF7B9FA31A204210020FFF72EFE98
:100D000004237B2205215920FFF77CFB2EA206211C
:100D10000020FFF723FE04236FF07A0207215920F9
:100D2000FFF73DFB4FF47A70FFF7A2FF4FF47A70A4
:100D3000FFF79EFF4FF47A70FFF79AFF01201649E4
:100D4000086000201549C1F88401FFF768FCFFF72F
:100D500081FB4FF47A70FFF78BFF0020FFF75FFCF9
:100D60004FF47A70FFF784FFFFF774FB4FF47A704B
:100D7000FFF77EFFFF20FFF752FC4FF47A70FFF77A
:100D800077FFFFF767FB4FF47A70FFF771FF4FF4BF
:100D90007A70FFF76DFF94E7808122420080224243
:100DA000BAE3CDD8BFC6BCBC00000000666C6F6162
:100DB0007420747970653A00A4709DBF756E696E79
:100DC0007420747970653A00696E74207479706566
:100DD0003A00000010B50246012000E050430B002D
:100DE000A1F10104E1B2F9D110BD000041000B0EE8
:100DF000D3F19E0208D950F400034FEA032323FAEB
:100E000002F048BF4042704710B500F0A0F800BFA4
:100E100049922480002070476FF0004282EA20004F
:100E200070470000B0FA80F310FA03F2C3F19D039B
:100E30000AD0D90501EB1220530638BF704700F1E4
:100E4000010008BF20F00100704700004FF47F0C44
:100E50001CEAD0121EBF1CEAD11392EA0C0F93EACF
:100E60000C0F00F0478090EA010F48BF42F48072F7
:100E70004FF0004C4CEA00204CEA012102EB030247
:100E8000A0FB0113A2F50002002918BF43F00103E3
:100E90005B0028BF4FEA330342EB22425FEA132C88
:100EA0004CEBC2502EBFBCEB436FB2F57C0F7047CA
:100EB0004FEA036CBCF1004F08BF20F00100B2F50F
:100EC0007C0F38BF70470BD582F0FF0212F5803FD0
:100ED000C8BF704700F1C040D8BF00F00040704765
:100EE00000F5000C5FEA4C0C48BF7047B0F1C04001
:100EF00000F073B890EA010F0CEAD11348BF42F436
:100F00008072624538BF634504D280EA010000F078
:100F10000040704710B500F01AF800BF8900013E8C
:100F200000F007B800F009B85FEA410C5FEA1C6CFA
:100F300008D080EA010000F050B85FEA400C5FEA98
:100F40001C6CF6D14FF00040A0F5800070470EF108
:100F5000020E2EF0030E5EF8044B244204D44FEA36
:100F60004102B2F17F4F11D84FEA4003B3F17F4FF6
:100F70000CD80ED14FEAD07CB2F17F4F0CEB4C0C69
:100F80000CF1020C08BF4CEBD17C04E04FF0080CD4
:100F900001E04FEAD17C0CEB4C0324FA03F404F09B
:100FA0000704B4F1040C06D20EEB840CBDE810402B
:100FB0004CF0010C6047DFE80CF0070802024FF02C
:100FC0000040A0F5800010BD0846420018BFD2F1D5
:100FD000807288BF00F0004010BDFF2141EAD05070
:100FE000C00570470000000000000000002F000056
:100FF00000000700070000147F147F1400242A7FDC
:101000002A1200626408132300364955225000005A
:101010000503000000001C224100000041221C00CA
:101020000014083E08140008083E0808000000A04C
:101030006000080808080808000060600000002040
:1010400010080402003E5149453E0000427F400026
:10105000004261514946002141454B3100181412AC
:101060007F10002745454539003C4A494930000179
:101070007109050300364949493600064949291EC8
:10108000000036360000000056360000081C2A49D1
:1010900008080014141414140808492A1C08000233
:1010A0000151090600324959513E007C1211127C4F
:1010B000007F49494936003E41414122007F41417C
:1010C000221C007F49494941007F09090901003E6E
:1010D0004149497A007F0808087F0000417F4100AC
:1010E000002040413F01007F08142241007F404022
:1010F0004040007F020C027F007F0408107F003E0A
:101100004141413E007F09090906003E4151215EEF
:10111000007F091929460046494949310001017FEC
:101120000101003F4040403F001F2040201F003F82
:101130004038403F00631408146300070870080734
:1011400000615149454300007F41410000552A5547
:101150002A55000041417F000402FF0204000020E4
:1011600040FF402000000102040000205454547845
:10117000007F484444380038444444200038444404
:10118000487F00385454541800087E0901020018A2
:10119000A4A4A47C007F080404780000447D4000DF
:1011A000004080847D00007F102844000000417FC3
:1011B0004000007C04180478007C0804047800389F
:1011C0004444443800FC242424180018242418FC27
:1011D000007C0804040800485454542000043F4490
:1011E0004020003C4040207C001C2040201C003C53
:1011F0004030403C004428102844001CA0A0A07CA3
:10120000004464544C44141414141414BAE3CDD898
:10121000BFC6BCBCB5E7B5F7D0A3D7BCC7EBBDAB69
:10122000B7C9D0D0C6F7D6C3D3DACBAEC6BDD7B414
:10123000CCACC7D2B1A3B3D6BEB2D6B900E000FFE2
:10124000102002F29292929292F2020000FF0000AD
:10125000404F44444444444F401010FF1090040455
:1012600084E49C8484840444827F01040201FF405E
:10127000404040FF0024A4FEA3220022CC0000FF37
:101280000000000601FF00010404040404FF020240
:10129000021010FF109008888888FF88888808440A
:1012A000827F01808040432C102846818000F8888E
:1012B000888888FF88888888F80000001F08080848
:1012C000087F888888889F80F042CC0000FE829248
:1012D00092FE929282FE00003F10887F001E121242
:1012E000125E807F0010D0FF9010804828090E0801
:1012F0002848880300FF00018080432C102C438085
:1013000080020CE04020F84F4849FE484848080455
:101310007F000000FF2222223F2222222042CC0016
:1013200000445454547F5454544440007F201000CF
:10133000FF15151555957F0000083000FF008884C3
:10134000532212CA060000040201FF00020A1242E0
:10135000827F0202020202020202020202FE40A098
:101360001008000000000000000000030C102142E3
:10137000F01088C4330040424242C242424240011F
:1013800000FF0000000040807F00000000809E926F
:1013900092929EE0809EB2D2929E8008F4949292A5
:1013A000F10001F2929494F8081715D55557557D20
:1013B000555755D515170040407F5555555555552E
:1013C000557F404040404242424242FE42424242F9
:1013D0004240400000000040807F0000000000000C
:1013E00000202020A06000FF608040201800001036
:1013F00008060140807F000102040810100202125A
:10140000620202FE020242320202000101010101F7
:1014100001FF01010101010101083000FF2020202E
:1014200020FF2020222C20040201FF8040300E01EA
:1014300006182040800484844424548F1424448457
:101440008404003900003C4040424C404070040994
:10145000310000FE22222222222222FE0000004031
:10146000407F424242424242427F4040408060F8D8
:1014700007003E2222E222223E00000000FF20114F
:10148000090503FF03050911201010FF1010404843
:1014900048487F48C8484044827F010002020A123F
:1014A00042827F020254547F545444202827E4345B
:1014B0002CE000FF1555957F000949897F09091F18
:1014C000010000F0000000FF4040404040000040AC
:1014D000407F4040407F404040404040400000004E
:1014E00000000000000000000000000000000000FC
:1014F000F800000000000000333000000000100C75
:1015000006100C0600000000000000000040C0783B
:1015100040C0784000043F04043F04040000708889
:10152000FC08300000001820FF211E0000F008F029
:1015300000E018000000211C031E211E0000F0081E
:1015400088700000001E2123241927211010160E78
:10155000000000000000000000000000000000008B
:10156000E0180402000000000718204000000204F8
:1015700018E00000000040201807000000404080F4
:10158000F0804040000202010F0102020000000052
:10159000F0000000000101011F0101010000000036
:1015A000000000000080B07000000000000000009B
:1015B0000000000000000101010101010100000024
:1015C00000000000000030300000000000000000BB
:1015D0000080601804006018060100000000E010A0
:1015E000080810E000000F102020100F000010105D
:1015F000F8000000000020203F20200000007008BC
:1016000008088870000030282422213000003008AB
:1016100088884830000018202020110E000000C0EB
:101620002010F8000000070424243F240000F808DC
:1016300088880808000019212020110E0000E01001
:101640008888180000000F112020110E00003808B3
:1016500008C83808000000003F0000000000708843
:101660000808887000001C222121221C0000E010C4
:10167000080810E0000000312222110F00000000D5
:10168000C0C000000000000030300000000000007A
:10169000800000000000008060000000000000806A
:1016A00040201008000001020408102000404040C3
:1016B00040404040000404040404040400000810F6
:1016C0002040800000002010080402010000704843
:1016D000080808F0000000003036010000C030C8E3
:1016E00028E810E0000718272423140B000000C08E
:1016F00038E0000000203C23020227382008F88848
:101700008888700000203F202020110E00C0300883
:101710000808083800071820202010080008F808DA
:10172000080810E000203F202020100F0008F88853
:1017300088E8081000203F20202320180008F8889F
:1017400088E8081000203F200003000000C0300897
:10175000080838000007182020221E020008F80898
:10176000000008F808203F210101213F200008085F
:10177000F8080800000020203F202000000000089A
:1017800008F8080800C08080807F00000008F88802
:10179000C028180800203F20012638200008F8083B
:1017A0000000000000203F20202020300008F8F832
:1017B00000F8F80800203F003F003F200008F83004
:1017C000C00008F808203F200007183F00E010087C
:1017D000080810E0000F10202020100F0008F80863
:1017E000080808F000203F210101010000E0100876
:1017F000080810E0000F18242438504F0008F8881B
:101800008888887000203F2000030C3020007088FA
:1018100008080838000038202121221C0018080878
:10182000F8080818000000203F2000000008F80811
:10183000000008F808001F202020201F00087888DA
:101840000000C83808000007380E010000F8080042
:10185000F80008F800033C0700073C03000818687C
:10186000808068180820302C03032C30200838C8EA
:1018700000C83808000000203F20000000100808C1
:1018800008C8380800203826212020180000000051
:10189000FE020202000000007F40404000000C30C9
:1018A000C000000000000000010638C00000020275
:1018B00002FE000000004040407F000000000004E5
:1018C000020202040000000000000000000000000E
:1018D0000000000000808080808080808000020204
:1018E0000400000000000000000000000000008074
:1018F00080808000000019242222223F2008F80066
:101900008080000000003F112020110E0000000028
:101910008080800000000E112020201100000000B7
:10192000808088F800000E112020103F20000080E9
:101930008080800000001F2222222213000080806D
:10194000F0888888180020203F20200000000080B8
:101950008080808000006B94949493600008F8006D
:101960008080800000203F210000203F20008098E0
:1019700098000000000020203F2020000000000010
:10198000809898000000C08080807F000008F800E8
:101990000080808000203F24022D302000000808B5
:1019A000F8000000000020203F2020000080808000
:1019B0008080808000203F20003F20003F8080000A
:1019C0008080800000203F210000203F2000008018
:1019D0008080800000001F202020201F00808000C9
:1019E000808000000080FFA12020110E0000000078
:1019F0008080808000000E112020A0FF80808080E9
:101A0000008080800020203F212000010000008015
:101A100080808080000033242424241900008080EA
:101A2000E0808000000000001F2020000080800077
:101A30000000808000001F202020103F2080808038
:101A4000000080808000010E3008060100808000C8
:101A500080008080800F300C030C300F00008080ED
:101A600000808080000020312E0E31200080808098
:101A7000000080808080818E7018060100008080C8
:101A800080808080000021302C2221300000000066
:101A900000807C020200000000003F404000000087
:101AA00000FF00000000000000FF00000000020234
:101AB0007C800000000040403F000000000000006B
:101AC0000000008080000000000000010100000014
:101AD0000000000000000000000000000000000006
:101AE00000000000000000000000000000000000F6
:101AF00000000000000000000000000000181C3C76
:101B00003C7CFC3C3C7CD800000000000000000055
:101B100000000000000000000000000000000000C5
:101B200000000000000000000000000000000000B5
:101B300000000000000000000000000000000000A5
:101B40000000000000000000000000000000000095
:101B50000000000000000000000000000000000085
:101B600000000000000000000000002060E0C0C095
:101B7000C0C080C080000000000000000000000025
:101B80000000FF8040201F00000000000000000057
:101B90000000000000000000000000000000000045
:101BA0000080C08080C0C0C0C06060000000000035
:101BB0000000000000000000000000000000000025
:101BC0000000000000000000000000000000000015
:101BD0000000000000000000000000000000000005
:101BE00000000000000000000000000000000001F4
:101BF0000119FFFFFFFF73F2F6E4E4ECC8C8C0C0B0
:101C000080F0FFF0E0F0D0D8FCFEFFFFFFFFFCC04B
:101C1000C0C0E0E0F0F0E0C0C0C4E4E4E2F2727BF7
:101C2000FFFFFFFF1901010100000000000000009C
:101C300000000000000000000000000000000000A4
:101C40000000000000000000000000000000000094
:101C50000000000000000000008080808080808004
:101C6000C040C0F0F8F0F0E060F0F07070707030DC
:101C700030303FBF9F98988888C9C9C3C3E7EFFF3A
:101C8000FFFFFFFFFFFFFFFFFFFFFFFFFFFFFFFF64
:101C9000FFFFFFFFFFFFFFFFF7E3E3C1C9C8C8C8AD
:101CA000999F9F9FB838383030307070707070F0E6
:101CB000F8F8F8F0E0604040404040C0C0C080808C
:101CC000808080808080000000000000000602020A
:101CD00002020303030101010101010101010000EE
:101CE0002070FFFFFFFFFFFFFE7E3E3E3E3E3F1F98
:101CF0001F1F1F1F1F1F0F0F0F0F0F0F07030101C4
:101D0000010103878F8F8F87BFFFFFFFFFFFFFDF7B
:101D100087878F878103030101010107070F0F0FD9
:101D20000F1F1F1F1F1F1F1F1F3F3F3E3E3C7FFFF8
:101D3000FFFFFFFFFF381000000000000000000060
:101D40000000000101010101010101010100000089
:101D50000000000000000000000000000000000083
:101D6000000003FFFFFFFF1F010000000000000054
:101D70000000000000000000000000000000000063
:101D80000000003F3F3F3F3F3F7FFFFFFFFFFFFF60
:101D9000FFFFFFFFFF1F0000000000000000000029
:101DA0000000000000000000000000000000000330
:101DB000FFFFFFFF03000000000000000000000024
:101DC0000000000000000000000000000000000013
:101DD0000000000000000000000000000000000003
:101DE00000000007FFFFFF000000000000000000EF
:101DF00000000000000000000000000000000000E3
:101E000000000000000000000000000000000000D2
:101E100000000000000000000000000000000000C2
:101E200000000000000000000000000000000000B2
:101E300003FFFF030000000000000000000000009E
:101E40000000000000000000000000000000000092
:101E50000000000000000000000000000000000082
:101E600000000000F0FFFFF0C000000000000000D4
:101E70000000000000000000000000000000000062
:101E80000000000000000000000000000000000052
:101E90000000000000000000000000000000000042
:101EA0000000000000000000000000000000000032
:101EB0007C7F7F7800000000000000000000000030
:101EC0000000000000000000000000000000000012
:101ED000E01E000800000020600600006C01000801
:0400000508000131BD
:00000001FF
